{"contracts/koalas.sol":{"koalas":{"abi":[{"inputs":[{"internalType":"address","name":"_koalasersDAO","type":"address"},{"internalType":"address","name":"_minter","type":"address"},{"internalType":"contract IKoalasDescriptor","name":"_descriptor","type":"address"},{"internalType":"contract IKoalasSeeder","name":"_seeder","type":"address"},{"internalType":"contract IProxyRegistry","name":"_proxyRegistry","type":"address"}],"stateMutability":"nonpayable","type":"constructor"},{"anonymous":false,"inputs":[{"indexed":true,"internalType":"address","name":"owner","type":"address"},{"indexed":true,"internalType":"address","name":"approved","type":"address"},{"indexed":true,"internalType":"uint256","name":"tokenId","type":"uint256"}],"name":"Approval","type":"event"},{"anonymous":false,"inputs":[{"indexed":true,"internalType":"address","name":"owner","type":"address"},{"indexed":true,"internalType":"address","name":"operator","type":"address"},{"indexed":false,"internalType":"bool","name":"approved","type":"bool"}],"name":"ApprovalForAll","type":"event"},{"anonymous":false,"inputs":[{"indexed":true,"internalType":"address","name":"delegator","type":"address"},{"indexed":true,"internalType":"address","name":"fromDelegate","type":"address"},{"indexed":true,"internalType":"address","name":"toDelegate","type":"address"}],"name":"DelegateChanged","type":"event"},{"anonymous":false,"inputs":[{"indexed":true,"internalType":"address","name":"delegate","type":"address"},{"indexed":false,"internalType":"uint256","name":"previousBalance","type":"uint256"},{"indexed":false,"internalType":"uint256","name":"newBalance","type":"uint256"}],"name":"DelegateVotesChanged","type":"event"},{"anonymous":false,"inputs":[],"name":"DescriptorLocked","type":"event"},{"anonymous":false,"inputs":[{"indexed":false,"internalType":"contract IKoalasDescriptor","name":"descriptor","type":"address"}],"name":"DescriptorUpdated","type":"event"},{"anonymous":false,"inputs":[{"indexed":true,"internalType":"uint256","name":"tokenId","type":"uint256"}],"name":"KoalasBurned","type":"event"},{"anonymous":false,"inputs":[{"indexed":true,"internalType":"uint256","name":"tokenId","type":"uint256"},{"components":[{"internalType":"uint48","name":"background","type":"uint48"},{"internalType":"uint48","name":"fur","type":"uint48"},{"internalType":"uint48","name":"face","type":"uint48"},{"internalType":"uint48","name":"clothe","type":"uint48"},{"internalType":"uint48","name":"eye","type":"uint48"},{"internalType":"uint48","name":"mouth","type":"uint48"},{"internalType":"uint48","name":"erring","type":"uint48"},{"internalType":"uint48","name":"hand","type":"uint48"},{"internalType":"uint48","name":"head","type":"uint48"}],"indexed":false,"internalType":"struct IKoalasSeeder.Seed","name":"seed","type":"tuple"}],"name":"KoalasCreated","type":"event"},{"anonymous":false,"inputs":[{"indexed":false,"internalType":"address","name":"KoalasdersDAO","type":"address"}],"name":"KoalasdersDAOUpdated","type":"event"},{"anonymous":false,"inputs":[],"name":"MinterLocked","type":"event"},{"anonymous":false,"inputs":[{"indexed":false,"internalType":"address","name":"minter","type":"address"}],"name":"MinterUpdated","type":"event"},{"anonymous":false,"inputs":[{"indexed":true,"internalType":"address","name":"previousOwner","type":"address"},{"indexed":true,"internalType":"address","name":"newOwner","type":"address"}],"name":"OwnershipTransferred","type":"event"},{"anonymous":false,"inputs":[],"name":"SeederLocked","type":"event"},{"anonymous":false,"inputs":[{"indexed":false,"internalType":"contract IKoalasSeeder","name":"seeder","type":"address"}],"name":"SeederUpdated","type":"event"},{"anonymous":false,"inputs":[{"indexed":true,"internalType":"address","name":"from","type":"address"},{"indexed":true,"internalType":"address","name":"to","type":"address"},{"indexed":true,"internalType":"uint256","name":"tokenId","type":"uint256"}],"name":"Transfer","type":"event"},{"inputs":[],"name":"DELEGATION_TYPEHASH","outputs":[{"internalType":"bytes32","name":"","type":"bytes32"}],"stateMutability":"view","type":"function"},{"inputs":[],"name":"DOMAIN_TYPEHASH","outputs":[{"internalType":"bytes32","name":"","type":"bytes32"}],"stateMutability":"view","type":"function"},{"inputs":[{"internalType":"address","name":"to","type":"address"},{"internalType":"uint256","name":"tokenId","type":"uint256"}],"name":"approve","outputs":[],"stateMutability":"nonpayable","type":"function"},{"inputs":[{"internalType":"address","name":"owner","type":"address"}],"name":"balanceOf","outputs":[{"internalType":"uint256","name":"","type":"uint256"}],"stateMutability":"view","type":"function"},{"inputs":[{"internalType":"uint256","name":"tokenId","type":"uint256"}],"name":"burn","outputs":[],"stateMutability":"nonpayable","type":"function"},{"inputs":[{"internalType":"address","name":"","type":"address"},{"internalType":"uint32","name":"","type":"uint32"}],"name":"checkpoints","outputs":[{"internalType":"uint32","name":"fromBlock","type":"uint32"},{"internalType":"uint96","name":"votes","type":"uint96"}],"stateMutability":"view","type":"function"},{"inputs":[],"name":"contractURI","outputs":[{"internalType":"string","name":"","type":"string"}],"stateMutability":"view","type":"function"},{"inputs":[{"internalType":"uint256","name":"tokenId","type":"uint256"}],"name":"dataURI","outputs":[{"internalType":"string","name":"","type":"string"}],"stateMutability":"view","type":"function"},{"inputs":[],"name":"decimals","outputs":[{"internalType":"uint8","name":"","type":"uint8"}],"stateMutability":"view","type":"function"},{"inputs":[{"internalType":"address","name":"delegatee","type":"address"}],"name":"delegate","outputs":[],"stateMutability":"nonpayable","type":"function"},{"inputs":[{"internalType":"address","name":"delegatee","type":"address"},{"internalType":"uint256","name":"nonce","type":"uint256"},{"internalType":"uint256","name":"expiry","type":"uint256"},{"internalType":"uint8","name":"v","type":"uint8"},{"internalType":"bytes32","name":"r","type":"bytes32"},{"internalType":"bytes32","name":"s","type":"bytes32"}],"name":"delegateBySig","outputs":[],"stateMutability":"nonpayable","type":"function"},{"inputs":[{"internalType":"address","name":"delegator","type":"address"}],"name":"delegates","outputs":[{"internalType":"address","name":"","type":"address"}],"stateMutability":"view","type":"function"},{"inputs":[],"name":"descriptor","outputs":[{"internalType":"contract IKoalasDescriptor","name":"","type":"address"}],"stateMutability":"view","type":"function"},{"inputs":[{"internalType":"uint256","name":"tokenId","type":"uint256"}],"name":"getApproved","outputs":[{"internalType":"address","name":"","type":"address"}],"stateMutability":"view","type":"function"},{"inputs":[{"internalType":"address","name":"account","type":"address"}],"name":"getCurrentVotes","outputs":[{"internalType":"uint96","name":"","type":"uint96"}],"stateMutability":"view","type":"function"},{"inputs":[{"internalType":"address","name":"account","type":"address"},{"internalType":"uint256","name":"blockNumber","type":"uint256"}],"name":"getPriorVotes","outputs":[{"internalType":"uint96","name":"","type":"uint96"}],"stateMutability":"view","type":"function"},{"inputs":[{"internalType":"address","name":"owner","type":"address"},{"internalType":"address","name":"operator","type":"address"}],"name":"isApprovedForAll","outputs":[{"internalType":"bool","name":"","type":"bool"}],"stateMutability":"view","type":"function"},{"inputs":[],"name":"isDescriptorLocked","outputs":[{"internalType":"bool","name":"","type":"bool"}],"stateMutability":"view","type":"function"},{"inputs":[],"name":"isMinterLocked","outputs":[{"internalType":"bool","name":"","type":"bool"}],"stateMutability":"view","type":"function"},{"inputs":[],"name":"isSeedLocked","outputs":[{"internalType":"bool","name":"","type":"bool"}],"stateMutability":"view","type":"function"},{"inputs":[],"name":"koalasersDAO","outputs":[{"internalType":"address","name":"","type":"address"}],"stateMutability":"view","type":"function"},{"inputs":[],"name":"lockDescriptor","outputs":[],"stateMutability":"nonpayable","type":"function"},{"inputs":[],"name":"lockMinter","outputs":[],"stateMutability":"nonpayable","type":"function"},{"inputs":[],"name":"lockSeeder","outputs":[],"stateMutability":"nonpayable","type":"function"},{"inputs":[],"name":"mint","outputs":[{"internalType":"uint256","name":"","type":"uint256"}],"stateMutability":"nonpayable","type":"function"},{"inputs":[],"name":"minter","outputs":[{"internalType":"address","name":"","type":"address"}],"stateMutability":"view","type":"function"},{"inputs":[],"name":"name","outputs":[{"internalType":"string","name":"","type":"string"}],"stateMutability":"view","type":"function"},{"inputs":[{"internalType":"address","name":"","type":"address"}],"name":"nonces","outputs":[{"internalType":"uint256","name":"","type":"uint256"}],"stateMutability":"view","type":"function"},{"inputs":[{"internalType":"address","name":"","type":"address"}],"name":"numCheckpoints","outputs":[{"internalType":"uint32","name":"","type":"uint32"}],"stateMutability":"view","type":"function"},{"inputs":[],"name":"owner","outputs":[{"internalType":"address","name":"","type":"address"}],"stateMutability":"view","type":"function"},{"inputs":[{"internalType":"uint256","name":"tokenId","type":"uint256"}],"name":"ownerOf","outputs":[{"internalType":"address","name":"","type":"address"}],"stateMutability":"view","type":"function"},{"inputs":[],"name":"proxyRegistry","outputs":[{"internalType":"contract IProxyRegistry","name":"","type":"address"}],"stateMutability":"view","type":"function"},{"inputs":[],"name":"renounceOwnership","outputs":[],"stateMutability":"nonpayable","type":"function"},{"inputs":[{"internalType":"address","name":"from","type":"address"},{"internalType":"address","name":"to","type":"address"},{"internalType":"uint256","name":"tokenId","type":"uint256"}],"name":"safeTransferFrom","outputs":[],"stateMutability":"nonpayable","type":"function"},{"inputs":[{"internalType":"address","name":"from","type":"address"},{"internalType":"address","name":"to","type":"address"},{"internalType":"uint256","name":"tokenId","type":"uint256"},{"internalType":"bytes","name":"_data","type":"bytes"}],"name":"safeTransferFrom","outputs":[],"stateMutability":"nonpayable","type":"function"},{"inputs":[],"name":"seeder","outputs":[{"internalType":"contract IKoalasSeeder","name":"","type":"address"}],"stateMutability":"view","type":"function"},{"inputs":[{"internalType":"uint256","name":"","type":"uint256"}],"name":"seeds","outputs":[{"internalType":"uint48","name":"background","type":"uint48"},{"internalType":"uint48","name":"fur","type":"uint48"},{"internalType":"uint48","name":"face","type":"uint48"},{"internalType":"uint48","name":"clothe","type":"uint48"},{"internalType":"uint48","name":"eye","type":"uint48"},{"internalType":"uint48","name":"mouth","type":"uint48"},{"internalType":"uint48","name":"erring","type":"uint48"},{"internalType":"uint48","name":"hand","type":"uint48"},{"internalType":"uint48","name":"head","type":"uint48"}],"stateMutability":"view","type":"function"},{"inputs":[{"internalType":"address","name":"operator","type":"address"},{"internalType":"bool","name":"approved","type":"bool"}],"name":"setApprovalForAll","outputs":[],"stateMutability":"nonpayable","type":"function"},{"inputs":[{"internalType":"string","name":"newContractURIHash","type":"string"}],"name":"setContractURIHash","outputs":[],"stateMutability":"nonpayable","type":"function"},{"inputs":[{"internalType":"contract IKoalasDescriptor","name":"_descriptor","type":"address"}],"name":"setDescriptor","outputs":[],"stateMutability":"nonpayable","type":"function"},{"inputs":[{"internalType":"address","name":"_KoalasersDAO","type":"address"}],"name":"setKoalasDAO","outputs":[],"stateMutability":"nonpayable","type":"function"},{"inputs":[{"internalType":"address","name":"_minter","type":"address"}],"name":"setMinter","outputs":[],"stateMutability":"nonpayable","type":"function"},{"inputs":[{"internalType":"contract IKoalasSeeder","name":"_seeder","type":"address"}],"name":"setSeeder","outputs":[],"stateMutability":"nonpayable","type":"function"},{"inputs":[{"internalType":"bytes4","name":"interfaceId","type":"bytes4"}],"name":"supportsInterface","outputs":[{"internalType":"bool","name":"","type":"bool"}],"stateMutability":"view","type":"function"},{"inputs":[],"name":"symbol","outputs":[{"internalType":"string","name":"","type":"string"}],"stateMutability":"view","type":"function"},{"inputs":[{"internalType":"uint256","name":"index","type":"uint256"}],"name":"tokenByIndex","outputs":[{"internalType":"uint256","name":"","type":"uint256"}],"stateMutability":"view","type":"function"},{"inputs":[{"internalType":"address","name":"owner","type":"address"},{"internalType":"uint256","name":"index","type":"uint256"}],"name":"tokenOfOwnerByIndex","outputs":[{"internalType":"uint256","name":"","type":"uint256"}],"stateMutability":"view","type":"function"},{"inputs":[{"internalType":"uint256","name":"tokenId","type":"uint256"}],"name":"tokenURI","outputs":[{"internalType":"string","name":"","type":"string"}],"stateMutability":"view","type":"function"},{"inputs":[],"name":"totalSupply","outputs":[{"internalType":"uint256","name":"","type":"uint256"}],"stateMutability":"view","type":"function"},{"inputs":[{"internalType":"address","name":"from","type":"address"},{"internalType":"address","name":"to","type":"address"},{"internalType":"uint256","name":"tokenId","type":"uint256"}],"name":"transferFrom","outputs":[],"stateMutability":"nonpayable","type":"function"},{"inputs":[{"internalType":"address","name":"newOwner","type":"address"}],"name":"transferOwnership","outputs":[],"stateMutability":"nonpayable","type":"function"},{"inputs":[{"internalType":"address","name":"delegator","type":"address"}],"name":"votesToDelegate","outputs":[{"internalType":"uint96","name":"","type":"uint96"}],"stateMutability":"view","type":"function"}],"evm":{"bytecode":{"linkReferences":{},"object":"610100604052602e60a08181529061409f60c0396017906100209082610205565b5034801561002d57600080fd5b506040516140cd3803806140cd83398101604081905261004c916102db565b604051806040016040528060068152602001654b6f616c617360d01b815250604051806040016040528060068152602001654b4f414c415360d01b8152506100a061009b61011260201b60201c565b610116565b60016100ac8382610205565b5060026100b98282610205565b5050600f80546001600160a01b03199081166001600160a01b0398891617909155601080548216968816969096179095555060138054851693861693909317909255601480549093169084161790915516608052610350565b3390565b600080546001600160a01b038381166001600160a01b0319831681178455604051919092169283917f8be0079c531659141344cd1fd0a4f28419497f9722a3daafe3b4186f6b6457e09190a35050565b634e487b7160e01b600052604160045260246000fd5b600181811c9082168061019057607f821691505b6020821081036101b057634e487b7160e01b600052602260045260246000fd5b50919050565b601f82111561020057806000526020600020601f840160051c810160208510156101dd5750805b601f840160051c820191505b818110156101fd57600081556001016101e9565b50505b505050565b81516001600160401b0381111561021e5761021e610166565b6102328161022c845461017c565b846101b6565b6020601f821160018114610266576000831561024e5750848201515b600019600385901b1c1916600184901b1784556101fd565b600084815260208120601f198516915b828110156102965787850151825560209485019460019092019101610276565b50848210156102b45786840151600019600387901b60f8161c191681555b50505050600190811b01905550565b6001600160a01b03811681146102d857600080fd5b50565b600080600080600060a086880312156102f357600080fd5b85516102fe816102c3565b602087015190955061030f816102c3565b6040870151909450610320816102c3565b6060870151909350610331816102c3565b6080870151909250610342816102c3565b809150509295509295909350565b608051613d2d6103726000396000818161061b0152611c510152613d2d6000f3fe608060405234801561001057600080fd5b506004361061030c5760003560e01c80636fcfff451161019d578063c1b8e4e1116100e9578063e9580e91116100a2578063f1127ed81161007c578063f1127ed8146107d1578063f255572514610838578063f2fde38b1461084c578063fca3b5aa1461085f57600080fd5b8063e9580e91146106df578063e985e9c5146106f2578063f0503e801461070557600080fd5b8063c1b8e4e114610663578063c3cda52014610677578063c87b56dd1461068a578063d50b31eb1461069d578063e7a324dc146106b0578063e8a3d485146106d757600080fd5b80638da5cb5b11610156578063b4b5ea5711610130578063b4b5ea5714610603578063b50cbd9f14610616578063b88d4fde1461063d578063baedc1c41461065057600080fd5b80638da5cb5b146105d757806395d89b41146105e8578063a22cb465146105f057600080fd5b80636fcfff451461052e57806370a0823114610569578063715018a61461057c57806376daebe114610584578063782d6fe11461058c5780637ecebe00146105b757600080fd5b8063303e74df1161025c5780634f6ccce7116102155780635c19a95c116101ef5780635c19a95c146104ed5780635f295a67146105005780636352211e14610508578063684931ed1461051b57600080fd5b80634f6ccce7146104b4578063587cde1e146104c75780635ac1e3bb146104da57600080fd5b8063303e74df14610446578063313ce5671461045957806341b5d0de1461047357806342842e0e1461047b57806342966c681461048e5780634b664998146104a157600080fd5b80631249c58b116102c957806320606b70116102a357806320606b70146103e657806323b872dd1461040d5780632dc2b880146104205780632f745c591461043357600080fd5b80631249c58b146103b457806318160ddd146103ca5780631e688e10146103d257600080fd5b806301b9a3971461031157806301ffc9a71461032657806306fdde031461034e5780630754617214610363578063081812fc1461038e578063095ea7b3146103a1575b600080fd5b61032461031f3660046130aa565b610872565b005b6103396103343660046130dd565b61094b565b60405190151581526020015b60405180910390f35b610356610976565b604051610345919061314a565b601054610376906001600160a01b031681565b6040516001600160a01b039091168152602001610345565b61037661039c36600461315d565b610a08565b6103246103af366004613176565b610a9d565b6103bc610bb2565b604051908152602001610345565b6009546103bc565b60145461033990600160a01b900460ff1681565b6103bc7f8cad95687ba82c2ce50e74f7b754645e5117c3a5bec8151c0726d5857980a86681565b61032461041b3660046131a2565b610c84565b600f54610376906001600160a01b031681565b6103bc610441366004613176565b610cb5565b601354610376906001600160a01b031681565b610461600081565b60405160ff9091168152602001610345565b610324610d4b565b6103246104893660046131a2565b610e04565b61032461049c36600461315d565b610e1f565b6103246104af3660046130aa565b610e56565b6103bc6104c236600461315d565b610efe565b6103766104d53660046130aa565b610f91565b6103566104e836600461315d565b610fc3565b6103246104fb3660046130aa565b61107f565b61032461109d565b61037661051636600461315d565b611152565b601454610376906001600160a01b031681565b61055461053c3660046130aa565b600d6020526000908152604090205463ffffffff1681565b60405163ffffffff9091168152602001610345565b6103bc6105773660046130aa565b6111c9565b610324611250565b610324611286565b61059f61059a366004613176565b61133b565b6040516001600160601b039091168152602001610345565b6103bc6105c53660046130aa565b600e6020526000908152604090205481565b6000546001600160a01b0316610376565b6103566115db565b6103246105fe3660046131e3565b6115ea565b61059f6106113660046130aa565b6116ae565b6103767f000000000000000000000000000000000000000000000000000000000000000081565b61032461064b3660046132f8565b61172b565b61032461065e366004613378565b611763565b60145461033990600160a81b900460ff1681565b6103246106853660046133c1565b61179d565b61035661069836600461315d565b611a9b565b6103246106ab3660046130aa565b611b12565b6103bc7fe48329057bfd03d55e49b547132e39cffd9c1820ad7b9d4c5307691425d15adf81565b610356611bd7565b61059f6106ed3660046130aa565b611bff565b610339610700366004613423565b611c2b565b61077861071336600461315d565b6015602052600090815260409020805460019091015465ffffffffffff808316926601000000000000808204831693600160601b808404851694600160901b808604821695600160c01b90048216948483169490810483169381048316929190041689565b6040805165ffffffffffff9a8b168152988a1660208a01529689169688019690965293871660608701529186166080860152851660a0850152841660c0840152831660e083015290911661010082015261012001610345565b6108146107df366004613451565b600c60209081526000928352604080842090915290825290205463ffffffff811690600160201b90046001600160601b031682565b6040805163ffffffff90931683526001600160601b03909116602083015201610345565b60145461033990600160b01b900460ff1681565b61032461085a3660046130aa565b611d00565b61032461086d3660046130aa565b611d98565b6000546001600160a01b031633146108a55760405162461bcd60e51b815260040161089c90613488565b60405180910390fd5b601454600160a81b900460ff16156108f65760405162461bcd60e51b815260206004820152601460248201527311195cd8dc9a5c1d1bdc881a5cc81b1bd8dad95960621b604482015260640161089c565b601380546001600160a01b0319166001600160a01b0383169081179091556040519081527f6e66ab22238a5471005895947c8f57db923c2a9c9c73180eff80864c21295c1b906020015b60405180910390a150565b60006001600160e01b0319821663780e9d6360e01b1480610970575061097082611e5d565b92915050565b606060018054610985906134bd565b80601f01602080910402602001604051908101604052809291908181526020018280546109b1906134bd565b80156109fe5780601f106109d3576101008083540402835291602001916109fe565b820191906000526020600020905b8154815290600101906020018083116109e157829003601f168201915b5050505050905090565b6000818152600360205260408120546001600160a01b0316610a815760405162461bcd60e51b815260206004820152602c60248201527f4552433732313a20617070726f76656420717565727920666f72206e6f6e657860448201526b34b9ba32b73a103a37b5b2b760a11b606482015260840161089c565b506000908152600560205260409020546001600160a01b031690565b6000610aa882611152565b9050806001600160a01b0316836001600160a01b031603610b155760405162461bcd60e51b815260206004820152602160248201527f4552433732313a20617070726f76616c20746f2063757272656e74206f776e656044820152603960f91b606482015260840161089c565b336001600160a01b0382161480610b315750610b318133611c2b565b610ba35760405162461bcd60e51b815260206004820152603860248201527f4552433732313a20617070726f76652063616c6c6572206973206e6f74206f7760448201527f6e6572206e6f7220617070726f76656420666f7220616c6c0000000000000000606482015260840161089c565b610bad8383611ead565b505050565b6010546000906001600160a01b03163314610c0f5760405162461bcd60e51b815260206004820152601860248201527f53656e646572206973206e6f7420746865206d696e7465720000000000000000604482015260640161089c565b6101f460165411158015610c2f5750600a601654610c2d919061350d565b155b15610c5f57600f5460168054610c5d926001600160a01b0316916000610c5483613537565b91905055611f1b565b505b60105460168054610c7f926001600160a01b0316916000610c5483613537565b905090565b610c8e3382612326565b610caa5760405162461bcd60e51b815260040161089c90613550565b610bad8383836123fd565b6000610cc0836111c9565b8210610d225760405162461bcd60e51b815260206004820152602b60248201527f455243373231456e756d657261626c653a206f776e657220696e646578206f7560448201526a74206f6620626f756e647360a81b606482015260840161089c565b506001600160a01b03919091166000908152600760209081526040808320938352929052205490565b6000546001600160a01b03163314610d755760405162461bcd60e51b815260040161089c90613488565b601454600160a81b900460ff1615610dc65760405162461bcd60e51b815260206004820152601460248201527311195cd8dc9a5c1d1bdc881a5cc81b1bd8dad95960621b604482015260640161089c565b6014805460ff60a81b1916600160a81b1790556040517f593e31e306c198bef259d839f7c6dc4ff7fc10c07f76fab193a210b03704105f90600090a1565b610bad8383836040518060200160405280600081525061172b565b610e2881612596565b60405181907f03d4e40d854f0f6c2560182a42dab2bf4fbe8a5319ba42757b3ac821c37bb14290600090a250565b600f546001600160a01b03163314610eb05760405162461bcd60e51b815260206004820152601f60248201527f53656e646572206973206e6f7420746865206b6f616c61736572732044414f00604482015260640161089c565b600f80546001600160a01b0319166001600160a01b0383169081179091556040519081527fd895a3dd6d558bba54c9123e0d5d3436829f8871f270acb46099cf9a6e440fcb90602001610940565b6000610f0960095490565b8210610f6c5760405162461bcd60e51b815260206004820152602c60248201527f455243373231456e756d657261626c653a20676c6f62616c20696e646578206f60448201526b7574206f6620626f756e647360a01b606482015260840161089c565b60098281548110610f7f57610f7f6135a1565b90600052602060002001549050919050565b6001600160a01b038082166000908152600b60205260408120549091168015610fba5780610fbc565b825b9392505050565b6000818152600360205260409020546060906001600160a01b0316610ffa5760405162461bcd60e51b815260040161089c906135b7565b60135460008381526015602052604090819020905163350e117760e01b81526001600160a01b039092169163350e11779161103a91869190600401613602565b600060405180830381865afa158015611057573d6000803e3d6000fd5b505050506040513d6000823e601f3d908101601f19168201604052610970919081019061367b565b6001600160a01b0381166110905750335b61109a338261262b565b50565b6000546001600160a01b031633146110c75760405162461bcd60e51b815260040161089c90613488565b601454600160b01b900460ff16156111145760405162461bcd60e51b815260206004820152601060248201526f14d95959195c881a5cc81b1bd8dad95960821b604482015260640161089c565b6014805460ff60b01b1916600160b01b1790556040517ff59561f22794afcfb1e6be5c4733f5449fd167252a96b74bb06d341fb0dac7ed90600090a1565b6000818152600360205260408120546001600160a01b0316806109705760405162461bcd60e51b815260206004820152602960248201527f4552433732313a206f776e657220717565727920666f72206e6f6e657869737460448201526832b73a103a37b5b2b760b91b606482015260840161089c565b60006001600160a01b0382166112345760405162461bcd60e51b815260206004820152602a60248201527f4552433732313a2062616c616e636520717565727920666f7220746865207a65604482015269726f206164647265737360b01b606482015260840161089c565b506001600160a01b031660009081526004602052604090205490565b6000546001600160a01b0316331461127a5760405162461bcd60e51b815260040161089c90613488565b61128460006126ab565b565b6000546001600160a01b031633146112b05760405162461bcd60e51b815260040161089c90613488565b601454600160a01b900460ff16156112fd5760405162461bcd60e51b815260206004820152601060248201526f135a5b9d195c881a5cc81b1bd8dad95960821b604482015260640161089c565b6014805460ff60a01b1916600160a01b1790556040517f192417b3f16b1ce69e0c59b0376549666650245ffc05e4b2569089dda8589b6690600090a1565b60004382106113b25760405162461bcd60e51b815260206004820152603760248201527f455243373231436865636b706f696e7461626c653a3a6765745072696f72566f60448201527f7465733a206e6f74207965742064657465726d696e6564000000000000000000606482015260840161089c565b6001600160a01b0383166000908152600d602052604081205463ffffffff16908190036113e3576000915050610970565b6001600160a01b0384166000908152600c6020526040812084916114086001856136f2565b63ffffffff9081168252602082019290925260400160002054161161147b576001600160a01b0384166000908152600c602052604081209061144b6001846136f2565b63ffffffff168152602081019190915260400160002054600160201b90046001600160601b031691506109709050565b6001600160a01b0384166000908152600c6020908152604080832083805290915290205463ffffffff168310156114b6576000915050610970565b6000806114c46001846136f2565b90505b8163ffffffff168163ffffffff16111561159657600060026114e984846136f2565b6114f3919061370e565b6114fd90836136f2565b6001600160a01b0388166000908152600c6020908152604080832063ffffffff858116855290835292819020815180830190925254928316808252600160201b9093046001600160601b03169181019190915291925087900361156a576020015194506109709350505050565b805163ffffffff168711156115815781935061158f565b61158c6001836136f2565b92505b50506114c7565b506001600160a01b0385166000908152600c6020908152604080832063ffffffff909416835292905220546001600160601b03600160201b9091041691505092915050565b606060028054610985906134bd565b336001600160a01b038316036116425760405162461bcd60e51b815260206004820152601960248201527f4552433732313a20617070726f766520746f2063616c6c657200000000000000604482015260640161089c565b3360008181526006602090815260408083206001600160a01b03871680855290835292819020805460ff191686151590811790915590519081529192917f17307eab39ab6107e8899845ad3d59bd9653f200f220920489ca2b5937696c31910160405180910390a35050565b6001600160a01b0381166000908152600d602052604081205463ffffffff16806116d9576000610fbc565b6001600160a01b0383166000908152600c60205260408120906116fd6001846136f2565b63ffffffff168152602081019190915260400160002054600160201b90046001600160601b03169392505050565b6117353383612326565b6117515760405162461bcd60e51b815260040161089c90613550565b61175d848484846126fb565b50505050565b6000546001600160a01b0316331461178d5760405162461bcd60e51b815260040161089c90613488565b60176117998282613784565b5050565b60007f8cad95687ba82c2ce50e74f7b754645e5117c3a5bec8151c0726d5857980a8666117c8610976565b805190602001206117d64690565b60408051602080820195909552808201939093526060830191909152306080808401919091528151808403909101815260a0830182528051908401207fe48329057bfd03d55e49b547132e39cffd9c1820ad7b9d4c5307691425d15adf60c08401526001600160a01b038b1660e084015261010083018a90526101208084018a90528251808503909101815261014084019092528151919093012061190160f01b610160830152610162820183905261018282018190529192506000906101a20160408051601f198184030181528282528051602091820120600080855291840180845281905260ff8a169284019290925260608301889052608083018790529092509060019060a0016020604051602081039080840390855afa158015611902573d6000803e3d6000fd5b5050604051601f1901519150506001600160a01b0381166119845760405162461bcd60e51b815260206004820152603660248201527f455243373231436865636b706f696e7461626c653a3a64656c656761746542796044820152755369673a20696e76616c6964207369676e617475726560501b606482015260840161089c565b6001600160a01b0381166000908152600e602052604081208054916119a883613537565b919050558914611a155760405162461bcd60e51b815260206004820152603260248201527f455243373231436865636b706f696e7461626c653a3a64656c656761746542796044820152715369673a20696e76616c6964206e6f6e636560701b606482015260840161089c565b87421115611a845760405162461bcd60e51b815260206004820152603660248201527f455243373231436865636b706f696e7461626c653a3a64656c6567617465427960448201527514da59ce881cda59db985d1d5c9948195e1c1a5c995960521b606482015260840161089c565b611a8e818b61262b565b505050505b505050505050565b6000818152600360205260409020546060906001600160a01b0316611ad25760405162461bcd60e51b815260040161089c906135b7565b601354600083815260156020526040908190209051635a78ba3560e01b81526001600160a01b0390921691635a78ba359161103a91869190600401613602565b6000546001600160a01b03163314611b3c5760405162461bcd60e51b815260040161089c90613488565b601454600160b01b900460ff1615611b895760405162461bcd60e51b815260206004820152601060248201526f14d95959195c881a5cc81b1bd8dad95960821b604482015260640161089c565b601480546001600160a01b0319166001600160a01b0383169081179091556040519081527fb3025222d01ce9a26c7f9d52bc3bfd0352366bd90a793c273fbfe1c81e0e288e90602001610940565b60606017604051602001611beb9190613843565b604051602081830303815290604052905090565b6000610970611c0d836111c9565b6040518060600160405280603d8152602001613c84603d913961272e565b60405163c455279160e01b81526001600160a01b038381166004830152600091818416917f0000000000000000000000000000000000000000000000000000000000000000169063c455279190602401602060405180830381865afa158015611c98573d6000803e3d6000fd5b505050506040513d601f19601f82011682018060405250810190611cbc91906138d1565b6001600160a01b031603611cd257506001610970565b6001600160a01b0380841660009081526006602090815260408083209386168352929052205460ff16610fbc565b6000546001600160a01b03163314611d2a5760405162461bcd60e51b815260040161089c90613488565b6001600160a01b038116611d8f5760405162461bcd60e51b815260206004820152602660248201527f4f776e61626c653a206e6577206f776e657220697320746865207a65726f206160448201526564647265737360d01b606482015260840161089c565b61109a816126ab565b6000546001600160a01b03163314611dc25760405162461bcd60e51b815260040161089c90613488565b601454600160a01b900460ff1615611e0f5760405162461bcd60e51b815260206004820152601060248201526f135a5b9d195c881a5cc81b1bd8dad95960821b604482015260640161089c565b601080546001600160a01b0319166001600160a01b0383169081179091556040519081527fad0f299ec81a386c98df0ac27dae11dd020ed1b56963c53a7292e7a3a314539a90602001610940565b60006001600160e01b031982166380ac58cd60e01b1480611e8e57506001600160e01b03198216635b5e139f60e01b145b8061097057506301ffc9a760e01b6001600160e01b0319831614610970565b600081815260056020526040902080546001600160a01b0319166001600160a01b0384169081179091558190611ee282611152565b6001600160a01b03167f8c5be1e5ebec7d5bd14f71427d1e84f3dd0314c0f7b2291e5b200ac8c7c3b92560405160405180910390a45050565b60145460135460405163422e2e9960e01b8152600481018490526001600160a01b0391821660248201526000928392169063422e2e999060440161012060405180830381865afa158015611f73573d6000803e3d6000fd5b505050506040513d601f19601f82011682018060405250810190611f979190613909565b6015600085815260200190815260200160002060008201518160000160006101000a81548165ffffffffffff021916908365ffffffffffff16021790555060208201518160000160066101000a81548165ffffffffffff021916908365ffffffffffff160217905550604082015181600001600c6101000a81548165ffffffffffff021916908365ffffffffffff16021790555060608201518160000160126101000a81548165ffffffffffff021916908365ffffffffffff16021790555060808201518160000160186101000a81548165ffffffffffff021916908365ffffffffffff16021790555060a08201518160010160006101000a81548165ffffffffffff021916908365ffffffffffff16021790555060c08201518160010160066101000a81548165ffffffffffff021916908365ffffffffffff16021790555060e082015181600101600c6101000a81548165ffffffffffff021916908365ffffffffffff1602179055506101008201518160010160126101000a81548165ffffffffffff021916908365ffffffffffff1602179055509050604051806101200160405290816000820160009054906101000a900465ffffffffffff1665ffffffffffff1665ffffffffffff1681526020016000820160069054906101000a900465ffffffffffff1665ffffffffffff1665ffffffffffff16815260200160008201600c9054906101000a900465ffffffffffff1665ffffffffffff1665ffffffffffff1681526020016000820160129054906101000a900465ffffffffffff1665ffffffffffff1665ffffffffffff1681526020016000820160189054906101000a900465ffffffffffff1665ffffffffffff1665ffffffffffff1681526020016001820160009054906101000a900465ffffffffffff1665ffffffffffff1665ffffffffffff1681526020016001820160069054906101000a900465ffffffffffff1665ffffffffffff1665ffffffffffff16815260200160018201600c9054906101000a900465ffffffffffff1665ffffffffffff1665ffffffffffff1681526020016001820160129054906101000a900465ffffffffffff1665ffffffffffff1665ffffffffffff168152505090506122e66122df6000546001600160a01b031690565b858561275d565b827f5c92e5f02c729f34f824e1dba1bf071ae954f2b405cbb313215bcf7af75936288260405161231691906139c2565b60405180910390a2509092915050565b6000818152600360205260408120546001600160a01b031661239f5760405162461bcd60e51b815260206004820152602c60248201527f4552433732313a206f70657261746f7220717565727920666f72206e6f6e657860448201526b34b9ba32b73a103a37b5b2b760a11b606482015260840161089c565b60006123aa83611152565b9050806001600160a01b0316846001600160a01b031614806123e55750836001600160a01b03166123da84610a08565b6001600160a01b0316145b806123f557506123f58185611c2b565b949350505050565b826001600160a01b031661241082611152565b6001600160a01b0316146124785760405162461bcd60e51b815260206004820152602960248201527f4552433732313a207472616e73666572206f6620746f6b656e2074686174206960448201526839903737ba1037bbb760b91b606482015260840161089c565b6001600160a01b0382166124da5760405162461bcd60e51b8152602060048201526024808201527f4552433732313a207472616e7366657220746f20746865207a65726f206164646044820152637265737360e01b606482015260840161089c565b6124e58383836128cf565b6124f0600082611ead565b6001600160a01b0383166000908152600460205260408120805460019290612519908490613aa7565b90915550506001600160a01b0382166000908152600460205260408120805460019290612547908490613aba565b909155505060008181526003602052604080822080546001600160a01b0319166001600160a01b038681169182179092559151849391871691600080516020613c6483398151915291a4505050565b60006125a182611152565b90506125af816000846128cf565b6125ba600083611ead565b6001600160a01b03811660009081526004602052604081208054600192906125e3908490613aa7565b909155505060008281526003602052604080822080546001600160a01b0319169055518391906001600160a01b03841690600080516020613c64833981519152908390a45050565b600061263683610f91565b6001600160a01b038481166000818152600b602052604080822080546001600160a01b031916888616908117909155905194955093928516927f3134e8a2e6d97e929a7e54011ea5485d7d196dd5f0ba4d4ef95803e8e3fc257f9190a4600061269e84611bff565b905061175d8284836128f2565b600080546001600160a01b038381166001600160a01b0319831681178455604051919092169283917f8be0079c531659141344cd1fd0a4f28419497f9722a3daafe3b4186f6b6457e09190a35050565b6127068484846123fd565b61271284848484612a9e565b61175d5760405162461bcd60e51b815260040161089c90613acd565b600081600160601b84106127555760405162461bcd60e51b815260040161089c919061314a565b509192915050565b6001600160a01b0382166127b35760405162461bcd60e51b815260206004820181905260248201527f4552433732313a206d696e7420746f20746865207a65726f2061646472657373604482015260640161089c565b6000818152600360205260409020546001600160a01b0316156128185760405162461bcd60e51b815260206004820152601c60248201527f4552433732313a20746f6b656e20616c7265616479206d696e74656400000000604482015260640161089c565b612824600083836128cf565b6001600160a01b038216600090815260046020526040812080546001929061284d908490613aba565b909155505060008181526003602052604080822080546001600160a01b0319166001600160a01b0386811691909117909155905183929186169190600080516020613c64833981519152908290a480826001600160a01b0316846001600160a01b0316600080516020613c6483398151915260405160405180910390a4505050565b6128da838383612b9f565b610bad6128e684610f91565b6128ef84610f91565b60015b816001600160a01b0316836001600160a01b03161415801561291d57506000816001600160601b0316115b15610bad576001600160a01b038316156129e2576001600160a01b0383166000908152600d602052604081205463ffffffff16908161295d5760006129a9565b6001600160a01b0385166000908152600c60205260408120906129816001856136f2565b63ffffffff168152602081019190915260400160002054600160201b90046001600160601b03165b905060006129d08285604051806060016040528060378152602001613cc160379139612c57565b90506129de86848484612c99565b5050505b6001600160a01b03821615610bad576001600160a01b0382166000908152600d602052604081205463ffffffff169081612a1d576000612a69565b6001600160a01b0384166000908152600c6020526040812090612a416001856136f2565b63ffffffff168152602081019190915260400160002054600160201b90046001600160601b03165b90506000612a908285604051806060016040528060368152602001613bea60369139612e91565b9050611a9385848484612c99565b60006001600160a01b0384163b15612b9457604051630a85bd0160e11b81526001600160a01b0385169063150b7a0290612ae2903390899088908890600401613b1f565b6020604051808303816000875af1925050508015612b1d575060408051601f3d908101601f19168201909252612b1a91810190613b5c565b60015b612b7a573d808015612b4b576040519150601f19603f3d011682016040523d82523d6000602084013e612b50565b606091505b508051600003612b725760405162461bcd60e51b815260040161089c90613acd565b805181602001fd5b6001600160e01b031916630a85bd0160e11b1490506123f5565b506001949350505050565b6001600160a01b038316612bfa57612bf581600980546000838152600a60205260408120829055600182018355919091527f6e1540171b6c0c960b71a7020d9f60077f6af931a8bbf590da0223dacf75c7af0155565b612c1d565b816001600160a01b0316836001600160a01b031614612c1d57612c1d8382612ede565b6001600160a01b038216612c3457610bad81612f7b565b826001600160a01b0316826001600160a01b031614610bad57610bad828261302a565b6000836001600160601b0316836001600160601b031611158290612c8e5760405162461bcd60e51b815260040161089c919061314a565b506123f58385613b79565b6000612cbd43604051806080016040528060448152602001613c206044913961306e565b905060008463ffffffff16118015612d1757506001600160a01b0385166000908152600c6020526040812063ffffffff831691612cfb6001886136f2565b63ffffffff908116825260208201929092526040016000205416145b15612d8b576001600160a01b0385166000908152600c602052604081208391612d416001886136f2565b63ffffffff168152602081019190915260400160002080546001600160601b0392909216600160201b026fffffffffffffffffffffffff0000000019909216919091179055612e3c565b60408051808201825263ffffffff80841682526001600160601b0380861660208085019182526001600160a01b038b166000908152600c82528681208b8616825290915294909420925183549451909116600160201b026fffffffffffffffffffffffffffffffff19909416911617919091179055612e0b846001613b98565b6001600160a01b0386166000908152600d60205260409020805463ffffffff191663ffffffff929092169190911790555b604080516001600160601b038086168252841660208201526001600160a01b038716917fdec2bacdd2f05b59de34da9b523dff8be42e5e38e818c82fdb0bae774387a724910160405180910390a25050505050565b600080612e9e8486613bb4565b9050846001600160601b0316816001600160601b031610158390612ed55760405162461bcd60e51b815260040161089c919061314a565b50949350505050565b60006001612eeb846111c9565b612ef59190613aa7565b600083815260086020526040902054909150808214612f48576001600160a01b03841660009081526007602090815260408083208584528252808320548484528184208190558352600890915290208190555b5060009182526008602090815260408084208490556001600160a01b039094168352600781528383209183525290812055565b600954600090612f8d90600190613aa7565b6000838152600a602052604081205460098054939450909284908110612fb557612fb56135a1565b906000526020600020015490508060098381548110612fd657612fd66135a1565b6000918252602080832090910192909255828152600a9091526040808220849055858252812055600980548061300e5761300e613bd3565b6001900381819060005260206000200160009055905550505050565b6000613035836111c9565b6001600160a01b039093166000908152600760209081526040808320868452825280832085905593825260089052919091209190915550565b600081600160201b84106127555760405162461bcd60e51b815260040161089c919061314a565b6001600160a01b038116811461109a57600080fd5b6000602082840312156130bc57600080fd5b8135610fbc81613095565b6001600160e01b03198116811461109a57600080fd5b6000602082840312156130ef57600080fd5b8135610fbc816130c7565b60005b838110156131155781810151838201526020016130fd565b50506000910152565b600081518084526131368160208601602086016130fa565b601f01601f19169290920160200192915050565b602081526000610fbc602083018461311e565b60006020828403121561316f57600080fd5b5035919050565b6000806040838503121561318957600080fd5b823561319481613095565b946020939093013593505050565b6000806000606084860312156131b757600080fd5b83356131c281613095565b925060208401356131d281613095565b929592945050506040919091013590565b600080604083850312156131f657600080fd5b823561320181613095565b91506020830135801515811461321657600080fd5b809150509250929050565b634e487b7160e01b600052604160045260246000fd5b604051610120810167ffffffffffffffff8111828210171561325b5761325b613221565b60405290565b604051601f8201601f1916810167ffffffffffffffff8111828210171561328a5761328a613221565b604052919050565b600067ffffffffffffffff8211156132ac576132ac613221565b50601f01601f191660200190565b60006132cd6132c884613292565b613261565b90508281528383830111156132e157600080fd5b828260208301376000602084830101529392505050565b6000806000806080858703121561330e57600080fd5b843561331981613095565b9350602085013561332981613095565b925060408501359150606085013567ffffffffffffffff81111561334c57600080fd5b8501601f8101871361335d57600080fd5b61336c878235602084016132ba565b91505092959194509250565b60006020828403121561338a57600080fd5b813567ffffffffffffffff8111156133a157600080fd5b8201601f810184136133b257600080fd5b6123f5848235602084016132ba565b60008060008060008060c087890312156133da57600080fd5b86356133e581613095565b95506020870135945060408701359350606087013560ff8116811461340957600080fd5b9598949750929560808101359460a0909101359350915050565b6000806040838503121561343657600080fd5b823561344181613095565b9150602083013561321681613095565b6000806040838503121561346457600080fd5b823561346f81613095565b9150602083013563ffffffff8116811461321657600080fd5b6020808252818101527f4f776e61626c653a2063616c6c6572206973206e6f7420746865206f776e6572604082015260600190565b600181811c908216806134d157607f821691505b6020821081036134f157634e487b7160e01b600052602260045260246000fd5b50919050565b634e487b7160e01b600052601260045260246000fd5b60008261351c5761351c6134f7565b500690565b634e487b7160e01b600052601160045260246000fd5b60006001820161354957613549613521565b5060010190565b60208082526031908201527f4552433732313a207472616e736665722063616c6c6572206973206e6f74206f6040820152701ddb995c881b9bdc88185c1c1c9bdd9959607a1b606082015260800190565b634e487b7160e01b600052603260045260246000fd5b6020808252602b908201527f4e6f756e73546f6b656e3a2055524920717565727920666f72206e6f6e65786960408201526a39ba32b73a103a37b5b2b760a91b606082015260800190565b918252805465ffffffffffff8082166020850152603082811c82166040860152606083811c831681870152609084811c8416608088015260c094851c841660a0880152600190950154808416948701949094529083901c821660e086015282901c8116610100850152911c166101208201526101400190565b60006020828403121561368d57600080fd5b815167ffffffffffffffff8111156136a457600080fd5b8201601f810184136136b557600080fd5b80516136c36132c882613292565b8181528560208385010111156136d857600080fd5b6136e98260208301602086016130fa565b95945050505050565b63ffffffff828116828216039081111561097057610970613521565b600063ffffffff831680613724576137246134f7565b8063ffffffff84160491505092915050565b601f821115610bad57806000526020600020601f840160051c8101602085101561375d5750805b601f840160051c820191505b8181101561377d5760008155600101613769565b5050505050565b815167ffffffffffffffff81111561379e5761379e613221565b6137b2816137ac84546134bd565b84613736565b6020601f8211600181146137e657600083156137ce5750848201515b600019600385901b1c1916600184901b17845561377d565b600084815260208120601f198516915b8281101561381657878501518255602094850194600190920191016137f6565b50848210156138345786840151600019600387901b60f8161c191681555b50505050600190811b01905550565b66697066733a2f2f60c81b8152600080835461385e816134bd565b6001821680156138755760018114613890576138c6565b60ff19831660078701526007821515830287010193506138c6565b86600052602060002060005b838110156138bb5781548882016007015260019091019060200161389c565b505060078287010193505b509195945050505050565b6000602082840312156138e357600080fd5b8151610fbc81613095565b805165ffffffffffff8116811461390457600080fd5b919050565b600061012082840312801561391d57600080fd5b50613926613237565b61392f836138ee565b815261393d602084016138ee565b602082015261394e604084016138ee565b604082015261395f606084016138ee565b6060820152613970608084016138ee565b608082015261398160a084016138ee565b60a082015261399260c084016138ee565b60c08201526139a360e084016138ee565b60e08201526139b561010084016138ee565b6101008201529392505050565b60006101208201905065ffffffffffff835116825265ffffffffffff60208401511660208301526040830151613a02604084018265ffffffffffff169052565b506060830151613a1c606084018265ffffffffffff169052565b506080830151613a36608084018265ffffffffffff169052565b5060a0830151613a5060a084018265ffffffffffff169052565b5060c0830151613a6a60c084018265ffffffffffff169052565b5060e0830151613a8460e084018265ffffffffffff169052565b50610100830151613aa061010084018265ffffffffffff169052565b5092915050565b8181038181111561097057610970613521565b8082018082111561097057610970613521565b60208082526032908201527f4552433732313a207472616e7366657220746f206e6f6e20455243373231526560408201527131b2b4bb32b91034b6b83632b6b2b73a32b960711b606082015260800190565b6001600160a01b0385811682528416602082015260408101839052608060608201819052600090613b529083018461311e565b9695505050505050565b600060208284031215613b6e57600080fd5b8151610fbc816130c7565b6001600160601b03828116828216039081111561097057610970613521565b63ffffffff818116838216019081111561097057610970613521565b6001600160601b03818116838216019081111561097057610970613521565b634e487b7160e01b600052603160045260246000fdfe455243373231436865636b706f696e7461626c653a3a5f6d6f766544656c6567617465733a20616d6f756e74206f766572666c6f7773455243373231436865636b706f696e7461626c653a3a5f7772697465436865636b706f696e743a20626c6f636b206e756d62657220657863656564732033322062697473ddf252ad1be2c89b69c2b068fc378daa952ba7f163c4a11628f55a4df523b3ef455243373231436865636b706f696e7461626c653a3a766f746573546f44656c65676174653a20616d6f756e7420657863656564732039362062697473455243373231436865636b706f696e7461626c653a3a5f6d6f766544656c6567617465733a20616d6f756e7420756e646572666c6f7773a26469706673582212203df89be168899c85c88570c3ef087490d305b007691793f90210063eca928f3464736f6c634300081a0033516d524a5244585a4635633751676967757631724b4d41595357435041456a727564686265776431537231794c43","opcodes":"PUSH2 0x100 PUSH1 0x40 MSTORE PUSH1 0x2E PUSH1 0xA0 DUP2 DUP2 MSTORE SWAP1 PUSH2 0x409F PUSH1 0xC0 CODECOPY PUSH1 0x17 SWAP1 PUSH2 0x20 SWAP1 DUP3 PUSH2 0x205 JUMP JUMPDEST POP CALLVALUE DUP1 ISZERO PUSH2 0x2D JUMPI PUSH1 0x0 DUP1 REVERT JUMPDEST POP PUSH1 0x40 MLOAD PUSH2 0x40CD CODESIZE SUB DUP1 PUSH2 0x40CD DUP4 CODECOPY DUP2 ADD PUSH1 0x40 DUP2 SWAP1 MSTORE PUSH2 0x4C SWAP2 PUSH2 0x2DB JUMP JUMPDEST PUSH1 0x40 MLOAD DUP1 PUSH1 0x40 ADD PUSH1 0x40 MSTORE DUP1 PUSH1 0x6 DUP2 MSTORE PUSH1 0x20 ADD PUSH6 0x4B6F616C6173 PUSH1 0xD0 SHL DUP2 MSTORE POP PUSH1 0x40 MLOAD DUP1 PUSH1 0x40 ADD PUSH1 0x40 MSTORE DUP1 PUSH1 0x6 DUP2 MSTORE PUSH1 0x20 ADD PUSH6 0x4B4F414C4153 PUSH1 0xD0 SHL DUP2 MSTORE POP PUSH2 0xA0 PUSH2 0x9B PUSH2 0x112 PUSH1 0x20 SHL PUSH1 0x20 SHR JUMP JUMPDEST PUSH2 0x116 JUMP JUMPDEST PUSH1 0x1 PUSH2 0xAC DUP4 DUP3 PUSH2 0x205 JUMP JUMPDEST POP PUSH1 0x2 PUSH2 0xB9 DUP3 DUP3 PUSH2 0x205 JUMP JUMPDEST POP POP PUSH1 0xF DUP1 SLOAD PUSH1 0x1 PUSH1 0x1 PUSH1 0xA0 SHL SUB NOT SWAP1 DUP2 AND PUSH1 0x1 PUSH1 0x1 PUSH1 0xA0 SHL SUB SWAP9 DUP10 AND OR SWAP1 SWAP2 SSTORE PUSH1 0x10 DUP1 SLOAD DUP3 AND SWAP7 DUP9 AND SWAP7 SWAP1 SWAP7 OR SWAP1 SWAP6 SSTORE POP PUSH1 0x13 DUP1 SLOAD DUP6 AND SWAP4 DUP7 AND SWAP4 SWAP1 SWAP4 OR SWAP1 SWAP3 SSTORE PUSH1 0x14 DUP1 SLOAD SWAP1 SWAP4 AND SWAP1 DUP5 AND OR SWAP1 SWAP2 SSTORE AND PUSH1 0x80 MSTORE PUSH2 0x350 JUMP JUMPDEST CALLER SWAP1 JUMP JUMPDEST PUSH1 0x0 DUP1 SLOAD PUSH1 0x1 PUSH1 0x1 PUSH1 0xA0 SHL SUB DUP4 DUP2 AND PUSH1 0x1 PUSH1 0x1 PUSH1 0xA0 SHL SUB NOT DUP4 AND DUP2 OR DUP5 SSTORE PUSH1 0x40 MLOAD SWAP2 SWAP1 SWAP3 AND SWAP3 DUP4 SWAP2 PUSH32 0x8BE0079C531659141344CD1FD0A4F28419497F9722A3DAAFE3B4186F6B6457E0 SWAP2 SWAP1 LOG3 POP POP JUMP JUMPDEST PUSH4 0x4E487B71 PUSH1 0xE0 SHL PUSH1 0x0 MSTORE PUSH1 0x41 PUSH1 0x4 MSTORE PUSH1 0x24 PUSH1 0x0 REVERT JUMPDEST PUSH1 0x1 DUP2 DUP2 SHR SWAP1 DUP3 AND DUP1 PUSH2 0x190 JUMPI PUSH1 0x7F DUP3 AND SWAP2 POP JUMPDEST PUSH1 0x20 DUP3 LT DUP2 SUB PUSH2 0x1B0 JUMPI PUSH4 0x4E487B71 PUSH1 0xE0 SHL PUSH1 0x0 MSTORE PUSH1 0x22 PUSH1 0x4 MSTORE PUSH1 0x24 PUSH1 0x0 REVERT JUMPDEST POP SWAP2 SWAP1 POP JUMP JUMPDEST PUSH1 0x1F DUP3 GT ISZERO PUSH2 0x200 JUMPI DUP1 PUSH1 0x0 MSTORE PUSH1 0x20 PUSH1 0x0 KECCAK256 PUSH1 0x1F DUP5 ADD PUSH1 0x5 SHR DUP2 ADD PUSH1 0x20 DUP6 LT ISZERO PUSH2 0x1DD JUMPI POP DUP1 JUMPDEST PUSH1 0x1F DUP5 ADD PUSH1 0x5 SHR DUP3 ADD SWAP2 POP JUMPDEST DUP2 DUP2 LT ISZERO PUSH2 0x1FD JUMPI PUSH1 0x0 DUP2 SSTORE PUSH1 0x1 ADD PUSH2 0x1E9 JUMP JUMPDEST POP POP JUMPDEST POP POP POP JUMP JUMPDEST DUP2 MLOAD PUSH1 0x1 PUSH1 0x1 PUSH1 0x40 SHL SUB DUP2 GT ISZERO PUSH2 0x21E JUMPI PUSH2 0x21E PUSH2 0x166 JUMP JUMPDEST PUSH2 0x232 DUP2 PUSH2 0x22C DUP5 SLOAD PUSH2 0x17C JUMP JUMPDEST DUP5 PUSH2 0x1B6 JUMP JUMPDEST PUSH1 0x20 PUSH1 0x1F DUP3 GT PUSH1 0x1 DUP2 EQ PUSH2 0x266 JUMPI PUSH1 0x0 DUP4 ISZERO PUSH2 0x24E JUMPI POP DUP5 DUP3 ADD MLOAD JUMPDEST PUSH1 0x0 NOT PUSH1 0x3 DUP6 SWAP1 SHL SHR NOT AND PUSH1 0x1 DUP5 SWAP1 SHL OR DUP5 SSTORE PUSH2 0x1FD JUMP JUMPDEST PUSH1 0x0 DUP5 DUP2 MSTORE PUSH1 0x20 DUP2 KECCAK256 PUSH1 0x1F NOT DUP6 AND SWAP2 JUMPDEST DUP3 DUP2 LT ISZERO PUSH2 0x296 JUMPI DUP8 DUP6 ADD MLOAD DUP3 SSTORE PUSH1 0x20 SWAP5 DUP6 ADD SWAP5 PUSH1 0x1 SWAP1 SWAP3 ADD SWAP2 ADD PUSH2 0x276 JUMP JUMPDEST POP DUP5 DUP3 LT ISZERO PUSH2 0x2B4 JUMPI DUP7 DUP5 ADD MLOAD PUSH1 0x0 NOT PUSH1 0x3 DUP8 SWAP1 SHL PUSH1 0xF8 AND SHR NOT AND DUP2 SSTORE JUMPDEST POP POP POP POP PUSH1 0x1 SWAP1 DUP2 SHL ADD SWAP1 SSTORE POP JUMP JUMPDEST PUSH1 0x1 PUSH1 0x1 PUSH1 0xA0 SHL SUB DUP2 AND DUP2 EQ PUSH2 0x2D8 JUMPI PUSH1 0x0 DUP1 REVERT JUMPDEST POP JUMP JUMPDEST PUSH1 0x0 DUP1 PUSH1 0x0 DUP1 PUSH1 0x0 PUSH1 0xA0 DUP7 DUP9 SUB SLT ISZERO PUSH2 0x2F3 JUMPI PUSH1 0x0 DUP1 REVERT JUMPDEST DUP6 MLOAD PUSH2 0x2FE DUP2 PUSH2 0x2C3 JUMP JUMPDEST PUSH1 0x20 DUP8 ADD MLOAD SWAP1 SWAP6 POP PUSH2 0x30F DUP2 PUSH2 0x2C3 JUMP JUMPDEST PUSH1 0x40 DUP8 ADD MLOAD SWAP1 SWAP5 POP PUSH2 0x320 DUP2 PUSH2 0x2C3 JUMP JUMPDEST PUSH1 0x60 DUP8 ADD MLOAD SWAP1 SWAP4 POP PUSH2 0x331 DUP2 PUSH2 0x2C3 JUMP JUMPDEST PUSH1 0x80 DUP8 ADD MLOAD SWAP1 SWAP3 POP PUSH2 0x342 DUP2 PUSH2 0x2C3 JUMP JUMPDEST DUP1 SWAP2 POP POP SWAP3 SWAP6 POP SWAP3 SWAP6 SWAP1 SWAP4 POP JUMP JUMPDEST PUSH1 0x80 MLOAD PUSH2 0x3D2D PUSH2 0x372 PUSH1 0x0 CODECOPY PUSH1 0x0 DUP2 DUP2 PUSH2 0x61B ADD MSTORE PUSH2 0x1C51 ADD MSTORE PUSH2 0x3D2D PUSH1 0x0 RETURN INVALID PUSH1 0x80 PUSH1 0x40 MSTORE CALLVALUE DUP1 ISZERO PUSH2 0x10 JUMPI PUSH1 0x0 DUP1 REVERT JUMPDEST POP PUSH1 0x4 CALLDATASIZE LT PUSH2 0x30C JUMPI PUSH1 0x0 CALLDATALOAD PUSH1 0xE0 SHR DUP1 PUSH4 0x6FCFFF45 GT PUSH2 0x19D JUMPI DUP1 PUSH4 0xC1B8E4E1 GT PUSH2 0xE9 JUMPI DUP1 PUSH4 0xE9580E91 GT PUSH2 0xA2 JUMPI DUP1 PUSH4 0xF1127ED8 GT PUSH2 0x7C JUMPI DUP1 PUSH4 0xF1127ED8 EQ PUSH2 0x7D1 JUMPI DUP1 PUSH4 0xF2555725 EQ PUSH2 0x838 JUMPI DUP1 PUSH4 0xF2FDE38B EQ PUSH2 0x84C JUMPI DUP1 PUSH4 0xFCA3B5AA EQ PUSH2 0x85F JUMPI PUSH1 0x0 DUP1 REVERT JUMPDEST DUP1 PUSH4 0xE9580E91 EQ PUSH2 0x6DF JUMPI DUP1 PUSH4 0xE985E9C5 EQ PUSH2 0x6F2 JUMPI DUP1 PUSH4 0xF0503E80 EQ PUSH2 0x705 JUMPI PUSH1 0x0 DUP1 REVERT JUMPDEST DUP1 PUSH4 0xC1B8E4E1 EQ PUSH2 0x663 JUMPI DUP1 PUSH4 0xC3CDA520 EQ PUSH2 0x677 JUMPI DUP1 PUSH4 0xC87B56DD EQ PUSH2 0x68A JUMPI DUP1 PUSH4 0xD50B31EB EQ PUSH2 0x69D JUMPI DUP1 PUSH4 0xE7A324DC EQ PUSH2 0x6B0 JUMPI DUP1 PUSH4 0xE8A3D485 EQ PUSH2 0x6D7 JUMPI PUSH1 0x0 DUP1 REVERT JUMPDEST DUP1 PUSH4 0x8DA5CB5B GT PUSH2 0x156 JUMPI DUP1 PUSH4 0xB4B5EA57 GT PUSH2 0x130 JUMPI DUP1 PUSH4 0xB4B5EA57 EQ PUSH2 0x603 JUMPI DUP1 PUSH4 0xB50CBD9F EQ PUSH2 0x616 JUMPI DUP1 PUSH4 0xB88D4FDE EQ PUSH2 0x63D JUMPI DUP1 PUSH4 0xBAEDC1C4 EQ PUSH2 0x650 JUMPI PUSH1 0x0 DUP1 REVERT JUMPDEST DUP1 PUSH4 0x8DA5CB5B EQ PUSH2 0x5D7 JUMPI DUP1 PUSH4 0x95D89B41 EQ PUSH2 0x5E8 JUMPI DUP1 PUSH4 0xA22CB465 EQ PUSH2 0x5F0 JUMPI PUSH1 0x0 DUP1 REVERT JUMPDEST DUP1 PUSH4 0x6FCFFF45 EQ PUSH2 0x52E JUMPI DUP1 PUSH4 0x70A08231 EQ PUSH2 0x569 JUMPI DUP1 PUSH4 0x715018A6 EQ PUSH2 0x57C JUMPI DUP1 PUSH4 0x76DAEBE1 EQ PUSH2 0x584 JUMPI DUP1 PUSH4 0x782D6FE1 EQ PUSH2 0x58C JUMPI DUP1 PUSH4 0x7ECEBE00 EQ PUSH2 0x5B7 JUMPI PUSH1 0x0 DUP1 REVERT JUMPDEST DUP1 PUSH4 0x303E74DF GT PUSH2 0x25C JUMPI DUP1 PUSH4 0x4F6CCCE7 GT PUSH2 0x215 JUMPI DUP1 PUSH4 0x5C19A95C GT PUSH2 0x1EF JUMPI DUP1 PUSH4 0x5C19A95C EQ PUSH2 0x4ED JUMPI DUP1 PUSH4 0x5F295A67 EQ PUSH2 0x500 JUMPI DUP1 PUSH4 0x6352211E EQ PUSH2 0x508 JUMPI DUP1 PUSH4 0x684931ED EQ PUSH2 0x51B JUMPI PUSH1 0x0 DUP1 REVERT JUMPDEST DUP1 PUSH4 0x4F6CCCE7 EQ PUSH2 0x4B4 JUMPI DUP1 PUSH4 0x587CDE1E EQ PUSH2 0x4C7 JUMPI DUP1 PUSH4 0x5AC1E3BB EQ PUSH2 0x4DA JUMPI PUSH1 0x0 DUP1 REVERT JUMPDEST DUP1 PUSH4 0x303E74DF EQ PUSH2 0x446 JUMPI DUP1 PUSH4 0x313CE567 EQ PUSH2 0x459 JUMPI DUP1 PUSH4 0x41B5D0DE EQ PUSH2 0x473 JUMPI DUP1 PUSH4 0x42842E0E EQ PUSH2 0x47B JUMPI DUP1 PUSH4 0x42966C68 EQ PUSH2 0x48E JUMPI DUP1 PUSH4 0x4B664998 EQ PUSH2 0x4A1 JUMPI PUSH1 0x0 DUP1 REVERT JUMPDEST DUP1 PUSH4 0x1249C58B GT PUSH2 0x2C9 JUMPI DUP1 PUSH4 0x20606B70 GT PUSH2 0x2A3 JUMPI DUP1 PUSH4 0x20606B70 EQ PUSH2 0x3E6 JUMPI DUP1 PUSH4 0x23B872DD EQ PUSH2 0x40D JUMPI DUP1 PUSH4 0x2DC2B880 EQ PUSH2 0x420 JUMPI DUP1 PUSH4 0x2F745C59 EQ PUSH2 0x433 JUMPI PUSH1 0x0 DUP1 REVERT JUMPDEST DUP1 PUSH4 0x1249C58B EQ PUSH2 0x3B4 JUMPI DUP1 PUSH4 0x18160DDD EQ PUSH2 0x3CA JUMPI DUP1 PUSH4 0x1E688E10 EQ PUSH2 0x3D2 JUMPI PUSH1 0x0 DUP1 REVERT JUMPDEST DUP1 PUSH4 0x1B9A397 EQ PUSH2 0x311 JUMPI DUP1 PUSH4 0x1FFC9A7 EQ PUSH2 0x326 JUMPI DUP1 PUSH4 0x6FDDE03 EQ PUSH2 0x34E JUMPI DUP1 PUSH4 0x7546172 EQ PUSH2 0x363 JUMPI DUP1 PUSH4 0x81812FC EQ PUSH2 0x38E JUMPI DUP1 PUSH4 0x95EA7B3 EQ PUSH2 0x3A1 JUMPI JUMPDEST PUSH1 0x0 DUP1 REVERT JUMPDEST PUSH2 0x324 PUSH2 0x31F CALLDATASIZE PUSH1 0x4 PUSH2 0x30AA JUMP JUMPDEST PUSH2 0x872 JUMP JUMPDEST STOP JUMPDEST PUSH2 0x339 PUSH2 0x334 CALLDATASIZE PUSH1 0x4 PUSH2 0x30DD JUMP JUMPDEST PUSH2 0x94B JUMP JUMPDEST PUSH1 0x40 MLOAD SWAP1 ISZERO ISZERO DUP2 MSTORE PUSH1 0x20 ADD JUMPDEST PUSH1 0x40 MLOAD DUP1 SWAP2 SUB SWAP1 RETURN JUMPDEST PUSH2 0x356 PUSH2 0x976 JUMP JUMPDEST PUSH1 0x40 MLOAD PUSH2 0x345 SWAP2 SWAP1 PUSH2 0x314A JUMP JUMPDEST PUSH1 0x10 SLOAD PUSH2 0x376 SWAP1 PUSH1 0x1 PUSH1 0x1 PUSH1 0xA0 SHL SUB AND DUP2 JUMP JUMPDEST PUSH1 0x40 MLOAD PUSH1 0x1 PUSH1 0x1 PUSH1 0xA0 SHL SUB SWAP1 SWAP2 AND DUP2 MSTORE PUSH1 0x20 ADD PUSH2 0x345 JUMP JUMPDEST PUSH2 0x376 PUSH2 0x39C CALLDATASIZE PUSH1 0x4 PUSH2 0x315D JUMP JUMPDEST PUSH2 0xA08 JUMP JUMPDEST PUSH2 0x324 PUSH2 0x3AF CALLDATASIZE PUSH1 0x4 PUSH2 0x3176 JUMP JUMPDEST PUSH2 0xA9D JUMP JUMPDEST PUSH2 0x3BC PUSH2 0xBB2 JUMP JUMPDEST PUSH1 0x40 MLOAD SWAP1 DUP2 MSTORE PUSH1 0x20 ADD PUSH2 0x345 JUMP JUMPDEST PUSH1 0x9 SLOAD PUSH2 0x3BC JUMP JUMPDEST PUSH1 0x14 SLOAD PUSH2 0x339 SWAP1 PUSH1 0x1 PUSH1 0xA0 SHL SWAP1 DIV PUSH1 0xFF AND DUP2 JUMP JUMPDEST PUSH2 0x3BC PUSH32 0x8CAD95687BA82C2CE50E74F7B754645E5117C3A5BEC8151C0726D5857980A866 DUP2 JUMP JUMPDEST PUSH2 0x324 PUSH2 0x41B CALLDATASIZE PUSH1 0x4 PUSH2 0x31A2 JUMP JUMPDEST PUSH2 0xC84 JUMP JUMPDEST PUSH1 0xF SLOAD PUSH2 0x376 SWAP1 PUSH1 0x1 PUSH1 0x1 PUSH1 0xA0 SHL SUB AND DUP2 JUMP JUMPDEST PUSH2 0x3BC PUSH2 0x441 CALLDATASIZE PUSH1 0x4 PUSH2 0x3176 JUMP JUMPDEST PUSH2 0xCB5 JUMP JUMPDEST PUSH1 0x13 SLOAD PUSH2 0x376 SWAP1 PUSH1 0x1 PUSH1 0x1 PUSH1 0xA0 SHL SUB AND DUP2 JUMP JUMPDEST PUSH2 0x461 PUSH1 0x0 DUP2 JUMP JUMPDEST PUSH1 0x40 MLOAD PUSH1 0xFF SWAP1 SWAP2 AND DUP2 MSTORE PUSH1 0x20 ADD PUSH2 0x345 JUMP JUMPDEST PUSH2 0x324 PUSH2 0xD4B JUMP JUMPDEST PUSH2 0x324 PUSH2 0x489 CALLDATASIZE PUSH1 0x4 PUSH2 0x31A2 JUMP JUMPDEST PUSH2 0xE04 JUMP JUMPDEST PUSH2 0x324 PUSH2 0x49C CALLDATASIZE PUSH1 0x4 PUSH2 0x315D JUMP JUMPDEST PUSH2 0xE1F JUMP JUMPDEST PUSH2 0x324 PUSH2 0x4AF CALLDATASIZE PUSH1 0x4 PUSH2 0x30AA JUMP JUMPDEST PUSH2 0xE56 JUMP JUMPDEST PUSH2 0x3BC PUSH2 0x4C2 CALLDATASIZE PUSH1 0x4 PUSH2 0x315D JUMP JUMPDEST PUSH2 0xEFE JUMP JUMPDEST PUSH2 0x376 PUSH2 0x4D5 CALLDATASIZE PUSH1 0x4 PUSH2 0x30AA JUMP JUMPDEST PUSH2 0xF91 JUMP JUMPDEST PUSH2 0x356 PUSH2 0x4E8 CALLDATASIZE PUSH1 0x4 PUSH2 0x315D JUMP JUMPDEST PUSH2 0xFC3 JUMP JUMPDEST PUSH2 0x324 PUSH2 0x4FB CALLDATASIZE PUSH1 0x4 PUSH2 0x30AA JUMP JUMPDEST PUSH2 0x107F JUMP JUMPDEST PUSH2 0x324 PUSH2 0x109D JUMP JUMPDEST PUSH2 0x376 PUSH2 0x516 CALLDATASIZE PUSH1 0x4 PUSH2 0x315D JUMP JUMPDEST PUSH2 0x1152 JUMP JUMPDEST PUSH1 0x14 SLOAD PUSH2 0x376 SWAP1 PUSH1 0x1 PUSH1 0x1 PUSH1 0xA0 SHL SUB AND DUP2 JUMP JUMPDEST PUSH2 0x554 PUSH2 0x53C CALLDATASIZE PUSH1 0x4 PUSH2 0x30AA JUMP JUMPDEST PUSH1 0xD PUSH1 0x20 MSTORE PUSH1 0x0 SWAP1 DUP2 MSTORE PUSH1 0x40 SWAP1 KECCAK256 SLOAD PUSH4 0xFFFFFFFF AND DUP2 JUMP JUMPDEST PUSH1 0x40 MLOAD PUSH4 0xFFFFFFFF SWAP1 SWAP2 AND DUP2 MSTORE PUSH1 0x20 ADD PUSH2 0x345 JUMP JUMPDEST PUSH2 0x3BC PUSH2 0x577 CALLDATASIZE PUSH1 0x4 PUSH2 0x30AA JUMP JUMPDEST PUSH2 0x11C9 JUMP JUMPDEST PUSH2 0x324 PUSH2 0x1250 JUMP JUMPDEST PUSH2 0x324 PUSH2 0x1286 JUMP JUMPDEST PUSH2 0x59F PUSH2 0x59A CALLDATASIZE PUSH1 0x4 PUSH2 0x3176 JUMP JUMPDEST PUSH2 0x133B JUMP JUMPDEST PUSH1 0x40 MLOAD PUSH1 0x1 PUSH1 0x1 PUSH1 0x60 SHL SUB SWAP1 SWAP2 AND DUP2 MSTORE PUSH1 0x20 ADD PUSH2 0x345 JUMP JUMPDEST PUSH2 0x3BC PUSH2 0x5C5 CALLDATASIZE PUSH1 0x4 PUSH2 0x30AA JUMP JUMPDEST PUSH1 0xE PUSH1 0x20 MSTORE PUSH1 0x0 SWAP1 DUP2 MSTORE PUSH1 0x40 SWAP1 KECCAK256 SLOAD DUP2 JUMP JUMPDEST PUSH1 0x0 SLOAD PUSH1 0x1 PUSH1 0x1 PUSH1 0xA0 SHL SUB AND PUSH2 0x376 JUMP JUMPDEST PUSH2 0x356 PUSH2 0x15DB JUMP JUMPDEST PUSH2 0x324 PUSH2 0x5FE CALLDATASIZE PUSH1 0x4 PUSH2 0x31E3 JUMP JUMPDEST PUSH2 0x15EA JUMP JUMPDEST PUSH2 0x59F PUSH2 0x611 CALLDATASIZE PUSH1 0x4 PUSH2 0x30AA JUMP JUMPDEST PUSH2 0x16AE JUMP JUMPDEST PUSH2 0x376 PUSH32 0x0 DUP2 JUMP JUMPDEST PUSH2 0x324 PUSH2 0x64B CALLDATASIZE PUSH1 0x4 PUSH2 0x32F8 JUMP JUMPDEST PUSH2 0x172B JUMP JUMPDEST PUSH2 0x324 PUSH2 0x65E CALLDATASIZE PUSH1 0x4 PUSH2 0x3378 JUMP JUMPDEST PUSH2 0x1763 JUMP JUMPDEST PUSH1 0x14 SLOAD PUSH2 0x339 SWAP1 PUSH1 0x1 PUSH1 0xA8 SHL SWAP1 DIV PUSH1 0xFF AND DUP2 JUMP JUMPDEST PUSH2 0x324 PUSH2 0x685 CALLDATASIZE PUSH1 0x4 PUSH2 0x33C1 JUMP JUMPDEST PUSH2 0x179D JUMP JUMPDEST PUSH2 0x356 PUSH2 0x698 CALLDATASIZE PUSH1 0x4 PUSH2 0x315D JUMP JUMPDEST PUSH2 0x1A9B JUMP JUMPDEST PUSH2 0x324 PUSH2 0x6AB CALLDATASIZE PUSH1 0x4 PUSH2 0x30AA JUMP JUMPDEST PUSH2 0x1B12 JUMP JUMPDEST PUSH2 0x3BC PUSH32 0xE48329057BFD03D55E49B547132E39CFFD9C1820AD7B9D4C5307691425D15ADF DUP2 JUMP JUMPDEST PUSH2 0x356 PUSH2 0x1BD7 JUMP JUMPDEST PUSH2 0x59F PUSH2 0x6ED CALLDATASIZE PUSH1 0x4 PUSH2 0x30AA JUMP JUMPDEST PUSH2 0x1BFF JUMP JUMPDEST PUSH2 0x339 PUSH2 0x700 CALLDATASIZE PUSH1 0x4 PUSH2 0x3423 JUMP JUMPDEST PUSH2 0x1C2B JUMP JUMPDEST PUSH2 0x778 PUSH2 0x713 CALLDATASIZE PUSH1 0x4 PUSH2 0x315D JUMP JUMPDEST PUSH1 0x15 PUSH1 0x20 MSTORE PUSH1 0x0 SWAP1 DUP2 MSTORE PUSH1 0x40 SWAP1 KECCAK256 DUP1 SLOAD PUSH1 0x1 SWAP1 SWAP2 ADD SLOAD PUSH6 0xFFFFFFFFFFFF DUP1 DUP4 AND SWAP3 PUSH7 0x1000000000000 DUP1 DUP3 DIV DUP4 AND SWAP4 PUSH1 0x1 PUSH1 0x60 SHL DUP1 DUP5 DIV DUP6 AND SWAP5 PUSH1 0x1 PUSH1 0x90 SHL DUP1 DUP7 DIV DUP3 AND SWAP6 PUSH1 0x1 PUSH1 0xC0 SHL SWAP1 DIV DUP3 AND SWAP5 DUP5 DUP4 AND SWAP5 SWAP1 DUP2 DIV DUP4 AND SWAP4 DUP2 DIV DUP4 AND SWAP3 SWAP2 SWAP1 DIV AND DUP10 JUMP JUMPDEST PUSH1 0x40 DUP1 MLOAD PUSH6 0xFFFFFFFFFFFF SWAP11 DUP12 AND DUP2 MSTORE SWAP9 DUP11 AND PUSH1 0x20 DUP11 ADD MSTORE SWAP7 DUP10 AND SWAP7 DUP9 ADD SWAP7 SWAP1 SWAP7 MSTORE SWAP4 DUP8 AND PUSH1 0x60 DUP8 ADD MSTORE SWAP2 DUP7 AND PUSH1 0x80 DUP7 ADD MSTORE DUP6 AND PUSH1 0xA0 DUP6 ADD MSTORE DUP5 AND PUSH1 0xC0 DUP5 ADD MSTORE DUP4 AND PUSH1 0xE0 DUP4 ADD MSTORE SWAP1 SWAP2 AND PUSH2 0x100 DUP3 ADD MSTORE PUSH2 0x120 ADD PUSH2 0x345 JUMP JUMPDEST PUSH2 0x814 PUSH2 0x7DF CALLDATASIZE PUSH1 0x4 PUSH2 0x3451 JUMP JUMPDEST PUSH1 0xC PUSH1 0x20 SWAP1 DUP2 MSTORE PUSH1 0x0 SWAP3 DUP4 MSTORE PUSH1 0x40 DUP1 DUP5 KECCAK256 SWAP1 SWAP2 MSTORE SWAP1 DUP3 MSTORE SWAP1 KECCAK256 SLOAD PUSH4 0xFFFFFFFF DUP2 AND SWAP1 PUSH1 0x1 PUSH1 0x20 SHL SWAP1 DIV PUSH1 0x1 PUSH1 0x1 PUSH1 0x60 SHL SUB AND DUP3 JUMP JUMPDEST PUSH1 0x40 DUP1 MLOAD PUSH4 0xFFFFFFFF SWAP1 SWAP4 AND DUP4 MSTORE PUSH1 0x1 PUSH1 0x1 PUSH1 0x60 SHL SUB SWAP1 SWAP2 AND PUSH1 0x20 DUP4 ADD MSTORE ADD PUSH2 0x345 JUMP JUMPDEST PUSH1 0x14 SLOAD PUSH2 0x339 SWAP1 PUSH1 0x1 PUSH1 0xB0 SHL SWAP1 DIV PUSH1 0xFF AND DUP2 JUMP JUMPDEST PUSH2 0x324 PUSH2 0x85A CALLDATASIZE PUSH1 0x4 PUSH2 0x30AA JUMP JUMPDEST PUSH2 0x1D00 JUMP JUMPDEST PUSH2 0x324 PUSH2 0x86D CALLDATASIZE PUSH1 0x4 PUSH2 0x30AA JUMP JUMPDEST PUSH2 0x1D98 JUMP JUMPDEST PUSH1 0x0 SLOAD PUSH1 0x1 PUSH1 0x1 PUSH1 0xA0 SHL SUB AND CALLER EQ PUSH2 0x8A5 JUMPI PUSH1 0x40 MLOAD PUSH3 0x461BCD PUSH1 0xE5 SHL DUP2 MSTORE PUSH1 0x4 ADD PUSH2 0x89C SWAP1 PUSH2 0x3488 JUMP JUMPDEST PUSH1 0x40 MLOAD DUP1 SWAP2 SUB SWAP1 REVERT JUMPDEST PUSH1 0x14 SLOAD PUSH1 0x1 PUSH1 0xA8 SHL SWAP1 DIV PUSH1 0xFF AND ISZERO PUSH2 0x8F6 JUMPI PUSH1 0x40 MLOAD PUSH3 0x461BCD PUSH1 0xE5 SHL DUP2 MSTORE PUSH1 0x20 PUSH1 0x4 DUP3 ADD MSTORE PUSH1 0x14 PUSH1 0x24 DUP3 ADD MSTORE PUSH20 0x11195CD8DC9A5C1D1BDC881A5CC81B1BD8DAD959 PUSH1 0x62 SHL PUSH1 0x44 DUP3 ADD MSTORE PUSH1 0x64 ADD PUSH2 0x89C JUMP JUMPDEST PUSH1 0x13 DUP1 SLOAD PUSH1 0x1 PUSH1 0x1 PUSH1 0xA0 SHL SUB NOT AND PUSH1 0x1 PUSH1 0x1 PUSH1 0xA0 SHL SUB DUP4 AND SWAP1 DUP2 OR SWAP1 SWAP2 SSTORE PUSH1 0x40 MLOAD SWAP1 DUP2 MSTORE PUSH32 0x6E66AB22238A5471005895947C8F57DB923C2A9C9C73180EFF80864C21295C1B SWAP1 PUSH1 0x20 ADD JUMPDEST PUSH1 0x40 MLOAD DUP1 SWAP2 SUB SWAP1 LOG1 POP JUMP JUMPDEST PUSH1 0x0 PUSH1 0x1 PUSH1 0x1 PUSH1 0xE0 SHL SUB NOT DUP3 AND PUSH4 0x780E9D63 PUSH1 0xE0 SHL EQ DUP1 PUSH2 0x970 JUMPI POP PUSH2 0x970 DUP3 PUSH2 0x1E5D JUMP JUMPDEST SWAP3 SWAP2 POP POP JUMP JUMPDEST PUSH1 0x60 PUSH1 0x1 DUP1 SLOAD PUSH2 0x985 SWAP1 PUSH2 0x34BD JUMP JUMPDEST DUP1 PUSH1 0x1F ADD PUSH1 0x20 DUP1 SWAP2 DIV MUL PUSH1 0x20 ADD PUSH1 0x40 MLOAD SWAP1 DUP2 ADD PUSH1 0x40 MSTORE DUP1 SWAP3 SWAP2 SWAP1 DUP2 DUP2 MSTORE PUSH1 0x20 ADD DUP3 DUP1 SLOAD PUSH2 0x9B1 SWAP1 PUSH2 0x34BD JUMP JUMPDEST DUP1 ISZERO PUSH2 0x9FE JUMPI DUP1 PUSH1 0x1F LT PUSH2 0x9D3 JUMPI PUSH2 0x100 DUP1 DUP4 SLOAD DIV MUL DUP4 MSTORE SWAP2 PUSH1 0x20 ADD SWAP2 PUSH2 0x9FE JUMP JUMPDEST DUP3 ADD SWAP2 SWAP1 PUSH1 0x0 MSTORE PUSH1 0x20 PUSH1 0x0 KECCAK256 SWAP1 JUMPDEST DUP2 SLOAD DUP2 MSTORE SWAP1 PUSH1 0x1 ADD SWAP1 PUSH1 0x20 ADD DUP1 DUP4 GT PUSH2 0x9E1 JUMPI DUP3 SWAP1 SUB PUSH1 0x1F AND DUP3 ADD SWAP2 JUMPDEST POP POP POP POP POP SWAP1 POP SWAP1 JUMP JUMPDEST PUSH1 0x0 DUP2 DUP2 MSTORE PUSH1 0x3 PUSH1 0x20 MSTORE PUSH1 0x40 DUP2 KECCAK256 SLOAD PUSH1 0x1 PUSH1 0x1 PUSH1 0xA0 SHL SUB AND PUSH2 0xA81 JUMPI PUSH1 0x40 MLOAD PUSH3 0x461BCD PUSH1 0xE5 SHL DUP2 MSTORE PUSH1 0x20 PUSH1 0x4 DUP3 ADD MSTORE PUSH1 0x2C PUSH1 0x24 DUP3 ADD MSTORE PUSH32 0x4552433732313A20617070726F76656420717565727920666F72206E6F6E6578 PUSH1 0x44 DUP3 ADD MSTORE PUSH12 0x34B9BA32B73A103A37B5B2B7 PUSH1 0xA1 SHL PUSH1 0x64 DUP3 ADD MSTORE PUSH1 0x84 ADD PUSH2 0x89C JUMP JUMPDEST POP PUSH1 0x0 SWAP1 DUP2 MSTORE PUSH1 0x5 PUSH1 0x20 MSTORE PUSH1 0x40 SWAP1 KECCAK256 SLOAD PUSH1 0x1 PUSH1 0x1 PUSH1 0xA0 SHL SUB AND SWAP1 JUMP JUMPDEST PUSH1 0x0 PUSH2 0xAA8 DUP3 PUSH2 0x1152 JUMP JUMPDEST SWAP1 POP DUP1 PUSH1 0x1 PUSH1 0x1 PUSH1 0xA0 SHL SUB AND DUP4 PUSH1 0x1 PUSH1 0x1 PUSH1 0xA0 SHL SUB AND SUB PUSH2 0xB15 JUMPI PUSH1 0x40 MLOAD PUSH3 0x461BCD PUSH1 0xE5 SHL DUP2 MSTORE PUSH1 0x20 PUSH1 0x4 DUP3 ADD MSTORE PUSH1 0x21 PUSH1 0x24 DUP3 ADD MSTORE PUSH32 0x4552433732313A20617070726F76616C20746F2063757272656E74206F776E65 PUSH1 0x44 DUP3 ADD MSTORE PUSH1 0x39 PUSH1 0xF9 SHL PUSH1 0x64 DUP3 ADD MSTORE PUSH1 0x84 ADD PUSH2 0x89C JUMP JUMPDEST CALLER PUSH1 0x1 PUSH1 0x1 PUSH1 0xA0 SHL SUB DUP3 AND EQ DUP1 PUSH2 0xB31 JUMPI POP PUSH2 0xB31 DUP2 CALLER PUSH2 0x1C2B JUMP JUMPDEST PUSH2 0xBA3 JUMPI PUSH1 0x40 MLOAD PUSH3 0x461BCD PUSH1 0xE5 SHL DUP2 MSTORE PUSH1 0x20 PUSH1 0x4 DUP3 ADD MSTORE PUSH1 0x38 PUSH1 0x24 DUP3 ADD MSTORE PUSH32 0x4552433732313A20617070726F76652063616C6C6572206973206E6F74206F77 PUSH1 0x44 DUP3 ADD MSTORE PUSH32 0x6E6572206E6F7220617070726F76656420666F7220616C6C0000000000000000 PUSH1 0x64 DUP3 ADD MSTORE PUSH1 0x84 ADD PUSH2 0x89C JUMP JUMPDEST PUSH2 0xBAD DUP4 DUP4 PUSH2 0x1EAD JUMP JUMPDEST POP POP POP JUMP JUMPDEST PUSH1 0x10 SLOAD PUSH1 0x0 SWAP1 PUSH1 0x1 PUSH1 0x1 PUSH1 0xA0 SHL SUB AND CALLER EQ PUSH2 0xC0F JUMPI PUSH1 0x40 MLOAD PUSH3 0x461BCD PUSH1 0xE5 SHL DUP2 MSTORE PUSH1 0x20 PUSH1 0x4 DUP3 ADD MSTORE PUSH1 0x18 PUSH1 0x24 DUP3 ADD MSTORE PUSH32 0x53656E646572206973206E6F7420746865206D696E7465720000000000000000 PUSH1 0x44 DUP3 ADD MSTORE PUSH1 0x64 ADD PUSH2 0x89C JUMP JUMPDEST PUSH2 0x1F4 PUSH1 0x16 SLOAD GT ISZERO DUP1 ISZERO PUSH2 0xC2F JUMPI POP PUSH1 0xA PUSH1 0x16 SLOAD PUSH2 0xC2D SWAP2 SWAP1 PUSH2 0x350D JUMP JUMPDEST ISZERO JUMPDEST ISZERO PUSH2 0xC5F JUMPI PUSH1 0xF SLOAD PUSH1 0x16 DUP1 SLOAD PUSH2 0xC5D SWAP3 PUSH1 0x1 PUSH1 0x1 PUSH1 0xA0 SHL SUB AND SWAP2 PUSH1 0x0 PUSH2 0xC54 DUP4 PUSH2 0x3537 JUMP JUMPDEST SWAP2 SWAP1 POP SSTORE PUSH2 0x1F1B JUMP JUMPDEST POP JUMPDEST PUSH1 0x10 SLOAD PUSH1 0x16 DUP1 SLOAD PUSH2 0xC7F SWAP3 PUSH1 0x1 PUSH1 0x1 PUSH1 0xA0 SHL SUB AND SWAP2 PUSH1 0x0 PUSH2 0xC54 DUP4 PUSH2 0x3537 JUMP JUMPDEST SWAP1 POP SWAP1 JUMP JUMPDEST PUSH2 0xC8E CALLER DUP3 PUSH2 0x2326 JUMP JUMPDEST PUSH2 0xCAA JUMPI PUSH1 0x40 MLOAD PUSH3 0x461BCD PUSH1 0xE5 SHL DUP2 MSTORE PUSH1 0x4 ADD PUSH2 0x89C SWAP1 PUSH2 0x3550 JUMP JUMPDEST PUSH2 0xBAD DUP4 DUP4 DUP4 PUSH2 0x23FD JUMP JUMPDEST PUSH1 0x0 PUSH2 0xCC0 DUP4 PUSH2 0x11C9 JUMP JUMPDEST DUP3 LT PUSH2 0xD22 JUMPI PUSH1 0x40 MLOAD PUSH3 0x461BCD PUSH1 0xE5 SHL DUP2 MSTORE PUSH1 0x20 PUSH1 0x4 DUP3 ADD MSTORE PUSH1 0x2B PUSH1 0x24 DUP3 ADD MSTORE PUSH32 0x455243373231456E756D657261626C653A206F776E657220696E646578206F75 PUSH1 0x44 DUP3 ADD MSTORE PUSH11 0x74206F6620626F756E6473 PUSH1 0xA8 SHL PUSH1 0x64 DUP3 ADD MSTORE PUSH1 0x84 ADD PUSH2 0x89C JUMP JUMPDEST POP PUSH1 0x1 PUSH1 0x1 PUSH1 0xA0 SHL SUB SWAP2 SWAP1 SWAP2 AND PUSH1 0x0 SWAP1 DUP2 MSTORE PUSH1 0x7 PUSH1 0x20 SWAP1 DUP2 MSTORE PUSH1 0x40 DUP1 DUP4 KECCAK256 SWAP4 DUP4 MSTORE SWAP3 SWAP1 MSTORE KECCAK256 SLOAD SWAP1 JUMP JUMPDEST PUSH1 0x0 SLOAD PUSH1 0x1 PUSH1 0x1 PUSH1 0xA0 SHL SUB AND CALLER EQ PUSH2 0xD75 JUMPI PUSH1 0x40 MLOAD PUSH3 0x461BCD PUSH1 0xE5 SHL DUP2 MSTORE PUSH1 0x4 ADD PUSH2 0x89C SWAP1 PUSH2 0x3488 JUMP JUMPDEST PUSH1 0x14 SLOAD PUSH1 0x1 PUSH1 0xA8 SHL SWAP1 DIV PUSH1 0xFF AND ISZERO PUSH2 0xDC6 JUMPI PUSH1 0x40 MLOAD PUSH3 0x461BCD PUSH1 0xE5 SHL DUP2 MSTORE PUSH1 0x20 PUSH1 0x4 DUP3 ADD MSTORE PUSH1 0x14 PUSH1 0x24 DUP3 ADD MSTORE PUSH20 0x11195CD8DC9A5C1D1BDC881A5CC81B1BD8DAD959 PUSH1 0x62 SHL PUSH1 0x44 DUP3 ADD MSTORE PUSH1 0x64 ADD PUSH2 0x89C JUMP JUMPDEST PUSH1 0x14 DUP1 SLOAD PUSH1 0xFF PUSH1 0xA8 SHL NOT AND PUSH1 0x1 PUSH1 0xA8 SHL OR SWAP1 SSTORE PUSH1 0x40 MLOAD PUSH32 0x593E31E306C198BEF259D839F7C6DC4FF7FC10C07F76FAB193A210B03704105F SWAP1 PUSH1 0x0 SWAP1 LOG1 JUMP JUMPDEST PUSH2 0xBAD DUP4 DUP4 DUP4 PUSH1 0x40 MLOAD DUP1 PUSH1 0x20 ADD PUSH1 0x40 MSTORE DUP1 PUSH1 0x0 DUP2 MSTORE POP PUSH2 0x172B JUMP JUMPDEST PUSH2 0xE28 DUP2 PUSH2 0x2596 JUMP JUMPDEST PUSH1 0x40 MLOAD DUP2 SWAP1 PUSH32 0x3D4E40D854F0F6C2560182A42DAB2BF4FBE8A5319BA42757B3AC821C37BB142 SWAP1 PUSH1 0x0 SWAP1 LOG2 POP JUMP JUMPDEST PUSH1 0xF SLOAD PUSH1 0x1 PUSH1 0x1 PUSH1 0xA0 SHL SUB AND CALLER EQ PUSH2 0xEB0 JUMPI PUSH1 0x40 MLOAD PUSH3 0x461BCD PUSH1 0xE5 SHL DUP2 MSTORE PUSH1 0x20 PUSH1 0x4 DUP3 ADD MSTORE PUSH1 0x1F PUSH1 0x24 DUP3 ADD MSTORE PUSH32 0x53656E646572206973206E6F7420746865206B6F616C61736572732044414F00 PUSH1 0x44 DUP3 ADD MSTORE PUSH1 0x64 ADD PUSH2 0x89C JUMP JUMPDEST PUSH1 0xF DUP1 SLOAD PUSH1 0x1 PUSH1 0x1 PUSH1 0xA0 SHL SUB NOT AND PUSH1 0x1 PUSH1 0x1 PUSH1 0xA0 SHL SUB DUP4 AND SWAP1 DUP2 OR SWAP1 SWAP2 SSTORE PUSH1 0x40 MLOAD SWAP1 DUP2 MSTORE PUSH32 0xD895A3DD6D558BBA54C9123E0D5D3436829F8871F270ACB46099CF9A6E440FCB SWAP1 PUSH1 0x20 ADD PUSH2 0x940 JUMP JUMPDEST PUSH1 0x0 PUSH2 0xF09 PUSH1 0x9 SLOAD SWAP1 JUMP JUMPDEST DUP3 LT PUSH2 0xF6C JUMPI PUSH1 0x40 MLOAD PUSH3 0x461BCD PUSH1 0xE5 SHL DUP2 MSTORE PUSH1 0x20 PUSH1 0x4 DUP3 ADD MSTORE PUSH1 0x2C PUSH1 0x24 DUP3 ADD MSTORE PUSH32 0x455243373231456E756D657261626C653A20676C6F62616C20696E646578206F PUSH1 0x44 DUP3 ADD MSTORE PUSH12 0x7574206F6620626F756E6473 PUSH1 0xA0 SHL PUSH1 0x64 DUP3 ADD MSTORE PUSH1 0x84 ADD PUSH2 0x89C JUMP JUMPDEST PUSH1 0x9 DUP3 DUP2 SLOAD DUP2 LT PUSH2 0xF7F JUMPI PUSH2 0xF7F PUSH2 0x35A1 JUMP JUMPDEST SWAP1 PUSH1 0x0 MSTORE PUSH1 0x20 PUSH1 0x0 KECCAK256 ADD SLOAD SWAP1 POP SWAP2 SWAP1 POP JUMP JUMPDEST PUSH1 0x1 PUSH1 0x1 PUSH1 0xA0 SHL SUB DUP1 DUP3 AND PUSH1 0x0 SWAP1 DUP2 MSTORE PUSH1 0xB PUSH1 0x20 MSTORE PUSH1 0x40 DUP2 KECCAK256 SLOAD SWAP1 SWAP2 AND DUP1 ISZERO PUSH2 0xFBA JUMPI DUP1 PUSH2 0xFBC JUMP JUMPDEST DUP3 JUMPDEST SWAP4 SWAP3 POP POP POP JUMP JUMPDEST PUSH1 0x0 DUP2 DUP2 MSTORE PUSH1 0x3 PUSH1 0x20 MSTORE PUSH1 0x40 SWAP1 KECCAK256 SLOAD PUSH1 0x60 SWAP1 PUSH1 0x1 PUSH1 0x1 PUSH1 0xA0 SHL SUB AND PUSH2 0xFFA JUMPI PUSH1 0x40 MLOAD PUSH3 0x461BCD PUSH1 0xE5 SHL DUP2 MSTORE PUSH1 0x4 ADD PUSH2 0x89C SWAP1 PUSH2 0x35B7 JUMP JUMPDEST PUSH1 0x13 SLOAD PUSH1 0x0 DUP4 DUP2 MSTORE PUSH1 0x15 PUSH1 0x20 MSTORE PUSH1 0x40 SWAP1 DUP2 SWAP1 KECCAK256 SWAP1 MLOAD PUSH4 0x350E1177 PUSH1 0xE0 SHL DUP2 MSTORE PUSH1 0x1 PUSH1 0x1 PUSH1 0xA0 SHL SUB SWAP1 SWAP3 AND SWAP2 PUSH4 0x350E1177 SWAP2 PUSH2 0x103A SWAP2 DUP7 SWAP2 SWAP1 PUSH1 0x4 ADD PUSH2 0x3602 JUMP JUMPDEST PUSH1 0x0 PUSH1 0x40 MLOAD DUP1 DUP4 SUB DUP2 DUP7 GAS STATICCALL ISZERO DUP1 ISZERO PUSH2 0x1057 JUMPI RETURNDATASIZE PUSH1 0x0 DUP1 RETURNDATACOPY RETURNDATASIZE PUSH1 0x0 REVERT JUMPDEST POP POP POP POP PUSH1 0x40 MLOAD RETURNDATASIZE PUSH1 0x0 DUP3 RETURNDATACOPY PUSH1 0x1F RETURNDATASIZE SWAP1 DUP2 ADD PUSH1 0x1F NOT AND DUP3 ADD PUSH1 0x40 MSTORE PUSH2 0x970 SWAP2 SWAP1 DUP2 ADD SWAP1 PUSH2 0x367B JUMP JUMPDEST PUSH1 0x1 PUSH1 0x1 PUSH1 0xA0 SHL SUB DUP2 AND PUSH2 0x1090 JUMPI POP CALLER JUMPDEST PUSH2 0x109A CALLER DUP3 PUSH2 0x262B JUMP JUMPDEST POP JUMP JUMPDEST PUSH1 0x0 SLOAD PUSH1 0x1 PUSH1 0x1 PUSH1 0xA0 SHL SUB AND CALLER EQ PUSH2 0x10C7 JUMPI PUSH1 0x40 MLOAD PUSH3 0x461BCD PUSH1 0xE5 SHL DUP2 MSTORE PUSH1 0x4 ADD PUSH2 0x89C SWAP1 PUSH2 0x3488 JUMP JUMPDEST PUSH1 0x14 SLOAD PUSH1 0x1 PUSH1 0xB0 SHL SWAP1 DIV PUSH1 0xFF AND ISZERO PUSH2 0x1114 JUMPI PUSH1 0x40 MLOAD PUSH3 0x461BCD PUSH1 0xE5 SHL DUP2 MSTORE PUSH1 0x20 PUSH1 0x4 DUP3 ADD MSTORE PUSH1 0x10 PUSH1 0x24 DUP3 ADD MSTORE PUSH16 0x14D95959195C881A5CC81B1BD8DAD959 PUSH1 0x82 SHL PUSH1 0x44 DUP3 ADD MSTORE PUSH1 0x64 ADD PUSH2 0x89C JUMP JUMPDEST PUSH1 0x14 DUP1 SLOAD PUSH1 0xFF PUSH1 0xB0 SHL NOT AND PUSH1 0x1 PUSH1 0xB0 SHL OR SWAP1 SSTORE PUSH1 0x40 MLOAD PUSH32 0xF59561F22794AFCFB1E6BE5C4733F5449FD167252A96B74BB06D341FB0DAC7ED SWAP1 PUSH1 0x0 SWAP1 LOG1 JUMP JUMPDEST PUSH1 0x0 DUP2 DUP2 MSTORE PUSH1 0x3 PUSH1 0x20 MSTORE PUSH1 0x40 DUP2 KECCAK256 SLOAD PUSH1 0x1 PUSH1 0x1 PUSH1 0xA0 SHL SUB AND DUP1 PUSH2 0x970 JUMPI PUSH1 0x40 MLOAD PUSH3 0x461BCD PUSH1 0xE5 SHL DUP2 MSTORE PUSH1 0x20 PUSH1 0x4 DUP3 ADD MSTORE PUSH1 0x29 PUSH1 0x24 DUP3 ADD MSTORE PUSH32 0x4552433732313A206F776E657220717565727920666F72206E6F6E6578697374 PUSH1 0x44 DUP3 ADD MSTORE PUSH9 0x32B73A103A37B5B2B7 PUSH1 0xB9 SHL PUSH1 0x64 DUP3 ADD MSTORE PUSH1 0x84 ADD PUSH2 0x89C JUMP JUMPDEST PUSH1 0x0 PUSH1 0x1 PUSH1 0x1 PUSH1 0xA0 SHL SUB DUP3 AND PUSH2 0x1234 JUMPI PUSH1 0x40 MLOAD PUSH3 0x461BCD PUSH1 0xE5 SHL DUP2 MSTORE PUSH1 0x20 PUSH1 0x4 DUP3 ADD MSTORE PUSH1 0x2A PUSH1 0x24 DUP3 ADD MSTORE PUSH32 0x4552433732313A2062616C616E636520717565727920666F7220746865207A65 PUSH1 0x44 DUP3 ADD MSTORE PUSH10 0x726F2061646472657373 PUSH1 0xB0 SHL PUSH1 0x64 DUP3 ADD MSTORE PUSH1 0x84 ADD PUSH2 0x89C JUMP JUMPDEST POP PUSH1 0x1 PUSH1 0x1 PUSH1 0xA0 SHL SUB AND PUSH1 0x0 SWAP1 DUP2 MSTORE PUSH1 0x4 PUSH1 0x20 MSTORE PUSH1 0x40 SWAP1 KECCAK256 SLOAD SWAP1 JUMP JUMPDEST PUSH1 0x0 SLOAD PUSH1 0x1 PUSH1 0x1 PUSH1 0xA0 SHL SUB AND CALLER EQ PUSH2 0x127A JUMPI PUSH1 0x40 MLOAD PUSH3 0x461BCD PUSH1 0xE5 SHL DUP2 MSTORE PUSH1 0x4 ADD PUSH2 0x89C SWAP1 PUSH2 0x3488 JUMP JUMPDEST PUSH2 0x1284 PUSH1 0x0 PUSH2 0x26AB JUMP JUMPDEST JUMP JUMPDEST PUSH1 0x0 SLOAD PUSH1 0x1 PUSH1 0x1 PUSH1 0xA0 SHL SUB AND CALLER EQ PUSH2 0x12B0 JUMPI PUSH1 0x40 MLOAD PUSH3 0x461BCD PUSH1 0xE5 SHL DUP2 MSTORE PUSH1 0x4 ADD PUSH2 0x89C SWAP1 PUSH2 0x3488 JUMP JUMPDEST PUSH1 0x14 SLOAD PUSH1 0x1 PUSH1 0xA0 SHL SWAP1 DIV PUSH1 0xFF AND ISZERO PUSH2 0x12FD JUMPI PUSH1 0x40 MLOAD PUSH3 0x461BCD PUSH1 0xE5 SHL DUP2 MSTORE PUSH1 0x20 PUSH1 0x4 DUP3 ADD MSTORE PUSH1 0x10 PUSH1 0x24 DUP3 ADD MSTORE PUSH16 0x135A5B9D195C881A5CC81B1BD8DAD959 PUSH1 0x82 SHL PUSH1 0x44 DUP3 ADD MSTORE PUSH1 0x64 ADD PUSH2 0x89C JUMP JUMPDEST PUSH1 0x14 DUP1 SLOAD PUSH1 0xFF PUSH1 0xA0 SHL NOT AND PUSH1 0x1 PUSH1 0xA0 SHL OR SWAP1 SSTORE PUSH1 0x40 MLOAD PUSH32 0x192417B3F16B1CE69E0C59B0376549666650245FFC05E4B2569089DDA8589B66 SWAP1 PUSH1 0x0 SWAP1 LOG1 JUMP JUMPDEST PUSH1 0x0 NUMBER DUP3 LT PUSH2 0x13B2 JUMPI PUSH1 0x40 MLOAD PUSH3 0x461BCD PUSH1 0xE5 SHL DUP2 MSTORE PUSH1 0x20 PUSH1 0x4 DUP3 ADD MSTORE PUSH1 0x37 PUSH1 0x24 DUP3 ADD MSTORE PUSH32 0x455243373231436865636B706F696E7461626C653A3A6765745072696F72566F PUSH1 0x44 DUP3 ADD MSTORE PUSH32 0x7465733A206E6F74207965742064657465726D696E6564000000000000000000 PUSH1 0x64 DUP3 ADD MSTORE PUSH1 0x84 ADD PUSH2 0x89C JUMP JUMPDEST PUSH1 0x1 PUSH1 0x1 PUSH1 0xA0 SHL SUB DUP4 AND PUSH1 0x0 SWAP1 DUP2 MSTORE PUSH1 0xD PUSH1 0x20 MSTORE PUSH1 0x40 DUP2 KECCAK256 SLOAD PUSH4 0xFFFFFFFF AND SWAP1 DUP2 SWAP1 SUB PUSH2 0x13E3 JUMPI PUSH1 0x0 SWAP2 POP POP PUSH2 0x970 JUMP JUMPDEST PUSH1 0x1 PUSH1 0x1 PUSH1 0xA0 SHL SUB DUP5 AND PUSH1 0x0 SWAP1 DUP2 MSTORE PUSH1 0xC PUSH1 0x20 MSTORE PUSH1 0x40 DUP2 KECCAK256 DUP5 SWAP2 PUSH2 0x1408 PUSH1 0x1 DUP6 PUSH2 0x36F2 JUMP JUMPDEST PUSH4 0xFFFFFFFF SWAP1 DUP2 AND DUP3 MSTORE PUSH1 0x20 DUP3 ADD SWAP3 SWAP1 SWAP3 MSTORE PUSH1 0x40 ADD PUSH1 0x0 KECCAK256 SLOAD AND GT PUSH2 0x147B JUMPI PUSH1 0x1 PUSH1 0x1 PUSH1 0xA0 SHL SUB DUP5 AND PUSH1 0x0 SWAP1 DUP2 MSTORE PUSH1 0xC PUSH1 0x20 MSTORE PUSH1 0x40 DUP2 KECCAK256 SWAP1 PUSH2 0x144B PUSH1 0x1 DUP5 PUSH2 0x36F2 JUMP JUMPDEST PUSH4 0xFFFFFFFF AND DUP2 MSTORE PUSH1 0x20 DUP2 ADD SWAP2 SWAP1 SWAP2 MSTORE PUSH1 0x40 ADD PUSH1 0x0 KECCAK256 SLOAD PUSH1 0x1 PUSH1 0x20 SHL SWAP1 DIV PUSH1 0x1 PUSH1 0x1 PUSH1 0x60 SHL SUB AND SWAP2 POP PUSH2 0x970 SWAP1 POP JUMP JUMPDEST PUSH1 0x1 PUSH1 0x1 PUSH1 0xA0 SHL SUB DUP5 AND PUSH1 0x0 SWAP1 DUP2 MSTORE PUSH1 0xC PUSH1 0x20 SWAP1 DUP2 MSTORE PUSH1 0x40 DUP1 DUP4 KECCAK256 DUP4 DUP1 MSTORE SWAP1 SWAP2 MSTORE SWAP1 KECCAK256 SLOAD PUSH4 0xFFFFFFFF AND DUP4 LT ISZERO PUSH2 0x14B6 JUMPI PUSH1 0x0 SWAP2 POP POP PUSH2 0x970 JUMP JUMPDEST PUSH1 0x0 DUP1 PUSH2 0x14C4 PUSH1 0x1 DUP5 PUSH2 0x36F2 JUMP JUMPDEST SWAP1 POP JUMPDEST DUP2 PUSH4 0xFFFFFFFF AND DUP2 PUSH4 0xFFFFFFFF AND GT ISZERO PUSH2 0x1596 JUMPI PUSH1 0x0 PUSH1 0x2 PUSH2 0x14E9 DUP5 DUP5 PUSH2 0x36F2 JUMP JUMPDEST PUSH2 0x14F3 SWAP2 SWAP1 PUSH2 0x370E JUMP JUMPDEST PUSH2 0x14FD SWAP1 DUP4 PUSH2 0x36F2 JUMP JUMPDEST PUSH1 0x1 PUSH1 0x1 PUSH1 0xA0 SHL SUB DUP9 AND PUSH1 0x0 SWAP1 DUP2 MSTORE PUSH1 0xC PUSH1 0x20 SWAP1 DUP2 MSTORE PUSH1 0x40 DUP1 DUP4 KECCAK256 PUSH4 0xFFFFFFFF DUP6 DUP2 AND DUP6 MSTORE SWAP1 DUP4 MSTORE SWAP3 DUP2 SWAP1 KECCAK256 DUP2 MLOAD DUP1 DUP4 ADD SWAP1 SWAP3 MSTORE SLOAD SWAP3 DUP4 AND DUP1 DUP3 MSTORE PUSH1 0x1 PUSH1 0x20 SHL SWAP1 SWAP4 DIV PUSH1 0x1 PUSH1 0x1 PUSH1 0x60 SHL SUB AND SWAP2 DUP2 ADD SWAP2 SWAP1 SWAP2 MSTORE SWAP2 SWAP3 POP DUP8 SWAP1 SUB PUSH2 0x156A JUMPI PUSH1 0x20 ADD MLOAD SWAP5 POP PUSH2 0x970 SWAP4 POP POP POP POP JUMP JUMPDEST DUP1 MLOAD PUSH4 0xFFFFFFFF AND DUP8 GT ISZERO PUSH2 0x1581 JUMPI DUP2 SWAP4 POP PUSH2 0x158F JUMP JUMPDEST PUSH2 0x158C PUSH1 0x1 DUP4 PUSH2 0x36F2 JUMP JUMPDEST SWAP3 POP JUMPDEST POP POP PUSH2 0x14C7 JUMP JUMPDEST POP PUSH1 0x1 PUSH1 0x1 PUSH1 0xA0 SHL SUB DUP6 AND PUSH1 0x0 SWAP1 DUP2 MSTORE PUSH1 0xC PUSH1 0x20 SWAP1 DUP2 MSTORE PUSH1 0x40 DUP1 DUP4 KECCAK256 PUSH4 0xFFFFFFFF SWAP1 SWAP5 AND DUP4 MSTORE SWAP3 SWAP1 MSTORE KECCAK256 SLOAD PUSH1 0x1 PUSH1 0x1 PUSH1 0x60 SHL SUB PUSH1 0x1 PUSH1 0x20 SHL SWAP1 SWAP2 DIV AND SWAP2 POP POP SWAP3 SWAP2 POP POP JUMP JUMPDEST PUSH1 0x60 PUSH1 0x2 DUP1 SLOAD PUSH2 0x985 SWAP1 PUSH2 0x34BD JUMP JUMPDEST CALLER PUSH1 0x1 PUSH1 0x1 PUSH1 0xA0 SHL SUB DUP4 AND SUB PUSH2 0x1642 JUMPI PUSH1 0x40 MLOAD PUSH3 0x461BCD PUSH1 0xE5 SHL DUP2 MSTORE PUSH1 0x20 PUSH1 0x4 DUP3 ADD MSTORE PUSH1 0x19 PUSH1 0x24 DUP3 ADD MSTORE PUSH32 0x4552433732313A20617070726F766520746F2063616C6C657200000000000000 PUSH1 0x44 DUP3 ADD MSTORE PUSH1 0x64 ADD PUSH2 0x89C JUMP JUMPDEST CALLER PUSH1 0x0 DUP2 DUP2 MSTORE PUSH1 0x6 PUSH1 0x20 SWAP1 DUP2 MSTORE PUSH1 0x40 DUP1 DUP4 KECCAK256 PUSH1 0x1 PUSH1 0x1 PUSH1 0xA0 SHL SUB DUP8 AND DUP1 DUP6 MSTORE SWAP1 DUP4 MSTORE SWAP3 DUP2 SWAP1 KECCAK256 DUP1 SLOAD PUSH1 0xFF NOT AND DUP7 ISZERO ISZERO SWAP1 DUP2 OR SWAP1 SWAP2 SSTORE SWAP1 MLOAD SWAP1 DUP2 MSTORE SWAP2 SWAP3 SWAP2 PUSH32 0x17307EAB39AB6107E8899845AD3D59BD9653F200F220920489CA2B5937696C31 SWAP2 ADD PUSH1 0x40 MLOAD DUP1 SWAP2 SUB SWAP1 LOG3 POP POP JUMP JUMPDEST PUSH1 0x1 PUSH1 0x1 PUSH1 0xA0 SHL SUB DUP2 AND PUSH1 0x0 SWAP1 DUP2 MSTORE PUSH1 0xD PUSH1 0x20 MSTORE PUSH1 0x40 DUP2 KECCAK256 SLOAD PUSH4 0xFFFFFFFF AND DUP1 PUSH2 0x16D9 JUMPI PUSH1 0x0 PUSH2 0xFBC JUMP JUMPDEST PUSH1 0x1 PUSH1 0x1 PUSH1 0xA0 SHL SUB DUP4 AND PUSH1 0x0 SWAP1 DUP2 MSTORE PUSH1 0xC PUSH1 0x20 MSTORE PUSH1 0x40 DUP2 KECCAK256 SWAP1 PUSH2 0x16FD PUSH1 0x1 DUP5 PUSH2 0x36F2 JUMP JUMPDEST PUSH4 0xFFFFFFFF AND DUP2 MSTORE PUSH1 0x20 DUP2 ADD SWAP2 SWAP1 SWAP2 MSTORE PUSH1 0x40 ADD PUSH1 0x0 KECCAK256 SLOAD PUSH1 0x1 PUSH1 0x20 SHL SWAP1 DIV PUSH1 0x1 PUSH1 0x1 PUSH1 0x60 SHL SUB AND SWAP4 SWAP3 POP POP POP JUMP JUMPDEST PUSH2 0x1735 CALLER DUP4 PUSH2 0x2326 JUMP JUMPDEST PUSH2 0x1751 JUMPI PUSH1 0x40 MLOAD PUSH3 0x461BCD PUSH1 0xE5 SHL DUP2 MSTORE PUSH1 0x4 ADD PUSH2 0x89C SWAP1 PUSH2 0x3550 JUMP JUMPDEST PUSH2 0x175D DUP5 DUP5 DUP5 DUP5 PUSH2 0x26FB JUMP JUMPDEST POP POP POP POP JUMP JUMPDEST PUSH1 0x0 SLOAD PUSH1 0x1 PUSH1 0x1 PUSH1 0xA0 SHL SUB AND CALLER EQ PUSH2 0x178D JUMPI PUSH1 0x40 MLOAD PUSH3 0x461BCD PUSH1 0xE5 SHL DUP2 MSTORE PUSH1 0x4 ADD PUSH2 0x89C SWAP1 PUSH2 0x3488 JUMP JUMPDEST PUSH1 0x17 PUSH2 0x1799 DUP3 DUP3 PUSH2 0x3784 JUMP JUMPDEST POP POP JUMP JUMPDEST PUSH1 0x0 PUSH32 0x8CAD95687BA82C2CE50E74F7B754645E5117C3A5BEC8151C0726D5857980A866 PUSH2 0x17C8 PUSH2 0x976 JUMP JUMPDEST DUP1 MLOAD SWAP1 PUSH1 0x20 ADD KECCAK256 PUSH2 0x17D6 CHAINID SWAP1 JUMP JUMPDEST PUSH1 0x40 DUP1 MLOAD PUSH1 0x20 DUP1 DUP3 ADD SWAP6 SWAP1 SWAP6 MSTORE DUP1 DUP3 ADD SWAP4 SWAP1 SWAP4 MSTORE PUSH1 0x60 DUP4 ADD SWAP2 SWAP1 SWAP2 MSTORE ADDRESS PUSH1 0x80 DUP1 DUP5 ADD SWAP2 SWAP1 SWAP2 MSTORE DUP2 MLOAD DUP1 DUP5 SUB SWAP1 SWAP2 ADD DUP2 MSTORE PUSH1 0xA0 DUP4 ADD DUP3 MSTORE DUP1 MLOAD SWAP1 DUP5 ADD KECCAK256 PUSH32 0xE48329057BFD03D55E49B547132E39CFFD9C1820AD7B9D4C5307691425D15ADF PUSH1 0xC0 DUP5 ADD MSTORE PUSH1 0x1 PUSH1 0x1 PUSH1 0xA0 SHL SUB DUP12 AND PUSH1 0xE0 DUP5 ADD MSTORE PUSH2 0x100 DUP4 ADD DUP11 SWAP1 MSTORE PUSH2 0x120 DUP1 DUP5 ADD DUP11 SWAP1 MSTORE DUP3 MLOAD DUP1 DUP6 SUB SWAP1 SWAP2 ADD DUP2 MSTORE PUSH2 0x140 DUP5 ADD SWAP1 SWAP3 MSTORE DUP2 MLOAD SWAP2 SWAP1 SWAP4 ADD KECCAK256 PUSH2 0x1901 PUSH1 0xF0 SHL PUSH2 0x160 DUP4 ADD MSTORE PUSH2 0x162 DUP3 ADD DUP4 SWAP1 MSTORE PUSH2 0x182 DUP3 ADD DUP2 SWAP1 MSTORE SWAP2 SWAP3 POP PUSH1 0x0 SWAP1 PUSH2 0x1A2 ADD PUSH1 0x40 DUP1 MLOAD PUSH1 0x1F NOT DUP2 DUP5 SUB ADD DUP2 MSTORE DUP3 DUP3 MSTORE DUP1 MLOAD PUSH1 0x20 SWAP2 DUP3 ADD KECCAK256 PUSH1 0x0 DUP1 DUP6 MSTORE SWAP2 DUP5 ADD DUP1 DUP5 MSTORE DUP2 SWAP1 MSTORE PUSH1 0xFF DUP11 AND SWAP3 DUP5 ADD SWAP3 SWAP1 SWAP3 MSTORE PUSH1 0x60 DUP4 ADD DUP9 SWAP1 MSTORE PUSH1 0x80 DUP4 ADD DUP8 SWAP1 MSTORE SWAP1 SWAP3 POP SWAP1 PUSH1 0x1 SWAP1 PUSH1 0xA0 ADD PUSH1 0x20 PUSH1 0x40 MLOAD PUSH1 0x20 DUP2 SUB SWAP1 DUP1 DUP5 SUB SWAP1 DUP6 GAS STATICCALL ISZERO DUP1 ISZERO PUSH2 0x1902 JUMPI RETURNDATASIZE PUSH1 0x0 DUP1 RETURNDATACOPY RETURNDATASIZE PUSH1 0x0 REVERT JUMPDEST POP POP PUSH1 0x40 MLOAD PUSH1 0x1F NOT ADD MLOAD SWAP2 POP POP PUSH1 0x1 PUSH1 0x1 PUSH1 0xA0 SHL SUB DUP2 AND PUSH2 0x1984 JUMPI PUSH1 0x40 MLOAD PUSH3 0x461BCD PUSH1 0xE5 SHL DUP2 MSTORE PUSH1 0x20 PUSH1 0x4 DUP3 ADD MSTORE PUSH1 0x36 PUSH1 0x24 DUP3 ADD MSTORE PUSH32 0x455243373231436865636B706F696E7461626C653A3A64656C65676174654279 PUSH1 0x44 DUP3 ADD MSTORE PUSH22 0x5369673A20696E76616C6964207369676E6174757265 PUSH1 0x50 SHL PUSH1 0x64 DUP3 ADD MSTORE PUSH1 0x84 ADD PUSH2 0x89C JUMP JUMPDEST PUSH1 0x1 PUSH1 0x1 PUSH1 0xA0 SHL SUB DUP2 AND PUSH1 0x0 SWAP1 DUP2 MSTORE PUSH1 0xE PUSH1 0x20 MSTORE PUSH1 0x40 DUP2 KECCAK256 DUP1 SLOAD SWAP2 PUSH2 0x19A8 DUP4 PUSH2 0x3537 JUMP JUMPDEST SWAP2 SWAP1 POP SSTORE DUP10 EQ PUSH2 0x1A15 JUMPI PUSH1 0x40 MLOAD PUSH3 0x461BCD PUSH1 0xE5 SHL DUP2 MSTORE PUSH1 0x20 PUSH1 0x4 DUP3 ADD MSTORE PUSH1 0x32 PUSH1 0x24 DUP3 ADD MSTORE PUSH32 0x455243373231436865636B706F696E7461626C653A3A64656C65676174654279 PUSH1 0x44 DUP3 ADD MSTORE PUSH18 0x5369673A20696E76616C6964206E6F6E6365 PUSH1 0x70 SHL PUSH1 0x64 DUP3 ADD MSTORE PUSH1 0x84 ADD PUSH2 0x89C JUMP JUMPDEST DUP8 TIMESTAMP GT ISZERO PUSH2 0x1A84 JUMPI PUSH1 0x40 MLOAD PUSH3 0x461BCD PUSH1 0xE5 SHL DUP2 MSTORE PUSH1 0x20 PUSH1 0x4 DUP3 ADD MSTORE PUSH1 0x36 PUSH1 0x24 DUP3 ADD MSTORE PUSH32 0x455243373231436865636B706F696E7461626C653A3A64656C65676174654279 PUSH1 0x44 DUP3 ADD MSTORE PUSH22 0x14DA59CE881CDA59DB985D1D5C9948195E1C1A5C9959 PUSH1 0x52 SHL PUSH1 0x64 DUP3 ADD MSTORE PUSH1 0x84 ADD PUSH2 0x89C JUMP JUMPDEST PUSH2 0x1A8E DUP2 DUP12 PUSH2 0x262B JUMP JUMPDEST POP POP POP POP JUMPDEST POP POP POP POP POP POP JUMP JUMPDEST PUSH1 0x0 DUP2 DUP2 MSTORE PUSH1 0x3 PUSH1 0x20 MSTORE PUSH1 0x40 SWAP1 KECCAK256 SLOAD PUSH1 0x60 SWAP1 PUSH1 0x1 PUSH1 0x1 PUSH1 0xA0 SHL SUB AND PUSH2 0x1AD2 JUMPI PUSH1 0x40 MLOAD PUSH3 0x461BCD PUSH1 0xE5 SHL DUP2 MSTORE PUSH1 0x4 ADD PUSH2 0x89C SWAP1 PUSH2 0x35B7 JUMP JUMPDEST PUSH1 0x13 SLOAD PUSH1 0x0 DUP4 DUP2 MSTORE PUSH1 0x15 PUSH1 0x20 MSTORE PUSH1 0x40 SWAP1 DUP2 SWAP1 KECCAK256 SWAP1 MLOAD PUSH4 0x5A78BA35 PUSH1 0xE0 SHL DUP2 MSTORE PUSH1 0x1 PUSH1 0x1 PUSH1 0xA0 SHL SUB SWAP1 SWAP3 AND SWAP2 PUSH4 0x5A78BA35 SWAP2 PUSH2 0x103A SWAP2 DUP7 SWAP2 SWAP1 PUSH1 0x4 ADD PUSH2 0x3602 JUMP JUMPDEST PUSH1 0x0 SLOAD PUSH1 0x1 PUSH1 0x1 PUSH1 0xA0 SHL SUB AND CALLER EQ PUSH2 0x1B3C JUMPI PUSH1 0x40 MLOAD PUSH3 0x461BCD PUSH1 0xE5 SHL DUP2 MSTORE PUSH1 0x4 ADD PUSH2 0x89C SWAP1 PUSH2 0x3488 JUMP JUMPDEST PUSH1 0x14 SLOAD PUSH1 0x1 PUSH1 0xB0 SHL SWAP1 DIV PUSH1 0xFF AND ISZERO PUSH2 0x1B89 JUMPI PUSH1 0x40 MLOAD PUSH3 0x461BCD PUSH1 0xE5 SHL DUP2 MSTORE PUSH1 0x20 PUSH1 0x4 DUP3 ADD MSTORE PUSH1 0x10 PUSH1 0x24 DUP3 ADD MSTORE PUSH16 0x14D95959195C881A5CC81B1BD8DAD959 PUSH1 0x82 SHL PUSH1 0x44 DUP3 ADD MSTORE PUSH1 0x64 ADD PUSH2 0x89C JUMP JUMPDEST PUSH1 0x14 DUP1 SLOAD PUSH1 0x1 PUSH1 0x1 PUSH1 0xA0 SHL SUB NOT AND PUSH1 0x1 PUSH1 0x1 PUSH1 0xA0 SHL SUB DUP4 AND SWAP1 DUP2 OR SWAP1 SWAP2 SSTORE PUSH1 0x40 MLOAD SWAP1 DUP2 MSTORE PUSH32 0xB3025222D01CE9A26C7F9D52BC3BFD0352366BD90A793C273FBFE1C81E0E288E SWAP1 PUSH1 0x20 ADD PUSH2 0x940 JUMP JUMPDEST PUSH1 0x60 PUSH1 0x17 PUSH1 0x40 MLOAD PUSH1 0x20 ADD PUSH2 0x1BEB SWAP2 SWAP1 PUSH2 0x3843 JUMP JUMPDEST PUSH1 0x40 MLOAD PUSH1 0x20 DUP2 DUP4 SUB SUB DUP2 MSTORE SWAP1 PUSH1 0x40 MSTORE SWAP1 POP SWAP1 JUMP JUMPDEST PUSH1 0x0 PUSH2 0x970 PUSH2 0x1C0D DUP4 PUSH2 0x11C9 JUMP JUMPDEST PUSH1 0x40 MLOAD DUP1 PUSH1 0x60 ADD PUSH1 0x40 MSTORE DUP1 PUSH1 0x3D DUP2 MSTORE PUSH1 0x20 ADD PUSH2 0x3C84 PUSH1 0x3D SWAP2 CODECOPY PUSH2 0x272E JUMP JUMPDEST PUSH1 0x40 MLOAD PUSH4 0xC4552791 PUSH1 0xE0 SHL DUP2 MSTORE PUSH1 0x1 PUSH1 0x1 PUSH1 0xA0 SHL SUB DUP4 DUP2 AND PUSH1 0x4 DUP4 ADD MSTORE PUSH1 0x0 SWAP2 DUP2 DUP5 AND SWAP2 PUSH32 0x0 AND SWAP1 PUSH4 0xC4552791 SWAP1 PUSH1 0x24 ADD PUSH1 0x20 PUSH1 0x40 MLOAD DUP1 DUP4 SUB DUP2 DUP7 GAS STATICCALL ISZERO DUP1 ISZERO PUSH2 0x1C98 JUMPI RETURNDATASIZE PUSH1 0x0 DUP1 RETURNDATACOPY RETURNDATASIZE PUSH1 0x0 REVERT JUMPDEST POP POP POP POP PUSH1 0x40 MLOAD RETURNDATASIZE PUSH1 0x1F NOT PUSH1 0x1F DUP3 ADD AND DUP3 ADD DUP1 PUSH1 0x40 MSTORE POP DUP2 ADD SWAP1 PUSH2 0x1CBC SWAP2 SWAP1 PUSH2 0x38D1 JUMP JUMPDEST PUSH1 0x1 PUSH1 0x1 PUSH1 0xA0 SHL SUB AND SUB PUSH2 0x1CD2 JUMPI POP PUSH1 0x1 PUSH2 0x970 JUMP JUMPDEST PUSH1 0x1 PUSH1 0x1 PUSH1 0xA0 SHL SUB DUP1 DUP5 AND PUSH1 0x0 SWAP1 DUP2 MSTORE PUSH1 0x6 PUSH1 0x20 SWAP1 DUP2 MSTORE PUSH1 0x40 DUP1 DUP4 KECCAK256 SWAP4 DUP7 AND DUP4 MSTORE SWAP3 SWAP1 MSTORE KECCAK256 SLOAD PUSH1 0xFF AND PUSH2 0xFBC JUMP JUMPDEST PUSH1 0x0 SLOAD PUSH1 0x1 PUSH1 0x1 PUSH1 0xA0 SHL SUB AND CALLER EQ PUSH2 0x1D2A JUMPI PUSH1 0x40 MLOAD PUSH3 0x461BCD PUSH1 0xE5 SHL DUP2 MSTORE PUSH1 0x4 ADD PUSH2 0x89C SWAP1 PUSH2 0x3488 JUMP JUMPDEST PUSH1 0x1 PUSH1 0x1 PUSH1 0xA0 SHL SUB DUP2 AND PUSH2 0x1D8F JUMPI PUSH1 0x40 MLOAD PUSH3 0x461BCD PUSH1 0xE5 SHL DUP2 MSTORE PUSH1 0x20 PUSH1 0x4 DUP3 ADD MSTORE PUSH1 0x26 PUSH1 0x24 DUP3 ADD MSTORE PUSH32 0x4F776E61626C653A206E6577206F776E657220697320746865207A65726F2061 PUSH1 0x44 DUP3 ADD MSTORE PUSH6 0x646472657373 PUSH1 0xD0 SHL PUSH1 0x64 DUP3 ADD MSTORE PUSH1 0x84 ADD PUSH2 0x89C JUMP JUMPDEST PUSH2 0x109A DUP2 PUSH2 0x26AB JUMP JUMPDEST PUSH1 0x0 SLOAD PUSH1 0x1 PUSH1 0x1 PUSH1 0xA0 SHL SUB AND CALLER EQ PUSH2 0x1DC2 JUMPI PUSH1 0x40 MLOAD PUSH3 0x461BCD PUSH1 0xE5 SHL DUP2 MSTORE PUSH1 0x4 ADD PUSH2 0x89C SWAP1 PUSH2 0x3488 JUMP JUMPDEST PUSH1 0x14 SLOAD PUSH1 0x1 PUSH1 0xA0 SHL SWAP1 DIV PUSH1 0xFF AND ISZERO PUSH2 0x1E0F JUMPI PUSH1 0x40 MLOAD PUSH3 0x461BCD PUSH1 0xE5 SHL DUP2 MSTORE PUSH1 0x20 PUSH1 0x4 DUP3 ADD MSTORE PUSH1 0x10 PUSH1 0x24 DUP3 ADD MSTORE PUSH16 0x135A5B9D195C881A5CC81B1BD8DAD959 PUSH1 0x82 SHL PUSH1 0x44 DUP3 ADD MSTORE PUSH1 0x64 ADD PUSH2 0x89C JUMP JUMPDEST PUSH1 0x10 DUP1 SLOAD PUSH1 0x1 PUSH1 0x1 PUSH1 0xA0 SHL SUB NOT AND PUSH1 0x1 PUSH1 0x1 PUSH1 0xA0 SHL SUB DUP4 AND SWAP1 DUP2 OR SWAP1 SWAP2 SSTORE PUSH1 0x40 MLOAD SWAP1 DUP2 MSTORE PUSH32 0xAD0F299EC81A386C98DF0AC27DAE11DD020ED1B56963C53A7292E7A3A314539A SWAP1 PUSH1 0x20 ADD PUSH2 0x940 JUMP JUMPDEST PUSH1 0x0 PUSH1 0x1 PUSH1 0x1 PUSH1 0xE0 SHL SUB NOT DUP3 AND PUSH4 0x80AC58CD PUSH1 0xE0 SHL EQ DUP1 PUSH2 0x1E8E JUMPI POP PUSH1 0x1 PUSH1 0x1 PUSH1 0xE0 SHL SUB NOT DUP3 AND PUSH4 0x5B5E139F PUSH1 0xE0 SHL EQ JUMPDEST DUP1 PUSH2 0x970 JUMPI POP PUSH4 0x1FFC9A7 PUSH1 0xE0 SHL PUSH1 0x1 PUSH1 0x1 PUSH1 0xE0 SHL SUB NOT DUP4 AND EQ PUSH2 0x970 JUMP JUMPDEST PUSH1 0x0 DUP2 DUP2 MSTORE PUSH1 0x5 PUSH1 0x20 MSTORE PUSH1 0x40 SWAP1 KECCAK256 DUP1 SLOAD PUSH1 0x1 PUSH1 0x1 PUSH1 0xA0 SHL SUB NOT AND PUSH1 0x1 PUSH1 0x1 PUSH1 0xA0 SHL SUB DUP5 AND SWAP1 DUP2 OR SWAP1 SWAP2 SSTORE DUP2 SWAP1 PUSH2 0x1EE2 DUP3 PUSH2 0x1152 JUMP JUMPDEST PUSH1 0x1 PUSH1 0x1 PUSH1 0xA0 SHL SUB AND PUSH32 0x8C5BE1E5EBEC7D5BD14F71427D1E84F3DD0314C0F7B2291E5B200AC8C7C3B925 PUSH1 0x40 MLOAD PUSH1 0x40 MLOAD DUP1 SWAP2 SUB SWAP1 LOG4 POP POP JUMP JUMPDEST PUSH1 0x14 SLOAD PUSH1 0x13 SLOAD PUSH1 0x40 MLOAD PUSH4 0x422E2E99 PUSH1 0xE0 SHL DUP2 MSTORE PUSH1 0x4 DUP2 ADD DUP5 SWAP1 MSTORE PUSH1 0x1 PUSH1 0x1 PUSH1 0xA0 SHL SUB SWAP2 DUP3 AND PUSH1 0x24 DUP3 ADD MSTORE PUSH1 0x0 SWAP3 DUP4 SWAP3 AND SWAP1 PUSH4 0x422E2E99 SWAP1 PUSH1 0x44 ADD PUSH2 0x120 PUSH1 0x40 MLOAD DUP1 DUP4 SUB DUP2 DUP7 GAS STATICCALL ISZERO DUP1 ISZERO PUSH2 0x1F73 JUMPI RETURNDATASIZE PUSH1 0x0 DUP1 RETURNDATACOPY RETURNDATASIZE PUSH1 0x0 REVERT JUMPDEST POP POP POP POP PUSH1 0x40 MLOAD RETURNDATASIZE PUSH1 0x1F NOT PUSH1 0x1F DUP3 ADD AND DUP3 ADD DUP1 PUSH1 0x40 MSTORE POP DUP2 ADD SWAP1 PUSH2 0x1F97 SWAP2 SWAP1 PUSH2 0x3909 JUMP JUMPDEST PUSH1 0x15 PUSH1 0x0 DUP6 DUP2 MSTORE PUSH1 0x20 ADD SWAP1 DUP2 MSTORE PUSH1 0x20 ADD PUSH1 0x0 KECCAK256 PUSH1 0x0 DUP3 ADD MLOAD DUP2 PUSH1 0x0 ADD PUSH1 0x0 PUSH2 0x100 EXP DUP2 SLOAD DUP2 PUSH6 0xFFFFFFFFFFFF MUL NOT AND SWAP1 DUP4 PUSH6 0xFFFFFFFFFFFF AND MUL OR SWAP1 SSTORE POP PUSH1 0x20 DUP3 ADD MLOAD DUP2 PUSH1 0x0 ADD PUSH1 0x6 PUSH2 0x100 EXP DUP2 SLOAD DUP2 PUSH6 0xFFFFFFFFFFFF MUL NOT AND SWAP1 DUP4 PUSH6 0xFFFFFFFFFFFF AND MUL OR SWAP1 SSTORE POP PUSH1 0x40 DUP3 ADD MLOAD DUP2 PUSH1 0x0 ADD PUSH1 0xC PUSH2 0x100 EXP DUP2 SLOAD DUP2 PUSH6 0xFFFFFFFFFFFF MUL NOT AND SWAP1 DUP4 PUSH6 0xFFFFFFFFFFFF AND MUL OR SWAP1 SSTORE POP PUSH1 0x60 DUP3 ADD MLOAD DUP2 PUSH1 0x0 ADD PUSH1 0x12 PUSH2 0x100 EXP DUP2 SLOAD DUP2 PUSH6 0xFFFFFFFFFFFF MUL NOT AND SWAP1 DUP4 PUSH6 0xFFFFFFFFFFFF AND MUL OR SWAP1 SSTORE POP PUSH1 0x80 DUP3 ADD MLOAD DUP2 PUSH1 0x0 ADD PUSH1 0x18 PUSH2 0x100 EXP DUP2 SLOAD DUP2 PUSH6 0xFFFFFFFFFFFF MUL NOT AND SWAP1 DUP4 PUSH6 0xFFFFFFFFFFFF AND MUL OR SWAP1 SSTORE POP PUSH1 0xA0 DUP3 ADD MLOAD DUP2 PUSH1 0x1 ADD PUSH1 0x0 PUSH2 0x100 EXP DUP2 SLOAD DUP2 PUSH6 0xFFFFFFFFFFFF MUL NOT AND SWAP1 DUP4 PUSH6 0xFFFFFFFFFFFF AND MUL OR SWAP1 SSTORE POP PUSH1 0xC0 DUP3 ADD MLOAD DUP2 PUSH1 0x1 ADD PUSH1 0x6 PUSH2 0x100 EXP DUP2 SLOAD DUP2 PUSH6 0xFFFFFFFFFFFF MUL NOT AND SWAP1 DUP4 PUSH6 0xFFFFFFFFFFFF AND MUL OR SWAP1 SSTORE POP PUSH1 0xE0 DUP3 ADD MLOAD DUP2 PUSH1 0x1 ADD PUSH1 0xC PUSH2 0x100 EXP DUP2 SLOAD DUP2 PUSH6 0xFFFFFFFFFFFF MUL NOT AND SWAP1 DUP4 PUSH6 0xFFFFFFFFFFFF AND MUL OR SWAP1 SSTORE POP PUSH2 0x100 DUP3 ADD MLOAD DUP2 PUSH1 0x1 ADD PUSH1 0x12 PUSH2 0x100 EXP DUP2 SLOAD DUP2 PUSH6 0xFFFFFFFFFFFF MUL NOT AND SWAP1 DUP4 PUSH6 0xFFFFFFFFFFFF AND MUL OR SWAP1 SSTORE POP SWAP1 POP PUSH1 0x40 MLOAD DUP1 PUSH2 0x120 ADD PUSH1 0x40 MSTORE SWAP1 DUP2 PUSH1 0x0 DUP3 ADD PUSH1 0x0 SWAP1 SLOAD SWAP1 PUSH2 0x100 EXP SWAP1 DIV PUSH6 0xFFFFFFFFFFFF AND PUSH6 0xFFFFFFFFFFFF AND PUSH6 0xFFFFFFFFFFFF AND DUP2 MSTORE PUSH1 0x20 ADD PUSH1 0x0 DUP3 ADD PUSH1 0x6 SWAP1 SLOAD SWAP1 PUSH2 0x100 EXP SWAP1 DIV PUSH6 0xFFFFFFFFFFFF AND PUSH6 0xFFFFFFFFFFFF AND PUSH6 0xFFFFFFFFFFFF AND DUP2 MSTORE PUSH1 0x20 ADD PUSH1 0x0 DUP3 ADD PUSH1 0xC SWAP1 SLOAD SWAP1 PUSH2 0x100 EXP SWAP1 DIV PUSH6 0xFFFFFFFFFFFF AND PUSH6 0xFFFFFFFFFFFF AND PUSH6 0xFFFFFFFFFFFF AND DUP2 MSTORE PUSH1 0x20 ADD PUSH1 0x0 DUP3 ADD PUSH1 0x12 SWAP1 SLOAD SWAP1 PUSH2 0x100 EXP SWAP1 DIV PUSH6 0xFFFFFFFFFFFF AND PUSH6 0xFFFFFFFFFFFF AND PUSH6 0xFFFFFFFFFFFF AND DUP2 MSTORE PUSH1 0x20 ADD PUSH1 0x0 DUP3 ADD PUSH1 0x18 SWAP1 SLOAD SWAP1 PUSH2 0x100 EXP SWAP1 DIV PUSH6 0xFFFFFFFFFFFF AND PUSH6 0xFFFFFFFFFFFF AND PUSH6 0xFFFFFFFFFFFF AND DUP2 MSTORE PUSH1 0x20 ADD PUSH1 0x1 DUP3 ADD PUSH1 0x0 SWAP1 SLOAD SWAP1 PUSH2 0x100 EXP SWAP1 DIV PUSH6 0xFFFFFFFFFFFF AND PUSH6 0xFFFFFFFFFFFF AND PUSH6 0xFFFFFFFFFFFF AND DUP2 MSTORE PUSH1 0x20 ADD PUSH1 0x1 DUP3 ADD PUSH1 0x6 SWAP1 SLOAD SWAP1 PUSH2 0x100 EXP SWAP1 DIV PUSH6 0xFFFFFFFFFFFF AND PUSH6 0xFFFFFFFFFFFF AND PUSH6 0xFFFFFFFFFFFF AND DUP2 MSTORE PUSH1 0x20 ADD PUSH1 0x1 DUP3 ADD PUSH1 0xC SWAP1 SLOAD SWAP1 PUSH2 0x100 EXP SWAP1 DIV PUSH6 0xFFFFFFFFFFFF AND PUSH6 0xFFFFFFFFFFFF AND PUSH6 0xFFFFFFFFFFFF AND DUP2 MSTORE PUSH1 0x20 ADD PUSH1 0x1 DUP3 ADD PUSH1 0x12 SWAP1 SLOAD SWAP1 PUSH2 0x100 EXP SWAP1 DIV PUSH6 0xFFFFFFFFFFFF AND PUSH6 0xFFFFFFFFFFFF AND PUSH6 0xFFFFFFFFFFFF AND DUP2 MSTORE POP POP SWAP1 POP PUSH2 0x22E6 PUSH2 0x22DF PUSH1 0x0 SLOAD PUSH1 0x1 PUSH1 0x1 PUSH1 0xA0 SHL SUB AND SWAP1 JUMP JUMPDEST DUP6 DUP6 PUSH2 0x275D JUMP JUMPDEST DUP3 PUSH32 0x5C92E5F02C729F34F824E1DBA1BF071AE954F2B405CBB313215BCF7AF7593628 DUP3 PUSH1 0x40 MLOAD PUSH2 0x2316 SWAP2 SWAP1 PUSH2 0x39C2 JUMP JUMPDEST PUSH1 0x40 MLOAD DUP1 SWAP2 SUB SWAP1 LOG2 POP SWAP1 SWAP3 SWAP2 POP POP JUMP JUMPDEST PUSH1 0x0 DUP2 DUP2 MSTORE PUSH1 0x3 PUSH1 0x20 MSTORE PUSH1 0x40 DUP2 KECCAK256 SLOAD PUSH1 0x1 PUSH1 0x1 PUSH1 0xA0 SHL SUB AND PUSH2 0x239F JUMPI PUSH1 0x40 MLOAD PUSH3 0x461BCD PUSH1 0xE5 SHL DUP2 MSTORE PUSH1 0x20 PUSH1 0x4 DUP3 ADD MSTORE PUSH1 0x2C PUSH1 0x24 DUP3 ADD MSTORE PUSH32 0x4552433732313A206F70657261746F7220717565727920666F72206E6F6E6578 PUSH1 0x44 DUP3 ADD MSTORE PUSH12 0x34B9BA32B73A103A37B5B2B7 PUSH1 0xA1 SHL PUSH1 0x64 DUP3 ADD MSTORE PUSH1 0x84 ADD PUSH2 0x89C JUMP JUMPDEST PUSH1 0x0 PUSH2 0x23AA DUP4 PUSH2 0x1152 JUMP JUMPDEST SWAP1 POP DUP1 PUSH1 0x1 PUSH1 0x1 PUSH1 0xA0 SHL SUB AND DUP5 PUSH1 0x1 PUSH1 0x1 PUSH1 0xA0 SHL SUB AND EQ DUP1 PUSH2 0x23E5 JUMPI POP DUP4 PUSH1 0x1 PUSH1 0x1 PUSH1 0xA0 SHL SUB AND PUSH2 0x23DA DUP5 PUSH2 0xA08 JUMP JUMPDEST PUSH1 0x1 PUSH1 0x1 PUSH1 0xA0 SHL SUB AND EQ JUMPDEST DUP1 PUSH2 0x23F5 JUMPI POP PUSH2 0x23F5 DUP2 DUP6 PUSH2 0x1C2B JUMP JUMPDEST SWAP5 SWAP4 POP POP POP POP JUMP JUMPDEST DUP3 PUSH1 0x1 PUSH1 0x1 PUSH1 0xA0 SHL SUB AND PUSH2 0x2410 DUP3 PUSH2 0x1152 JUMP JUMPDEST PUSH1 0x1 PUSH1 0x1 PUSH1 0xA0 SHL SUB AND EQ PUSH2 0x2478 JUMPI PUSH1 0x40 MLOAD PUSH3 0x461BCD PUSH1 0xE5 SHL DUP2 MSTORE PUSH1 0x20 PUSH1 0x4 DUP3 ADD MSTORE PUSH1 0x29 PUSH1 0x24 DUP3 ADD MSTORE PUSH32 0x4552433732313A207472616E73666572206F6620746F6B656E20746861742069 PUSH1 0x44 DUP3 ADD MSTORE PUSH9 0x39903737BA1037BBB7 PUSH1 0xB9 SHL PUSH1 0x64 DUP3 ADD MSTORE PUSH1 0x84 ADD PUSH2 0x89C JUMP JUMPDEST PUSH1 0x1 PUSH1 0x1 PUSH1 0xA0 SHL SUB DUP3 AND PUSH2 0x24DA JUMPI PUSH1 0x40 MLOAD PUSH3 0x461BCD PUSH1 0xE5 SHL DUP2 MSTORE PUSH1 0x20 PUSH1 0x4 DUP3 ADD MSTORE PUSH1 0x24 DUP1 DUP3 ADD MSTORE PUSH32 0x4552433732313A207472616E7366657220746F20746865207A65726F20616464 PUSH1 0x44 DUP3 ADD MSTORE PUSH4 0x72657373 PUSH1 0xE0 SHL PUSH1 0x64 DUP3 ADD MSTORE PUSH1 0x84 ADD PUSH2 0x89C JUMP JUMPDEST PUSH2 0x24E5 DUP4 DUP4 DUP4 PUSH2 0x28CF JUMP JUMPDEST PUSH2 0x24F0 PUSH1 0x0 DUP3 PUSH2 0x1EAD JUMP JUMPDEST PUSH1 0x1 PUSH1 0x1 PUSH1 0xA0 SHL SUB DUP4 AND PUSH1 0x0 SWAP1 DUP2 MSTORE PUSH1 0x4 PUSH1 0x20 MSTORE PUSH1 0x40 DUP2 KECCAK256 DUP1 SLOAD PUSH1 0x1 SWAP3 SWAP1 PUSH2 0x2519 SWAP1 DUP5 SWAP1 PUSH2 0x3AA7 JUMP JUMPDEST SWAP1 SWAP2 SSTORE POP POP PUSH1 0x1 PUSH1 0x1 PUSH1 0xA0 SHL SUB DUP3 AND PUSH1 0x0 SWAP1 DUP2 MSTORE PUSH1 0x4 PUSH1 0x20 MSTORE PUSH1 0x40 DUP2 KECCAK256 DUP1 SLOAD PUSH1 0x1 SWAP3 SWAP1 PUSH2 0x2547 SWAP1 DUP5 SWAP1 PUSH2 0x3ABA JUMP JUMPDEST SWAP1 SWAP2 SSTORE POP POP PUSH1 0x0 DUP2 DUP2 MSTORE PUSH1 0x3 PUSH1 0x20 MSTORE PUSH1 0x40 DUP1 DUP3 KECCAK256 DUP1 SLOAD PUSH1 0x1 PUSH1 0x1 PUSH1 0xA0 SHL SUB NOT AND PUSH1 0x1 PUSH1 0x1 PUSH1 0xA0 SHL SUB DUP7 DUP2 AND SWAP2 DUP3 OR SWAP1 SWAP3 SSTORE SWAP2 MLOAD DUP5 SWAP4 SWAP2 DUP8 AND SWAP2 PUSH1 0x0 DUP1 MLOAD PUSH1 0x20 PUSH2 0x3C64 DUP4 CODECOPY DUP2 MLOAD SWAP2 MSTORE SWAP2 LOG4 POP POP POP JUMP JUMPDEST PUSH1 0x0 PUSH2 0x25A1 DUP3 PUSH2 0x1152 JUMP JUMPDEST SWAP1 POP PUSH2 0x25AF DUP2 PUSH1 0x0 DUP5 PUSH2 0x28CF JUMP JUMPDEST PUSH2 0x25BA PUSH1 0x0 DUP4 PUSH2 0x1EAD JUMP JUMPDEST PUSH1 0x1 PUSH1 0x1 PUSH1 0xA0 SHL SUB DUP2 AND PUSH1 0x0 SWAP1 DUP2 MSTORE PUSH1 0x4 PUSH1 0x20 MSTORE PUSH1 0x40 DUP2 KECCAK256 DUP1 SLOAD PUSH1 0x1 SWAP3 SWAP1 PUSH2 0x25E3 SWAP1 DUP5 SWAP1 PUSH2 0x3AA7 JUMP JUMPDEST SWAP1 SWAP2 SSTORE POP POP PUSH1 0x0 DUP3 DUP2 MSTORE PUSH1 0x3 PUSH1 0x20 MSTORE PUSH1 0x40 DUP1 DUP3 KECCAK256 DUP1 SLOAD PUSH1 0x1 PUSH1 0x1 PUSH1 0xA0 SHL SUB NOT AND SWAP1 SSTORE MLOAD DUP4 SWAP2 SWAP1 PUSH1 0x1 PUSH1 0x1 PUSH1 0xA0 SHL SUB DUP5 AND SWAP1 PUSH1 0x0 DUP1 MLOAD PUSH1 0x20 PUSH2 0x3C64 DUP4 CODECOPY DUP2 MLOAD SWAP2 MSTORE SWAP1 DUP4 SWAP1 LOG4 POP POP JUMP JUMPDEST PUSH1 0x0 PUSH2 0x2636 DUP4 PUSH2 0xF91 JUMP JUMPDEST PUSH1 0x1 PUSH1 0x1 PUSH1 0xA0 SHL SUB DUP5 DUP2 AND PUSH1 0x0 DUP2 DUP2 MSTORE PUSH1 0xB PUSH1 0x20 MSTORE PUSH1 0x40 DUP1 DUP3 KECCAK256 DUP1 SLOAD PUSH1 0x1 PUSH1 0x1 PUSH1 0xA0 SHL SUB NOT AND DUP9 DUP7 AND SWAP1 DUP2 OR SWAP1 SWAP2 SSTORE SWAP1 MLOAD SWAP5 SWAP6 POP SWAP4 SWAP3 DUP6 AND SWAP3 PUSH32 0x3134E8A2E6D97E929A7E54011EA5485D7D196DD5F0BA4D4EF95803E8E3FC257F SWAP2 SWAP1 LOG4 PUSH1 0x0 PUSH2 0x269E DUP5 PUSH2 0x1BFF JUMP JUMPDEST SWAP1 POP PUSH2 0x175D DUP3 DUP5 DUP4 PUSH2 0x28F2 JUMP JUMPDEST PUSH1 0x0 DUP1 SLOAD PUSH1 0x1 PUSH1 0x1 PUSH1 0xA0 SHL SUB DUP4 DUP2 AND PUSH1 0x1 PUSH1 0x1 PUSH1 0xA0 SHL SUB NOT DUP4 AND DUP2 OR DUP5 SSTORE PUSH1 0x40 MLOAD SWAP2 SWAP1 SWAP3 AND SWAP3 DUP4 SWAP2 PUSH32 0x8BE0079C531659141344CD1FD0A4F28419497F9722A3DAAFE3B4186F6B6457E0 SWAP2 SWAP1 LOG3 POP POP JUMP JUMPDEST PUSH2 0x2706 DUP5 DUP5 DUP5 PUSH2 0x23FD JUMP JUMPDEST PUSH2 0x2712 DUP5 DUP5 DUP5 DUP5 PUSH2 0x2A9E JUMP JUMPDEST PUSH2 0x175D JUMPI PUSH1 0x40 MLOAD PUSH3 0x461BCD PUSH1 0xE5 SHL DUP2 MSTORE PUSH1 0x4 ADD PUSH2 0x89C SWAP1 PUSH2 0x3ACD JUMP JUMPDEST PUSH1 0x0 DUP2 PUSH1 0x1 PUSH1 0x60 SHL DUP5 LT PUSH2 0x2755 JUMPI PUSH1 0x40 MLOAD PUSH3 0x461BCD PUSH1 0xE5 SHL DUP2 MSTORE PUSH1 0x4 ADD PUSH2 0x89C SWAP2 SWAP1 PUSH2 0x314A JUMP JUMPDEST POP SWAP2 SWAP3 SWAP2 POP POP JUMP JUMPDEST PUSH1 0x1 PUSH1 0x1 PUSH1 0xA0 SHL SUB DUP3 AND PUSH2 0x27B3 JUMPI PUSH1 0x40 MLOAD PUSH3 0x461BCD PUSH1 0xE5 SHL DUP2 MSTORE PUSH1 0x20 PUSH1 0x4 DUP3 ADD DUP2 SWAP1 MSTORE PUSH1 0x24 DUP3 ADD MSTORE PUSH32 0x4552433732313A206D696E7420746F20746865207A65726F2061646472657373 PUSH1 0x44 DUP3 ADD MSTORE PUSH1 0x64 ADD PUSH2 0x89C JUMP JUMPDEST PUSH1 0x0 DUP2 DUP2 MSTORE PUSH1 0x3 PUSH1 0x20 MSTORE PUSH1 0x40 SWAP1 KECCAK256 SLOAD PUSH1 0x1 PUSH1 0x1 PUSH1 0xA0 SHL SUB AND ISZERO PUSH2 0x2818 JUMPI PUSH1 0x40 MLOAD PUSH3 0x461BCD PUSH1 0xE5 SHL DUP2 MSTORE PUSH1 0x20 PUSH1 0x4 DUP3 ADD MSTORE PUSH1 0x1C PUSH1 0x24 DUP3 ADD MSTORE PUSH32 0x4552433732313A20746F6B656E20616C7265616479206D696E74656400000000 PUSH1 0x44 DUP3 ADD MSTORE PUSH1 0x64 ADD PUSH2 0x89C JUMP JUMPDEST PUSH2 0x2824 PUSH1 0x0 DUP4 DUP4 PUSH2 0x28CF JUMP JUMPDEST PUSH1 0x1 PUSH1 0x1 PUSH1 0xA0 SHL SUB DUP3 AND PUSH1 0x0 SWAP1 DUP2 MSTORE PUSH1 0x4 PUSH1 0x20 MSTORE PUSH1 0x40 DUP2 KECCAK256 DUP1 SLOAD PUSH1 0x1 SWAP3 SWAP1 PUSH2 0x284D SWAP1 DUP5 SWAP1 PUSH2 0x3ABA JUMP JUMPDEST SWAP1 SWAP2 SSTORE POP POP PUSH1 0x0 DUP2 DUP2 MSTORE PUSH1 0x3 PUSH1 0x20 MSTORE PUSH1 0x40 DUP1 DUP3 KECCAK256 DUP1 SLOAD PUSH1 0x1 PUSH1 0x1 PUSH1 0xA0 SHL SUB NOT AND PUSH1 0x1 PUSH1 0x1 PUSH1 0xA0 SHL SUB DUP7 DUP2 AND SWAP2 SWAP1 SWAP2 OR SWAP1 SWAP2 SSTORE SWAP1 MLOAD DUP4 SWAP3 SWAP2 DUP7 AND SWAP2 SWAP1 PUSH1 0x0 DUP1 MLOAD PUSH1 0x20 PUSH2 0x3C64 DUP4 CODECOPY DUP2 MLOAD SWAP2 MSTORE SWAP1 DUP3 SWAP1 LOG4 DUP1 DUP3 PUSH1 0x1 PUSH1 0x1 PUSH1 0xA0 SHL SUB AND DUP5 PUSH1 0x1 PUSH1 0x1 PUSH1 0xA0 SHL SUB AND PUSH1 0x0 DUP1 MLOAD PUSH1 0x20 PUSH2 0x3C64 DUP4 CODECOPY DUP2 MLOAD SWAP2 MSTORE PUSH1 0x40 MLOAD PUSH1 0x40 MLOAD DUP1 SWAP2 SUB SWAP1 LOG4 POP POP POP JUMP JUMPDEST PUSH2 0x28DA DUP4 DUP4 DUP4 PUSH2 0x2B9F JUMP JUMPDEST PUSH2 0xBAD PUSH2 0x28E6 DUP5 PUSH2 0xF91 JUMP JUMPDEST PUSH2 0x28EF DUP5 PUSH2 0xF91 JUMP JUMPDEST PUSH1 0x1 JUMPDEST DUP2 PUSH1 0x1 PUSH1 0x1 PUSH1 0xA0 SHL SUB AND DUP4 PUSH1 0x1 PUSH1 0x1 PUSH1 0xA0 SHL SUB AND EQ ISZERO DUP1 ISZERO PUSH2 0x291D JUMPI POP PUSH1 0x0 DUP2 PUSH1 0x1 PUSH1 0x1 PUSH1 0x60 SHL SUB AND GT JUMPDEST ISZERO PUSH2 0xBAD JUMPI PUSH1 0x1 PUSH1 0x1 PUSH1 0xA0 SHL SUB DUP4 AND ISZERO PUSH2 0x29E2 JUMPI PUSH1 0x1 PUSH1 0x1 PUSH1 0xA0 SHL SUB DUP4 AND PUSH1 0x0 SWAP1 DUP2 MSTORE PUSH1 0xD PUSH1 0x20 MSTORE PUSH1 0x40 DUP2 KECCAK256 SLOAD PUSH4 0xFFFFFFFF AND SWAP1 DUP2 PUSH2 0x295D JUMPI PUSH1 0x0 PUSH2 0x29A9 JUMP JUMPDEST PUSH1 0x1 PUSH1 0x1 PUSH1 0xA0 SHL SUB DUP6 AND PUSH1 0x0 SWAP1 DUP2 MSTORE PUSH1 0xC PUSH1 0x20 MSTORE PUSH1 0x40 DUP2 KECCAK256 SWAP1 PUSH2 0x2981 PUSH1 0x1 DUP6 PUSH2 0x36F2 JUMP JUMPDEST PUSH4 0xFFFFFFFF AND DUP2 MSTORE PUSH1 0x20 DUP2 ADD SWAP2 SWAP1 SWAP2 MSTORE PUSH1 0x40 ADD PUSH1 0x0 KECCAK256 SLOAD PUSH1 0x1 PUSH1 0x20 SHL SWAP1 DIV PUSH1 0x1 PUSH1 0x1 PUSH1 0x60 SHL SUB AND JUMPDEST SWAP1 POP PUSH1 0x0 PUSH2 0x29D0 DUP3 DUP6 PUSH1 0x40 MLOAD DUP1 PUSH1 0x60 ADD PUSH1 0x40 MSTORE DUP1 PUSH1 0x37 DUP2 MSTORE PUSH1 0x20 ADD PUSH2 0x3CC1 PUSH1 0x37 SWAP2 CODECOPY PUSH2 0x2C57 JUMP JUMPDEST SWAP1 POP PUSH2 0x29DE DUP7 DUP5 DUP5 DUP5 PUSH2 0x2C99 JUMP JUMPDEST POP POP POP JUMPDEST PUSH1 0x1 PUSH1 0x1 PUSH1 0xA0 SHL SUB DUP3 AND ISZERO PUSH2 0xBAD JUMPI PUSH1 0x1 PUSH1 0x1 PUSH1 0xA0 SHL SUB DUP3 AND PUSH1 0x0 SWAP1 DUP2 MSTORE PUSH1 0xD PUSH1 0x20 MSTORE PUSH1 0x40 DUP2 KECCAK256 SLOAD PUSH4 0xFFFFFFFF AND SWAP1 DUP2 PUSH2 0x2A1D JUMPI PUSH1 0x0 PUSH2 0x2A69 JUMP JUMPDEST PUSH1 0x1 PUSH1 0x1 PUSH1 0xA0 SHL SUB DUP5 AND PUSH1 0x0 SWAP1 DUP2 MSTORE PUSH1 0xC PUSH1 0x20 MSTORE PUSH1 0x40 DUP2 KECCAK256 SWAP1 PUSH2 0x2A41 PUSH1 0x1 DUP6 PUSH2 0x36F2 JUMP JUMPDEST PUSH4 0xFFFFFFFF AND DUP2 MSTORE PUSH1 0x20 DUP2 ADD SWAP2 SWAP1 SWAP2 MSTORE PUSH1 0x40 ADD PUSH1 0x0 KECCAK256 SLOAD PUSH1 0x1 PUSH1 0x20 SHL SWAP1 DIV PUSH1 0x1 PUSH1 0x1 PUSH1 0x60 SHL SUB AND JUMPDEST SWAP1 POP PUSH1 0x0 PUSH2 0x2A90 DUP3 DUP6 PUSH1 0x40 MLOAD DUP1 PUSH1 0x60 ADD PUSH1 0x40 MSTORE DUP1 PUSH1 0x36 DUP2 MSTORE PUSH1 0x20 ADD PUSH2 0x3BEA PUSH1 0x36 SWAP2 CODECOPY PUSH2 0x2E91 JUMP JUMPDEST SWAP1 POP PUSH2 0x1A93 DUP6 DUP5 DUP5 DUP5 PUSH2 0x2C99 JUMP JUMPDEST PUSH1 0x0 PUSH1 0x1 PUSH1 0x1 PUSH1 0xA0 SHL SUB DUP5 AND EXTCODESIZE ISZERO PUSH2 0x2B94 JUMPI PUSH1 0x40 MLOAD PUSH4 0xA85BD01 PUSH1 0xE1 SHL DUP2 MSTORE PUSH1 0x1 PUSH1 0x1 PUSH1 0xA0 SHL SUB DUP6 AND SWAP1 PUSH4 0x150B7A02 SWAP1 PUSH2 0x2AE2 SWAP1 CALLER SWAP1 DUP10 SWAP1 DUP9 SWAP1 DUP9 SWAP1 PUSH1 0x4 ADD PUSH2 0x3B1F JUMP JUMPDEST PUSH1 0x20 PUSH1 0x40 MLOAD DUP1 DUP4 SUB DUP2 PUSH1 0x0 DUP8 GAS CALL SWAP3 POP POP POP DUP1 ISZERO PUSH2 0x2B1D JUMPI POP PUSH1 0x40 DUP1 MLOAD PUSH1 0x1F RETURNDATASIZE SWAP1 DUP2 ADD PUSH1 0x1F NOT AND DUP3 ADD SWAP1 SWAP3 MSTORE PUSH2 0x2B1A SWAP2 DUP2 ADD SWAP1 PUSH2 0x3B5C JUMP JUMPDEST PUSH1 0x1 JUMPDEST PUSH2 0x2B7A JUMPI RETURNDATASIZE DUP1 DUP1 ISZERO PUSH2 0x2B4B JUMPI PUSH1 0x40 MLOAD SWAP2 POP PUSH1 0x1F NOT PUSH1 0x3F RETURNDATASIZE ADD AND DUP3 ADD PUSH1 0x40 MSTORE RETURNDATASIZE DUP3 MSTORE RETURNDATASIZE PUSH1 0x0 PUSH1 0x20 DUP5 ADD RETURNDATACOPY PUSH2 0x2B50 JUMP JUMPDEST PUSH1 0x60 SWAP2 POP JUMPDEST POP DUP1 MLOAD PUSH1 0x0 SUB PUSH2 0x2B72 JUMPI PUSH1 0x40 MLOAD PUSH3 0x461BCD PUSH1 0xE5 SHL DUP2 MSTORE PUSH1 0x4 ADD PUSH2 0x89C SWAP1 PUSH2 0x3ACD JUMP JUMPDEST DUP1 MLOAD DUP2 PUSH1 0x20 ADD REVERT JUMPDEST PUSH1 0x1 PUSH1 0x1 PUSH1 0xE0 SHL SUB NOT AND PUSH4 0xA85BD01 PUSH1 0xE1 SHL EQ SWAP1 POP PUSH2 0x23F5 JUMP JUMPDEST POP PUSH1 0x1 SWAP5 SWAP4 POP POP POP POP JUMP JUMPDEST PUSH1 0x1 PUSH1 0x1 PUSH1 0xA0 SHL SUB DUP4 AND PUSH2 0x2BFA JUMPI PUSH2 0x2BF5 DUP2 PUSH1 0x9 DUP1 SLOAD PUSH1 0x0 DUP4 DUP2 MSTORE PUSH1 0xA PUSH1 0x20 MSTORE PUSH1 0x40 DUP2 KECCAK256 DUP3 SWAP1 SSTORE PUSH1 0x1 DUP3 ADD DUP4 SSTORE SWAP2 SWAP1 SWAP2 MSTORE PUSH32 0x6E1540171B6C0C960B71A7020D9F60077F6AF931A8BBF590DA0223DACF75C7AF ADD SSTORE JUMP JUMPDEST PUSH2 0x2C1D JUMP JUMPDEST DUP2 PUSH1 0x1 PUSH1 0x1 PUSH1 0xA0 SHL SUB AND DUP4 PUSH1 0x1 PUSH1 0x1 PUSH1 0xA0 SHL SUB AND EQ PUSH2 0x2C1D JUMPI PUSH2 0x2C1D DUP4 DUP3 PUSH2 0x2EDE JUMP JUMPDEST PUSH1 0x1 PUSH1 0x1 PUSH1 0xA0 SHL SUB DUP3 AND PUSH2 0x2C34 JUMPI PUSH2 0xBAD DUP2 PUSH2 0x2F7B JUMP JUMPDEST DUP3 PUSH1 0x1 PUSH1 0x1 PUSH1 0xA0 SHL SUB AND DUP3 PUSH1 0x1 PUSH1 0x1 PUSH1 0xA0 SHL SUB AND EQ PUSH2 0xBAD JUMPI PUSH2 0xBAD DUP3 DUP3 PUSH2 0x302A JUMP JUMPDEST PUSH1 0x0 DUP4 PUSH1 0x1 PUSH1 0x1 PUSH1 0x60 SHL SUB AND DUP4 PUSH1 0x1 PUSH1 0x1 PUSH1 0x60 SHL SUB AND GT ISZERO DUP3 SWAP1 PUSH2 0x2C8E JUMPI PUSH1 0x40 MLOAD PUSH3 0x461BCD PUSH1 0xE5 SHL DUP2 MSTORE PUSH1 0x4 ADD PUSH2 0x89C SWAP2 SWAP1 PUSH2 0x314A JUMP JUMPDEST POP PUSH2 0x23F5 DUP4 DUP6 PUSH2 0x3B79 JUMP JUMPDEST PUSH1 0x0 PUSH2 0x2CBD NUMBER PUSH1 0x40 MLOAD DUP1 PUSH1 0x80 ADD PUSH1 0x40 MSTORE DUP1 PUSH1 0x44 DUP2 MSTORE PUSH1 0x20 ADD PUSH2 0x3C20 PUSH1 0x44 SWAP2 CODECOPY PUSH2 0x306E JUMP JUMPDEST SWAP1 POP PUSH1 0x0 DUP5 PUSH4 0xFFFFFFFF AND GT DUP1 ISZERO PUSH2 0x2D17 JUMPI POP PUSH1 0x1 PUSH1 0x1 PUSH1 0xA0 SHL SUB DUP6 AND PUSH1 0x0 SWAP1 DUP2 MSTORE PUSH1 0xC PUSH1 0x20 MSTORE PUSH1 0x40 DUP2 KECCAK256 PUSH4 0xFFFFFFFF DUP4 AND SWAP2 PUSH2 0x2CFB PUSH1 0x1 DUP9 PUSH2 0x36F2 JUMP JUMPDEST PUSH4 0xFFFFFFFF SWAP1 DUP2 AND DUP3 MSTORE PUSH1 0x20 DUP3 ADD SWAP3 SWAP1 SWAP3 MSTORE PUSH1 0x40 ADD PUSH1 0x0 KECCAK256 SLOAD AND EQ JUMPDEST ISZERO PUSH2 0x2D8B JUMPI PUSH1 0x1 PUSH1 0x1 PUSH1 0xA0 SHL SUB DUP6 AND PUSH1 0x0 SWAP1 DUP2 MSTORE PUSH1 0xC PUSH1 0x20 MSTORE PUSH1 0x40 DUP2 KECCAK256 DUP4 SWAP2 PUSH2 0x2D41 PUSH1 0x1 DUP9 PUSH2 0x36F2 JUMP JUMPDEST PUSH4 0xFFFFFFFF AND DUP2 MSTORE PUSH1 0x20 DUP2 ADD SWAP2 SWAP1 SWAP2 MSTORE PUSH1 0x40 ADD PUSH1 0x0 KECCAK256 DUP1 SLOAD PUSH1 0x1 PUSH1 0x1 PUSH1 0x60 SHL SUB SWAP3 SWAP1 SWAP3 AND PUSH1 0x1 PUSH1 0x20 SHL MUL PUSH16 0xFFFFFFFFFFFFFFFFFFFFFFFF00000000 NOT SWAP1 SWAP3 AND SWAP2 SWAP1 SWAP2 OR SWAP1 SSTORE PUSH2 0x2E3C JUMP JUMPDEST PUSH1 0x40 DUP1 MLOAD DUP1 DUP3 ADD DUP3 MSTORE PUSH4 0xFFFFFFFF DUP1 DUP5 AND DUP3 MSTORE PUSH1 0x1 PUSH1 0x1 PUSH1 0x60 SHL SUB DUP1 DUP7 AND PUSH1 0x20 DUP1 DUP6 ADD SWAP2 DUP3 MSTORE PUSH1 0x1 PUSH1 0x1 PUSH1 0xA0 SHL SUB DUP12 AND PUSH1 0x0 SWAP1 DUP2 MSTORE PUSH1 0xC DUP3 MSTORE DUP7 DUP2 KECCAK256 DUP12 DUP7 AND DUP3 MSTORE SWAP1 SWAP2 MSTORE SWAP5 SWAP1 SWAP5 KECCAK256 SWAP3 MLOAD DUP4 SLOAD SWAP5 MLOAD SWAP1 SWAP2 AND PUSH1 0x1 PUSH1 0x20 SHL MUL PUSH16 0xFFFFFFFFFFFFFFFFFFFFFFFFFFFFFFFF NOT SWAP1 SWAP5 AND SWAP2 AND OR SWAP2 SWAP1 SWAP2 OR SWAP1 SSTORE PUSH2 0x2E0B DUP5 PUSH1 0x1 PUSH2 0x3B98 JUMP JUMPDEST PUSH1 0x1 PUSH1 0x1 PUSH1 0xA0 SHL SUB DUP7 AND PUSH1 0x0 SWAP1 DUP2 MSTORE PUSH1 0xD PUSH1 0x20 MSTORE PUSH1 0x40 SWAP1 KECCAK256 DUP1 SLOAD PUSH4 0xFFFFFFFF NOT AND PUSH4 0xFFFFFFFF SWAP3 SWAP1 SWAP3 AND SWAP2 SWAP1 SWAP2 OR SWAP1 SSTORE JUMPDEST PUSH1 0x40 DUP1 MLOAD PUSH1 0x1 PUSH1 0x1 PUSH1 0x60 SHL SUB DUP1 DUP7 AND DUP3 MSTORE DUP5 AND PUSH1 0x20 DUP3 ADD MSTORE PUSH1 0x1 PUSH1 0x1 PUSH1 0xA0 SHL SUB DUP8 AND SWAP2 PUSH32 0xDEC2BACDD2F05B59DE34DA9B523DFF8BE42E5E38E818C82FDB0BAE774387A724 SWAP2 ADD PUSH1 0x40 MLOAD DUP1 SWAP2 SUB SWAP1 LOG2 POP POP POP POP POP JUMP JUMPDEST PUSH1 0x0 DUP1 PUSH2 0x2E9E DUP5 DUP7 PUSH2 0x3BB4 JUMP JUMPDEST SWAP1 POP DUP5 PUSH1 0x1 PUSH1 0x1 PUSH1 0x60 SHL SUB AND DUP2 PUSH1 0x1 PUSH1 0x1 PUSH1 0x60 SHL SUB AND LT ISZERO DUP4 SWAP1 PUSH2 0x2ED5 JUMPI PUSH1 0x40 MLOAD PUSH3 0x461BCD PUSH1 0xE5 SHL DUP2 MSTORE PUSH1 0x4 ADD PUSH2 0x89C SWAP2 SWAP1 PUSH2 0x314A JUMP JUMPDEST POP SWAP5 SWAP4 POP POP POP POP JUMP JUMPDEST PUSH1 0x0 PUSH1 0x1 PUSH2 0x2EEB DUP5 PUSH2 0x11C9 JUMP JUMPDEST PUSH2 0x2EF5 SWAP2 SWAP1 PUSH2 0x3AA7 JUMP JUMPDEST PUSH1 0x0 DUP4 DUP2 MSTORE PUSH1 0x8 PUSH1 0x20 MSTORE PUSH1 0x40 SWAP1 KECCAK256 SLOAD SWAP1 SWAP2 POP DUP1 DUP3 EQ PUSH2 0x2F48 JUMPI PUSH1 0x1 PUSH1 0x1 PUSH1 0xA0 SHL SUB DUP5 AND PUSH1 0x0 SWAP1 DUP2 MSTORE PUSH1 0x7 PUSH1 0x20 SWAP1 DUP2 MSTORE PUSH1 0x40 DUP1 DUP4 KECCAK256 DUP6 DUP5 MSTORE DUP3 MSTORE DUP1 DUP4 KECCAK256 SLOAD DUP5 DUP5 MSTORE DUP2 DUP5 KECCAK256 DUP2 SWAP1 SSTORE DUP4 MSTORE PUSH1 0x8 SWAP1 SWAP2 MSTORE SWAP1 KECCAK256 DUP2 SWAP1 SSTORE JUMPDEST POP PUSH1 0x0 SWAP2 DUP3 MSTORE PUSH1 0x8 PUSH1 0x20 SWAP1 DUP2 MSTORE PUSH1 0x40 DUP1 DUP5 KECCAK256 DUP5 SWAP1 SSTORE PUSH1 0x1 PUSH1 0x1 PUSH1 0xA0 SHL SUB SWAP1 SWAP5 AND DUP4 MSTORE PUSH1 0x7 DUP2 MSTORE DUP4 DUP4 KECCAK256 SWAP2 DUP4 MSTORE MSTORE SWAP1 DUP2 KECCAK256 SSTORE JUMP JUMPDEST PUSH1 0x9 SLOAD PUSH1 0x0 SWAP1 PUSH2 0x2F8D SWAP1 PUSH1 0x1 SWAP1 PUSH2 0x3AA7 JUMP JUMPDEST PUSH1 0x0 DUP4 DUP2 MSTORE PUSH1 0xA PUSH1 0x20 MSTORE PUSH1 0x40 DUP2 KECCAK256 SLOAD PUSH1 0x9 DUP1 SLOAD SWAP4 SWAP5 POP SWAP1 SWAP3 DUP5 SWAP1 DUP2 LT PUSH2 0x2FB5 JUMPI PUSH2 0x2FB5 PUSH2 0x35A1 JUMP JUMPDEST SWAP1 PUSH1 0x0 MSTORE PUSH1 0x20 PUSH1 0x0 KECCAK256 ADD SLOAD SWAP1 POP DUP1 PUSH1 0x9 DUP4 DUP2 SLOAD DUP2 LT PUSH2 0x2FD6 JUMPI PUSH2 0x2FD6 PUSH2 0x35A1 JUMP JUMPDEST PUSH1 0x0 SWAP2 DUP3 MSTORE PUSH1 0x20 DUP1 DUP4 KECCAK256 SWAP1 SWAP2 ADD SWAP3 SWAP1 SWAP3 SSTORE DUP3 DUP2 MSTORE PUSH1 0xA SWAP1 SWAP2 MSTORE PUSH1 0x40 DUP1 DUP3 KECCAK256 DUP5 SWAP1 SSTORE DUP6 DUP3 MSTORE DUP2 KECCAK256 SSTORE PUSH1 0x9 DUP1 SLOAD DUP1 PUSH2 0x300E JUMPI PUSH2 0x300E PUSH2 0x3BD3 JUMP JUMPDEST PUSH1 0x1 SWAP1 SUB DUP2 DUP2 SWAP1 PUSH1 0x0 MSTORE PUSH1 0x20 PUSH1 0x0 KECCAK256 ADD PUSH1 0x0 SWAP1 SSTORE SWAP1 SSTORE POP POP POP POP JUMP JUMPDEST PUSH1 0x0 PUSH2 0x3035 DUP4 PUSH2 0x11C9 JUMP JUMPDEST PUSH1 0x1 PUSH1 0x1 PUSH1 0xA0 SHL SUB SWAP1 SWAP4 AND PUSH1 0x0 SWAP1 DUP2 MSTORE PUSH1 0x7 PUSH1 0x20 SWAP1 DUP2 MSTORE PUSH1 0x40 DUP1 DUP4 KECCAK256 DUP7 DUP5 MSTORE DUP3 MSTORE DUP1 DUP4 KECCAK256 DUP6 SWAP1 SSTORE SWAP4 DUP3 MSTORE PUSH1 0x8 SWAP1 MSTORE SWAP2 SWAP1 SWAP2 KECCAK256 SWAP2 SWAP1 SWAP2 SSTORE POP JUMP JUMPDEST PUSH1 0x0 DUP2 PUSH1 0x1 PUSH1 0x20 SHL DUP5 LT PUSH2 0x2755 JUMPI PUSH1 0x40 MLOAD PUSH3 0x461BCD PUSH1 0xE5 SHL DUP2 MSTORE PUSH1 0x4 ADD PUSH2 0x89C SWAP2 SWAP1 PUSH2 0x314A JUMP JUMPDEST PUSH1 0x1 PUSH1 0x1 PUSH1 0xA0 SHL SUB DUP2 AND DUP2 EQ PUSH2 0x109A JUMPI PUSH1 0x0 DUP1 REVERT JUMPDEST PUSH1 0x0 PUSH1 0x20 DUP3 DUP5 SUB SLT ISZERO PUSH2 0x30BC JUMPI PUSH1 0x0 DUP1 REVERT JUMPDEST DUP2 CALLDATALOAD PUSH2 0xFBC DUP2 PUSH2 0x3095 JUMP JUMPDEST PUSH1 0x1 PUSH1 0x1 PUSH1 0xE0 SHL SUB NOT DUP2 AND DUP2 EQ PUSH2 0x109A JUMPI PUSH1 0x0 DUP1 REVERT JUMPDEST PUSH1 0x0 PUSH1 0x20 DUP3 DUP5 SUB SLT ISZERO PUSH2 0x30EF JUMPI PUSH1 0x0 DUP1 REVERT JUMPDEST DUP2 CALLDATALOAD PUSH2 0xFBC DUP2 PUSH2 0x30C7 JUMP JUMPDEST PUSH1 0x0 JUMPDEST DUP4 DUP2 LT ISZERO PUSH2 0x3115 JUMPI DUP2 DUP2 ADD MLOAD DUP4 DUP3 ADD MSTORE PUSH1 0x20 ADD PUSH2 0x30FD JUMP JUMPDEST POP POP PUSH1 0x0 SWAP2 ADD MSTORE JUMP JUMPDEST PUSH1 0x0 DUP2 MLOAD DUP1 DUP5 MSTORE PUSH2 0x3136 DUP2 PUSH1 0x20 DUP7 ADD PUSH1 0x20 DUP7 ADD PUSH2 0x30FA JUMP JUMPDEST PUSH1 0x1F ADD PUSH1 0x1F NOT AND SWAP3 SWAP1 SWAP3 ADD PUSH1 0x20 ADD SWAP3 SWAP2 POP POP JUMP JUMPDEST PUSH1 0x20 DUP2 MSTORE PUSH1 0x0 PUSH2 0xFBC PUSH1 0x20 DUP4 ADD DUP5 PUSH2 0x311E JUMP JUMPDEST PUSH1 0x0 PUSH1 0x20 DUP3 DUP5 SUB SLT ISZERO PUSH2 0x316F JUMPI PUSH1 0x0 DUP1 REVERT JUMPDEST POP CALLDATALOAD SWAP2 SWAP1 POP JUMP JUMPDEST PUSH1 0x0 DUP1 PUSH1 0x40 DUP4 DUP6 SUB SLT ISZERO PUSH2 0x3189 JUMPI PUSH1 0x0 DUP1 REVERT JUMPDEST DUP3 CALLDATALOAD PUSH2 0x3194 DUP2 PUSH2 0x3095 JUMP JUMPDEST SWAP5 PUSH1 0x20 SWAP4 SWAP1 SWAP4 ADD CALLDATALOAD SWAP4 POP POP POP JUMP JUMPDEST PUSH1 0x0 DUP1 PUSH1 0x0 PUSH1 0x60 DUP5 DUP7 SUB SLT ISZERO PUSH2 0x31B7 JUMPI PUSH1 0x0 DUP1 REVERT JUMPDEST DUP4 CALLDATALOAD PUSH2 0x31C2 DUP2 PUSH2 0x3095 JUMP JUMPDEST SWAP3 POP PUSH1 0x20 DUP5 ADD CALLDATALOAD PUSH2 0x31D2 DUP2 PUSH2 0x3095 JUMP JUMPDEST SWAP3 SWAP6 SWAP3 SWAP5 POP POP POP PUSH1 0x40 SWAP2 SWAP1 SWAP2 ADD CALLDATALOAD SWAP1 JUMP JUMPDEST PUSH1 0x0 DUP1 PUSH1 0x40 DUP4 DUP6 SUB SLT ISZERO PUSH2 0x31F6 JUMPI PUSH1 0x0 DUP1 REVERT JUMPDEST DUP3 CALLDATALOAD PUSH2 0x3201 DUP2 PUSH2 0x3095 JUMP JUMPDEST SWAP2 POP PUSH1 0x20 DUP4 ADD CALLDATALOAD DUP1 ISZERO ISZERO DUP2 EQ PUSH2 0x3216 JUMPI PUSH1 0x0 DUP1 REVERT JUMPDEST DUP1 SWAP2 POP POP SWAP3 POP SWAP3 SWAP1 POP JUMP JUMPDEST PUSH4 0x4E487B71 PUSH1 0xE0 SHL PUSH1 0x0 MSTORE PUSH1 0x41 PUSH1 0x4 MSTORE PUSH1 0x24 PUSH1 0x0 REVERT JUMPDEST PUSH1 0x40 MLOAD PUSH2 0x120 DUP2 ADD PUSH8 0xFFFFFFFFFFFFFFFF DUP2 GT DUP3 DUP3 LT OR ISZERO PUSH2 0x325B JUMPI PUSH2 0x325B PUSH2 0x3221 JUMP JUMPDEST PUSH1 0x40 MSTORE SWAP1 JUMP JUMPDEST PUSH1 0x40 MLOAD PUSH1 0x1F DUP3 ADD PUSH1 0x1F NOT AND DUP2 ADD PUSH8 0xFFFFFFFFFFFFFFFF DUP2 GT DUP3 DUP3 LT OR ISZERO PUSH2 0x328A JUMPI PUSH2 0x328A PUSH2 0x3221 JUMP JUMPDEST PUSH1 0x40 MSTORE SWAP2 SWAP1 POP JUMP JUMPDEST PUSH1 0x0 PUSH8 0xFFFFFFFFFFFFFFFF DUP3 GT ISZERO PUSH2 0x32AC JUMPI PUSH2 0x32AC PUSH2 0x3221 JUMP JUMPDEST POP PUSH1 0x1F ADD PUSH1 0x1F NOT AND PUSH1 0x20 ADD SWAP1 JUMP JUMPDEST PUSH1 0x0 PUSH2 0x32CD PUSH2 0x32C8 DUP5 PUSH2 0x3292 JUMP JUMPDEST PUSH2 0x3261 JUMP JUMPDEST SWAP1 POP DUP3 DUP2 MSTORE DUP4 DUP4 DUP4 ADD GT ISZERO PUSH2 0x32E1 JUMPI PUSH1 0x0 DUP1 REVERT JUMPDEST DUP3 DUP3 PUSH1 0x20 DUP4 ADD CALLDATACOPY PUSH1 0x0 PUSH1 0x20 DUP5 DUP4 ADD ADD MSTORE SWAP4 SWAP3 POP POP POP JUMP JUMPDEST PUSH1 0x0 DUP1 PUSH1 0x0 DUP1 PUSH1 0x80 DUP6 DUP8 SUB SLT ISZERO PUSH2 0x330E JUMPI PUSH1 0x0 DUP1 REVERT JUMPDEST DUP5 CALLDATALOAD PUSH2 0x3319 DUP2 PUSH2 0x3095 JUMP JUMPDEST SWAP4 POP PUSH1 0x20 DUP6 ADD CALLDATALOAD PUSH2 0x3329 DUP2 PUSH2 0x3095 JUMP JUMPDEST SWAP3 POP PUSH1 0x40 DUP6 ADD CALLDATALOAD SWAP2 POP PUSH1 0x60 DUP6 ADD CALLDATALOAD PUSH8 0xFFFFFFFFFFFFFFFF DUP2 GT ISZERO PUSH2 0x334C JUMPI PUSH1 0x0 DUP1 REVERT JUMPDEST DUP6 ADD PUSH1 0x1F DUP2 ADD DUP8 SGT PUSH2 0x335D JUMPI PUSH1 0x0 DUP1 REVERT JUMPDEST PUSH2 0x336C DUP8 DUP3 CALLDATALOAD PUSH1 0x20 DUP5 ADD PUSH2 0x32BA JUMP JUMPDEST SWAP2 POP POP SWAP3 SWAP6 SWAP2 SWAP5 POP SWAP3 POP JUMP JUMPDEST PUSH1 0x0 PUSH1 0x20 DUP3 DUP5 SUB SLT ISZERO PUSH2 0x338A JUMPI PUSH1 0x0 DUP1 REVERT JUMPDEST DUP2 CALLDATALOAD PUSH8 0xFFFFFFFFFFFFFFFF DUP2 GT ISZERO PUSH2 0x33A1 JUMPI PUSH1 0x0 DUP1 REVERT JUMPDEST DUP3 ADD PUSH1 0x1F DUP2 ADD DUP5 SGT PUSH2 0x33B2 JUMPI PUSH1 0x0 DUP1 REVERT JUMPDEST PUSH2 0x23F5 DUP5 DUP3 CALLDATALOAD PUSH1 0x20 DUP5 ADD PUSH2 0x32BA JUMP JUMPDEST PUSH1 0x0 DUP1 PUSH1 0x0 DUP1 PUSH1 0x0 DUP1 PUSH1 0xC0 DUP8 DUP10 SUB SLT ISZERO PUSH2 0x33DA JUMPI PUSH1 0x0 DUP1 REVERT JUMPDEST DUP7 CALLDATALOAD PUSH2 0x33E5 DUP2 PUSH2 0x3095 JUMP JUMPDEST SWAP6 POP PUSH1 0x20 DUP8 ADD CALLDATALOAD SWAP5 POP PUSH1 0x40 DUP8 ADD CALLDATALOAD SWAP4 POP PUSH1 0x60 DUP8 ADD CALLDATALOAD PUSH1 0xFF DUP2 AND DUP2 EQ PUSH2 0x3409 JUMPI PUSH1 0x0 DUP1 REVERT JUMPDEST SWAP6 SWAP9 SWAP5 SWAP8 POP SWAP3 SWAP6 PUSH1 0x80 DUP2 ADD CALLDATALOAD SWAP5 PUSH1 0xA0 SWAP1 SWAP2 ADD CALLDATALOAD SWAP4 POP SWAP2 POP POP JUMP JUMPDEST PUSH1 0x0 DUP1 PUSH1 0x40 DUP4 DUP6 SUB SLT ISZERO PUSH2 0x3436 JUMPI PUSH1 0x0 DUP1 REVERT JUMPDEST DUP3 CALLDATALOAD PUSH2 0x3441 DUP2 PUSH2 0x3095 JUMP JUMPDEST SWAP2 POP PUSH1 0x20 DUP4 ADD CALLDATALOAD PUSH2 0x3216 DUP2 PUSH2 0x3095 JUMP JUMPDEST PUSH1 0x0 DUP1 PUSH1 0x40 DUP4 DUP6 SUB SLT ISZERO PUSH2 0x3464 JUMPI PUSH1 0x0 DUP1 REVERT JUMPDEST DUP3 CALLDATALOAD PUSH2 0x346F DUP2 PUSH2 0x3095 JUMP JUMPDEST SWAP2 POP PUSH1 0x20 DUP4 ADD CALLDATALOAD PUSH4 0xFFFFFFFF DUP2 AND DUP2 EQ PUSH2 0x3216 JUMPI PUSH1 0x0 DUP1 REVERT JUMPDEST PUSH1 0x20 DUP1 DUP3 MSTORE DUP2 DUP2 ADD MSTORE PUSH32 0x4F776E61626C653A2063616C6C6572206973206E6F7420746865206F776E6572 PUSH1 0x40 DUP3 ADD MSTORE PUSH1 0x60 ADD SWAP1 JUMP JUMPDEST PUSH1 0x1 DUP2 DUP2 SHR SWAP1 DUP3 AND DUP1 PUSH2 0x34D1 JUMPI PUSH1 0x7F DUP3 AND SWAP2 POP JUMPDEST PUSH1 0x20 DUP3 LT DUP2 SUB PUSH2 0x34F1 JUMPI PUSH4 0x4E487B71 PUSH1 0xE0 SHL PUSH1 0x0 MSTORE PUSH1 0x22 PUSH1 0x4 MSTORE PUSH1 0x24 PUSH1 0x0 REVERT JUMPDEST POP SWAP2 SWAP1 POP JUMP JUMPDEST PUSH4 0x4E487B71 PUSH1 0xE0 SHL PUSH1 0x0 MSTORE PUSH1 0x12 PUSH1 0x4 MSTORE PUSH1 0x24 PUSH1 0x0 REVERT JUMPDEST PUSH1 0x0 DUP3 PUSH2 0x351C JUMPI PUSH2 0x351C PUSH2 0x34F7 JUMP JUMPDEST POP MOD SWAP1 JUMP JUMPDEST PUSH4 0x4E487B71 PUSH1 0xE0 SHL PUSH1 0x0 MSTORE PUSH1 0x11 PUSH1 0x4 MSTORE PUSH1 0x24 PUSH1 0x0 REVERT JUMPDEST PUSH1 0x0 PUSH1 0x1 DUP3 ADD PUSH2 0x3549 JUMPI PUSH2 0x3549 PUSH2 0x3521 JUMP JUMPDEST POP PUSH1 0x1 ADD SWAP1 JUMP JUMPDEST PUSH1 0x20 DUP1 DUP3 MSTORE PUSH1 0x31 SWAP1 DUP3 ADD MSTORE PUSH32 0x4552433732313A207472616E736665722063616C6C6572206973206E6F74206F PUSH1 0x40 DUP3 ADD MSTORE PUSH17 0x1DDB995C881B9BDC88185C1C1C9BDD9959 PUSH1 0x7A SHL PUSH1 0x60 DUP3 ADD MSTORE PUSH1 0x80 ADD SWAP1 JUMP JUMPDEST PUSH4 0x4E487B71 PUSH1 0xE0 SHL PUSH1 0x0 MSTORE PUSH1 0x32 PUSH1 0x4 MSTORE PUSH1 0x24 PUSH1 0x0 REVERT JUMPDEST PUSH1 0x20 DUP1 DUP3 MSTORE PUSH1 0x2B SWAP1 DUP3 ADD MSTORE PUSH32 0x4E6F756E73546F6B656E3A2055524920717565727920666F72206E6F6E657869 PUSH1 0x40 DUP3 ADD MSTORE PUSH11 0x39BA32B73A103A37B5B2B7 PUSH1 0xA9 SHL PUSH1 0x60 DUP3 ADD MSTORE PUSH1 0x80 ADD SWAP1 JUMP JUMPDEST SWAP2 DUP3 MSTORE DUP1 SLOAD PUSH6 0xFFFFFFFFFFFF DUP1 DUP3 AND PUSH1 0x20 DUP6 ADD MSTORE PUSH1 0x30 DUP3 DUP2 SHR DUP3 AND PUSH1 0x40 DUP7 ADD MSTORE PUSH1 0x60 DUP4 DUP2 SHR DUP4 AND DUP2 DUP8 ADD MSTORE PUSH1 0x90 DUP5 DUP2 SHR DUP5 AND PUSH1 0x80 DUP9 ADD MSTORE PUSH1 0xC0 SWAP5 DUP6 SHR DUP5 AND PUSH1 0xA0 DUP9 ADD MSTORE PUSH1 0x1 SWAP1 SWAP6 ADD SLOAD DUP1 DUP5 AND SWAP5 DUP8 ADD SWAP5 SWAP1 SWAP5 MSTORE SWAP1 DUP4 SWAP1 SHR DUP3 AND PUSH1 0xE0 DUP7 ADD MSTORE DUP3 SWAP1 SHR DUP2 AND PUSH2 0x100 DUP6 ADD MSTORE SWAP2 SHR AND PUSH2 0x120 DUP3 ADD MSTORE PUSH2 0x140 ADD SWAP1 JUMP JUMPDEST PUSH1 0x0 PUSH1 0x20 DUP3 DUP5 SUB SLT ISZERO PUSH2 0x368D JUMPI PUSH1 0x0 DUP1 REVERT JUMPDEST DUP2 MLOAD PUSH8 0xFFFFFFFFFFFFFFFF DUP2 GT ISZERO PUSH2 0x36A4 JUMPI PUSH1 0x0 DUP1 REVERT JUMPDEST DUP3 ADD PUSH1 0x1F DUP2 ADD DUP5 SGT PUSH2 0x36B5 JUMPI PUSH1 0x0 DUP1 REVERT JUMPDEST DUP1 MLOAD PUSH2 0x36C3 PUSH2 0x32C8 DUP3 PUSH2 0x3292 JUMP JUMPDEST DUP2 DUP2 MSTORE DUP6 PUSH1 0x20 DUP4 DUP6 ADD ADD GT ISZERO PUSH2 0x36D8 JUMPI PUSH1 0x0 DUP1 REVERT JUMPDEST PUSH2 0x36E9 DUP3 PUSH1 0x20 DUP4 ADD PUSH1 0x20 DUP7 ADD PUSH2 0x30FA JUMP JUMPDEST SWAP6 SWAP5 POP POP POP POP POP JUMP JUMPDEST PUSH4 0xFFFFFFFF DUP3 DUP2 AND DUP3 DUP3 AND SUB SWAP1 DUP2 GT ISZERO PUSH2 0x970 JUMPI PUSH2 0x970 PUSH2 0x3521 JUMP JUMPDEST PUSH1 0x0 PUSH4 0xFFFFFFFF DUP4 AND DUP1 PUSH2 0x3724 JUMPI PUSH2 0x3724 PUSH2 0x34F7 JUMP JUMPDEST DUP1 PUSH4 0xFFFFFFFF DUP5 AND DIV SWAP2 POP POP SWAP3 SWAP2 POP POP JUMP JUMPDEST PUSH1 0x1F DUP3 GT ISZERO PUSH2 0xBAD JUMPI DUP1 PUSH1 0x0 MSTORE PUSH1 0x20 PUSH1 0x0 KECCAK256 PUSH1 0x1F DUP5 ADD PUSH1 0x5 SHR DUP2 ADD PUSH1 0x20 DUP6 LT ISZERO PUSH2 0x375D JUMPI POP DUP1 JUMPDEST PUSH1 0x1F DUP5 ADD PUSH1 0x5 SHR DUP3 ADD SWAP2 POP JUMPDEST DUP2 DUP2 LT ISZERO PUSH2 0x377D JUMPI PUSH1 0x0 DUP2 SSTORE PUSH1 0x1 ADD PUSH2 0x3769 JUMP JUMPDEST POP POP POP POP POP JUMP JUMPDEST DUP2 MLOAD PUSH8 0xFFFFFFFFFFFFFFFF DUP2 GT ISZERO PUSH2 0x379E JUMPI PUSH2 0x379E PUSH2 0x3221 JUMP JUMPDEST PUSH2 0x37B2 DUP2 PUSH2 0x37AC DUP5 SLOAD PUSH2 0x34BD JUMP JUMPDEST DUP5 PUSH2 0x3736 JUMP JUMPDEST PUSH1 0x20 PUSH1 0x1F DUP3 GT PUSH1 0x1 DUP2 EQ PUSH2 0x37E6 JUMPI PUSH1 0x0 DUP4 ISZERO PUSH2 0x37CE JUMPI POP DUP5 DUP3 ADD MLOAD JUMPDEST PUSH1 0x0 NOT PUSH1 0x3 DUP6 SWAP1 SHL SHR NOT AND PUSH1 0x1 DUP5 SWAP1 SHL OR DUP5 SSTORE PUSH2 0x377D JUMP JUMPDEST PUSH1 0x0 DUP5 DUP2 MSTORE PUSH1 0x20 DUP2 KECCAK256 PUSH1 0x1F NOT DUP6 AND SWAP2 JUMPDEST DUP3 DUP2 LT ISZERO PUSH2 0x3816 JUMPI DUP8 DUP6 ADD MLOAD DUP3 SSTORE PUSH1 0x20 SWAP5 DUP6 ADD SWAP5 PUSH1 0x1 SWAP1 SWAP3 ADD SWAP2 ADD PUSH2 0x37F6 JUMP JUMPDEST POP DUP5 DUP3 LT ISZERO PUSH2 0x3834 JUMPI DUP7 DUP5 ADD MLOAD PUSH1 0x0 NOT PUSH1 0x3 DUP8 SWAP1 SHL PUSH1 0xF8 AND SHR NOT AND DUP2 SSTORE JUMPDEST POP POP POP POP PUSH1 0x1 SWAP1 DUP2 SHL ADD SWAP1 SSTORE POP JUMP JUMPDEST PUSH7 0x697066733A2F2F PUSH1 0xC8 SHL DUP2 MSTORE PUSH1 0x0 DUP1 DUP4 SLOAD PUSH2 0x385E DUP2 PUSH2 0x34BD JUMP JUMPDEST PUSH1 0x1 DUP3 AND DUP1 ISZERO PUSH2 0x3875 JUMPI PUSH1 0x1 DUP2 EQ PUSH2 0x3890 JUMPI PUSH2 0x38C6 JUMP JUMPDEST PUSH1 0xFF NOT DUP4 AND PUSH1 0x7 DUP8 ADD MSTORE PUSH1 0x7 DUP3 ISZERO ISZERO DUP4 MUL DUP8 ADD ADD SWAP4 POP PUSH2 0x38C6 JUMP JUMPDEST DUP7 PUSH1 0x0 MSTORE PUSH1 0x20 PUSH1 0x0 KECCAK256 PUSH1 0x0 JUMPDEST DUP4 DUP2 LT ISZERO PUSH2 0x38BB JUMPI DUP2 SLOAD DUP9 DUP3 ADD PUSH1 0x7 ADD MSTORE PUSH1 0x1 SWAP1 SWAP2 ADD SWAP1 PUSH1 0x20 ADD PUSH2 0x389C JUMP JUMPDEST POP POP PUSH1 0x7 DUP3 DUP8 ADD ADD SWAP4 POP JUMPDEST POP SWAP2 SWAP6 SWAP5 POP POP POP POP POP JUMP JUMPDEST PUSH1 0x0 PUSH1 0x20 DUP3 DUP5 SUB SLT ISZERO PUSH2 0x38E3 JUMPI PUSH1 0x0 DUP1 REVERT JUMPDEST DUP2 MLOAD PUSH2 0xFBC DUP2 PUSH2 0x3095 JUMP JUMPDEST DUP1 MLOAD PUSH6 0xFFFFFFFFFFFF DUP2 AND DUP2 EQ PUSH2 0x3904 JUMPI PUSH1 0x0 DUP1 REVERT JUMPDEST SWAP2 SWAP1 POP JUMP JUMPDEST PUSH1 0x0 PUSH2 0x120 DUP3 DUP5 SUB SLT DUP1 ISZERO PUSH2 0x391D JUMPI PUSH1 0x0 DUP1 REVERT JUMPDEST POP PUSH2 0x3926 PUSH2 0x3237 JUMP JUMPDEST PUSH2 0x392F DUP4 PUSH2 0x38EE JUMP JUMPDEST DUP2 MSTORE PUSH2 0x393D PUSH1 0x20 DUP5 ADD PUSH2 0x38EE JUMP JUMPDEST PUSH1 0x20 DUP3 ADD MSTORE PUSH2 0x394E PUSH1 0x40 DUP5 ADD PUSH2 0x38EE JUMP JUMPDEST PUSH1 0x40 DUP3 ADD MSTORE PUSH2 0x395F PUSH1 0x60 DUP5 ADD PUSH2 0x38EE JUMP JUMPDEST PUSH1 0x60 DUP3 ADD MSTORE PUSH2 0x3970 PUSH1 0x80 DUP5 ADD PUSH2 0x38EE JUMP JUMPDEST PUSH1 0x80 DUP3 ADD MSTORE PUSH2 0x3981 PUSH1 0xA0 DUP5 ADD PUSH2 0x38EE JUMP JUMPDEST PUSH1 0xA0 DUP3 ADD MSTORE PUSH2 0x3992 PUSH1 0xC0 DUP5 ADD PUSH2 0x38EE JUMP JUMPDEST PUSH1 0xC0 DUP3 ADD MSTORE PUSH2 0x39A3 PUSH1 0xE0 DUP5 ADD PUSH2 0x38EE JUMP JUMPDEST PUSH1 0xE0 DUP3 ADD MSTORE PUSH2 0x39B5 PUSH2 0x100 DUP5 ADD PUSH2 0x38EE JUMP JUMPDEST PUSH2 0x100 DUP3 ADD MSTORE SWAP4 SWAP3 POP POP POP JUMP JUMPDEST PUSH1 0x0 PUSH2 0x120 DUP3 ADD SWAP1 POP PUSH6 0xFFFFFFFFFFFF DUP4 MLOAD AND DUP3 MSTORE PUSH6 0xFFFFFFFFFFFF PUSH1 0x20 DUP5 ADD MLOAD AND PUSH1 0x20 DUP4 ADD MSTORE PUSH1 0x40 DUP4 ADD MLOAD PUSH2 0x3A02 PUSH1 0x40 DUP5 ADD DUP3 PUSH6 0xFFFFFFFFFFFF AND SWAP1 MSTORE JUMP JUMPDEST POP PUSH1 0x60 DUP4 ADD MLOAD PUSH2 0x3A1C PUSH1 0x60 DUP5 ADD DUP3 PUSH6 0xFFFFFFFFFFFF AND SWAP1 MSTORE JUMP JUMPDEST POP PUSH1 0x80 DUP4 ADD MLOAD PUSH2 0x3A36 PUSH1 0x80 DUP5 ADD DUP3 PUSH6 0xFFFFFFFFFFFF AND SWAP1 MSTORE JUMP JUMPDEST POP PUSH1 0xA0 DUP4 ADD MLOAD PUSH2 0x3A50 PUSH1 0xA0 DUP5 ADD DUP3 PUSH6 0xFFFFFFFFFFFF AND SWAP1 MSTORE JUMP JUMPDEST POP PUSH1 0xC0 DUP4 ADD MLOAD PUSH2 0x3A6A PUSH1 0xC0 DUP5 ADD DUP3 PUSH6 0xFFFFFFFFFFFF AND SWAP1 MSTORE JUMP JUMPDEST POP PUSH1 0xE0 DUP4 ADD MLOAD PUSH2 0x3A84 PUSH1 0xE0 DUP5 ADD DUP3 PUSH6 0xFFFFFFFFFFFF AND SWAP1 MSTORE JUMP JUMPDEST POP PUSH2 0x100 DUP4 ADD MLOAD PUSH2 0x3AA0 PUSH2 0x100 DUP5 ADD DUP3 PUSH6 0xFFFFFFFFFFFF AND SWAP1 MSTORE JUMP JUMPDEST POP SWAP3 SWAP2 POP POP JUMP JUMPDEST DUP2 DUP2 SUB DUP2 DUP2 GT ISZERO PUSH2 0x970 JUMPI PUSH2 0x970 PUSH2 0x3521 JUMP JUMPDEST DUP1 DUP3 ADD DUP1 DUP3 GT ISZERO PUSH2 0x970 JUMPI PUSH2 0x970 PUSH2 0x3521 JUMP JUMPDEST PUSH1 0x20 DUP1 DUP3 MSTORE PUSH1 0x32 SWAP1 DUP3 ADD MSTORE PUSH32 0x4552433732313A207472616E7366657220746F206E6F6E204552433732315265 PUSH1 0x40 DUP3 ADD MSTORE PUSH18 0x31B2B4BB32B91034B6B83632B6B2B73A32B9 PUSH1 0x71 SHL PUSH1 0x60 DUP3 ADD MSTORE PUSH1 0x80 ADD SWAP1 JUMP JUMPDEST PUSH1 0x1 PUSH1 0x1 PUSH1 0xA0 SHL SUB DUP6 DUP2 AND DUP3 MSTORE DUP5 AND PUSH1 0x20 DUP3 ADD MSTORE PUSH1 0x40 DUP2 ADD DUP4 SWAP1 MSTORE PUSH1 0x80 PUSH1 0x60 DUP3 ADD DUP2 SWAP1 MSTORE PUSH1 0x0 SWAP1 PUSH2 0x3B52 SWAP1 DUP4 ADD DUP5 PUSH2 0x311E JUMP JUMPDEST SWAP7 SWAP6 POP POP POP POP POP POP JUMP JUMPDEST PUSH1 0x0 PUSH1 0x20 DUP3 DUP5 SUB SLT ISZERO PUSH2 0x3B6E JUMPI PUSH1 0x0 DUP1 REVERT JUMPDEST DUP2 MLOAD PUSH2 0xFBC DUP2 PUSH2 0x30C7 JUMP JUMPDEST PUSH1 0x1 PUSH1 0x1 PUSH1 0x60 SHL SUB DUP3 DUP2 AND DUP3 DUP3 AND SUB SWAP1 DUP2 GT ISZERO PUSH2 0x970 JUMPI PUSH2 0x970 PUSH2 0x3521 JUMP JUMPDEST PUSH4 0xFFFFFFFF DUP2 DUP2 AND DUP4 DUP3 AND ADD SWAP1 DUP2 GT ISZERO PUSH2 0x970 JUMPI PUSH2 0x970 PUSH2 0x3521 JUMP JUMPDEST PUSH1 0x1 PUSH1 0x1 PUSH1 0x60 SHL SUB DUP2 DUP2 AND DUP4 DUP3 AND ADD SWAP1 DUP2 GT ISZERO PUSH2 0x970 JUMPI PUSH2 0x970 PUSH2 0x3521 JUMP JUMPDEST PUSH4 0x4E487B71 PUSH1 0xE0 SHL PUSH1 0x0 MSTORE PUSH1 0x31 PUSH1 0x4 MSTORE PUSH1 0x24 PUSH1 0x0 REVERT INVALID GASLIMIT MSTORE NUMBER CALLDATACOPY ORIGIN BALANCE NUMBER PUSH9 0x65636B706F696E7461 PUSH3 0x6C653A GASPRICE PUSH0 PUSH14 0x6F766544656C6567617465733A20 PUSH2 0x6D6F PUSH22 0x6E74206F766572666C6F777345524337323143686563 PUSH12 0x706F696E7461626C653A3A5F PUSH24 0x72697465436865636B706F696E743A20626C6F636B206E75 PUSH14 0x6265722065786365656473203332 KECCAK256 PUSH3 0x697473 0xDD CALLCODE MSTORE 0xAD SHL 0xE2 0xC8 SWAP12 PUSH10 0xC2B068FC378DAA952BA7 CALL PUSH4 0xC4A11628 CREATE2 GAS 0x4D CREATE2 0x23 0xB3 0xEF GASLIMIT MSTORE NUMBER CALLDATACOPY ORIGIN BALANCE NUMBER PUSH9 0x65636B706F696E7461 PUSH3 0x6C653A GASPRICE PUSH23 0x6F746573546F44656C65676174653A20616D6F756E7420 PUSH6 0x786365656473 KECCAK256 CODECOPY CALLDATASIZE KECCAK256 PUSH3 0x697473 GASLIMIT MSTORE NUMBER CALLDATACOPY ORIGIN BALANCE NUMBER PUSH9 0x65636B706F696E7461 PUSH3 0x6C653A GASPRICE PUSH0 PUSH14 0x6F766544656C6567617465733A20 PUSH2 0x6D6F PUSH22 0x6E7420756E646572666C6F7773A26469706673582212 KECCAK256 RETURNDATASIZE 0xF8 SWAP12 0xE1 PUSH9 0x899C85C88570C3EF08 PUSH21 0x90D305B007691793F90210063ECA928F3464736F6C PUSH4 0x4300081A STOP CALLER MLOAD PUSH14 0x524A5244585A4635633751676967 PUSH22 0x7631724B4D41595357435041456A7275646862657764 BALANCE MSTORE8 PUSH19 0x31794C43000000000000000000000000000000 "},"methodIdentifiers":{"DELEGATION_TYPEHASH()":"e7a324dc","DOMAIN_TYPEHASH()":"20606b70","approve(address,uint256)":"095ea7b3","balanceOf(address)":"70a08231","burn(uint256)":"42966c68","checkpoints(address,uint32)":"f1127ed8","contractURI()":"e8a3d485","dataURI(uint256)":"5ac1e3bb","decimals()":"313ce567","delegate(address)":"5c19a95c","delegateBySig(address,uint256,uint256,uint8,bytes32,bytes32)":"c3cda520","delegates(address)":"587cde1e","descriptor()":"303e74df","getApproved(uint256)":"081812fc","getCurrentVotes(address)":"b4b5ea57","getPriorVotes(address,uint256)":"782d6fe1","isApprovedForAll(address,address)":"e985e9c5","isDescriptorLocked()":"c1b8e4e1","isMinterLocked()":"1e688e10","isSeedLocked()":"f2555725","koalasersDAO()":"2dc2b880","lockDescriptor()":"41b5d0de","lockMinter()":"76daebe1","lockSeeder()":"5f295a67","mint()":"1249c58b","minter()":"07546172","name()":"06fdde03","nonces(address)":"7ecebe00","numCheckpoints(address)":"6fcfff45","owner()":"8da5cb5b","ownerOf(uint256)":"6352211e","proxyRegistry()":"b50cbd9f","renounceOwnership()":"715018a6","safeTransferFrom(address,address,uint256)":"42842e0e","safeTransferFrom(address,address,uint256,bytes)":"b88d4fde","seeder()":"684931ed","seeds(uint256)":"f0503e80","setApprovalForAll(address,bool)":"a22cb465","setContractURIHash(string)":"baedc1c4","setDescriptor(address)":"01b9a397","setKoalasDAO(address)":"4b664998","setMinter(address)":"fca3b5aa","setSeeder(address)":"d50b31eb","supportsInterface(bytes4)":"01ffc9a7","symbol()":"95d89b41","tokenByIndex(uint256)":"4f6ccce7","tokenOfOwnerByIndex(address,uint256)":"2f745c59","tokenURI(uint256)":"c87b56dd","totalSupply()":"18160ddd","transferFrom(address,address,uint256)":"23b872dd","transferOwnership(address)":"f2fde38b","votesToDelegate(address)":"e9580e91"}}}}}