{"contracts/koalas.sol":{"koalas_v1":{"abi":[{"inputs":[{"internalType":"contract IProxyRegistry","name":"_proxyRegistry","type":"address"}],"stateMutability":"nonpayable","type":"constructor"},{"anonymous":false,"inputs":[{"indexed":true,"internalType":"address","name":"owner","type":"address"},{"indexed":true,"internalType":"address","name":"approved","type":"address"},{"indexed":true,"internalType":"uint256","name":"tokenId","type":"uint256"}],"name":"Approval","type":"event"},{"anonymous":false,"inputs":[{"indexed":true,"internalType":"address","name":"owner","type":"address"},{"indexed":true,"internalType":"address","name":"operator","type":"address"},{"indexed":false,"internalType":"bool","name":"approved","type":"bool"}],"name":"ApprovalForAll","type":"event"},{"anonymous":false,"inputs":[{"indexed":true,"internalType":"address","name":"delegator","type":"address"},{"indexed":true,"internalType":"address","name":"fromDelegate","type":"address"},{"indexed":true,"internalType":"address","name":"toDelegate","type":"address"}],"name":"DelegateChanged","type":"event"},{"anonymous":false,"inputs":[{"indexed":true,"internalType":"address","name":"delegate","type":"address"},{"indexed":false,"internalType":"uint256","name":"previousBalance","type":"uint256"},{"indexed":false,"internalType":"uint256","name":"newBalance","type":"uint256"}],"name":"DelegateVotesChanged","type":"event"},{"anonymous":false,"inputs":[],"name":"DescriptorLocked","type":"event"},{"anonymous":false,"inputs":[{"indexed":false,"internalType":"contract IKoalasDescriptor","name":"descriptor","type":"address"}],"name":"DescriptorUpdated","type":"event"},{"anonymous":false,"inputs":[{"indexed":true,"internalType":"uint256","name":"tokenId","type":"uint256"}],"name":"KoalasBurned","type":"event"},{"anonymous":false,"inputs":[{"indexed":true,"internalType":"uint256","name":"tokenId","type":"uint256"},{"components":[{"internalType":"uint48","name":"background","type":"uint48"},{"internalType":"uint48","name":"fur","type":"uint48"},{"internalType":"uint48","name":"face","type":"uint48"},{"internalType":"uint48","name":"clothe","type":"uint48"},{"internalType":"uint48","name":"eye","type":"uint48"},{"internalType":"uint48","name":"mouth","type":"uint48"},{"internalType":"uint48","name":"erring","type":"uint48"},{"internalType":"uint48","name":"hand","type":"uint48"},{"internalType":"uint48","name":"head","type":"uint48"}],"indexed":false,"internalType":"struct IKoalasSeeder.Seed","name":"seed","type":"tuple"}],"name":"KoalasCreated","type":"event"},{"anonymous":false,"inputs":[{"indexed":false,"internalType":"address","name":"KoalasdersDAO","type":"address"}],"name":"KoalasdersDAOUpdated","type":"event"},{"anonymous":false,"inputs":[],"name":"MinterLocked","type":"event"},{"anonymous":false,"inputs":[{"indexed":false,"internalType":"address","name":"minter","type":"address"}],"name":"MinterUpdated","type":"event"},{"anonymous":false,"inputs":[{"indexed":true,"internalType":"address","name":"previousOwner","type":"address"},{"indexed":true,"internalType":"address","name":"newOwner","type":"address"}],"name":"OwnershipTransferred","type":"event"},{"anonymous":false,"inputs":[],"name":"SeederLocked","type":"event"},{"anonymous":false,"inputs":[{"indexed":false,"internalType":"contract IKoalasSeeder","name":"seeder","type":"address"}],"name":"SeederUpdated","type":"event"},{"anonymous":false,"inputs":[{"indexed":true,"internalType":"address","name":"from","type":"address"},{"indexed":true,"internalType":"address","name":"to","type":"address"},{"indexed":true,"internalType":"uint256","name":"tokenId","type":"uint256"}],"name":"Transfer","type":"event"},{"inputs":[],"name":"DELEGATION_TYPEHASH","outputs":[{"internalType":"bytes32","name":"","type":"bytes32"}],"stateMutability":"view","type":"function"},{"inputs":[],"name":"DOMAIN_TYPEHASH","outputs":[{"internalType":"bytes32","name":"","type":"bytes32"}],"stateMutability":"view","type":"function"},{"inputs":[{"internalType":"address","name":"to","type":"address"},{"internalType":"uint256","name":"tokenId","type":"uint256"}],"name":"approve","outputs":[],"stateMutability":"nonpayable","type":"function"},{"inputs":[{"internalType":"address","name":"owner","type":"address"}],"name":"balanceOf","outputs":[{"internalType":"uint256","name":"","type":"uint256"}],"stateMutability":"view","type":"function"},{"inputs":[{"internalType":"uint256","name":"tokenId","type":"uint256"}],"name":"burn","outputs":[],"stateMutability":"nonpayable","type":"function"},{"inputs":[{"internalType":"address","name":"","type":"address"},{"internalType":"uint32","name":"","type":"uint32"}],"name":"checkpoints","outputs":[{"internalType":"uint32","name":"fromBlock","type":"uint32"},{"internalType":"uint96","name":"votes","type":"uint96"}],"stateMutability":"view","type":"function"},{"inputs":[],"name":"contractURI","outputs":[{"internalType":"string","name":"","type":"string"}],"stateMutability":"view","type":"function"},{"inputs":[{"internalType":"uint256","name":"tokenId","type":"uint256"}],"name":"dataURI","outputs":[{"internalType":"string","name":"","type":"string"}],"stateMutability":"view","type":"function"},{"inputs":[],"name":"decimals","outputs":[{"internalType":"uint8","name":"","type":"uint8"}],"stateMutability":"view","type":"function"},{"inputs":[{"internalType":"address","name":"delegatee","type":"address"}],"name":"delegate","outputs":[],"stateMutability":"nonpayable","type":"function"},{"inputs":[{"internalType":"address","name":"delegatee","type":"address"},{"internalType":"uint256","name":"nonce","type":"uint256"},{"internalType":"uint256","name":"expiry","type":"uint256"},{"internalType":"uint8","name":"v","type":"uint8"},{"internalType":"bytes32","name":"r","type":"bytes32"},{"internalType":"bytes32","name":"s","type":"bytes32"}],"name":"delegateBySig","outputs":[],"stateMutability":"nonpayable","type":"function"},{"inputs":[{"internalType":"address","name":"delegator","type":"address"}],"name":"delegates","outputs":[{"internalType":"address","name":"","type":"address"}],"stateMutability":"view","type":"function"},{"inputs":[],"name":"descriptor","outputs":[{"internalType":"contract IKoalasDescriptor","name":"","type":"address"}],"stateMutability":"view","type":"function"},{"inputs":[{"internalType":"uint256","name":"tokenId","type":"uint256"}],"name":"getApproved","outputs":[{"internalType":"address","name":"","type":"address"}],"stateMutability":"view","type":"function"},{"inputs":[{"internalType":"address","name":"account","type":"address"}],"name":"getCurrentVotes","outputs":[{"internalType":"uint96","name":"","type":"uint96"}],"stateMutability":"view","type":"function"},{"inputs":[{"internalType":"address","name":"account","type":"address"},{"internalType":"uint256","name":"blockNumber","type":"uint256"}],"name":"getPriorVotes","outputs":[{"internalType":"uint96","name":"","type":"uint96"}],"stateMutability":"view","type":"function"},{"inputs":[{"internalType":"address","name":"owner","type":"address"},{"internalType":"address","name":"operator","type":"address"}],"name":"isApprovedForAll","outputs":[{"internalType":"bool","name":"","type":"bool"}],"stateMutability":"view","type":"function"},{"inputs":[],"name":"isDescriptorLocked","outputs":[{"internalType":"bool","name":"","type":"bool"}],"stateMutability":"view","type":"function"},{"inputs":[],"name":"isMinterLocked","outputs":[{"internalType":"bool","name":"","type":"bool"}],"stateMutability":"view","type":"function"},{"inputs":[],"name":"isSeedLocked","outputs":[{"internalType":"bool","name":"","type":"bool"}],"stateMutability":"view","type":"function"},{"inputs":[],"name":"koalasersDAO","outputs":[{"internalType":"address","name":"","type":"address"}],"stateMutability":"view","type":"function"},{"inputs":[],"name":"lockDescriptor","outputs":[],"stateMutability":"nonpayable","type":"function"},{"inputs":[],"name":"lockMinter","outputs":[],"stateMutability":"nonpayable","type":"function"},{"inputs":[],"name":"lockSeeder","outputs":[],"stateMutability":"nonpayable","type":"function"},{"inputs":[],"name":"mint","outputs":[{"internalType":"uint256","name":"","type":"uint256"}],"stateMutability":"nonpayable","type":"function"},{"inputs":[],"name":"minter","outputs":[{"internalType":"address","name":"","type":"address"}],"stateMutability":"view","type":"function"},{"inputs":[],"name":"name","outputs":[{"internalType":"string","name":"","type":"string"}],"stateMutability":"view","type":"function"},{"inputs":[{"internalType":"address","name":"","type":"address"}],"name":"nonces","outputs":[{"internalType":"uint256","name":"","type":"uint256"}],"stateMutability":"view","type":"function"},{"inputs":[{"internalType":"address","name":"","type":"address"}],"name":"numCheckpoints","outputs":[{"internalType":"uint32","name":"","type":"uint32"}],"stateMutability":"view","type":"function"},{"inputs":[],"name":"owner","outputs":[{"internalType":"address","name":"","type":"address"}],"stateMutability":"view","type":"function"},{"inputs":[{"internalType":"uint256","name":"tokenId","type":"uint256"}],"name":"ownerOf","outputs":[{"internalType":"address","name":"","type":"address"}],"stateMutability":"view","type":"function"},{"inputs":[],"name":"proxyRegistry","outputs":[{"internalType":"contract IProxyRegistry","name":"","type":"address"}],"stateMutability":"view","type":"function"},{"inputs":[],"name":"renounceOwnership","outputs":[],"stateMutability":"nonpayable","type":"function"},{"inputs":[{"internalType":"address","name":"from","type":"address"},{"internalType":"address","name":"to","type":"address"},{"internalType":"uint256","name":"tokenId","type":"uint256"}],"name":"safeTransferFrom","outputs":[],"stateMutability":"nonpayable","type":"function"},{"inputs":[{"internalType":"address","name":"from","type":"address"},{"internalType":"address","name":"to","type":"address"},{"internalType":"uint256","name":"tokenId","type":"uint256"},{"internalType":"bytes","name":"_data","type":"bytes"}],"name":"safeTransferFrom","outputs":[],"stateMutability":"nonpayable","type":"function"},{"inputs":[],"name":"seeder","outputs":[{"internalType":"contract IKoalasSeeder","name":"","type":"address"}],"stateMutability":"view","type":"function"},{"inputs":[{"internalType":"uint256","name":"","type":"uint256"}],"name":"seeds","outputs":[{"internalType":"uint48","name":"background","type":"uint48"},{"internalType":"uint48","name":"fur","type":"uint48"},{"internalType":"uint48","name":"face","type":"uint48"},{"internalType":"uint48","name":"clothe","type":"uint48"},{"internalType":"uint48","name":"eye","type":"uint48"},{"internalType":"uint48","name":"mouth","type":"uint48"},{"internalType":"uint48","name":"erring","type":"uint48"},{"internalType":"uint48","name":"hand","type":"uint48"},{"internalType":"uint48","name":"head","type":"uint48"}],"stateMutability":"view","type":"function"},{"inputs":[{"internalType":"address","name":"operator","type":"address"},{"internalType":"bool","name":"approved","type":"bool"}],"name":"setApprovalForAll","outputs":[],"stateMutability":"nonpayable","type":"function"},{"inputs":[{"internalType":"string","name":"newContractURIHash","type":"string"}],"name":"setContractURIHash","outputs":[],"stateMutability":"nonpayable","type":"function"},{"inputs":[{"internalType":"contract IKoalasDescriptor","name":"_descriptor","type":"address"}],"name":"setDescriptor","outputs":[],"stateMutability":"nonpayable","type":"function"},{"inputs":[{"internalType":"address","name":"_KoalasersDAO","type":"address"}],"name":"setKoalasDAO","outputs":[],"stateMutability":"nonpayable","type":"function"},{"inputs":[{"internalType":"address","name":"_minter","type":"address"}],"name":"setMinter","outputs":[],"stateMutability":"nonpayable","type":"function"},{"inputs":[{"internalType":"contract IKoalasSeeder","name":"_seeder","type":"address"}],"name":"setSeeder","outputs":[],"stateMutability":"nonpayable","type":"function"},{"inputs":[{"internalType":"bytes4","name":"interfaceId","type":"bytes4"}],"name":"supportsInterface","outputs":[{"internalType":"bool","name":"","type":"bool"}],"stateMutability":"view","type":"function"},{"inputs":[],"name":"symbol","outputs":[{"internalType":"string","name":"","type":"string"}],"stateMutability":"view","type":"function"},{"inputs":[{"internalType":"uint256","name":"index","type":"uint256"}],"name":"tokenByIndex","outputs":[{"internalType":"uint256","name":"","type":"uint256"}],"stateMutability":"view","type":"function"},{"inputs":[{"internalType":"address","name":"owner","type":"address"},{"internalType":"uint256","name":"index","type":"uint256"}],"name":"tokenOfOwnerByIndex","outputs":[{"internalType":"uint256","name":"","type":"uint256"}],"stateMutability":"view","type":"function"},{"inputs":[{"internalType":"uint256","name":"tokenId","type":"uint256"}],"name":"tokenURI","outputs":[{"internalType":"string","name":"","type":"string"}],"stateMutability":"view","type":"function"},{"inputs":[],"name":"totalSupply","outputs":[{"internalType":"uint256","name":"","type":"uint256"}],"stateMutability":"view","type":"function"},{"inputs":[{"internalType":"address","name":"from","type":"address"},{"internalType":"address","name":"to","type":"address"},{"internalType":"uint256","name":"tokenId","type":"uint256"}],"name":"transferFrom","outputs":[],"stateMutability":"nonpayable","type":"function"},{"inputs":[{"internalType":"address","name":"newOwner","type":"address"}],"name":"transferOwnership","outputs":[],"stateMutability":"nonpayable","type":"function"},{"inputs":[{"internalType":"address","name":"delegator","type":"address"}],"name":"votesToDelegate","outputs":[{"internalType":"uint96","name":"","type":"uint96"}],"stateMutability":"view","type":"function"}],"evm":{"bytecode":{"linkReferences":{},"object":"60a06040526040518060600160405280602e815260200161797c602e91396017908161002b919061045a565b5034801561003857600080fd5b506040516179aa3803806179aa833981810160405281019061005a91906105a1565b6040518060400160405280600681526020017f4b6f616c617300000000000000000000000000000000000000000000000000008152506040518060400160405280600681526020017f4b4f414c415300000000000000000000000000000000000000000000000000008152506100e26100d761013e60201b60201c565b61014660201b60201c565b81600190816100f1919061045a565b508060029081610101919061045a565b5050508073ffffffffffffffffffffffffffffffffffffffff1660808173ffffffffffffffffffffffffffffffffffffffff1681525050506105ce565b600033905090565b60008060009054906101000a900473ffffffffffffffffffffffffffffffffffffffff169050816000806101000a81548173ffffffffffffffffffffffffffffffffffffffff021916908373ffffffffffffffffffffffffffffffffffffffff1602179055508173ffffffffffffffffffffffffffffffffffffffff168173ffffffffffffffffffffffffffffffffffffffff167f8be0079c531659141344cd1fd0a4f28419497f9722a3daafe3b4186f6b6457e060405160405180910390a35050565b600081519050919050565b7f4e487b7100000000000000000000000000000000000000000000000000000000600052604160045260246000fd5b7f4e487b7100000000000000000000000000000000000000000000000000000000600052602260045260246000fd5b6000600282049050600182168061028b57607f821691505b60208210810361029e5761029d610244565b5b50919050565b60008190508160005260206000209050919050565b60006020601f8301049050919050565b600082821b905092915050565b6000600883026103067fffffffffffffffffffffffffffffffffffffffffffffffffffffffffffffffff826102c9565b61031086836102c9565b95508019841693508086168417925050509392505050565b6000819050919050565b6000819050919050565b600061035761035261034d84610328565b610332565b610328565b9050919050565b6000819050919050565b6103718361033c565b61038561037d8261035e565b8484546102d6565b825550505050565b600090565b61039a61038d565b6103a5818484610368565b505050565b5b818110156103c9576103be600082610392565b6001810190506103ab565b5050565b601f82111561040e576103df816102a4565b6103e8846102b9565b810160208510156103f7578190505b61040b610403856102b9565b8301826103aa565b50505b505050565b600082821c905092915050565b600061043160001984600802610413565b1980831691505092915050565b600061044a8383610420565b9150826002028217905092915050565b6104638261020a565b67ffffffffffffffff81111561047c5761047b610215565b5b6104868254610273565b6104918282856103cd565b600060209050601f8311600181146104c457600084156104b2578287015190505b6104bc858261043e565b865550610524565b601f1984166104d2866102a4565b60005b828110156104fa578489015182556001820191506020850194506020810190506104d5565b868310156105175784890151610513601f891682610420565b8355505b6001600288020188555050505b505050505050565b600080fd5b600073ffffffffffffffffffffffffffffffffffffffff82169050919050565b600061055c82610531565b9050919050565b600061056e82610551565b9050919050565b61057e81610563565b811461058957600080fd5b50565b60008151905061059b81610575565b92915050565b6000602082840312156105b7576105b661052c565b5b60006105c58482850161058c565b91505092915050565b60805161738c6105f0600039600081816121ac015261284d015261738c6000f3fe608060405234801561001057600080fd5b506004361061030c5760003560e01c80636fcfff451161019d578063c1b8e4e1116100e9578063e9580e91116100a2578063f1127ed81161007c578063f1127ed814610971578063f2555725146109a2578063f2fde38b146109c0578063fca3b5aa146109dc5761030c565b8063e9580e91146108d9578063e985e9c514610909578063f0503e80146109395761030c565b8063c1b8e4e114610817578063c3cda52014610835578063c87b56dd14610851578063d50b31eb14610881578063e7a324dc1461089d578063e8a3d485146108bb5761030c565b80638da5cb5b11610156578063b4b5ea5711610130578063b4b5ea5714610791578063b50cbd9f146107c1578063b88d4fde146107df578063baedc1c4146107fb5761030c565b80638da5cb5b1461073957806395d89b4114610757578063a22cb465146107755761030c565b80636fcfff451461066557806370a0823114610695578063715018a6146106c557806376daebe1146106cf578063782d6fe1146106d95780637ecebe00146107095761030c565b8063303e74df1161025c5780634f6ccce7116102155780635c19a95c116101ef5780635c19a95c146105f15780635f295a671461060d5780636352211e14610617578063684931ed146106475761030c565b80634f6ccce714610561578063587cde1e146105915780635ac1e3bb146105c15761030c565b8063303e74df146104c7578063313ce567146104e557806341b5d0de1461050357806342842e0e1461050d57806342966c68146105295780634b664998146105455761030c565b80631249c58b116102c957806320606b70116102a357806320606b701461043f57806323b872dd1461045d5780632dc2b880146104795780632f745c59146104975761030c565b80631249c58b146103e557806318160ddd146104035780631e688e10146104215761030c565b806301b9a3971461031157806301ffc9a71461032d57806306fdde031461035d578063075461721461037b578063081812fc14610399578063095ea7b3146103c9575b600080fd5b61032b60048036038101906103269190614af5565b6109f8565b005b61034760048036038101906103429190614b7a565b610b3f565b6040516103549190614bc2565b60405180910390f35b610365610bb9565b6040516103729190614c6d565b60405180910390f35b610383610c4b565b6040516103909190614c9e565b60405180910390f35b6103b360048036038101906103ae9190614cef565b610c71565b6040516103c09190614c9e565b60405180910390f35b6103e360048036038101906103de9190614d48565b610cf6565b005b6103ed610e0d565b6040516103fa9190614d97565b60405180910390f35b61040b610f51565b6040516104189190614d97565b60405180910390f35b610429610f5e565b6040516104369190614bc2565b60405180910390f35b610447610f6f565b6040516104549190614dcb565b60405180910390f35b61047760048036038101906104729190614de6565b610f93565b005b610481610ff3565b60405161048e9190614c9e565b60405180910390f35b6104b160048036038101906104ac9190614d48565b611019565b6040516104be9190614d97565b60405180910390f35b6104cf6110be565b6040516104dc9190614e98565b60405180910390f35b6104ed6110e4565b6040516104fa9190614ecf565b60405180910390f35b61050b6110e9565b005b61052760048036038101906105229190614de6565b6111fe565b005b610543600480360381019061053e9190614cef565b61121e565b005b61055f600480360381019061055a9190614eea565b611257565b005b61057b60048036038101906105769190614cef565b611362565b6040516105889190614d97565b60405180910390f35b6105ab60048036038101906105a69190614eea565b6113d3565b6040516105b89190614c9e565b60405180910390f35b6105db60048036038101906105d69190614cef565b61147c565b6040516105e89190614c6d565b60405180910390f35b61060b60048036038101906106069190614eea565b611582565b005b6106156115c7565b005b610631600480360381019061062c9190614cef565b6116dc565b60405161063e9190614c9e565b60405180910390f35b61064f61178d565b60405161065c9190614f38565b60405180910390f35b61067f600480360381019061067a9190614eea565b6117b3565b60405161068c9190614f72565b60405180910390f35b6106af60048036038101906106aa9190614eea565b6117d6565b6040516106bc9190614d97565b60405180910390f35b6106cd61188d565b005b6106d7611915565b005b6106f360048036038101906106ee9190614d48565b611a27565b6040516107009190614fb4565b60405180910390f35b610723600480360381019061071e9190614eea565b611e60565b6040516107309190614d97565b60405180910390f35b610741611e78565b60405161074e9190614c9e565b60405180910390f35b61075f611ea1565b60405161076c9190614c6d565b60405180910390f35b61078f600480360381019061078a9190614ffb565b611f33565b005b6107ab60048036038101906107a69190614eea565b6120b3565b6040516107b89190614fb4565b60405180910390f35b6107c96121aa565b6040516107d6919061505c565b60405180910390f35b6107f960048036038101906107f491906151ac565b6121ce565b005b610815600480360381019061081091906152d0565b612230565b005b61081f6122bf565b60405161082c9190614bc2565b60405180910390f35b61084f600480360381019061084a9190615371565b6122d2565b005b61086b60048036038101906108669190614cef565b612566565b6040516108789190614c6d565b60405180910390f35b61089b6004803603810190610896919061543c565b61266c565b005b6108a56127b3565b6040516108b29190614dcb565b60405180910390f35b6108c36127d7565b6040516108d09190614c6d565b60405180910390f35b6108f360048036038101906108ee9190614eea565b6127ff565b6040516109009190614fb4565b60405180910390f35b610923600480360381019061091e9190615469565b612832565b6040516109309190614bc2565b60405180910390f35b610953600480360381019061094e9190614cef565b61291c565b604051610968999897969594939291906154ca565b60405180910390f35b61098b60048036038101906109869190615583565b612a0c565b6040516109999291906155c3565b60405180910390f35b6109aa612a65565b6040516109b79190614bc2565b60405180910390f35b6109da60048036038101906109d59190614eea565b612a78565b005b6109f660048036038101906109f19190614eea565b612b6f565b005b610a00612cb4565b73ffffffffffffffffffffffffffffffffffffffff16610a1e611e78565b73ffffffffffffffffffffffffffffffffffffffff1614610a74576040517f08c379a0000000000000000000000000000000000000000000000000000000008152600401610a6b90615638565b60405180910390fd5b601460159054906101000a900460ff1615610ac4576040517f08c379a0000000000000000000000000000000000000000000000000000000008152600401610abb906156a4565b60405180910390fd5b80601360006101000a81548173ffffffffffffffffffffffffffffffffffffffff021916908373ffffffffffffffffffffffffffffffffffffffff1602179055507f6e66ab22238a5471005895947c8f57db923c2a9c9c73180eff80864c21295c1b81604051610b349190614e98565b60405180910390a150565b60007f780e9d63000000000000000000000000000000000000000000000000000000007bffffffffffffffffffffffffffffffffffffffffffffffffffffffff1916827bffffffffffffffffffffffffffffffffffffffffffffffffffffffff19161480610bb25750610bb182612cbc565b5b9050919050565b606060018054610bc8906156f3565b80601f0160208091040260200160405190810160405280929190818152602001828054610bf4906156f3565b8015610c415780601f10610c1657610100808354040283529160200191610c41565b820191906000526020600020905b815481529060010190602001808311610c2457829003601f168201915b5050505050905090565b601060009054906101000a900473ffffffffffffffffffffffffffffffffffffffff1681565b6000610c7c82612d9e565b610cbb576040517f08c379a0000000000000000000000000000000000000000000000000000000008152600401610cb290615796565b60405180910390fd5b6005600083815260200190815260200160002060009054906101000a900473ffffffffffffffffffffffffffffffffffffffff169050919050565b6000610d01826116dc565b90508073ffffffffffffffffffffffffffffffffffffffff168373ffffffffffffffffffffffffffffffffffffffff1603610d71576040517f08c379a0000000000000000000000000000000000000000000000000000000008152600401610d6890615828565b60405180910390fd5b8073ffffffffffffffffffffffffffffffffffffffff16610d90612cb4565b73ffffffffffffffffffffffffffffffffffffffff161480610dbf5750610dbe81610db9612cb4565b612832565b5b610dfe576040517f08c379a0000000000000000000000000000000000000000000000000000000008152600401610df5906158ba565b60405180910390fd5b610e088383612e0a565b505050565b6000601060009054906101000a900473ffffffffffffffffffffffffffffffffffffffff1673ffffffffffffffffffffffffffffffffffffffff163373ffffffffffffffffffffffffffffffffffffffff1614610e9f576040517f08c379a0000000000000000000000000000000000000000000000000000000008152600401610e9690615926565b60405180910390fd5b6101f460165411158015610ec157506000600a601654610ebf9190615975565b145b15610f0a57610f08600f60009054906101000a900473ffffffffffffffffffffffffffffffffffffffff1660166000815480929190610eff906159d5565b91905055612ec3565b505b610f4c601060009054906101000a900473ffffffffffffffffffffffffffffffffffffffff1660166000815480929190610f43906159d5565b91905055612ec3565b905090565b6000600980549050905090565b60148054906101000a900460ff1681565b7f8cad95687ba82c2ce50e74f7b754645e5117c3a5bec8151c0726d5857980a86681565b610fa4610f9e612cb4565b8261330e565b610fe3576040517f08c379a0000000000000000000000000000000000000000000000000000000008152600401610fda90615a8f565b60405180910390fd5b610fee8383836133ec565b505050565b600f60009054906101000a900473ffffffffffffffffffffffffffffffffffffffff1681565b6000611024836117d6565b8210611065576040517f08c379a000000000000000000000000000000000000000000000000000000000815260040161105c90615b21565b60405180910390fd5b600760008473ffffffffffffffffffffffffffffffffffffffff1673ffffffffffffffffffffffffffffffffffffffff168152602001908152602001600020600083815260200190815260200160002054905092915050565b601360009054906101000a900473ffffffffffffffffffffffffffffffffffffffff1681565b600081565b6110f1612cb4565b73ffffffffffffffffffffffffffffffffffffffff1661110f611e78565b73ffffffffffffffffffffffffffffffffffffffff1614611165576040517f08c379a000000000000000000000000000000000000000000000000000000000815260040161115c90615638565b60405180910390fd5b601460159054906101000a900460ff16156111b5576040517f08c379a00000000000000000000000000000000000000000000000000000000081526004016111ac906156a4565b60405180910390fd5b6001601460156101000a81548160ff0219169083151502179055507f593e31e306c198bef259d839f7c6dc4ff7fc10c07f76fab193a210b03704105f60405160405180910390a1565b611219838383604051806020016040528060008152506121ce565b505050565b61122781613647565b807f03d4e40d854f0f6c2560182a42dab2bf4fbe8a5319ba42757b3ac821c37bb14260405160405180910390a250565b600f60009054906101000a900473ffffffffffffffffffffffffffffffffffffffff1673ffffffffffffffffffffffffffffffffffffffff163373ffffffffffffffffffffffffffffffffffffffff16146112e7576040517f08c379a00000000000000000000000000000000000000000000000000000000081526004016112de90615b8d565b60405180910390fd5b80600f60006101000a81548173ffffffffffffffffffffffffffffffffffffffff021916908373ffffffffffffffffffffffffffffffffffffffff1602179055507fd895a3dd6d558bba54c9123e0d5d3436829f8871f270acb46099cf9a6e440fcb816040516113579190614c9e565b60405180910390a150565b600061136c610f51565b82106113ad576040517f08c379a00000000000000000000000000000000000000000000000000000000081526004016113a490615c1f565b60405180910390fd5b600982815481106113c1576113c0615c3f565b5b90600052602060002001549050919050565b600080600b60008473ffffffffffffffffffffffffffffffffffffffff1673ffffffffffffffffffffffffffffffffffffffff16815260200190815260200160002060009054906101000a900473ffffffffffffffffffffffffffffffffffffffff169050600073ffffffffffffffffffffffffffffffffffffffff168173ffffffffffffffffffffffffffffffffffffffff16146114725780611474565b825b915050919050565b606061148782612d9e565b6114c6576040517f08c379a00000000000000000000000000000000000000000000000000000000081526004016114bd90615ce0565b60405180910390fd5b601360009054906101000a900473ffffffffffffffffffffffffffffffffffffffff1673ffffffffffffffffffffffffffffffffffffffff1663350e117783601560008681526020019081526020016000206040518363ffffffff1660e01b8152600401611535929190615ece565b600060405180830381865afa158015611552573d6000803e3d6000fd5b505050506040513d6000823e3d601f19601f8201168201806040525081019061157b9190615f68565b9050919050565b600073ffffffffffffffffffffffffffffffffffffffff168173ffffffffffffffffffffffffffffffffffffffff16036115ba573390505b6115c43382613758565b50565b6115cf612cb4565b73ffffffffffffffffffffffffffffffffffffffff166115ed611e78565b73ffffffffffffffffffffffffffffffffffffffff1614611643576040517f08c379a000000000000000000000000000000000000000000000000000000000815260040161163a90615638565b60405180910390fd5b601460169054906101000a900460ff1615611693576040517f08c379a000000000000000000000000000000000000000000000000000000000815260040161168a90615ffd565b60405180910390fd5b6001601460166101000a81548160ff0219169083151502179055507ff59561f22794afcfb1e6be5c4733f5449fd167252a96b74bb06d341fb0dac7ed60405160405180910390a1565b6000806003600084815260200190815260200160002060009054906101000a900473ffffffffffffffffffffffffffffffffffffffff169050600073ffffffffffffffffffffffffffffffffffffffff168173ffffffffffffffffffffffffffffffffffffffff1603611784576040517f08c379a000000000000000000000000000000000000000000000000000000000815260040161177b9061608f565b60405180910390fd5b80915050919050565b601460009054906101000a900473ffffffffffffffffffffffffffffffffffffffff1681565b600d6020528060005260406000206000915054906101000a900463ffffffff1681565b60008073ffffffffffffffffffffffffffffffffffffffff168273ffffffffffffffffffffffffffffffffffffffff1603611846576040517f08c379a000000000000000000000000000000000000000000000000000000000815260040161183d90616121565b60405180910390fd5b600460008373ffffffffffffffffffffffffffffffffffffffff1673ffffffffffffffffffffffffffffffffffffffff168152602001908152602001600020549050919050565b611895612cb4565b73ffffffffffffffffffffffffffffffffffffffff166118b3611e78565b73ffffffffffffffffffffffffffffffffffffffff1614611909576040517f08c379a000000000000000000000000000000000000000000000000000000000815260040161190090615638565b60405180910390fd5b6119136000613872565b565b61191d612cb4565b73ffffffffffffffffffffffffffffffffffffffff1661193b611e78565b73ffffffffffffffffffffffffffffffffffffffff1614611991576040517f08c379a000000000000000000000000000000000000000000000000000000000815260040161198890615638565b60405180910390fd5b60148054906101000a900460ff16156119df576040517f08c379a00000000000000000000000000000000000000000000000000000000081526004016119d69061618d565b60405180910390fd5b60016014806101000a81548160ff0219169083151502179055507f192417b3f16b1ce69e0c59b0376549666650245ffc05e4b2569089dda8589b6660405160405180910390a1565b6000438210611a6b576040517f08c379a0000000000000000000000000000000000000000000000000000000008152600401611a629061621f565b60405180910390fd5b6000600d60008573ffffffffffffffffffffffffffffffffffffffff1673ffffffffffffffffffffffffffffffffffffffff16815260200190815260200160002060009054906101000a900463ffffffff16905060008163ffffffff1603611ad7576000915050611e5a565b82600c60008673ffffffffffffffffffffffffffffffffffffffff1673ffffffffffffffffffffffffffffffffffffffff1681526020019081526020016000206000600184611b26919061623f565b63ffffffff1663ffffffff16815260200190815260200160002060000160009054906101000a900463ffffffff1663ffffffff1611611beb57600c60008573ffffffffffffffffffffffffffffffffffffffff1673ffffffffffffffffffffffffffffffffffffffff1681526020019081526020016000206000600183611bad919061623f565b63ffffffff1663ffffffff16815260200190815260200160002060000160049054906101000a90046bffffffffffffffffffffffff16915050611e5a565b82600c60008673ffffffffffffffffffffffffffffffffffffffff1673ffffffffffffffffffffffffffffffffffffffff16815260200190815260200160002060008063ffffffff16815260200190815260200160002060000160009054906101000a900463ffffffff1663ffffffff161115611c6c576000915050611e5a565b600080600183611c7c919061623f565b90505b8163ffffffff168163ffffffff161115611ddc57600060028383611ca3919061623f565b611cad9190616277565b82611cb8919061623f565b90506000600c60008973ffffffffffffffffffffffffffffffffffffffff1673ffffffffffffffffffffffffffffffffffffffff16815260200190815260200160002060008363ffffffff1663ffffffff1681526020019081526020016000206040518060400160405290816000820160009054906101000a900463ffffffff1663ffffffff1663ffffffff1681526020016000820160049054906101000a90046bffffffffffffffffffffffff166bffffffffffffffffffffffff166bffffffffffffffffffffffff1681525050905086816000015163ffffffff1603611dab57806020015195505050505050611e5a565b86816000015163ffffffff161015611dc557819350611dd5565b600182611dd2919061623f565b92505b5050611c7f565b600c60008773ffffffffffffffffffffffffffffffffffffffff1673ffffffffffffffffffffffffffffffffffffffff16815260200190815260200160002060008363ffffffff1663ffffffff16815260200190815260200160002060000160049054906101000a90046bffffffffffffffffffffffff1693505050505b92915050565b600e6020528060005260406000206000915090505481565b60008060009054906101000a900473ffffffffffffffffffffffffffffffffffffffff16905090565b606060028054611eb0906156f3565b80601f0160208091040260200160405190810160405280929190818152602001828054611edc906156f3565b8015611f295780601f10611efe57610100808354040283529160200191611f29565b820191906000526020600020905b815481529060010190602001808311611f0c57829003601f168201915b5050505050905090565b611f3b612cb4565b73ffffffffffffffffffffffffffffffffffffffff168273ffffffffffffffffffffffffffffffffffffffff1603611fa8576040517f08c379a0000000000000000000000000000000000000000000000000000000008152600401611f9f906162f4565b60405180910390fd5b8060066000611fb5612cb4565b73ffffffffffffffffffffffffffffffffffffffff1673ffffffffffffffffffffffffffffffffffffffff16815260200190815260200160002060008473ffffffffffffffffffffffffffffffffffffffff1673ffffffffffffffffffffffffffffffffffffffff16815260200190815260200160002060006101000a81548160ff0219169083151502179055508173ffffffffffffffffffffffffffffffffffffffff16612062612cb4565b73ffffffffffffffffffffffffffffffffffffffff167f17307eab39ab6107e8899845ad3d59bd9653f200f220920489ca2b5937696c31836040516120a79190614bc2565b60405180910390a35050565b600080600d60008473ffffffffffffffffffffffffffffffffffffffff1673ffffffffffffffffffffffffffffffffffffffff16815260200190815260200160002060009054906101000a900463ffffffff16905060008163ffffffff161161211d5760006121a2565b600c60008473ffffffffffffffffffffffffffffffffffffffff1673ffffffffffffffffffffffffffffffffffffffff168152602001908152602001600020600060018361216b919061623f565b63ffffffff1663ffffffff16815260200190815260200160002060000160049054906101000a90046bffffffffffffffffffffffff165b915050919050565b7f000000000000000000000000000000000000000000000000000000000000000081565b6121df6121d9612cb4565b8361330e565b61221e576040517f08c379a000000000000000000000000000000000000000000000000000000000815260040161221590615a8f565b60405180910390fd5b61222a84848484613936565b50505050565b612238612cb4565b73ffffffffffffffffffffffffffffffffffffffff16612256611e78565b73ffffffffffffffffffffffffffffffffffffffff16146122ac576040517f08c379a00000000000000000000000000000000000000000000000000000000081526004016122a390615638565b60405180910390fd5b80601790816122bb91906164b6565b5050565b601460159054906101000a900460ff1681565b60007f8cad95687ba82c2ce50e74f7b754645e5117c3a5bec8151c0726d5857980a8666122fd610bb9565b8051906020012061230c613992565b306040516020016123209493929190616588565b60405160208183030381529060405280519060200120905060007fe48329057bfd03d55e49b547132e39cffd9c1820ad7b9d4c5307691425d15adf88888860405160200161237194939291906165cd565b6040516020818303038152906040528051906020012090506000828260405160200161239e92919061668a565b6040516020818303038152906040528051906020012090506000600182888888604051600081526020016040526040516123db94939291906166c1565b6020604051602081039080840390855afa1580156123fd573d6000803e3d6000fd5b505050602060405103519050600073ffffffffffffffffffffffffffffffffffffffff168173ffffffffffffffffffffffffffffffffffffffff1603612478576040517f08c379a000000000000000000000000000000000000000000000000000000000815260040161246f90616778565b60405180910390fd5b600e60008273ffffffffffffffffffffffffffffffffffffffff1673ffffffffffffffffffffffffffffffffffffffff16815260200190815260200160002060008154809291906124c8906159d5565b91905055891461250d576040517f08c379a00000000000000000000000000000000000000000000000000000000081526004016125049061680a565b60405180910390fd5b87421115612550576040517f08c379a00000000000000000000000000000000000000000000000000000000081526004016125479061689c565b60405180910390fd5b61255a818b613758565b50505050505050505050565b606061257182612d9e565b6125b0576040517f08c379a00000000000000000000000000000000000000000000000000000000081526004016125a790615ce0565b60405180910390fd5b601360009054906101000a900473ffffffffffffffffffffffffffffffffffffffff1673ffffffffffffffffffffffffffffffffffffffff16635a78ba3583601560008681526020019081526020016000206040518363ffffffff1660e01b815260040161261f929190615ece565b600060405180830381865afa15801561263c573d6000803e3d6000fd5b505050506040513d6000823e3d601f19601f820116820180604052508101906126659190615f68565b9050919050565b612674612cb4565b73ffffffffffffffffffffffffffffffffffffffff16612692611e78565b73ffffffffffffffffffffffffffffffffffffffff16146126e8576040517f08c379a00000000000000000000000000000000000000000000000000000000081526004016126df90615638565b60405180910390fd5b601460169054906101000a900460ff1615612738576040517f08c379a000000000000000000000000000000000000000000000000000000000815260040161272f90615ffd565b60405180910390fd5b80601460006101000a81548173ffffffffffffffffffffffffffffffffffffffff021916908373ffffffffffffffffffffffffffffffffffffffff1602179055507fb3025222d01ce9a26c7f9d52bc3bfd0352366bd90a793c273fbfe1c81e0e288e816040516127a89190614f38565b60405180910390a150565b7fe48329057bfd03d55e49b547132e39cffd9c1820ad7b9d4c5307691425d15adf81565b606060176040516020016127eb919061698b565b604051602081830303815290604052905090565b600061282b61280d836117d6565b6040518060600160405280603d81526020016172e3603d913961399f565b9050919050565b60008173ffffffffffffffffffffffffffffffffffffffff167f000000000000000000000000000000000000000000000000000000000000000073ffffffffffffffffffffffffffffffffffffffff1663c4552791856040518263ffffffff1660e01b81526004016128a49190614c9e565b602060405180830381865afa1580156128c1573d6000803e3d6000fd5b505050506040513d601f19601f820116820180604052508101906128e591906169c2565b73ffffffffffffffffffffffffffffffffffffffff16036129095760019050612916565b61291383836139fd565b90505b92915050565b60156020528060005260406000206000915090508060000160009054906101000a900465ffffffffffff16908060000160069054906101000a900465ffffffffffff169080600001600c9054906101000a900465ffffffffffff16908060000160129054906101000a900465ffffffffffff16908060000160189054906101000a900465ffffffffffff16908060010160009054906101000a900465ffffffffffff16908060010160069054906101000a900465ffffffffffff169080600101600c9054906101000a900465ffffffffffff16908060010160129054906101000a900465ffffffffffff16905089565b600c602052816000526040600020602052806000526040600020600091509150508060000160009054906101000a900463ffffffff16908060000160049054906101000a90046bffffffffffffffffffffffff16905082565b601460169054906101000a900460ff1681565b612a80612cb4565b73ffffffffffffffffffffffffffffffffffffffff16612a9e611e78565b73ffffffffffffffffffffffffffffffffffffffff1614612af4576040517f08c379a0000000000000000000000000000000000000000000000000000000008152600401612aeb90615638565b60405180910390fd5b600073ffffffffffffffffffffffffffffffffffffffff168173ffffffffffffffffffffffffffffffffffffffff1603612b63576040517f08c379a0000000000000000000000000000000000000000000000000000000008152600401612b5a90616a61565b60405180910390fd5b612b6c81613872565b50565b612b77612cb4565b73ffffffffffffffffffffffffffffffffffffffff16612b95611e78565b73ffffffffffffffffffffffffffffffffffffffff1614612beb576040517f08c379a0000000000000000000000000000000000000000000000000000000008152600401612be290615638565b60405180910390fd5b60148054906101000a900460ff1615612c39576040517f08c379a0000000000000000000000000000000000000000000000000000000008152600401612c309061618d565b60405180910390fd5b80601060006101000a81548173ffffffffffffffffffffffffffffffffffffffff021916908373ffffffffffffffffffffffffffffffffffffffff1602179055507fad0f299ec81a386c98df0ac27dae11dd020ed1b56963c53a7292e7a3a314539a81604051612ca99190614c9e565b60405180910390a150565b600033905090565b60007f80ac58cd000000000000000000000000000000000000000000000000000000007bffffffffffffffffffffffffffffffffffffffffffffffffffffffff1916827bffffffffffffffffffffffffffffffffffffffffffffffffffffffff19161480612d8757507f5b5e139f000000000000000000000000000000000000000000000000000000007bffffffffffffffffffffffffffffffffffffffffffffffffffffffff1916827bffffffffffffffffffffffffffffffffffffffffffffffffffffffff1916145b80612d975750612d9682613a91565b5b9050919050565b60008073ffffffffffffffffffffffffffffffffffffffff166003600084815260200190815260200160002060009054906101000a900473ffffffffffffffffffffffffffffffffffffffff1673ffffffffffffffffffffffffffffffffffffffff1614159050919050565b816005600083815260200190815260200160002060006101000a81548173ffffffffffffffffffffffffffffffffffffffff021916908373ffffffffffffffffffffffffffffffffffffffff160217905550808273ffffffffffffffffffffffffffffffffffffffff16612e7d836116dc565b73ffffffffffffffffffffffffffffffffffffffff167f8c5be1e5ebec7d5bd14f71427d1e84f3dd0314c0f7b2291e5b200ac8c7c3b92560405160405180910390a45050565b600080601460009054906101000a900473ffffffffffffffffffffffffffffffffffffffff1673ffffffffffffffffffffffffffffffffffffffff1663422e2e9984601360009054906101000a900473ffffffffffffffffffffffffffffffffffffffff166040518363ffffffff1660e01b8152600401612f45929190616a81565b61012060405180830381865afa158015612f63573d6000803e3d6000fd5b505050506040513d601f19601f82011682018060405250810190612f879190616bbb565b6015600085815260200190815260200160002060008201518160000160006101000a81548165ffffffffffff021916908365ffffffffffff16021790555060208201518160000160066101000a81548165ffffffffffff021916908365ffffffffffff160217905550604082015181600001600c6101000a81548165ffffffffffff021916908365ffffffffffff16021790555060608201518160000160126101000a81548165ffffffffffff021916908365ffffffffffff16021790555060808201518160000160186101000a81548165ffffffffffff021916908365ffffffffffff16021790555060a08201518160010160006101000a81548165ffffffffffff021916908365ffffffffffff16021790555060c08201518160010160066101000a81548165ffffffffffff021916908365ffffffffffff16021790555060e082015181600101600c6101000a81548165ffffffffffff021916908365ffffffffffff1602179055506101008201518160010160126101000a81548165ffffffffffff021916908365ffffffffffff1602179055509050604051806101200160405290816000820160009054906101000a900465ffffffffffff1665ffffffffffff1665ffffffffffff1681526020016000820160069054906101000a900465ffffffffffff1665ffffffffffff1665ffffffffffff16815260200160008201600c9054906101000a900465ffffffffffff1665ffffffffffff1665ffffffffffff1681526020016000820160129054906101000a900465ffffffffffff1665ffffffffffff1665ffffffffffff1681526020016000820160189054906101000a900465ffffffffffff1665ffffffffffff1665ffffffffffff1681526020016001820160009054906101000a900465ffffffffffff1665ffffffffffff1665ffffffffffff1681526020016001820160069054906101000a900465ffffffffffff1665ffffffffffff1665ffffffffffff16815260200160018201600c9054906101000a900465ffffffffffff1665ffffffffffff1665ffffffffffff1681526020016001820160129054906101000a900465ffffffffffff1665ffffffffffff1665ffffffffffff168152505090506132cc6132c5611e78565b8585613afb565b827f5c92e5f02c729f34f824e1dba1bf071ae954f2b405cbb313215bcf7af7593628826040516132fc9190616ca0565b60405180910390a28291505092915050565b600061331982612d9e565b613358576040517f08c379a000000000000000000000000000000000000000000000000000000000815260040161334f90616d2e565b60405180910390fd5b6000613363836116dc565b90508073ffffffffffffffffffffffffffffffffffffffff168473ffffffffffffffffffffffffffffffffffffffff1614806133d257508373ffffffffffffffffffffffffffffffffffffffff166133ba84610c71565b73ffffffffffffffffffffffffffffffffffffffff16145b806133e357506133e28185612832565b5b91505092915050565b8273ffffffffffffffffffffffffffffffffffffffff1661340c826116dc565b73ffffffffffffffffffffffffffffffffffffffff1614613462576040517f08c379a000000000000000000000000000000000000000000000000000000000815260040161345990616dc0565b60405180910390fd5b600073ffffffffffffffffffffffffffffffffffffffff168273ffffffffffffffffffffffffffffffffffffffff16036134d1576040517f08c379a00000000000000000000000000000000000000000000000000000000081526004016134c890616e52565b60405180910390fd5b6134dc838383613d24565b6134e7600082612e0a565b6001600460008573ffffffffffffffffffffffffffffffffffffffff1673ffffffffffffffffffffffffffffffffffffffff16815260200190815260200160002060008282546135379190616e72565b925050819055506001600460008473ffffffffffffffffffffffffffffffffffffffff1673ffffffffffffffffffffffffffffffffffffffff168152602001908152602001600020600082825461358e9190616ea6565b92505081905550816003600083815260200190815260200160002060006101000a81548173ffffffffffffffffffffffffffffffffffffffff021916908373ffffffffffffffffffffffffffffffffffffffff160217905550808273ffffffffffffffffffffffffffffffffffffffff168473ffffffffffffffffffffffffffffffffffffffff167fddf252ad1be2c89b69c2b068fc378daa952ba7f163c4a11628f55a4df523b3ef60405160405180910390a4505050565b6000613652826116dc565b905061366081600084613d24565b61366b600083612e0a565b6001600460008373ffffffffffffffffffffffffffffffffffffffff1673ffffffffffffffffffffffffffffffffffffffff16815260200190815260200160002060008282546136bb9190616e72565b925050819055506003600083815260200190815260200160002060006101000a81549073ffffffffffffffffffffffffffffffffffffffff021916905581600073ffffffffffffffffffffffffffffffffffffffff168273ffffffffffffffffffffffffffffffffffffffff167fddf252ad1be2c89b69c2b068fc378daa952ba7f163c4a11628f55a4df523b3ef60405160405180910390a45050565b6000613763836113d3565b905081600b60008573ffffffffffffffffffffffffffffffffffffffff1673ffffffffffffffffffffffffffffffffffffffff16815260200190815260200160002060006101000a81548173ffffffffffffffffffffffffffffffffffffffff021916908373ffffffffffffffffffffffffffffffffffffffff1602179055508173ffffffffffffffffffffffffffffffffffffffff168173ffffffffffffffffffffffffffffffffffffffff168473ffffffffffffffffffffffffffffffffffffffff167f3134e8a2e6d97e929a7e54011ea5485d7d196dd5f0ba4d4ef95803e8e3fc257f60405160405180910390a4600061385f846127ff565b905061386c828483613d50565b50505050565b60008060009054906101000a900473ffffffffffffffffffffffffffffffffffffffff169050816000806101000a81548173ffffffffffffffffffffffffffffffffffffffff021916908373ffffffffffffffffffffffffffffffffffffffff1602179055508173ffffffffffffffffffffffffffffffffffffffff168173ffffffffffffffffffffffffffffffffffffffff167f8be0079c531659141344cd1fd0a4f28419497f9722a3daafe3b4186f6b6457e060405160405180910390a35050565b6139418484846133ec565b61394d8484848461405d565b61398c576040517f08c379a000000000000000000000000000000000000000000000000000000000815260040161398390616f4c565b60405180910390fd5b50505050565b6000804690508091505090565b60006c01000000000000000000000000831082906139f3576040517f08c379a00000000000000000000000000000000000000000000000000000000081526004016139ea9190614c6d565b60405180910390fd5b5082905092915050565b6000600660008473ffffffffffffffffffffffffffffffffffffffff1673ffffffffffffffffffffffffffffffffffffffff16815260200190815260200160002060008373ffffffffffffffffffffffffffffffffffffffff1673ffffffffffffffffffffffffffffffffffffffff16815260200190815260200160002060009054906101000a900460ff16905092915050565b60007f01ffc9a7000000000000000000000000000000000000000000000000000000007bffffffffffffffffffffffffffffffffffffffffffffffffffffffff1916827bffffffffffffffffffffffffffffffffffffffffffffffffffffffff1916149050919050565b600073ffffffffffffffffffffffffffffffffffffffff168273ffffffffffffffffffffffffffffffffffffffff1603613b6a576040517f08c379a0000000000000000000000000000000000000000000000000000000008152600401613b6190616fb8565b60405180910390fd5b613b7381612d9e565b15613bb3576040517f08c379a0000000000000000000000000000000000000000000000000000000008152600401613baa90617024565b60405180910390fd5b613bbf60008383613d24565b6001600460008473ffffffffffffffffffffffffffffffffffffffff1673ffffffffffffffffffffffffffffffffffffffff1681526020019081526020016000206000828254613c0f9190616ea6565b92505081905550816003600083815260200190815260200160002060006101000a81548173ffffffffffffffffffffffffffffffffffffffff021916908373ffffffffffffffffffffffffffffffffffffffff160217905550808373ffffffffffffffffffffffffffffffffffffffff16600073ffffffffffffffffffffffffffffffffffffffff167fddf252ad1be2c89b69c2b068fc378daa952ba7f163c4a11628f55a4df523b3ef60405160405180910390a4808273ffffffffffffffffffffffffffffffffffffffff168473ffffffffffffffffffffffffffffffffffffffff167fddf252ad1be2c89b69c2b068fc378daa952ba7f163c4a11628f55a4df523b3ef60405160405180910390a4505050565b613d2f8383836141e4565b613d4b613d3b846113d3565b613d44846113d3565b6001613d50565b505050565b8173ffffffffffffffffffffffffffffffffffffffff168373ffffffffffffffffffffffffffffffffffffffff1614158015613d9a57506000816bffffffffffffffffffffffff16115b1561405857600073ffffffffffffffffffffffffffffffffffffffff168373ffffffffffffffffffffffffffffffffffffffff1614613efb576000600d60008573ffffffffffffffffffffffffffffffffffffffff1673ffffffffffffffffffffffffffffffffffffffff16815260200190815260200160002060009054906101000a900463ffffffff1690506000808263ffffffff1611613e3d576000613ec2565b600c60008673ffffffffffffffffffffffffffffffffffffffff1673ffffffffffffffffffffffffffffffffffffffff1681526020019081526020016000206000600184613e8b919061623f565b63ffffffff1663ffffffff16815260200190815260200160002060000160049054906101000a90046bffffffffffffffffffffffff165b90506000613ee98285604051806060016040528060378152602001617320603791396142f6565b9050613ef786848484614370565b5050505b600073ffffffffffffffffffffffffffffffffffffffff168273ffffffffffffffffffffffffffffffffffffffff1614614057576000600d60008473ffffffffffffffffffffffffffffffffffffffff1673ffffffffffffffffffffffffffffffffffffffff16815260200190815260200160002060009054906101000a900463ffffffff1690506000808263ffffffff1611613f9957600061401e565b600c60008573ffffffffffffffffffffffffffffffffffffffff1673ffffffffffffffffffffffffffffffffffffffff1681526020019081526020016000206000600184613fe7919061623f565b63ffffffff1663ffffffff16815260200190815260200160002060000160049054906101000a90046bffffffffffffffffffffffff165b9050600061404582856040518060600160405280603681526020016172696036913961467e565b905061405385848484614370565b5050505b5b505050565b600061407e8473ffffffffffffffffffffffffffffffffffffffff166146fd565b156141d7578373ffffffffffffffffffffffffffffffffffffffff1663150b7a026140a7612cb4565b8786866040518563ffffffff1660e01b81526004016140c99493929190617099565b6020604051808303816000875af192505050801561410557506040513d601f19601f8201168201806040525081019061410291906170fa565b60015b614187573d8060008114614135576040519150601f19603f3d011682016040523d82523d6000602084013e61413a565b606091505b50600081510361417f576040517f08c379a000000000000000000000000000000000000000000000000000000000815260040161417690616f4c565b60405180910390fd5b805181602001fd5b63150b7a0260e01b7bffffffffffffffffffffffffffffffffffffffffffffffffffffffff1916817bffffffffffffffffffffffffffffffffffffffffffffffffffffffff1916149150506141dc565b600190505b949350505050565b6141ef838383614710565b600073ffffffffffffffffffffffffffffffffffffffff168373ffffffffffffffffffffffffffffffffffffffff16036142315761422c81614715565b614270565b8173ffffffffffffffffffffffffffffffffffffffff168373ffffffffffffffffffffffffffffffffffffffff161461426f5761426e838261475e565b5b5b600073ffffffffffffffffffffffffffffffffffffffff168273ffffffffffffffffffffffffffffffffffffffff16036142b2576142ad816148cb565b6142f1565b8273ffffffffffffffffffffffffffffffffffffffff168273ffffffffffffffffffffffffffffffffffffffff16146142f0576142ef828261499c565b5b5b505050565b6000836bffffffffffffffffffffffff16836bffffffffffffffffffffffff161115829061435a576040517f08c379a00000000000000000000000000000000000000000000000000000000081526004016143519190614c6d565b60405180910390fd5b5082846143679190617127565b90509392505050565b60006143944360405180608001604052806044815260200161729f60449139614a1b565b905060008463ffffffff1611801561443257508063ffffffff16600c60008773ffffffffffffffffffffffffffffffffffffffff1673ffffffffffffffffffffffffffffffffffffffff16815260200190815260200160002060006001876143fc919061623f565b63ffffffff1663ffffffff16815260200190815260200160002060000160009054906101000a900463ffffffff1663ffffffff16145b156144d65781600c60008773ffffffffffffffffffffffffffffffffffffffff1673ffffffffffffffffffffffffffffffffffffffff1681526020019081526020016000206000600187614486919061623f565b63ffffffff1663ffffffff16815260200190815260200160002060000160046101000a8154816bffffffffffffffffffffffff02191690836bffffffffffffffffffffffff160217905550614627565b60405180604001604052808263ffffffff168152602001836bffffffffffffffffffffffff16815250600c60008773ffffffffffffffffffffffffffffffffffffffff1673ffffffffffffffffffffffffffffffffffffffff16815260200190815260200160002060008663ffffffff1663ffffffff16815260200190815260200160002060008201518160000160006101000a81548163ffffffff021916908363ffffffff16021790555060208201518160000160046101000a8154816bffffffffffffffffffffffff02191690836bffffffffffffffffffffffff1602179055509050506001846145c99190617167565b600d60008773ffffffffffffffffffffffffffffffffffffffff1673ffffffffffffffffffffffffffffffffffffffff16815260200190815260200160002060006101000a81548163ffffffff021916908363ffffffff1602179055505b8473ffffffffffffffffffffffffffffffffffffffff167fdec2bacdd2f05b59de34da9b523dff8be42e5e38e818c82fdb0bae774387a724848460405161466f9291906171d0565b60405180910390a25050505050565b600080838561468d91906171f9565b9050846bffffffffffffffffffffffff16816bffffffffffffffffffffffff16101583906146f1576040517f08c379a00000000000000000000000000000000000000000000000000000000081526004016146e89190614c6d565b60405180910390fd5b50809150509392505050565b600080823b905060008111915050919050565b505050565b600980549050600a600083815260200190815260200160002081905550600981908060018154018082558091505060019003906000526020600020016000909190919091505550565b6000600161476b846117d6565b6147759190616e72565b905060006008600084815260200190815260200160002054905081811461485a576000600760008673ffffffffffffffffffffffffffffffffffffffff1673ffffffffffffffffffffffffffffffffffffffff168152602001908152602001600020600084815260200190815260200160002054905080600760008773ffffffffffffffffffffffffffffffffffffffff1673ffffffffffffffffffffffffffffffffffffffff168152602001908152602001600020600084815260200190815260200160002081905550816008600083815260200190815260200160002081905550505b6008600084815260200190815260200160002060009055600760008573ffffffffffffffffffffffffffffffffffffffff1673ffffffffffffffffffffffffffffffffffffffff16815260200190815260200160002060008381526020019081526020016000206000905550505050565b600060016009805490506148df9190616e72565b90506000600a600084815260200190815260200160002054905060006009838154811061490f5761490e615c3f565b5b90600052602060002001549050806009838154811061493157614930615c3f565b5b906000526020600020018190555081600a600083815260200190815260200160002081905550600a60008581526020019081526020016000206000905560098054806149805761497f617239565b5b6001900381819060005260206000200160009055905550505050565b60006149a7836117d6565b905081600760008573ffffffffffffffffffffffffffffffffffffffff1673ffffffffffffffffffffffffffffffffffffffff168152602001908152602001600020600083815260200190815260200160002081905550806008600084815260200190815260200160002081905550505050565b600064010000000083108290614a67576040517f08c379a0000000000000000000000000000000000000000000000000000000008152600401614a5e9190614c6d565b60405180910390fd5b5082905092915050565b6000604051905090565b600080fd5b600080fd5b600073ffffffffffffffffffffffffffffffffffffffff82169050919050565b6000614ab082614a85565b9050919050565b6000614ac282614aa5565b9050919050565b614ad281614ab7565b8114614add57600080fd5b50565b600081359050614aef81614ac9565b92915050565b600060208284031215614b0b57614b0a614a7b565b5b6000614b1984828501614ae0565b91505092915050565b60007fffffffff0000000000000000000000000000000000000000000000000000000082169050919050565b614b5781614b22565b8114614b6257600080fd5b50565b600081359050614b7481614b4e565b92915050565b600060208284031215614b9057614b8f614a7b565b5b6000614b9e84828501614b65565b91505092915050565b60008115159050919050565b614bbc81614ba7565b82525050565b6000602082019050614bd76000830184614bb3565b92915050565b600081519050919050565b600082825260208201905092915050565b60005b83811015614c17578082015181840152602081019050614bfc565b60008484015250505050565b6000601f19601f8301169050919050565b6000614c3f82614bdd565b614c498185614be8565b9350614c59818560208601614bf9565b614c6281614c23565b840191505092915050565b60006020820190508181036000830152614c878184614c34565b905092915050565b614c9881614aa5565b82525050565b6000602082019050614cb36000830184614c8f565b92915050565b6000819050919050565b614ccc81614cb9565b8114614cd757600080fd5b50565b600081359050614ce981614cc3565b92915050565b600060208284031215614d0557614d04614a7b565b5b6000614d1384828501614cda565b91505092915050565b614d2581614aa5565b8114614d3057600080fd5b50565b600081359050614d4281614d1c565b92915050565b60008060408385031215614d5f57614d5e614a7b565b5b6000614d6d85828601614d33565b9250506020614d7e85828601614cda565b9150509250929050565b614d9181614cb9565b82525050565b6000602082019050614dac6000830184614d88565b92915050565b6000819050919050565b614dc581614db2565b82525050565b6000602082019050614de06000830184614dbc565b92915050565b600080600060608486031215614dff57614dfe614a7b565b5b6000614e0d86828701614d33565b9350506020614e1e86828701614d33565b9250506040614e2f86828701614cda565b9150509250925092565b6000819050919050565b6000614e5e614e59614e5484614a85565b614e39565b614a85565b9050919050565b6000614e7082614e43565b9050919050565b6000614e8282614e65565b9050919050565b614e9281614e77565b82525050565b6000602082019050614ead6000830184614e89565b92915050565b600060ff82169050919050565b614ec981614eb3565b82525050565b6000602082019050614ee46000830184614ec0565b92915050565b600060208284031215614f0057614eff614a7b565b5b6000614f0e84828501614d33565b91505092915050565b6000614f2282614e65565b9050919050565b614f3281614f17565b82525050565b6000602082019050614f4d6000830184614f29565b92915050565b600063ffffffff82169050919050565b614f6c81614f53565b82525050565b6000602082019050614f876000830184614f63565b92915050565b60006bffffffffffffffffffffffff82169050919050565b614fae81614f8d565b82525050565b6000602082019050614fc96000830184614fa5565b92915050565b614fd881614ba7565b8114614fe357600080fd5b50565b600081359050614ff581614fcf565b92915050565b6000806040838503121561501257615011614a7b565b5b600061502085828601614d33565b925050602061503185828601614fe6565b9150509250929050565b600061504682614e65565b9050919050565b6150568161503b565b82525050565b6000602082019050615071600083018461504d565b92915050565b600080fd5b600080fd5b7f4e487b7100000000000000000000000000000000000000000000000000000000600052604160045260246000fd5b6150b982614c23565b810181811067ffffffffffffffff821117156150d8576150d7615081565b5b80604052505050565b60006150eb614a71565b90506150f782826150b0565b919050565b600067ffffffffffffffff82111561511757615116615081565b5b61512082614c23565b9050602081019050919050565b82818337600083830152505050565b600061514f61514a846150fc565b6150e1565b90508281526020810184848401111561516b5761516a61507c565b5b61517684828561512d565b509392505050565b600082601f83011261519357615192615077565b5b81356151a384826020860161513c565b91505092915050565b600080600080608085870312156151c6576151c5614a7b565b5b60006151d487828801614d33565b94505060206151e587828801614d33565b93505060406151f687828801614cda565b925050606085013567ffffffffffffffff81111561521757615216614a80565b5b6152238782880161517e565b91505092959194509250565b600067ffffffffffffffff82111561524a57615249615081565b5b61525382614c23565b9050602081019050919050565b600061527361526e8461522f565b6150e1565b90508281526020810184848401111561528f5761528e61507c565b5b61529a84828561512d565b509392505050565b600082601f8301126152b7576152b6615077565b5b81356152c7848260208601615260565b91505092915050565b6000602082840312156152e6576152e5614a7b565b5b600082013567ffffffffffffffff81111561530457615303614a80565b5b615310848285016152a2565b91505092915050565b61532281614eb3565b811461532d57600080fd5b50565b60008135905061533f81615319565b92915050565b61534e81614db2565b811461535957600080fd5b50565b60008135905061536b81615345565b92915050565b60008060008060008060c0878903121561538e5761538d614a7b565b5b600061539c89828a01614d33565b96505060206153ad89828a01614cda565b95505060406153be89828a01614cda565b94505060606153cf89828a01615330565b93505060806153e089828a0161535c565b92505060a06153f189828a0161535c565b9150509295509295509295565b600061540982614aa5565b9050919050565b615419816153fe565b811461542457600080fd5b50565b60008135905061543681615410565b92915050565b60006020828403121561545257615451614a7b565b5b600061546084828501615427565b91505092915050565b600080604083850312156154805761547f614a7b565b5b600061548e85828601614d33565b925050602061549f85828601614d33565b9150509250929050565b600065ffffffffffff82169050919050565b6154c4816154a9565b82525050565b6000610120820190506154e0600083018c6154bb565b6154ed602083018b6154bb565b6154fa604083018a6154bb565b61550760608301896154bb565b61551460808301886154bb565b61552160a08301876154bb565b61552e60c08301866154bb565b61553b60e08301856154bb565b6155496101008301846154bb565b9a9950505050505050505050565b61556081614f53565b811461556b57600080fd5b50565b60008135905061557d81615557565b92915050565b6000806040838503121561559a57615599614a7b565b5b60006155a885828601614d33565b92505060206155b98582860161556e565b9150509250929050565b60006040820190506155d86000830185614f63565b6155e56020830184614fa5565b9392505050565b7f4f776e61626c653a2063616c6c6572206973206e6f7420746865206f776e6572600082015250565b6000615622602083614be8565b915061562d826155ec565b602082019050919050565b6000602082019050818103600083015261565181615615565b9050919050565b7f44657363726970746f72206973206c6f636b6564000000000000000000000000600082015250565b600061568e601483614be8565b915061569982615658565b602082019050919050565b600060208201905081810360008301526156bd81615681565b9050919050565b7f4e487b7100000000000000000000000000000000000000000000000000000000600052602260045260246000fd5b6000600282049050600182168061570b57607f821691505b60208210810361571e5761571d6156c4565b5b50919050565b7f4552433732313a20617070726f76656420717565727920666f72206e6f6e657860008201527f697374656e7420746f6b656e0000000000000000000000000000000000000000602082015250565b6000615780602c83614be8565b915061578b82615724565b604082019050919050565b600060208201905081810360008301526157af81615773565b9050919050565b7f4552433732313a20617070726f76616c20746f2063757272656e74206f776e6560008201527f7200000000000000000000000000000000000000000000000000000000000000602082015250565b6000615812602183614be8565b915061581d826157b6565b604082019050919050565b6000602082019050818103600083015261584181615805565b9050919050565b7f4552433732313a20617070726f76652063616c6c6572206973206e6f74206f7760008201527f6e6572206e6f7220617070726f76656420666f7220616c6c0000000000000000602082015250565b60006158a4603883614be8565b91506158af82615848565b604082019050919050565b600060208201905081810360008301526158d381615897565b9050919050565b7f53656e646572206973206e6f7420746865206d696e7465720000000000000000600082015250565b6000615910601883614be8565b915061591b826158da565b602082019050919050565b6000602082019050818103600083015261593f81615903565b9050919050565b7f4e487b7100000000000000000000000000000000000000000000000000000000600052601260045260246000fd5b600061598082614cb9565b915061598b83614cb9565b92508261599b5761599a615946565b5b828206905092915050565b7f4e487b7100000000000000000000000000000000000000000000000000000000600052601160045260246000fd5b60006159e082614cb9565b91507fffffffffffffffffffffffffffffffffffffffffffffffffffffffffffffffff8203615a1257615a116159a6565b5b600182019050919050565b7f4552433732313a207472616e736665722063616c6c6572206973206e6f74206f60008201527f776e6572206e6f7220617070726f766564000000000000000000000000000000602082015250565b6000615a79603183614be8565b9150615a8482615a1d565b604082019050919050565b60006020820190508181036000830152615aa881615a6c565b9050919050565b7f455243373231456e756d657261626c653a206f776e657220696e646578206f7560008201527f74206f6620626f756e6473000000000000000000000000000000000000000000602082015250565b6000615b0b602b83614be8565b9150615b1682615aaf565b604082019050919050565b60006020820190508181036000830152615b3a81615afe565b9050919050565b7f53656e646572206973206e6f7420746865206b6f616c61736572732044414f00600082015250565b6000615b77601f83614be8565b9150615b8282615b41565b602082019050919050565b60006020820190508181036000830152615ba681615b6a565b9050919050565b7f455243373231456e756d657261626c653a20676c6f62616c20696e646578206f60008201527f7574206f6620626f756e64730000000000000000000000000000000000000000602082015250565b6000615c09602c83614be8565b9150615c1482615bad565b604082019050919050565b60006020820190508181036000830152615c3881615bfc565b9050919050565b7f4e487b7100000000000000000000000000000000000000000000000000000000600052603260045260246000fd5b7f4e6f756e73546f6b656e3a2055524920717565727920666f72206e6f6e65786960008201527f7374656e7420746f6b656e000000000000000000000000000000000000000000602082015250565b6000615cca602b83614be8565b9150615cd582615c6e565b604082019050919050565b60006020820190508181036000830152615cf981615cbd565b9050919050565b60008160001c9050919050565b600065ffffffffffff82169050919050565b6000615d32615d2d83615d00565b615d0d565b9050919050565b615d42816154a9565b82525050565b60008160301c9050919050565b6000615d68615d6383615d48565b615d0d565b9050919050565b60008160601c9050919050565b6000615d8f615d8a83615d6f565b615d0d565b9050919050565b60008160901c9050919050565b6000615db6615db183615d96565b615d0d565b9050919050565b60008160c01c9050919050565b6000615ddd615dd883615dbd565b615d0d565b9050919050565b61012082016000808301549050615dfa81615d1f565b615e076000860182615d39565b50615e1181615d55565b615e1e6020860182615d39565b50615e2881615d7c565b615e356040860182615d39565b50615e3f81615da3565b615e4c6060860182615d39565b50615e5681615dca565b615e636080860182615d39565b5060018301549050615e7481615d1f565b615e8160a0860182615d39565b50615e8b81615d55565b615e9860c0860182615d39565b50615ea281615d7c565b615eaf60e0860182615d39565b50615eb981615da3565b615ec7610100860182615d39565b5050505050565b600061014082019050615ee46000830185614d88565b615ef16020830184615de4565b9392505050565b6000615f0b615f068461522f565b6150e1565b905082815260208101848484011115615f2757615f2661507c565b5b615f32848285614bf9565b509392505050565b600082601f830112615f4f57615f4e615077565b5b8151615f5f848260208601615ef8565b91505092915050565b600060208284031215615f7e57615f7d614a7b565b5b600082015167ffffffffffffffff811115615f9c57615f9b614a80565b5b615fa884828501615f3a565b91505092915050565b7f536565646572206973206c6f636b656400000000000000000000000000000000600082015250565b6000615fe7601083614be8565b9150615ff282615fb1565b602082019050919050565b6000602082019050818103600083015261601681615fda565b9050919050565b7f4552433732313a206f776e657220717565727920666f72206e6f6e657869737460008201527f656e7420746f6b656e0000000000000000000000000000000000000000000000602082015250565b6000616079602983614be8565b91506160848261601d565b604082019050919050565b600060208201905081810360008301526160a88161606c565b9050919050565b7f4552433732313a2062616c616e636520717565727920666f7220746865207a6560008201527f726f206164647265737300000000000000000000000000000000000000000000602082015250565b600061610b602a83614be8565b9150616116826160af565b604082019050919050565b6000602082019050818103600083015261613a816160fe565b9050919050565b7f4d696e746572206973206c6f636b656400000000000000000000000000000000600082015250565b6000616177601083614be8565b915061618282616141565b602082019050919050565b600060208201905081810360008301526161a68161616a565b9050919050565b7f455243373231436865636b706f696e7461626c653a3a6765745072696f72566f60008201527f7465733a206e6f74207965742064657465726d696e6564000000000000000000602082015250565b6000616209603783614be8565b9150616214826161ad565b604082019050919050565b60006020820190508181036000830152616238816161fc565b9050919050565b600061624a82614f53565b915061625583614f53565b9250828203905063ffffffff811115616271576162706159a6565b5b92915050565b600061628282614f53565b915061628d83614f53565b92508261629d5761629c615946565b5b828204905092915050565b7f4552433732313a20617070726f766520746f2063616c6c657200000000000000600082015250565b60006162de601983614be8565b91506162e9826162a8565b602082019050919050565b6000602082019050818103600083015261630d816162d1565b9050919050565b60008190508160005260206000209050919050565b60006020601f8301049050919050565b600082821b905092915050565b6000600883026163767fffffffffffffffffffffffffffffffffffffffffffffffffffffffffffffffff82616339565b6163808683616339565b95508019841693508086168417925050509392505050565b60006163b36163ae6163a984614cb9565b614e39565b614cb9565b9050919050565b6000819050919050565b6163cd83616398565b6163e16163d9826163ba565b848454616346565b825550505050565b600090565b6163f66163e9565b6164018184846163c4565b505050565b5b818110156164255761641a6000826163ee565b600181019050616407565b5050565b601f82111561646a5761643b81616314565b61644484616329565b81016020851015616453578190505b61646761645f85616329565b830182616406565b50505b505050565b600082821c905092915050565b600061648d6000198460080261646f565b1980831691505092915050565b60006164a6838361647c565b9150826002028217905092915050565b6164bf82614bdd565b67ffffffffffffffff8111156164d8576164d7615081565b5b6164e282546156f3565b6164ed828285616429565b600060209050601f831160018114616520576000841561650e578287015190505b616518858261649a565b865550616580565b601f19841661652e86616314565b60005b8281101561655657848901518255600182019150602085019450602081019050616531565b86831015616573578489015161656f601f89168261647c565b8355505b6001600288020188555050505b505050505050565b600060808201905061659d6000830187614dbc565b6165aa6020830186614dbc565b6165b76040830185614d88565b6165c46060830184614c8f565b95945050505050565b60006080820190506165e26000830187614dbc565b6165ef6020830186614c8f565b6165fc6040830185614d88565b6166096060830184614d88565b95945050505050565b600081905092915050565b7f1901000000000000000000000000000000000000000000000000000000000000600082015250565b6000616653600283616612565b915061665e8261661d565b600282019050919050565b6000819050919050565b61668461667f82614db2565b616669565b82525050565b600061669582616646565b91506166a18285616673565b6020820191506166b18284616673565b6020820191508190509392505050565b60006080820190506166d66000830187614dbc565b6166e36020830186614ec0565b6166f06040830185614dbc565b6166fd6060830184614dbc565b95945050505050565b7f455243373231436865636b706f696e7461626c653a3a64656c6567617465427960008201527f5369673a20696e76616c6964207369676e617475726500000000000000000000602082015250565b6000616762603683614be8565b915061676d82616706565b604082019050919050565b6000602082019050818103600083015261679181616755565b9050919050565b7f455243373231436865636b706f696e7461626c653a3a64656c6567617465427960008201527f5369673a20696e76616c6964206e6f6e63650000000000000000000000000000602082015250565b60006167f4603283614be8565b91506167ff82616798565b604082019050919050565b60006020820190508181036000830152616823816167e7565b9050919050565b7f455243373231436865636b706f696e7461626c653a3a64656c6567617465427960008201527f5369673a207369676e6174757265206578706972656400000000000000000000602082015250565b6000616886603683614be8565b91506168918261682a565b604082019050919050565b600060208201905081810360008301526168b581616879565b9050919050565b7f697066733a2f2f00000000000000000000000000000000000000000000000000600082015250565b60006168f2600783616612565b91506168fd826168bc565b600782019050919050565b60008154616915816156f3565b61691f8186616612565b9450600182166000811461693a576001811461694f57616982565b60ff1983168652811515820286019350616982565b61695885616314565b60005b8381101561697a5781548189015260018201915060208101905061695b565b838801955050505b50505092915050565b6000616996826168e5565b91506169a28284616908565b915081905092915050565b6000815190506169bc81614d1c565b92915050565b6000602082840312156169d8576169d7614a7b565b5b60006169e6848285016169ad565b91505092915050565b7f4f776e61626c653a206e6577206f776e657220697320746865207a65726f206160008201527f6464726573730000000000000000000000000000000000000000000000000000602082015250565b6000616a4b602683614be8565b9150616a56826169ef565b604082019050919050565b60006020820190508181036000830152616a7a81616a3e565b9050919050565b6000604082019050616a966000830185614d88565b616aa36020830184614e89565b9392505050565b600080fd5b616ab8816154a9565b8114616ac357600080fd5b50565b600081519050616ad581616aaf565b92915050565b60006101208284031215616af257616af1616aaa565b5b616afd6101206150e1565b90506000616b0d84828501616ac6565b6000830152506020616b2184828501616ac6565b6020830152506040616b3584828501616ac6565b6040830152506060616b4984828501616ac6565b6060830152506080616b5d84828501616ac6565b60808301525060a0616b7184828501616ac6565b60a08301525060c0616b8584828501616ac6565b60c08301525060e0616b9984828501616ac6565b60e083015250610100616bae84828501616ac6565b6101008301525092915050565b60006101208284031215616bd257616bd1614a7b565b5b6000616be084828501616adb565b91505092915050565b61012082016000820151616c006000850182615d39565b506020820151616c136020850182615d39565b506040820151616c266040850182615d39565b506060820151616c396060850182615d39565b506080820151616c4c6080850182615d39565b5060a0820151616c5f60a0850182615d39565b5060c0820151616c7260c0850182615d39565b5060e0820151616c8560e0850182615d39565b50610100820151616c9a610100850182615d39565b50505050565b600061012082019050616cb66000830184616be9565b92915050565b7f4552433732313a206f70657261746f7220717565727920666f72206e6f6e657860008201527f697374656e7420746f6b656e0000000000000000000000000000000000000000602082015250565b6000616d18602c83614be8565b9150616d2382616cbc565b604082019050919050565b60006020820190508181036000830152616d4781616d0b565b9050919050565b7f4552433732313a207472616e73666572206f6620746f6b656e2074686174206960008201527f73206e6f74206f776e0000000000000000000000000000000000000000000000602082015250565b6000616daa602983614be8565b9150616db582616d4e565b604082019050919050565b60006020820190508181036000830152616dd981616d9d565b9050919050565b7f4552433732313a207472616e7366657220746f20746865207a65726f2061646460008201527f7265737300000000000000000000000000000000000000000000000000000000602082015250565b6000616e3c602483614be8565b9150616e4782616de0565b604082019050919050565b60006020820190508181036000830152616e6b81616e2f565b9050919050565b6000616e7d82614cb9565b9150616e8883614cb9565b9250828203905081811115616ea057616e9f6159a6565b5b92915050565b6000616eb182614cb9565b9150616ebc83614cb9565b9250828201905080821115616ed457616ed36159a6565b5b92915050565b7f4552433732313a207472616e7366657220746f206e6f6e20455243373231526560008201527f63656976657220696d706c656d656e7465720000000000000000000000000000602082015250565b6000616f36603283614be8565b9150616f4182616eda565b604082019050919050565b60006020820190508181036000830152616f6581616f29565b9050919050565b7f4552433732313a206d696e7420746f20746865207a65726f2061646472657373600082015250565b6000616fa2602083614be8565b9150616fad82616f6c565b602082019050919050565b60006020820190508181036000830152616fd181616f95565b9050919050565b7f4552433732313a20746f6b656e20616c7265616479206d696e74656400000000600082015250565b600061700e601c83614be8565b915061701982616fd8565b602082019050919050565b6000602082019050818103600083015261703d81617001565b9050919050565b600081519050919050565b600082825260208201905092915050565b600061706b82617044565b617075818561704f565b9350617085818560208601614bf9565b61708e81614c23565b840191505092915050565b60006080820190506170ae6000830187614c8f565b6170bb6020830186614c8f565b6170c86040830185614d88565b81810360608301526170da8184617060565b905095945050505050565b6000815190506170f481614b4e565b92915050565b6000602082840312156171105761710f614a7b565b5b600061711e848285016170e5565b91505092915050565b600061713282614f8d565b915061713d83614f8d565b925082820390506bffffffffffffffffffffffff811115617161576171606159a6565b5b92915050565b600061717282614f53565b915061717d83614f53565b9250828201905063ffffffff811115617199576171986159a6565b5b92915050565b60006171ba6171b56171b084614f8d565b614e39565b614cb9565b9050919050565b6171ca8161719f565b82525050565b60006040820190506171e560008301856171c1565b6171f260208301846171c1565b9392505050565b600061720482614f8d565b915061720f83614f8d565b925082820190506bffffffffffffffffffffffff811115617233576172326159a6565b5b92915050565b7f4e487b7100000000000000000000000000000000000000000000000000000000600052603160045260246000fdfe455243373231436865636b706f696e7461626c653a3a5f6d6f766544656c6567617465733a20616d6f756e74206f766572666c6f7773455243373231436865636b706f696e7461626c653a3a5f7772697465436865636b706f696e743a20626c6f636b206e756d62657220657863656564732033322062697473455243373231436865636b706f696e7461626c653a3a766f746573546f44656c65676174653a20616d6f756e7420657863656564732039362062697473455243373231436865636b706f696e7461626c653a3a5f6d6f766544656c6567617465733a20616d6f756e7420756e646572666c6f7773a26469706673582212205a8f949c6bedb5500f807e5695f6bbf6f815b8210234d2ec7d442c14442bfc4364736f6c634300081a0033516d524a5244585a4635633751676967757631724b4d41595357435041456a727564686265776431537231794c43","opcodes":"PUSH1 0xA0 PUSH1 0x40 MSTORE PUSH1 0x40 MLOAD DUP1 PUSH1 0x60 ADD PUSH1 0x40 MSTORE DUP1 PUSH1 0x2E DUP2 MSTORE PUSH1 0x20 ADD PUSH2 0x797C PUSH1 0x2E SWAP2 CODECOPY PUSH1 0x17 SWAP1 DUP2 PUSH2 0x2B SWAP2 SWAP1 PUSH2 0x45A JUMP JUMPDEST POP CALLVALUE DUP1 ISZERO PUSH2 0x38 JUMPI PUSH1 0x0 DUP1 REVERT JUMPDEST POP PUSH1 0x40 MLOAD PUSH2 0x79AA CODESIZE SUB DUP1 PUSH2 0x79AA DUP4 CODECOPY DUP2 DUP2 ADD PUSH1 0x40 MSTORE DUP2 ADD SWAP1 PUSH2 0x5A SWAP2 SWAP1 PUSH2 0x5A1 JUMP JUMPDEST PUSH1 0x40 MLOAD DUP1 PUSH1 0x40 ADD PUSH1 0x40 MSTORE DUP1 PUSH1 0x6 DUP2 MSTORE PUSH1 0x20 ADD PUSH32 0x4B6F616C61730000000000000000000000000000000000000000000000000000 DUP2 MSTORE POP PUSH1 0x40 MLOAD DUP1 PUSH1 0x40 ADD PUSH1 0x40 MSTORE DUP1 PUSH1 0x6 DUP2 MSTORE PUSH1 0x20 ADD PUSH32 0x4B4F414C41530000000000000000000000000000000000000000000000000000 DUP2 MSTORE POP PUSH2 0xE2 PUSH2 0xD7 PUSH2 0x13E PUSH1 0x20 SHL PUSH1 0x20 SHR JUMP JUMPDEST PUSH2 0x146 PUSH1 0x20 SHL PUSH1 0x20 SHR JUMP JUMPDEST DUP2 PUSH1 0x1 SWAP1 DUP2 PUSH2 0xF1 SWAP2 SWAP1 PUSH2 0x45A JUMP JUMPDEST POP DUP1 PUSH1 0x2 SWAP1 DUP2 PUSH2 0x101 SWAP2 SWAP1 PUSH2 0x45A JUMP JUMPDEST POP POP POP DUP1 PUSH20 0xFFFFFFFFFFFFFFFFFFFFFFFFFFFFFFFFFFFFFFFF AND PUSH1 0x80 DUP2 PUSH20 0xFFFFFFFFFFFFFFFFFFFFFFFFFFFFFFFFFFFFFFFF AND DUP2 MSTORE POP POP POP PUSH2 0x5CE JUMP JUMPDEST PUSH1 0x0 CALLER SWAP1 POP SWAP1 JUMP JUMPDEST PUSH1 0x0 DUP1 PUSH1 0x0 SWAP1 SLOAD SWAP1 PUSH2 0x100 EXP SWAP1 DIV PUSH20 0xFFFFFFFFFFFFFFFFFFFFFFFFFFFFFFFFFFFFFFFF AND SWAP1 POP DUP2 PUSH1 0x0 DUP1 PUSH2 0x100 EXP DUP2 SLOAD DUP2 PUSH20 0xFFFFFFFFFFFFFFFFFFFFFFFFFFFFFFFFFFFFFFFF MUL NOT AND SWAP1 DUP4 PUSH20 0xFFFFFFFFFFFFFFFFFFFFFFFFFFFFFFFFFFFFFFFF AND MUL OR SWAP1 SSTORE POP DUP2 PUSH20 0xFFFFFFFFFFFFFFFFFFFFFFFFFFFFFFFFFFFFFFFF AND DUP2 PUSH20 0xFFFFFFFFFFFFFFFFFFFFFFFFFFFFFFFFFFFFFFFF AND PUSH32 0x8BE0079C531659141344CD1FD0A4F28419497F9722A3DAAFE3B4186F6B6457E0 PUSH1 0x40 MLOAD PUSH1 0x40 MLOAD DUP1 SWAP2 SUB SWAP1 LOG3 POP POP JUMP JUMPDEST PUSH1 0x0 DUP2 MLOAD SWAP1 POP SWAP2 SWAP1 POP JUMP JUMPDEST PUSH32 0x4E487B7100000000000000000000000000000000000000000000000000000000 PUSH1 0x0 MSTORE PUSH1 0x41 PUSH1 0x4 MSTORE PUSH1 0x24 PUSH1 0x0 REVERT JUMPDEST PUSH32 0x4E487B7100000000000000000000000000000000000000000000000000000000 PUSH1 0x0 MSTORE PUSH1 0x22 PUSH1 0x4 MSTORE PUSH1 0x24 PUSH1 0x0 REVERT JUMPDEST PUSH1 0x0 PUSH1 0x2 DUP3 DIV SWAP1 POP PUSH1 0x1 DUP3 AND DUP1 PUSH2 0x28B JUMPI PUSH1 0x7F DUP3 AND SWAP2 POP JUMPDEST PUSH1 0x20 DUP3 LT DUP2 SUB PUSH2 0x29E JUMPI PUSH2 0x29D PUSH2 0x244 JUMP JUMPDEST JUMPDEST POP SWAP2 SWAP1 POP JUMP JUMPDEST PUSH1 0x0 DUP2 SWAP1 POP DUP2 PUSH1 0x0 MSTORE PUSH1 0x20 PUSH1 0x0 KECCAK256 SWAP1 POP SWAP2 SWAP1 POP JUMP JUMPDEST PUSH1 0x0 PUSH1 0x20 PUSH1 0x1F DUP4 ADD DIV SWAP1 POP SWAP2 SWAP1 POP JUMP JUMPDEST PUSH1 0x0 DUP3 DUP3 SHL SWAP1 POP SWAP3 SWAP2 POP POP JUMP JUMPDEST PUSH1 0x0 PUSH1 0x8 DUP4 MUL PUSH2 0x306 PUSH32 0xFFFFFFFFFFFFFFFFFFFFFFFFFFFFFFFFFFFFFFFFFFFFFFFFFFFFFFFFFFFFFFFF DUP3 PUSH2 0x2C9 JUMP JUMPDEST PUSH2 0x310 DUP7 DUP4 PUSH2 0x2C9 JUMP JUMPDEST SWAP6 POP DUP1 NOT DUP5 AND SWAP4 POP DUP1 DUP7 AND DUP5 OR SWAP3 POP POP POP SWAP4 SWAP3 POP POP POP JUMP JUMPDEST PUSH1 0x0 DUP2 SWAP1 POP SWAP2 SWAP1 POP JUMP JUMPDEST PUSH1 0x0 DUP2 SWAP1 POP SWAP2 SWAP1 POP JUMP JUMPDEST PUSH1 0x0 PUSH2 0x357 PUSH2 0x352 PUSH2 0x34D DUP5 PUSH2 0x328 JUMP JUMPDEST PUSH2 0x332 JUMP JUMPDEST PUSH2 0x328 JUMP JUMPDEST SWAP1 POP SWAP2 SWAP1 POP JUMP JUMPDEST PUSH1 0x0 DUP2 SWAP1 POP SWAP2 SWAP1 POP JUMP JUMPDEST PUSH2 0x371 DUP4 PUSH2 0x33C JUMP JUMPDEST PUSH2 0x385 PUSH2 0x37D DUP3 PUSH2 0x35E JUMP JUMPDEST DUP5 DUP5 SLOAD PUSH2 0x2D6 JUMP JUMPDEST DUP3 SSTORE POP POP POP POP JUMP JUMPDEST PUSH1 0x0 SWAP1 JUMP JUMPDEST PUSH2 0x39A PUSH2 0x38D JUMP JUMPDEST PUSH2 0x3A5 DUP2 DUP5 DUP5 PUSH2 0x368 JUMP JUMPDEST POP POP POP JUMP JUMPDEST JUMPDEST DUP2 DUP2 LT ISZERO PUSH2 0x3C9 JUMPI PUSH2 0x3BE PUSH1 0x0 DUP3 PUSH2 0x392 JUMP JUMPDEST PUSH1 0x1 DUP2 ADD SWAP1 POP PUSH2 0x3AB JUMP JUMPDEST POP POP JUMP JUMPDEST PUSH1 0x1F DUP3 GT ISZERO PUSH2 0x40E JUMPI PUSH2 0x3DF DUP2 PUSH2 0x2A4 JUMP JUMPDEST PUSH2 0x3E8 DUP5 PUSH2 0x2B9 JUMP JUMPDEST DUP2 ADD PUSH1 0x20 DUP6 LT ISZERO PUSH2 0x3F7 JUMPI DUP2 SWAP1 POP JUMPDEST PUSH2 0x40B PUSH2 0x403 DUP6 PUSH2 0x2B9 JUMP JUMPDEST DUP4 ADD DUP3 PUSH2 0x3AA JUMP JUMPDEST POP POP JUMPDEST POP POP POP JUMP JUMPDEST PUSH1 0x0 DUP3 DUP3 SHR SWAP1 POP SWAP3 SWAP2 POP POP JUMP JUMPDEST PUSH1 0x0 PUSH2 0x431 PUSH1 0x0 NOT DUP5 PUSH1 0x8 MUL PUSH2 0x413 JUMP JUMPDEST NOT DUP1 DUP4 AND SWAP2 POP POP SWAP3 SWAP2 POP POP JUMP JUMPDEST PUSH1 0x0 PUSH2 0x44A DUP4 DUP4 PUSH2 0x420 JUMP JUMPDEST SWAP2 POP DUP3 PUSH1 0x2 MUL DUP3 OR SWAP1 POP SWAP3 SWAP2 POP POP JUMP JUMPDEST PUSH2 0x463 DUP3 PUSH2 0x20A JUMP JUMPDEST PUSH8 0xFFFFFFFFFFFFFFFF DUP2 GT ISZERO PUSH2 0x47C JUMPI PUSH2 0x47B PUSH2 0x215 JUMP JUMPDEST JUMPDEST PUSH2 0x486 DUP3 SLOAD PUSH2 0x273 JUMP JUMPDEST PUSH2 0x491 DUP3 DUP3 DUP6 PUSH2 0x3CD JUMP JUMPDEST PUSH1 0x0 PUSH1 0x20 SWAP1 POP PUSH1 0x1F DUP4 GT PUSH1 0x1 DUP2 EQ PUSH2 0x4C4 JUMPI PUSH1 0x0 DUP5 ISZERO PUSH2 0x4B2 JUMPI DUP3 DUP8 ADD MLOAD SWAP1 POP JUMPDEST PUSH2 0x4BC DUP6 DUP3 PUSH2 0x43E JUMP JUMPDEST DUP7 SSTORE POP PUSH2 0x524 JUMP JUMPDEST PUSH1 0x1F NOT DUP5 AND PUSH2 0x4D2 DUP7 PUSH2 0x2A4 JUMP JUMPDEST PUSH1 0x0 JUMPDEST DUP3 DUP2 LT ISZERO PUSH2 0x4FA JUMPI DUP5 DUP10 ADD MLOAD DUP3 SSTORE PUSH1 0x1 DUP3 ADD SWAP2 POP PUSH1 0x20 DUP6 ADD SWAP5 POP PUSH1 0x20 DUP2 ADD SWAP1 POP PUSH2 0x4D5 JUMP JUMPDEST DUP7 DUP4 LT ISZERO PUSH2 0x517 JUMPI DUP5 DUP10 ADD MLOAD PUSH2 0x513 PUSH1 0x1F DUP10 AND DUP3 PUSH2 0x420 JUMP JUMPDEST DUP4 SSTORE POP JUMPDEST PUSH1 0x1 PUSH1 0x2 DUP9 MUL ADD DUP9 SSTORE POP POP POP JUMPDEST POP POP POP POP POP POP JUMP JUMPDEST PUSH1 0x0 DUP1 REVERT JUMPDEST PUSH1 0x0 PUSH20 0xFFFFFFFFFFFFFFFFFFFFFFFFFFFFFFFFFFFFFFFF DUP3 AND SWAP1 POP SWAP2 SWAP1 POP JUMP JUMPDEST PUSH1 0x0 PUSH2 0x55C DUP3 PUSH2 0x531 JUMP JUMPDEST SWAP1 POP SWAP2 SWAP1 POP JUMP JUMPDEST PUSH1 0x0 PUSH2 0x56E DUP3 PUSH2 0x551 JUMP JUMPDEST SWAP1 POP SWAP2 SWAP1 POP JUMP JUMPDEST PUSH2 0x57E DUP2 PUSH2 0x563 JUMP JUMPDEST DUP2 EQ PUSH2 0x589 JUMPI PUSH1 0x0 DUP1 REVERT JUMPDEST POP JUMP JUMPDEST PUSH1 0x0 DUP2 MLOAD SWAP1 POP PUSH2 0x59B DUP2 PUSH2 0x575 JUMP JUMPDEST SWAP3 SWAP2 POP POP JUMP JUMPDEST PUSH1 0x0 PUSH1 0x20 DUP3 DUP5 SUB SLT ISZERO PUSH2 0x5B7 JUMPI PUSH2 0x5B6 PUSH2 0x52C JUMP JUMPDEST JUMPDEST PUSH1 0x0 PUSH2 0x5C5 DUP5 DUP3 DUP6 ADD PUSH2 0x58C JUMP JUMPDEST SWAP2 POP POP SWAP3 SWAP2 POP POP JUMP JUMPDEST PUSH1 0x80 MLOAD PUSH2 0x738C PUSH2 0x5F0 PUSH1 0x0 CODECOPY PUSH1 0x0 DUP2 DUP2 PUSH2 0x21AC ADD MSTORE PUSH2 0x284D ADD MSTORE PUSH2 0x738C PUSH1 0x0 RETURN INVALID PUSH1 0x80 PUSH1 0x40 MSTORE CALLVALUE DUP1 ISZERO PUSH2 0x10 JUMPI PUSH1 0x0 DUP1 REVERT JUMPDEST POP PUSH1 0x4 CALLDATASIZE LT PUSH2 0x30C JUMPI PUSH1 0x0 CALLDATALOAD PUSH1 0xE0 SHR DUP1 PUSH4 0x6FCFFF45 GT PUSH2 0x19D JUMPI DUP1 PUSH4 0xC1B8E4E1 GT PUSH2 0xE9 JUMPI DUP1 PUSH4 0xE9580E91 GT PUSH2 0xA2 JUMPI DUP1 PUSH4 0xF1127ED8 GT PUSH2 0x7C JUMPI DUP1 PUSH4 0xF1127ED8 EQ PUSH2 0x971 JUMPI DUP1 PUSH4 0xF2555725 EQ PUSH2 0x9A2 JUMPI DUP1 PUSH4 0xF2FDE38B EQ PUSH2 0x9C0 JUMPI DUP1 PUSH4 0xFCA3B5AA EQ PUSH2 0x9DC JUMPI PUSH2 0x30C JUMP JUMPDEST DUP1 PUSH4 0xE9580E91 EQ PUSH2 0x8D9 JUMPI DUP1 PUSH4 0xE985E9C5 EQ PUSH2 0x909 JUMPI DUP1 PUSH4 0xF0503E80 EQ PUSH2 0x939 JUMPI PUSH2 0x30C JUMP JUMPDEST DUP1 PUSH4 0xC1B8E4E1 EQ PUSH2 0x817 JUMPI DUP1 PUSH4 0xC3CDA520 EQ PUSH2 0x835 JUMPI DUP1 PUSH4 0xC87B56DD EQ PUSH2 0x851 JUMPI DUP1 PUSH4 0xD50B31EB EQ PUSH2 0x881 JUMPI DUP1 PUSH4 0xE7A324DC EQ PUSH2 0x89D JUMPI DUP1 PUSH4 0xE8A3D485 EQ PUSH2 0x8BB JUMPI PUSH2 0x30C JUMP JUMPDEST DUP1 PUSH4 0x8DA5CB5B GT PUSH2 0x156 JUMPI DUP1 PUSH4 0xB4B5EA57 GT PUSH2 0x130 JUMPI DUP1 PUSH4 0xB4B5EA57 EQ PUSH2 0x791 JUMPI DUP1 PUSH4 0xB50CBD9F EQ PUSH2 0x7C1 JUMPI DUP1 PUSH4 0xB88D4FDE EQ PUSH2 0x7DF JUMPI DUP1 PUSH4 0xBAEDC1C4 EQ PUSH2 0x7FB JUMPI PUSH2 0x30C JUMP JUMPDEST DUP1 PUSH4 0x8DA5CB5B EQ PUSH2 0x739 JUMPI DUP1 PUSH4 0x95D89B41 EQ PUSH2 0x757 JUMPI DUP1 PUSH4 0xA22CB465 EQ PUSH2 0x775 JUMPI PUSH2 0x30C JUMP JUMPDEST DUP1 PUSH4 0x6FCFFF45 EQ PUSH2 0x665 JUMPI DUP1 PUSH4 0x70A08231 EQ PUSH2 0x695 JUMPI DUP1 PUSH4 0x715018A6 EQ PUSH2 0x6C5 JUMPI DUP1 PUSH4 0x76DAEBE1 EQ PUSH2 0x6CF JUMPI DUP1 PUSH4 0x782D6FE1 EQ PUSH2 0x6D9 JUMPI DUP1 PUSH4 0x7ECEBE00 EQ PUSH2 0x709 JUMPI PUSH2 0x30C JUMP JUMPDEST DUP1 PUSH4 0x303E74DF GT PUSH2 0x25C JUMPI DUP1 PUSH4 0x4F6CCCE7 GT PUSH2 0x215 JUMPI DUP1 PUSH4 0x5C19A95C GT PUSH2 0x1EF JUMPI DUP1 PUSH4 0x5C19A95C EQ PUSH2 0x5F1 JUMPI DUP1 PUSH4 0x5F295A67 EQ PUSH2 0x60D JUMPI DUP1 PUSH4 0x6352211E EQ PUSH2 0x617 JUMPI DUP1 PUSH4 0x684931ED EQ PUSH2 0x647 JUMPI PUSH2 0x30C JUMP JUMPDEST DUP1 PUSH4 0x4F6CCCE7 EQ PUSH2 0x561 JUMPI DUP1 PUSH4 0x587CDE1E EQ PUSH2 0x591 JUMPI DUP1 PUSH4 0x5AC1E3BB EQ PUSH2 0x5C1 JUMPI PUSH2 0x30C JUMP JUMPDEST DUP1 PUSH4 0x303E74DF EQ PUSH2 0x4C7 JUMPI DUP1 PUSH4 0x313CE567 EQ PUSH2 0x4E5 JUMPI DUP1 PUSH4 0x41B5D0DE EQ PUSH2 0x503 JUMPI DUP1 PUSH4 0x42842E0E EQ PUSH2 0x50D JUMPI DUP1 PUSH4 0x42966C68 EQ PUSH2 0x529 JUMPI DUP1 PUSH4 0x4B664998 EQ PUSH2 0x545 JUMPI PUSH2 0x30C JUMP JUMPDEST DUP1 PUSH4 0x1249C58B GT PUSH2 0x2C9 JUMPI DUP1 PUSH4 0x20606B70 GT PUSH2 0x2A3 JUMPI DUP1 PUSH4 0x20606B70 EQ PUSH2 0x43F JUMPI DUP1 PUSH4 0x23B872DD EQ PUSH2 0x45D JUMPI DUP1 PUSH4 0x2DC2B880 EQ PUSH2 0x479 JUMPI DUP1 PUSH4 0x2F745C59 EQ PUSH2 0x497 JUMPI PUSH2 0x30C JUMP JUMPDEST DUP1 PUSH4 0x1249C58B EQ PUSH2 0x3E5 JUMPI DUP1 PUSH4 0x18160DDD EQ PUSH2 0x403 JUMPI DUP1 PUSH4 0x1E688E10 EQ PUSH2 0x421 JUMPI PUSH2 0x30C JUMP JUMPDEST DUP1 PUSH4 0x1B9A397 EQ PUSH2 0x311 JUMPI DUP1 PUSH4 0x1FFC9A7 EQ PUSH2 0x32D JUMPI DUP1 PUSH4 0x6FDDE03 EQ PUSH2 0x35D JUMPI DUP1 PUSH4 0x7546172 EQ PUSH2 0x37B JUMPI DUP1 PUSH4 0x81812FC EQ PUSH2 0x399 JUMPI DUP1 PUSH4 0x95EA7B3 EQ PUSH2 0x3C9 JUMPI JUMPDEST PUSH1 0x0 DUP1 REVERT JUMPDEST PUSH2 0x32B PUSH1 0x4 DUP1 CALLDATASIZE SUB DUP2 ADD SWAP1 PUSH2 0x326 SWAP2 SWAP1 PUSH2 0x4AF5 JUMP JUMPDEST PUSH2 0x9F8 JUMP JUMPDEST STOP JUMPDEST PUSH2 0x347 PUSH1 0x4 DUP1 CALLDATASIZE SUB DUP2 ADD SWAP1 PUSH2 0x342 SWAP2 SWAP1 PUSH2 0x4B7A JUMP JUMPDEST PUSH2 0xB3F JUMP JUMPDEST PUSH1 0x40 MLOAD PUSH2 0x354 SWAP2 SWAP1 PUSH2 0x4BC2 JUMP JUMPDEST PUSH1 0x40 MLOAD DUP1 SWAP2 SUB SWAP1 RETURN JUMPDEST PUSH2 0x365 PUSH2 0xBB9 JUMP JUMPDEST PUSH1 0x40 MLOAD PUSH2 0x372 SWAP2 SWAP1 PUSH2 0x4C6D JUMP JUMPDEST PUSH1 0x40 MLOAD DUP1 SWAP2 SUB SWAP1 RETURN JUMPDEST PUSH2 0x383 PUSH2 0xC4B JUMP JUMPDEST PUSH1 0x40 MLOAD PUSH2 0x390 SWAP2 SWAP1 PUSH2 0x4C9E JUMP JUMPDEST PUSH1 0x40 MLOAD DUP1 SWAP2 SUB SWAP1 RETURN JUMPDEST PUSH2 0x3B3 PUSH1 0x4 DUP1 CALLDATASIZE SUB DUP2 ADD SWAP1 PUSH2 0x3AE SWAP2 SWAP1 PUSH2 0x4CEF JUMP JUMPDEST PUSH2 0xC71 JUMP JUMPDEST PUSH1 0x40 MLOAD PUSH2 0x3C0 SWAP2 SWAP1 PUSH2 0x4C9E JUMP JUMPDEST PUSH1 0x40 MLOAD DUP1 SWAP2 SUB SWAP1 RETURN JUMPDEST PUSH2 0x3E3 PUSH1 0x4 DUP1 CALLDATASIZE SUB DUP2 ADD SWAP1 PUSH2 0x3DE SWAP2 SWAP1 PUSH2 0x4D48 JUMP JUMPDEST PUSH2 0xCF6 JUMP JUMPDEST STOP JUMPDEST PUSH2 0x3ED PUSH2 0xE0D JUMP JUMPDEST PUSH1 0x40 MLOAD PUSH2 0x3FA SWAP2 SWAP1 PUSH2 0x4D97 JUMP JUMPDEST PUSH1 0x40 MLOAD DUP1 SWAP2 SUB SWAP1 RETURN JUMPDEST PUSH2 0x40B PUSH2 0xF51 JUMP JUMPDEST PUSH1 0x40 MLOAD PUSH2 0x418 SWAP2 SWAP1 PUSH2 0x4D97 JUMP JUMPDEST PUSH1 0x40 MLOAD DUP1 SWAP2 SUB SWAP1 RETURN JUMPDEST PUSH2 0x429 PUSH2 0xF5E JUMP JUMPDEST PUSH1 0x40 MLOAD PUSH2 0x436 SWAP2 SWAP1 PUSH2 0x4BC2 JUMP JUMPDEST PUSH1 0x40 MLOAD DUP1 SWAP2 SUB SWAP1 RETURN JUMPDEST PUSH2 0x447 PUSH2 0xF6F JUMP JUMPDEST PUSH1 0x40 MLOAD PUSH2 0x454 SWAP2 SWAP1 PUSH2 0x4DCB JUMP JUMPDEST PUSH1 0x40 MLOAD DUP1 SWAP2 SUB SWAP1 RETURN JUMPDEST PUSH2 0x477 PUSH1 0x4 DUP1 CALLDATASIZE SUB DUP2 ADD SWAP1 PUSH2 0x472 SWAP2 SWAP1 PUSH2 0x4DE6 JUMP JUMPDEST PUSH2 0xF93 JUMP JUMPDEST STOP JUMPDEST PUSH2 0x481 PUSH2 0xFF3 JUMP JUMPDEST PUSH1 0x40 MLOAD PUSH2 0x48E SWAP2 SWAP1 PUSH2 0x4C9E JUMP JUMPDEST PUSH1 0x40 MLOAD DUP1 SWAP2 SUB SWAP1 RETURN JUMPDEST PUSH2 0x4B1 PUSH1 0x4 DUP1 CALLDATASIZE SUB DUP2 ADD SWAP1 PUSH2 0x4AC SWAP2 SWAP1 PUSH2 0x4D48 JUMP JUMPDEST PUSH2 0x1019 JUMP JUMPDEST PUSH1 0x40 MLOAD PUSH2 0x4BE SWAP2 SWAP1 PUSH2 0x4D97 JUMP JUMPDEST PUSH1 0x40 MLOAD DUP1 SWAP2 SUB SWAP1 RETURN JUMPDEST PUSH2 0x4CF PUSH2 0x10BE JUMP JUMPDEST PUSH1 0x40 MLOAD PUSH2 0x4DC SWAP2 SWAP1 PUSH2 0x4E98 JUMP JUMPDEST PUSH1 0x40 MLOAD DUP1 SWAP2 SUB SWAP1 RETURN JUMPDEST PUSH2 0x4ED PUSH2 0x10E4 JUMP JUMPDEST PUSH1 0x40 MLOAD PUSH2 0x4FA SWAP2 SWAP1 PUSH2 0x4ECF JUMP JUMPDEST PUSH1 0x40 MLOAD DUP1 SWAP2 SUB SWAP1 RETURN JUMPDEST PUSH2 0x50B PUSH2 0x10E9 JUMP JUMPDEST STOP JUMPDEST PUSH2 0x527 PUSH1 0x4 DUP1 CALLDATASIZE SUB DUP2 ADD SWAP1 PUSH2 0x522 SWAP2 SWAP1 PUSH2 0x4DE6 JUMP JUMPDEST PUSH2 0x11FE JUMP JUMPDEST STOP JUMPDEST PUSH2 0x543 PUSH1 0x4 DUP1 CALLDATASIZE SUB DUP2 ADD SWAP1 PUSH2 0x53E SWAP2 SWAP1 PUSH2 0x4CEF JUMP JUMPDEST PUSH2 0x121E JUMP JUMPDEST STOP JUMPDEST PUSH2 0x55F PUSH1 0x4 DUP1 CALLDATASIZE SUB DUP2 ADD SWAP1 PUSH2 0x55A SWAP2 SWAP1 PUSH2 0x4EEA JUMP JUMPDEST PUSH2 0x1257 JUMP JUMPDEST STOP JUMPDEST PUSH2 0x57B PUSH1 0x4 DUP1 CALLDATASIZE SUB DUP2 ADD SWAP1 PUSH2 0x576 SWAP2 SWAP1 PUSH2 0x4CEF JUMP JUMPDEST PUSH2 0x1362 JUMP JUMPDEST PUSH1 0x40 MLOAD PUSH2 0x588 SWAP2 SWAP1 PUSH2 0x4D97 JUMP JUMPDEST PUSH1 0x40 MLOAD DUP1 SWAP2 SUB SWAP1 RETURN JUMPDEST PUSH2 0x5AB PUSH1 0x4 DUP1 CALLDATASIZE SUB DUP2 ADD SWAP1 PUSH2 0x5A6 SWAP2 SWAP1 PUSH2 0x4EEA JUMP JUMPDEST PUSH2 0x13D3 JUMP JUMPDEST PUSH1 0x40 MLOAD PUSH2 0x5B8 SWAP2 SWAP1 PUSH2 0x4C9E JUMP JUMPDEST PUSH1 0x40 MLOAD DUP1 SWAP2 SUB SWAP1 RETURN JUMPDEST PUSH2 0x5DB PUSH1 0x4 DUP1 CALLDATASIZE SUB DUP2 ADD SWAP1 PUSH2 0x5D6 SWAP2 SWAP1 PUSH2 0x4CEF JUMP JUMPDEST PUSH2 0x147C JUMP JUMPDEST PUSH1 0x40 MLOAD PUSH2 0x5E8 SWAP2 SWAP1 PUSH2 0x4C6D JUMP JUMPDEST PUSH1 0x40 MLOAD DUP1 SWAP2 SUB SWAP1 RETURN JUMPDEST PUSH2 0x60B PUSH1 0x4 DUP1 CALLDATASIZE SUB DUP2 ADD SWAP1 PUSH2 0x606 SWAP2 SWAP1 PUSH2 0x4EEA JUMP JUMPDEST PUSH2 0x1582 JUMP JUMPDEST STOP JUMPDEST PUSH2 0x615 PUSH2 0x15C7 JUMP JUMPDEST STOP JUMPDEST PUSH2 0x631 PUSH1 0x4 DUP1 CALLDATASIZE SUB DUP2 ADD SWAP1 PUSH2 0x62C SWAP2 SWAP1 PUSH2 0x4CEF JUMP JUMPDEST PUSH2 0x16DC JUMP JUMPDEST PUSH1 0x40 MLOAD PUSH2 0x63E SWAP2 SWAP1 PUSH2 0x4C9E JUMP JUMPDEST PUSH1 0x40 MLOAD DUP1 SWAP2 SUB SWAP1 RETURN JUMPDEST PUSH2 0x64F PUSH2 0x178D JUMP JUMPDEST PUSH1 0x40 MLOAD PUSH2 0x65C SWAP2 SWAP1 PUSH2 0x4F38 JUMP JUMPDEST PUSH1 0x40 MLOAD DUP1 SWAP2 SUB SWAP1 RETURN JUMPDEST PUSH2 0x67F PUSH1 0x4 DUP1 CALLDATASIZE SUB DUP2 ADD SWAP1 PUSH2 0x67A SWAP2 SWAP1 PUSH2 0x4EEA JUMP JUMPDEST PUSH2 0x17B3 JUMP JUMPDEST PUSH1 0x40 MLOAD PUSH2 0x68C SWAP2 SWAP1 PUSH2 0x4F72 JUMP JUMPDEST PUSH1 0x40 MLOAD DUP1 SWAP2 SUB SWAP1 RETURN JUMPDEST PUSH2 0x6AF PUSH1 0x4 DUP1 CALLDATASIZE SUB DUP2 ADD SWAP1 PUSH2 0x6AA SWAP2 SWAP1 PUSH2 0x4EEA JUMP JUMPDEST PUSH2 0x17D6 JUMP JUMPDEST PUSH1 0x40 MLOAD PUSH2 0x6BC SWAP2 SWAP1 PUSH2 0x4D97 JUMP JUMPDEST PUSH1 0x40 MLOAD DUP1 SWAP2 SUB SWAP1 RETURN JUMPDEST PUSH2 0x6CD PUSH2 0x188D JUMP JUMPDEST STOP JUMPDEST PUSH2 0x6D7 PUSH2 0x1915 JUMP JUMPDEST STOP JUMPDEST PUSH2 0x6F3 PUSH1 0x4 DUP1 CALLDATASIZE SUB DUP2 ADD SWAP1 PUSH2 0x6EE SWAP2 SWAP1 PUSH2 0x4D48 JUMP JUMPDEST PUSH2 0x1A27 JUMP JUMPDEST PUSH1 0x40 MLOAD PUSH2 0x700 SWAP2 SWAP1 PUSH2 0x4FB4 JUMP JUMPDEST PUSH1 0x40 MLOAD DUP1 SWAP2 SUB SWAP1 RETURN JUMPDEST PUSH2 0x723 PUSH1 0x4 DUP1 CALLDATASIZE SUB DUP2 ADD SWAP1 PUSH2 0x71E SWAP2 SWAP1 PUSH2 0x4EEA JUMP JUMPDEST PUSH2 0x1E60 JUMP JUMPDEST PUSH1 0x40 MLOAD PUSH2 0x730 SWAP2 SWAP1 PUSH2 0x4D97 JUMP JUMPDEST PUSH1 0x40 MLOAD DUP1 SWAP2 SUB SWAP1 RETURN JUMPDEST PUSH2 0x741 PUSH2 0x1E78 JUMP JUMPDEST PUSH1 0x40 MLOAD PUSH2 0x74E SWAP2 SWAP1 PUSH2 0x4C9E JUMP JUMPDEST PUSH1 0x40 MLOAD DUP1 SWAP2 SUB SWAP1 RETURN JUMPDEST PUSH2 0x75F PUSH2 0x1EA1 JUMP JUMPDEST PUSH1 0x40 MLOAD PUSH2 0x76C SWAP2 SWAP1 PUSH2 0x4C6D JUMP JUMPDEST PUSH1 0x40 MLOAD DUP1 SWAP2 SUB SWAP1 RETURN JUMPDEST PUSH2 0x78F PUSH1 0x4 DUP1 CALLDATASIZE SUB DUP2 ADD SWAP1 PUSH2 0x78A SWAP2 SWAP1 PUSH2 0x4FFB JUMP JUMPDEST PUSH2 0x1F33 JUMP JUMPDEST STOP JUMPDEST PUSH2 0x7AB PUSH1 0x4 DUP1 CALLDATASIZE SUB DUP2 ADD SWAP1 PUSH2 0x7A6 SWAP2 SWAP1 PUSH2 0x4EEA JUMP JUMPDEST PUSH2 0x20B3 JUMP JUMPDEST PUSH1 0x40 MLOAD PUSH2 0x7B8 SWAP2 SWAP1 PUSH2 0x4FB4 JUMP JUMPDEST PUSH1 0x40 MLOAD DUP1 SWAP2 SUB SWAP1 RETURN JUMPDEST PUSH2 0x7C9 PUSH2 0x21AA JUMP JUMPDEST PUSH1 0x40 MLOAD PUSH2 0x7D6 SWAP2 SWAP1 PUSH2 0x505C JUMP JUMPDEST PUSH1 0x40 MLOAD DUP1 SWAP2 SUB SWAP1 RETURN JUMPDEST PUSH2 0x7F9 PUSH1 0x4 DUP1 CALLDATASIZE SUB DUP2 ADD SWAP1 PUSH2 0x7F4 SWAP2 SWAP1 PUSH2 0x51AC JUMP JUMPDEST PUSH2 0x21CE JUMP JUMPDEST STOP JUMPDEST PUSH2 0x815 PUSH1 0x4 DUP1 CALLDATASIZE SUB DUP2 ADD SWAP1 PUSH2 0x810 SWAP2 SWAP1 PUSH2 0x52D0 JUMP JUMPDEST PUSH2 0x2230 JUMP JUMPDEST STOP JUMPDEST PUSH2 0x81F PUSH2 0x22BF JUMP JUMPDEST PUSH1 0x40 MLOAD PUSH2 0x82C SWAP2 SWAP1 PUSH2 0x4BC2 JUMP JUMPDEST PUSH1 0x40 MLOAD DUP1 SWAP2 SUB SWAP1 RETURN JUMPDEST PUSH2 0x84F PUSH1 0x4 DUP1 CALLDATASIZE SUB DUP2 ADD SWAP1 PUSH2 0x84A SWAP2 SWAP1 PUSH2 0x5371 JUMP JUMPDEST PUSH2 0x22D2 JUMP JUMPDEST STOP JUMPDEST PUSH2 0x86B PUSH1 0x4 DUP1 CALLDATASIZE SUB DUP2 ADD SWAP1 PUSH2 0x866 SWAP2 SWAP1 PUSH2 0x4CEF JUMP JUMPDEST PUSH2 0x2566 JUMP JUMPDEST PUSH1 0x40 MLOAD PUSH2 0x878 SWAP2 SWAP1 PUSH2 0x4C6D JUMP JUMPDEST PUSH1 0x40 MLOAD DUP1 SWAP2 SUB SWAP1 RETURN JUMPDEST PUSH2 0x89B PUSH1 0x4 DUP1 CALLDATASIZE SUB DUP2 ADD SWAP1 PUSH2 0x896 SWAP2 SWAP1 PUSH2 0x543C JUMP JUMPDEST PUSH2 0x266C JUMP JUMPDEST STOP JUMPDEST PUSH2 0x8A5 PUSH2 0x27B3 JUMP JUMPDEST PUSH1 0x40 MLOAD PUSH2 0x8B2 SWAP2 SWAP1 PUSH2 0x4DCB JUMP JUMPDEST PUSH1 0x40 MLOAD DUP1 SWAP2 SUB SWAP1 RETURN JUMPDEST PUSH2 0x8C3 PUSH2 0x27D7 JUMP JUMPDEST PUSH1 0x40 MLOAD PUSH2 0x8D0 SWAP2 SWAP1 PUSH2 0x4C6D JUMP JUMPDEST PUSH1 0x40 MLOAD DUP1 SWAP2 SUB SWAP1 RETURN JUMPDEST PUSH2 0x8F3 PUSH1 0x4 DUP1 CALLDATASIZE SUB DUP2 ADD SWAP1 PUSH2 0x8EE SWAP2 SWAP1 PUSH2 0x4EEA JUMP JUMPDEST PUSH2 0x27FF JUMP JUMPDEST PUSH1 0x40 MLOAD PUSH2 0x900 SWAP2 SWAP1 PUSH2 0x4FB4 JUMP JUMPDEST PUSH1 0x40 MLOAD DUP1 SWAP2 SUB SWAP1 RETURN JUMPDEST PUSH2 0x923 PUSH1 0x4 DUP1 CALLDATASIZE SUB DUP2 ADD SWAP1 PUSH2 0x91E SWAP2 SWAP1 PUSH2 0x5469 JUMP JUMPDEST PUSH2 0x2832 JUMP JUMPDEST PUSH1 0x40 MLOAD PUSH2 0x930 SWAP2 SWAP1 PUSH2 0x4BC2 JUMP JUMPDEST PUSH1 0x40 MLOAD DUP1 SWAP2 SUB SWAP1 RETURN JUMPDEST PUSH2 0x953 PUSH1 0x4 DUP1 CALLDATASIZE SUB DUP2 ADD SWAP1 PUSH2 0x94E SWAP2 SWAP1 PUSH2 0x4CEF JUMP JUMPDEST PUSH2 0x291C JUMP JUMPDEST PUSH1 0x40 MLOAD PUSH2 0x968 SWAP10 SWAP9 SWAP8 SWAP7 SWAP6 SWAP5 SWAP4 SWAP3 SWAP2 SWAP1 PUSH2 0x54CA JUMP JUMPDEST PUSH1 0x40 MLOAD DUP1 SWAP2 SUB SWAP1 RETURN JUMPDEST PUSH2 0x98B PUSH1 0x4 DUP1 CALLDATASIZE SUB DUP2 ADD SWAP1 PUSH2 0x986 SWAP2 SWAP1 PUSH2 0x5583 JUMP JUMPDEST PUSH2 0x2A0C JUMP JUMPDEST PUSH1 0x40 MLOAD PUSH2 0x999 SWAP3 SWAP2 SWAP1 PUSH2 0x55C3 JUMP JUMPDEST PUSH1 0x40 MLOAD DUP1 SWAP2 SUB SWAP1 RETURN JUMPDEST PUSH2 0x9AA PUSH2 0x2A65 JUMP JUMPDEST PUSH1 0x40 MLOAD PUSH2 0x9B7 SWAP2 SWAP1 PUSH2 0x4BC2 JUMP JUMPDEST PUSH1 0x40 MLOAD DUP1 SWAP2 SUB SWAP1 RETURN JUMPDEST PUSH2 0x9DA PUSH1 0x4 DUP1 CALLDATASIZE SUB DUP2 ADD SWAP1 PUSH2 0x9D5 SWAP2 SWAP1 PUSH2 0x4EEA JUMP JUMPDEST PUSH2 0x2A78 JUMP JUMPDEST STOP JUMPDEST PUSH2 0x9F6 PUSH1 0x4 DUP1 CALLDATASIZE SUB DUP2 ADD SWAP1 PUSH2 0x9F1 SWAP2 SWAP1 PUSH2 0x4EEA JUMP JUMPDEST PUSH2 0x2B6F JUMP JUMPDEST STOP JUMPDEST PUSH2 0xA00 PUSH2 0x2CB4 JUMP JUMPDEST PUSH20 0xFFFFFFFFFFFFFFFFFFFFFFFFFFFFFFFFFFFFFFFF AND PUSH2 0xA1E PUSH2 0x1E78 JUMP JUMPDEST PUSH20 0xFFFFFFFFFFFFFFFFFFFFFFFFFFFFFFFFFFFFFFFF AND EQ PUSH2 0xA74 JUMPI PUSH1 0x40 MLOAD PUSH32 0x8C379A000000000000000000000000000000000000000000000000000000000 DUP2 MSTORE PUSH1 0x4 ADD PUSH2 0xA6B SWAP1 PUSH2 0x5638 JUMP JUMPDEST PUSH1 0x40 MLOAD DUP1 SWAP2 SUB SWAP1 REVERT JUMPDEST PUSH1 0x14 PUSH1 0x15 SWAP1 SLOAD SWAP1 PUSH2 0x100 EXP SWAP1 DIV PUSH1 0xFF AND ISZERO PUSH2 0xAC4 JUMPI PUSH1 0x40 MLOAD PUSH32 0x8C379A000000000000000000000000000000000000000000000000000000000 DUP2 MSTORE PUSH1 0x4 ADD PUSH2 0xABB SWAP1 PUSH2 0x56A4 JUMP JUMPDEST PUSH1 0x40 MLOAD DUP1 SWAP2 SUB SWAP1 REVERT JUMPDEST DUP1 PUSH1 0x13 PUSH1 0x0 PUSH2 0x100 EXP DUP2 SLOAD DUP2 PUSH20 0xFFFFFFFFFFFFFFFFFFFFFFFFFFFFFFFFFFFFFFFF MUL NOT AND SWAP1 DUP4 PUSH20 0xFFFFFFFFFFFFFFFFFFFFFFFFFFFFFFFFFFFFFFFF AND MUL OR SWAP1 SSTORE POP PUSH32 0x6E66AB22238A5471005895947C8F57DB923C2A9C9C73180EFF80864C21295C1B DUP2 PUSH1 0x40 MLOAD PUSH2 0xB34 SWAP2 SWAP1 PUSH2 0x4E98 JUMP JUMPDEST PUSH1 0x40 MLOAD DUP1 SWAP2 SUB SWAP1 LOG1 POP JUMP JUMPDEST PUSH1 0x0 PUSH32 0x780E9D6300000000000000000000000000000000000000000000000000000000 PUSH28 0xFFFFFFFFFFFFFFFFFFFFFFFFFFFFFFFFFFFFFFFFFFFFFFFFFFFFFFFF NOT AND DUP3 PUSH28 0xFFFFFFFFFFFFFFFFFFFFFFFFFFFFFFFFFFFFFFFFFFFFFFFFFFFFFFFF NOT AND EQ DUP1 PUSH2 0xBB2 JUMPI POP PUSH2 0xBB1 DUP3 PUSH2 0x2CBC JUMP JUMPDEST JUMPDEST SWAP1 POP SWAP2 SWAP1 POP JUMP JUMPDEST PUSH1 0x60 PUSH1 0x1 DUP1 SLOAD PUSH2 0xBC8 SWAP1 PUSH2 0x56F3 JUMP JUMPDEST DUP1 PUSH1 0x1F ADD PUSH1 0x20 DUP1 SWAP2 DIV MUL PUSH1 0x20 ADD PUSH1 0x40 MLOAD SWAP1 DUP2 ADD PUSH1 0x40 MSTORE DUP1 SWAP3 SWAP2 SWAP1 DUP2 DUP2 MSTORE PUSH1 0x20 ADD DUP3 DUP1 SLOAD PUSH2 0xBF4 SWAP1 PUSH2 0x56F3 JUMP JUMPDEST DUP1 ISZERO PUSH2 0xC41 JUMPI DUP1 PUSH1 0x1F LT PUSH2 0xC16 JUMPI PUSH2 0x100 DUP1 DUP4 SLOAD DIV MUL DUP4 MSTORE SWAP2 PUSH1 0x20 ADD SWAP2 PUSH2 0xC41 JUMP JUMPDEST DUP3 ADD SWAP2 SWAP1 PUSH1 0x0 MSTORE PUSH1 0x20 PUSH1 0x0 KECCAK256 SWAP1 JUMPDEST DUP2 SLOAD DUP2 MSTORE SWAP1 PUSH1 0x1 ADD SWAP1 PUSH1 0x20 ADD DUP1 DUP4 GT PUSH2 0xC24 JUMPI DUP3 SWAP1 SUB PUSH1 0x1F AND DUP3 ADD SWAP2 JUMPDEST POP POP POP POP POP SWAP1 POP SWAP1 JUMP JUMPDEST PUSH1 0x10 PUSH1 0x0 SWAP1 SLOAD SWAP1 PUSH2 0x100 EXP SWAP1 DIV PUSH20 0xFFFFFFFFFFFFFFFFFFFFFFFFFFFFFFFFFFFFFFFF AND DUP2 JUMP JUMPDEST PUSH1 0x0 PUSH2 0xC7C DUP3 PUSH2 0x2D9E JUMP JUMPDEST PUSH2 0xCBB JUMPI PUSH1 0x40 MLOAD PUSH32 0x8C379A000000000000000000000000000000000000000000000000000000000 DUP2 MSTORE PUSH1 0x4 ADD PUSH2 0xCB2 SWAP1 PUSH2 0x5796 JUMP JUMPDEST PUSH1 0x40 MLOAD DUP1 SWAP2 SUB SWAP1 REVERT JUMPDEST PUSH1 0x5 PUSH1 0x0 DUP4 DUP2 MSTORE PUSH1 0x20 ADD SWAP1 DUP2 MSTORE PUSH1 0x20 ADD PUSH1 0x0 KECCAK256 PUSH1 0x0 SWAP1 SLOAD SWAP1 PUSH2 0x100 EXP SWAP1 DIV PUSH20 0xFFFFFFFFFFFFFFFFFFFFFFFFFFFFFFFFFFFFFFFF AND SWAP1 POP SWAP2 SWAP1 POP JUMP JUMPDEST PUSH1 0x0 PUSH2 0xD01 DUP3 PUSH2 0x16DC JUMP JUMPDEST SWAP1 POP DUP1 PUSH20 0xFFFFFFFFFFFFFFFFFFFFFFFFFFFFFFFFFFFFFFFF AND DUP4 PUSH20 0xFFFFFFFFFFFFFFFFFFFFFFFFFFFFFFFFFFFFFFFF AND SUB PUSH2 0xD71 JUMPI PUSH1 0x40 MLOAD PUSH32 0x8C379A000000000000000000000000000000000000000000000000000000000 DUP2 MSTORE PUSH1 0x4 ADD PUSH2 0xD68 SWAP1 PUSH2 0x5828 JUMP JUMPDEST PUSH1 0x40 MLOAD DUP1 SWAP2 SUB SWAP1 REVERT JUMPDEST DUP1 PUSH20 0xFFFFFFFFFFFFFFFFFFFFFFFFFFFFFFFFFFFFFFFF AND PUSH2 0xD90 PUSH2 0x2CB4 JUMP JUMPDEST PUSH20 0xFFFFFFFFFFFFFFFFFFFFFFFFFFFFFFFFFFFFFFFF AND EQ DUP1 PUSH2 0xDBF JUMPI POP PUSH2 0xDBE DUP2 PUSH2 0xDB9 PUSH2 0x2CB4 JUMP JUMPDEST PUSH2 0x2832 JUMP JUMPDEST JUMPDEST PUSH2 0xDFE JUMPI PUSH1 0x40 MLOAD PUSH32 0x8C379A000000000000000000000000000000000000000000000000000000000 DUP2 MSTORE PUSH1 0x4 ADD PUSH2 0xDF5 SWAP1 PUSH2 0x58BA JUMP JUMPDEST PUSH1 0x40 MLOAD DUP1 SWAP2 SUB SWAP1 REVERT JUMPDEST PUSH2 0xE08 DUP4 DUP4 PUSH2 0x2E0A JUMP JUMPDEST POP POP POP JUMP JUMPDEST PUSH1 0x0 PUSH1 0x10 PUSH1 0x0 SWAP1 SLOAD SWAP1 PUSH2 0x100 EXP SWAP1 DIV PUSH20 0xFFFFFFFFFFFFFFFFFFFFFFFFFFFFFFFFFFFFFFFF AND PUSH20 0xFFFFFFFFFFFFFFFFFFFFFFFFFFFFFFFFFFFFFFFF AND CALLER PUSH20 0xFFFFFFFFFFFFFFFFFFFFFFFFFFFFFFFFFFFFFFFF AND EQ PUSH2 0xE9F JUMPI PUSH1 0x40 MLOAD PUSH32 0x8C379A000000000000000000000000000000000000000000000000000000000 DUP2 MSTORE PUSH1 0x4 ADD PUSH2 0xE96 SWAP1 PUSH2 0x5926 JUMP JUMPDEST PUSH1 0x40 MLOAD DUP1 SWAP2 SUB SWAP1 REVERT JUMPDEST PUSH2 0x1F4 PUSH1 0x16 SLOAD GT ISZERO DUP1 ISZERO PUSH2 0xEC1 JUMPI POP PUSH1 0x0 PUSH1 0xA PUSH1 0x16 SLOAD PUSH2 0xEBF SWAP2 SWAP1 PUSH2 0x5975 JUMP JUMPDEST EQ JUMPDEST ISZERO PUSH2 0xF0A JUMPI PUSH2 0xF08 PUSH1 0xF PUSH1 0x0 SWAP1 SLOAD SWAP1 PUSH2 0x100 EXP SWAP1 DIV PUSH20 0xFFFFFFFFFFFFFFFFFFFFFFFFFFFFFFFFFFFFFFFF AND PUSH1 0x16 PUSH1 0x0 DUP2 SLOAD DUP1 SWAP3 SWAP2 SWAP1 PUSH2 0xEFF SWAP1 PUSH2 0x59D5 JUMP JUMPDEST SWAP2 SWAP1 POP SSTORE PUSH2 0x2EC3 JUMP JUMPDEST POP JUMPDEST PUSH2 0xF4C PUSH1 0x10 PUSH1 0x0 SWAP1 SLOAD SWAP1 PUSH2 0x100 EXP SWAP1 DIV PUSH20 0xFFFFFFFFFFFFFFFFFFFFFFFFFFFFFFFFFFFFFFFF AND PUSH1 0x16 PUSH1 0x0 DUP2 SLOAD DUP1 SWAP3 SWAP2 SWAP1 PUSH2 0xF43 SWAP1 PUSH2 0x59D5 JUMP JUMPDEST SWAP2 SWAP1 POP SSTORE PUSH2 0x2EC3 JUMP JUMPDEST SWAP1 POP SWAP1 JUMP JUMPDEST PUSH1 0x0 PUSH1 0x9 DUP1 SLOAD SWAP1 POP SWAP1 POP SWAP1 JUMP JUMPDEST PUSH1 0x14 DUP1 SLOAD SWAP1 PUSH2 0x100 EXP SWAP1 DIV PUSH1 0xFF AND DUP2 JUMP JUMPDEST PUSH32 0x8CAD95687BA82C2CE50E74F7B754645E5117C3A5BEC8151C0726D5857980A866 DUP2 JUMP JUMPDEST PUSH2 0xFA4 PUSH2 0xF9E PUSH2 0x2CB4 JUMP JUMPDEST DUP3 PUSH2 0x330E JUMP JUMPDEST PUSH2 0xFE3 JUMPI PUSH1 0x40 MLOAD PUSH32 0x8C379A000000000000000000000000000000000000000000000000000000000 DUP2 MSTORE PUSH1 0x4 ADD PUSH2 0xFDA SWAP1 PUSH2 0x5A8F JUMP JUMPDEST PUSH1 0x40 MLOAD DUP1 SWAP2 SUB SWAP1 REVERT JUMPDEST PUSH2 0xFEE DUP4 DUP4 DUP4 PUSH2 0x33EC JUMP JUMPDEST POP POP POP JUMP JUMPDEST PUSH1 0xF PUSH1 0x0 SWAP1 SLOAD SWAP1 PUSH2 0x100 EXP SWAP1 DIV PUSH20 0xFFFFFFFFFFFFFFFFFFFFFFFFFFFFFFFFFFFFFFFF AND DUP2 JUMP JUMPDEST PUSH1 0x0 PUSH2 0x1024 DUP4 PUSH2 0x17D6 JUMP JUMPDEST DUP3 LT PUSH2 0x1065 JUMPI PUSH1 0x40 MLOAD PUSH32 0x8C379A000000000000000000000000000000000000000000000000000000000 DUP2 MSTORE PUSH1 0x4 ADD PUSH2 0x105C SWAP1 PUSH2 0x5B21 JUMP JUMPDEST PUSH1 0x40 MLOAD DUP1 SWAP2 SUB SWAP1 REVERT JUMPDEST PUSH1 0x7 PUSH1 0x0 DUP5 PUSH20 0xFFFFFFFFFFFFFFFFFFFFFFFFFFFFFFFFFFFFFFFF AND PUSH20 0xFFFFFFFFFFFFFFFFFFFFFFFFFFFFFFFFFFFFFFFF AND DUP2 MSTORE PUSH1 0x20 ADD SWAP1 DUP2 MSTORE PUSH1 0x20 ADD PUSH1 0x0 KECCAK256 PUSH1 0x0 DUP4 DUP2 MSTORE PUSH1 0x20 ADD SWAP1 DUP2 MSTORE PUSH1 0x20 ADD PUSH1 0x0 KECCAK256 SLOAD SWAP1 POP SWAP3 SWAP2 POP POP JUMP JUMPDEST PUSH1 0x13 PUSH1 0x0 SWAP1 SLOAD SWAP1 PUSH2 0x100 EXP SWAP1 DIV PUSH20 0xFFFFFFFFFFFFFFFFFFFFFFFFFFFFFFFFFFFFFFFF AND DUP2 JUMP JUMPDEST PUSH1 0x0 DUP2 JUMP JUMPDEST PUSH2 0x10F1 PUSH2 0x2CB4 JUMP JUMPDEST PUSH20 0xFFFFFFFFFFFFFFFFFFFFFFFFFFFFFFFFFFFFFFFF AND PUSH2 0x110F PUSH2 0x1E78 JUMP JUMPDEST PUSH20 0xFFFFFFFFFFFFFFFFFFFFFFFFFFFFFFFFFFFFFFFF AND EQ PUSH2 0x1165 JUMPI PUSH1 0x40 MLOAD PUSH32 0x8C379A000000000000000000000000000000000000000000000000000000000 DUP2 MSTORE PUSH1 0x4 ADD PUSH2 0x115C SWAP1 PUSH2 0x5638 JUMP JUMPDEST PUSH1 0x40 MLOAD DUP1 SWAP2 SUB SWAP1 REVERT JUMPDEST PUSH1 0x14 PUSH1 0x15 SWAP1 SLOAD SWAP1 PUSH2 0x100 EXP SWAP1 DIV PUSH1 0xFF AND ISZERO PUSH2 0x11B5 JUMPI PUSH1 0x40 MLOAD PUSH32 0x8C379A000000000000000000000000000000000000000000000000000000000 DUP2 MSTORE PUSH1 0x4 ADD PUSH2 0x11AC SWAP1 PUSH2 0x56A4 JUMP JUMPDEST PUSH1 0x40 MLOAD DUP1 SWAP2 SUB SWAP1 REVERT JUMPDEST PUSH1 0x1 PUSH1 0x14 PUSH1 0x15 PUSH2 0x100 EXP DUP2 SLOAD DUP2 PUSH1 0xFF MUL NOT AND SWAP1 DUP4 ISZERO ISZERO MUL OR SWAP1 SSTORE POP PUSH32 0x593E31E306C198BEF259D839F7C6DC4FF7FC10C07F76FAB193A210B03704105F PUSH1 0x40 MLOAD PUSH1 0x40 MLOAD DUP1 SWAP2 SUB SWAP1 LOG1 JUMP JUMPDEST PUSH2 0x1219 DUP4 DUP4 DUP4 PUSH1 0x40 MLOAD DUP1 PUSH1 0x20 ADD PUSH1 0x40 MSTORE DUP1 PUSH1 0x0 DUP2 MSTORE POP PUSH2 0x21CE JUMP JUMPDEST POP POP POP JUMP JUMPDEST PUSH2 0x1227 DUP2 PUSH2 0x3647 JUMP JUMPDEST DUP1 PUSH32 0x3D4E40D854F0F6C2560182A42DAB2BF4FBE8A5319BA42757B3AC821C37BB142 PUSH1 0x40 MLOAD PUSH1 0x40 MLOAD DUP1 SWAP2 SUB SWAP1 LOG2 POP JUMP JUMPDEST PUSH1 0xF PUSH1 0x0 SWAP1 SLOAD SWAP1 PUSH2 0x100 EXP SWAP1 DIV PUSH20 0xFFFFFFFFFFFFFFFFFFFFFFFFFFFFFFFFFFFFFFFF AND PUSH20 0xFFFFFFFFFFFFFFFFFFFFFFFFFFFFFFFFFFFFFFFF AND CALLER PUSH20 0xFFFFFFFFFFFFFFFFFFFFFFFFFFFFFFFFFFFFFFFF AND EQ PUSH2 0x12E7 JUMPI PUSH1 0x40 MLOAD PUSH32 0x8C379A000000000000000000000000000000000000000000000000000000000 DUP2 MSTORE PUSH1 0x4 ADD PUSH2 0x12DE SWAP1 PUSH2 0x5B8D JUMP JUMPDEST PUSH1 0x40 MLOAD DUP1 SWAP2 SUB SWAP1 REVERT JUMPDEST DUP1 PUSH1 0xF PUSH1 0x0 PUSH2 0x100 EXP DUP2 SLOAD DUP2 PUSH20 0xFFFFFFFFFFFFFFFFFFFFFFFFFFFFFFFFFFFFFFFF MUL NOT AND SWAP1 DUP4 PUSH20 0xFFFFFFFFFFFFFFFFFFFFFFFFFFFFFFFFFFFFFFFF AND MUL OR SWAP1 SSTORE POP PUSH32 0xD895A3DD6D558BBA54C9123E0D5D3436829F8871F270ACB46099CF9A6E440FCB DUP2 PUSH1 0x40 MLOAD PUSH2 0x1357 SWAP2 SWAP1 PUSH2 0x4C9E JUMP JUMPDEST PUSH1 0x40 MLOAD DUP1 SWAP2 SUB SWAP1 LOG1 POP JUMP JUMPDEST PUSH1 0x0 PUSH2 0x136C PUSH2 0xF51 JUMP JUMPDEST DUP3 LT PUSH2 0x13AD JUMPI PUSH1 0x40 MLOAD PUSH32 0x8C379A000000000000000000000000000000000000000000000000000000000 DUP2 MSTORE PUSH1 0x4 ADD PUSH2 0x13A4 SWAP1 PUSH2 0x5C1F JUMP JUMPDEST PUSH1 0x40 MLOAD DUP1 SWAP2 SUB SWAP1 REVERT JUMPDEST PUSH1 0x9 DUP3 DUP2 SLOAD DUP2 LT PUSH2 0x13C1 JUMPI PUSH2 0x13C0 PUSH2 0x5C3F JUMP JUMPDEST JUMPDEST SWAP1 PUSH1 0x0 MSTORE PUSH1 0x20 PUSH1 0x0 KECCAK256 ADD SLOAD SWAP1 POP SWAP2 SWAP1 POP JUMP JUMPDEST PUSH1 0x0 DUP1 PUSH1 0xB PUSH1 0x0 DUP5 PUSH20 0xFFFFFFFFFFFFFFFFFFFFFFFFFFFFFFFFFFFFFFFF AND PUSH20 0xFFFFFFFFFFFFFFFFFFFFFFFFFFFFFFFFFFFFFFFF AND DUP2 MSTORE PUSH1 0x20 ADD SWAP1 DUP2 MSTORE PUSH1 0x20 ADD PUSH1 0x0 KECCAK256 PUSH1 0x0 SWAP1 SLOAD SWAP1 PUSH2 0x100 EXP SWAP1 DIV PUSH20 0xFFFFFFFFFFFFFFFFFFFFFFFFFFFFFFFFFFFFFFFF AND SWAP1 POP PUSH1 0x0 PUSH20 0xFFFFFFFFFFFFFFFFFFFFFFFFFFFFFFFFFFFFFFFF AND DUP2 PUSH20 0xFFFFFFFFFFFFFFFFFFFFFFFFFFFFFFFFFFFFFFFF AND EQ PUSH2 0x1472 JUMPI DUP1 PUSH2 0x1474 JUMP JUMPDEST DUP3 JUMPDEST SWAP2 POP POP SWAP2 SWAP1 POP JUMP JUMPDEST PUSH1 0x60 PUSH2 0x1487 DUP3 PUSH2 0x2D9E JUMP JUMPDEST PUSH2 0x14C6 JUMPI PUSH1 0x40 MLOAD PUSH32 0x8C379A000000000000000000000000000000000000000000000000000000000 DUP2 MSTORE PUSH1 0x4 ADD PUSH2 0x14BD SWAP1 PUSH2 0x5CE0 JUMP JUMPDEST PUSH1 0x40 MLOAD DUP1 SWAP2 SUB SWAP1 REVERT JUMPDEST PUSH1 0x13 PUSH1 0x0 SWAP1 SLOAD SWAP1 PUSH2 0x100 EXP SWAP1 DIV PUSH20 0xFFFFFFFFFFFFFFFFFFFFFFFFFFFFFFFFFFFFFFFF AND PUSH20 0xFFFFFFFFFFFFFFFFFFFFFFFFFFFFFFFFFFFFFFFF AND PUSH4 0x350E1177 DUP4 PUSH1 0x15 PUSH1 0x0 DUP7 DUP2 MSTORE PUSH1 0x20 ADD SWAP1 DUP2 MSTORE PUSH1 0x20 ADD PUSH1 0x0 KECCAK256 PUSH1 0x40 MLOAD DUP4 PUSH4 0xFFFFFFFF AND PUSH1 0xE0 SHL DUP2 MSTORE PUSH1 0x4 ADD PUSH2 0x1535 SWAP3 SWAP2 SWAP1 PUSH2 0x5ECE JUMP JUMPDEST PUSH1 0x0 PUSH1 0x40 MLOAD DUP1 DUP4 SUB DUP2 DUP7 GAS STATICCALL ISZERO DUP1 ISZERO PUSH2 0x1552 JUMPI RETURNDATASIZE PUSH1 0x0 DUP1 RETURNDATACOPY RETURNDATASIZE PUSH1 0x0 REVERT JUMPDEST POP POP POP POP PUSH1 0x40 MLOAD RETURNDATASIZE PUSH1 0x0 DUP3 RETURNDATACOPY RETURNDATASIZE PUSH1 0x1F NOT PUSH1 0x1F DUP3 ADD AND DUP3 ADD DUP1 PUSH1 0x40 MSTORE POP DUP2 ADD SWAP1 PUSH2 0x157B SWAP2 SWAP1 PUSH2 0x5F68 JUMP JUMPDEST SWAP1 POP SWAP2 SWAP1 POP JUMP JUMPDEST PUSH1 0x0 PUSH20 0xFFFFFFFFFFFFFFFFFFFFFFFFFFFFFFFFFFFFFFFF AND DUP2 PUSH20 0xFFFFFFFFFFFFFFFFFFFFFFFFFFFFFFFFFFFFFFFF AND SUB PUSH2 0x15BA JUMPI CALLER SWAP1 POP JUMPDEST PUSH2 0x15C4 CALLER DUP3 PUSH2 0x3758 JUMP JUMPDEST POP JUMP JUMPDEST PUSH2 0x15CF PUSH2 0x2CB4 JUMP JUMPDEST PUSH20 0xFFFFFFFFFFFFFFFFFFFFFFFFFFFFFFFFFFFFFFFF AND PUSH2 0x15ED PUSH2 0x1E78 JUMP JUMPDEST PUSH20 0xFFFFFFFFFFFFFFFFFFFFFFFFFFFFFFFFFFFFFFFF AND EQ PUSH2 0x1643 JUMPI PUSH1 0x40 MLOAD PUSH32 0x8C379A000000000000000000000000000000000000000000000000000000000 DUP2 MSTORE PUSH1 0x4 ADD PUSH2 0x163A SWAP1 PUSH2 0x5638 JUMP JUMPDEST PUSH1 0x40 MLOAD DUP1 SWAP2 SUB SWAP1 REVERT JUMPDEST PUSH1 0x14 PUSH1 0x16 SWAP1 SLOAD SWAP1 PUSH2 0x100 EXP SWAP1 DIV PUSH1 0xFF AND ISZERO PUSH2 0x1693 JUMPI PUSH1 0x40 MLOAD PUSH32 0x8C379A000000000000000000000000000000000000000000000000000000000 DUP2 MSTORE PUSH1 0x4 ADD PUSH2 0x168A SWAP1 PUSH2 0x5FFD JUMP JUMPDEST PUSH1 0x40 MLOAD DUP1 SWAP2 SUB SWAP1 REVERT JUMPDEST PUSH1 0x1 PUSH1 0x14 PUSH1 0x16 PUSH2 0x100 EXP DUP2 SLOAD DUP2 PUSH1 0xFF MUL NOT AND SWAP1 DUP4 ISZERO ISZERO MUL OR SWAP1 SSTORE POP PUSH32 0xF59561F22794AFCFB1E6BE5C4733F5449FD167252A96B74BB06D341FB0DAC7ED PUSH1 0x40 MLOAD PUSH1 0x40 MLOAD DUP1 SWAP2 SUB SWAP1 LOG1 JUMP JUMPDEST PUSH1 0x0 DUP1 PUSH1 0x3 PUSH1 0x0 DUP5 DUP2 MSTORE PUSH1 0x20 ADD SWAP1 DUP2 MSTORE PUSH1 0x20 ADD PUSH1 0x0 KECCAK256 PUSH1 0x0 SWAP1 SLOAD SWAP1 PUSH2 0x100 EXP SWAP1 DIV PUSH20 0xFFFFFFFFFFFFFFFFFFFFFFFFFFFFFFFFFFFFFFFF AND SWAP1 POP PUSH1 0x0 PUSH20 0xFFFFFFFFFFFFFFFFFFFFFFFFFFFFFFFFFFFFFFFF AND DUP2 PUSH20 0xFFFFFFFFFFFFFFFFFFFFFFFFFFFFFFFFFFFFFFFF AND SUB PUSH2 0x1784 JUMPI PUSH1 0x40 MLOAD PUSH32 0x8C379A000000000000000000000000000000000000000000000000000000000 DUP2 MSTORE PUSH1 0x4 ADD PUSH2 0x177B SWAP1 PUSH2 0x608F JUMP JUMPDEST PUSH1 0x40 MLOAD DUP1 SWAP2 SUB SWAP1 REVERT JUMPDEST DUP1 SWAP2 POP POP SWAP2 SWAP1 POP JUMP JUMPDEST PUSH1 0x14 PUSH1 0x0 SWAP1 SLOAD SWAP1 PUSH2 0x100 EXP SWAP1 DIV PUSH20 0xFFFFFFFFFFFFFFFFFFFFFFFFFFFFFFFFFFFFFFFF AND DUP2 JUMP JUMPDEST PUSH1 0xD PUSH1 0x20 MSTORE DUP1 PUSH1 0x0 MSTORE PUSH1 0x40 PUSH1 0x0 KECCAK256 PUSH1 0x0 SWAP2 POP SLOAD SWAP1 PUSH2 0x100 EXP SWAP1 DIV PUSH4 0xFFFFFFFF AND DUP2 JUMP JUMPDEST PUSH1 0x0 DUP1 PUSH20 0xFFFFFFFFFFFFFFFFFFFFFFFFFFFFFFFFFFFFFFFF AND DUP3 PUSH20 0xFFFFFFFFFFFFFFFFFFFFFFFFFFFFFFFFFFFFFFFF AND SUB PUSH2 0x1846 JUMPI PUSH1 0x40 MLOAD PUSH32 0x8C379A000000000000000000000000000000000000000000000000000000000 DUP2 MSTORE PUSH1 0x4 ADD PUSH2 0x183D SWAP1 PUSH2 0x6121 JUMP JUMPDEST PUSH1 0x40 MLOAD DUP1 SWAP2 SUB SWAP1 REVERT JUMPDEST PUSH1 0x4 PUSH1 0x0 DUP4 PUSH20 0xFFFFFFFFFFFFFFFFFFFFFFFFFFFFFFFFFFFFFFFF AND PUSH20 0xFFFFFFFFFFFFFFFFFFFFFFFFFFFFFFFFFFFFFFFF AND DUP2 MSTORE PUSH1 0x20 ADD SWAP1 DUP2 MSTORE PUSH1 0x20 ADD PUSH1 0x0 KECCAK256 SLOAD SWAP1 POP SWAP2 SWAP1 POP JUMP JUMPDEST PUSH2 0x1895 PUSH2 0x2CB4 JUMP JUMPDEST PUSH20 0xFFFFFFFFFFFFFFFFFFFFFFFFFFFFFFFFFFFFFFFF AND PUSH2 0x18B3 PUSH2 0x1E78 JUMP JUMPDEST PUSH20 0xFFFFFFFFFFFFFFFFFFFFFFFFFFFFFFFFFFFFFFFF AND EQ PUSH2 0x1909 JUMPI PUSH1 0x40 MLOAD PUSH32 0x8C379A000000000000000000000000000000000000000000000000000000000 DUP2 MSTORE PUSH1 0x4 ADD PUSH2 0x1900 SWAP1 PUSH2 0x5638 JUMP JUMPDEST PUSH1 0x40 MLOAD DUP1 SWAP2 SUB SWAP1 REVERT JUMPDEST PUSH2 0x1913 PUSH1 0x0 PUSH2 0x3872 JUMP JUMPDEST JUMP JUMPDEST PUSH2 0x191D PUSH2 0x2CB4 JUMP JUMPDEST PUSH20 0xFFFFFFFFFFFFFFFFFFFFFFFFFFFFFFFFFFFFFFFF AND PUSH2 0x193B PUSH2 0x1E78 JUMP JUMPDEST PUSH20 0xFFFFFFFFFFFFFFFFFFFFFFFFFFFFFFFFFFFFFFFF AND EQ PUSH2 0x1991 JUMPI PUSH1 0x40 MLOAD PUSH32 0x8C379A000000000000000000000000000000000000000000000000000000000 DUP2 MSTORE PUSH1 0x4 ADD PUSH2 0x1988 SWAP1 PUSH2 0x5638 JUMP JUMPDEST PUSH1 0x40 MLOAD DUP1 SWAP2 SUB SWAP1 REVERT JUMPDEST PUSH1 0x14 DUP1 SLOAD SWAP1 PUSH2 0x100 EXP SWAP1 DIV PUSH1 0xFF AND ISZERO PUSH2 0x19DF JUMPI PUSH1 0x40 MLOAD PUSH32 0x8C379A000000000000000000000000000000000000000000000000000000000 DUP2 MSTORE PUSH1 0x4 ADD PUSH2 0x19D6 SWAP1 PUSH2 0x618D JUMP JUMPDEST PUSH1 0x40 MLOAD DUP1 SWAP2 SUB SWAP1 REVERT JUMPDEST PUSH1 0x1 PUSH1 0x14 DUP1 PUSH2 0x100 EXP DUP2 SLOAD DUP2 PUSH1 0xFF MUL NOT AND SWAP1 DUP4 ISZERO ISZERO MUL OR SWAP1 SSTORE POP PUSH32 0x192417B3F16B1CE69E0C59B0376549666650245FFC05E4B2569089DDA8589B66 PUSH1 0x40 MLOAD PUSH1 0x40 MLOAD DUP1 SWAP2 SUB SWAP1 LOG1 JUMP JUMPDEST PUSH1 0x0 NUMBER DUP3 LT PUSH2 0x1A6B JUMPI PUSH1 0x40 MLOAD PUSH32 0x8C379A000000000000000000000000000000000000000000000000000000000 DUP2 MSTORE PUSH1 0x4 ADD PUSH2 0x1A62 SWAP1 PUSH2 0x621F JUMP JUMPDEST PUSH1 0x40 MLOAD DUP1 SWAP2 SUB SWAP1 REVERT JUMPDEST PUSH1 0x0 PUSH1 0xD PUSH1 0x0 DUP6 PUSH20 0xFFFFFFFFFFFFFFFFFFFFFFFFFFFFFFFFFFFFFFFF AND PUSH20 0xFFFFFFFFFFFFFFFFFFFFFFFFFFFFFFFFFFFFFFFF AND DUP2 MSTORE PUSH1 0x20 ADD SWAP1 DUP2 MSTORE PUSH1 0x20 ADD PUSH1 0x0 KECCAK256 PUSH1 0x0 SWAP1 SLOAD SWAP1 PUSH2 0x100 EXP SWAP1 DIV PUSH4 0xFFFFFFFF AND SWAP1 POP PUSH1 0x0 DUP2 PUSH4 0xFFFFFFFF AND SUB PUSH2 0x1AD7 JUMPI PUSH1 0x0 SWAP2 POP POP PUSH2 0x1E5A JUMP JUMPDEST DUP3 PUSH1 0xC PUSH1 0x0 DUP7 PUSH20 0xFFFFFFFFFFFFFFFFFFFFFFFFFFFFFFFFFFFFFFFF AND PUSH20 0xFFFFFFFFFFFFFFFFFFFFFFFFFFFFFFFFFFFFFFFF AND DUP2 MSTORE PUSH1 0x20 ADD SWAP1 DUP2 MSTORE PUSH1 0x20 ADD PUSH1 0x0 KECCAK256 PUSH1 0x0 PUSH1 0x1 DUP5 PUSH2 0x1B26 SWAP2 SWAP1 PUSH2 0x623F JUMP JUMPDEST PUSH4 0xFFFFFFFF AND PUSH4 0xFFFFFFFF AND DUP2 MSTORE PUSH1 0x20 ADD SWAP1 DUP2 MSTORE PUSH1 0x20 ADD PUSH1 0x0 KECCAK256 PUSH1 0x0 ADD PUSH1 0x0 SWAP1 SLOAD SWAP1 PUSH2 0x100 EXP SWAP1 DIV PUSH4 0xFFFFFFFF AND PUSH4 0xFFFFFFFF AND GT PUSH2 0x1BEB JUMPI PUSH1 0xC PUSH1 0x0 DUP6 PUSH20 0xFFFFFFFFFFFFFFFFFFFFFFFFFFFFFFFFFFFFFFFF AND PUSH20 0xFFFFFFFFFFFFFFFFFFFFFFFFFFFFFFFFFFFFFFFF AND DUP2 MSTORE PUSH1 0x20 ADD SWAP1 DUP2 MSTORE PUSH1 0x20 ADD PUSH1 0x0 KECCAK256 PUSH1 0x0 PUSH1 0x1 DUP4 PUSH2 0x1BAD SWAP2 SWAP1 PUSH2 0x623F JUMP JUMPDEST PUSH4 0xFFFFFFFF AND PUSH4 0xFFFFFFFF AND DUP2 MSTORE PUSH1 0x20 ADD SWAP1 DUP2 MSTORE PUSH1 0x20 ADD PUSH1 0x0 KECCAK256 PUSH1 0x0 ADD PUSH1 0x4 SWAP1 SLOAD SWAP1 PUSH2 0x100 EXP SWAP1 DIV PUSH12 0xFFFFFFFFFFFFFFFFFFFFFFFF AND SWAP2 POP POP PUSH2 0x1E5A JUMP JUMPDEST DUP3 PUSH1 0xC PUSH1 0x0 DUP7 PUSH20 0xFFFFFFFFFFFFFFFFFFFFFFFFFFFFFFFFFFFFFFFF AND PUSH20 0xFFFFFFFFFFFFFFFFFFFFFFFFFFFFFFFFFFFFFFFF AND DUP2 MSTORE PUSH1 0x20 ADD SWAP1 DUP2 MSTORE PUSH1 0x20 ADD PUSH1 0x0 KECCAK256 PUSH1 0x0 DUP1 PUSH4 0xFFFFFFFF AND DUP2 MSTORE PUSH1 0x20 ADD SWAP1 DUP2 MSTORE PUSH1 0x20 ADD PUSH1 0x0 KECCAK256 PUSH1 0x0 ADD PUSH1 0x0 SWAP1 SLOAD SWAP1 PUSH2 0x100 EXP SWAP1 DIV PUSH4 0xFFFFFFFF AND PUSH4 0xFFFFFFFF AND GT ISZERO PUSH2 0x1C6C JUMPI PUSH1 0x0 SWAP2 POP POP PUSH2 0x1E5A JUMP JUMPDEST PUSH1 0x0 DUP1 PUSH1 0x1 DUP4 PUSH2 0x1C7C SWAP2 SWAP1 PUSH2 0x623F JUMP JUMPDEST SWAP1 POP JUMPDEST DUP2 PUSH4 0xFFFFFFFF AND DUP2 PUSH4 0xFFFFFFFF AND GT ISZERO PUSH2 0x1DDC JUMPI PUSH1 0x0 PUSH1 0x2 DUP4 DUP4 PUSH2 0x1CA3 SWAP2 SWAP1 PUSH2 0x623F JUMP JUMPDEST PUSH2 0x1CAD SWAP2 SWAP1 PUSH2 0x6277 JUMP JUMPDEST DUP3 PUSH2 0x1CB8 SWAP2 SWAP1 PUSH2 0x623F JUMP JUMPDEST SWAP1 POP PUSH1 0x0 PUSH1 0xC PUSH1 0x0 DUP10 PUSH20 0xFFFFFFFFFFFFFFFFFFFFFFFFFFFFFFFFFFFFFFFF AND PUSH20 0xFFFFFFFFFFFFFFFFFFFFFFFFFFFFFFFFFFFFFFFF AND DUP2 MSTORE PUSH1 0x20 ADD SWAP1 DUP2 MSTORE PUSH1 0x20 ADD PUSH1 0x0 KECCAK256 PUSH1 0x0 DUP4 PUSH4 0xFFFFFFFF AND PUSH4 0xFFFFFFFF AND DUP2 MSTORE PUSH1 0x20 ADD SWAP1 DUP2 MSTORE PUSH1 0x20 ADD PUSH1 0x0 KECCAK256 PUSH1 0x40 MLOAD DUP1 PUSH1 0x40 ADD PUSH1 0x40 MSTORE SWAP1 DUP2 PUSH1 0x0 DUP3 ADD PUSH1 0x0 SWAP1 SLOAD SWAP1 PUSH2 0x100 EXP SWAP1 DIV PUSH4 0xFFFFFFFF AND PUSH4 0xFFFFFFFF AND PUSH4 0xFFFFFFFF AND DUP2 MSTORE PUSH1 0x20 ADD PUSH1 0x0 DUP3 ADD PUSH1 0x4 SWAP1 SLOAD SWAP1 PUSH2 0x100 EXP SWAP1 DIV PUSH12 0xFFFFFFFFFFFFFFFFFFFFFFFF AND PUSH12 0xFFFFFFFFFFFFFFFFFFFFFFFF AND PUSH12 0xFFFFFFFFFFFFFFFFFFFFFFFF AND DUP2 MSTORE POP POP SWAP1 POP DUP7 DUP2 PUSH1 0x0 ADD MLOAD PUSH4 0xFFFFFFFF AND SUB PUSH2 0x1DAB JUMPI DUP1 PUSH1 0x20 ADD MLOAD SWAP6 POP POP POP POP POP POP PUSH2 0x1E5A JUMP JUMPDEST DUP7 DUP2 PUSH1 0x0 ADD MLOAD PUSH4 0xFFFFFFFF AND LT ISZERO PUSH2 0x1DC5 JUMPI DUP2 SWAP4 POP PUSH2 0x1DD5 JUMP JUMPDEST PUSH1 0x1 DUP3 PUSH2 0x1DD2 SWAP2 SWAP1 PUSH2 0x623F JUMP JUMPDEST SWAP3 POP JUMPDEST POP POP PUSH2 0x1C7F JUMP JUMPDEST PUSH1 0xC PUSH1 0x0 DUP8 PUSH20 0xFFFFFFFFFFFFFFFFFFFFFFFFFFFFFFFFFFFFFFFF AND PUSH20 0xFFFFFFFFFFFFFFFFFFFFFFFFFFFFFFFFFFFFFFFF AND DUP2 MSTORE PUSH1 0x20 ADD SWAP1 DUP2 MSTORE PUSH1 0x20 ADD PUSH1 0x0 KECCAK256 PUSH1 0x0 DUP4 PUSH4 0xFFFFFFFF AND PUSH4 0xFFFFFFFF AND DUP2 MSTORE PUSH1 0x20 ADD SWAP1 DUP2 MSTORE PUSH1 0x20 ADD PUSH1 0x0 KECCAK256 PUSH1 0x0 ADD PUSH1 0x4 SWAP1 SLOAD SWAP1 PUSH2 0x100 EXP SWAP1 DIV PUSH12 0xFFFFFFFFFFFFFFFFFFFFFFFF AND SWAP4 POP POP POP POP JUMPDEST SWAP3 SWAP2 POP POP JUMP JUMPDEST PUSH1 0xE PUSH1 0x20 MSTORE DUP1 PUSH1 0x0 MSTORE PUSH1 0x40 PUSH1 0x0 KECCAK256 PUSH1 0x0 SWAP2 POP SWAP1 POP SLOAD DUP2 JUMP JUMPDEST PUSH1 0x0 DUP1 PUSH1 0x0 SWAP1 SLOAD SWAP1 PUSH2 0x100 EXP SWAP1 DIV PUSH20 0xFFFFFFFFFFFFFFFFFFFFFFFFFFFFFFFFFFFFFFFF AND SWAP1 POP SWAP1 JUMP JUMPDEST PUSH1 0x60 PUSH1 0x2 DUP1 SLOAD PUSH2 0x1EB0 SWAP1 PUSH2 0x56F3 JUMP JUMPDEST DUP1 PUSH1 0x1F ADD PUSH1 0x20 DUP1 SWAP2 DIV MUL PUSH1 0x20 ADD PUSH1 0x40 MLOAD SWAP1 DUP2 ADD PUSH1 0x40 MSTORE DUP1 SWAP3 SWAP2 SWAP1 DUP2 DUP2 MSTORE PUSH1 0x20 ADD DUP3 DUP1 SLOAD PUSH2 0x1EDC SWAP1 PUSH2 0x56F3 JUMP JUMPDEST DUP1 ISZERO PUSH2 0x1F29 JUMPI DUP1 PUSH1 0x1F LT PUSH2 0x1EFE JUMPI PUSH2 0x100 DUP1 DUP4 SLOAD DIV MUL DUP4 MSTORE SWAP2 PUSH1 0x20 ADD SWAP2 PUSH2 0x1F29 JUMP JUMPDEST DUP3 ADD SWAP2 SWAP1 PUSH1 0x0 MSTORE PUSH1 0x20 PUSH1 0x0 KECCAK256 SWAP1 JUMPDEST DUP2 SLOAD DUP2 MSTORE SWAP1 PUSH1 0x1 ADD SWAP1 PUSH1 0x20 ADD DUP1 DUP4 GT PUSH2 0x1F0C JUMPI DUP3 SWAP1 SUB PUSH1 0x1F AND DUP3 ADD SWAP2 JUMPDEST POP POP POP POP POP SWAP1 POP SWAP1 JUMP JUMPDEST PUSH2 0x1F3B PUSH2 0x2CB4 JUMP JUMPDEST PUSH20 0xFFFFFFFFFFFFFFFFFFFFFFFFFFFFFFFFFFFFFFFF AND DUP3 PUSH20 0xFFFFFFFFFFFFFFFFFFFFFFFFFFFFFFFFFFFFFFFF AND SUB PUSH2 0x1FA8 JUMPI PUSH1 0x40 MLOAD PUSH32 0x8C379A000000000000000000000000000000000000000000000000000000000 DUP2 MSTORE PUSH1 0x4 ADD PUSH2 0x1F9F SWAP1 PUSH2 0x62F4 JUMP JUMPDEST PUSH1 0x40 MLOAD DUP1 SWAP2 SUB SWAP1 REVERT JUMPDEST DUP1 PUSH1 0x6 PUSH1 0x0 PUSH2 0x1FB5 PUSH2 0x2CB4 JUMP JUMPDEST PUSH20 0xFFFFFFFFFFFFFFFFFFFFFFFFFFFFFFFFFFFFFFFF AND PUSH20 0xFFFFFFFFFFFFFFFFFFFFFFFFFFFFFFFFFFFFFFFF AND DUP2 MSTORE PUSH1 0x20 ADD SWAP1 DUP2 MSTORE PUSH1 0x20 ADD PUSH1 0x0 KECCAK256 PUSH1 0x0 DUP5 PUSH20 0xFFFFFFFFFFFFFFFFFFFFFFFFFFFFFFFFFFFFFFFF AND PUSH20 0xFFFFFFFFFFFFFFFFFFFFFFFFFFFFFFFFFFFFFFFF AND DUP2 MSTORE PUSH1 0x20 ADD SWAP1 DUP2 MSTORE PUSH1 0x20 ADD PUSH1 0x0 KECCAK256 PUSH1 0x0 PUSH2 0x100 EXP DUP2 SLOAD DUP2 PUSH1 0xFF MUL NOT AND SWAP1 DUP4 ISZERO ISZERO MUL OR SWAP1 SSTORE POP DUP2 PUSH20 0xFFFFFFFFFFFFFFFFFFFFFFFFFFFFFFFFFFFFFFFF AND PUSH2 0x2062 PUSH2 0x2CB4 JUMP JUMPDEST PUSH20 0xFFFFFFFFFFFFFFFFFFFFFFFFFFFFFFFFFFFFFFFF AND PUSH32 0x17307EAB39AB6107E8899845AD3D59BD9653F200F220920489CA2B5937696C31 DUP4 PUSH1 0x40 MLOAD PUSH2 0x20A7 SWAP2 SWAP1 PUSH2 0x4BC2 JUMP JUMPDEST PUSH1 0x40 MLOAD DUP1 SWAP2 SUB SWAP1 LOG3 POP POP JUMP JUMPDEST PUSH1 0x0 DUP1 PUSH1 0xD PUSH1 0x0 DUP5 PUSH20 0xFFFFFFFFFFFFFFFFFFFFFFFFFFFFFFFFFFFFFFFF AND PUSH20 0xFFFFFFFFFFFFFFFFFFFFFFFFFFFFFFFFFFFFFFFF AND DUP2 MSTORE PUSH1 0x20 ADD SWAP1 DUP2 MSTORE PUSH1 0x20 ADD PUSH1 0x0 KECCAK256 PUSH1 0x0 SWAP1 SLOAD SWAP1 PUSH2 0x100 EXP SWAP1 DIV PUSH4 0xFFFFFFFF AND SWAP1 POP PUSH1 0x0 DUP2 PUSH4 0xFFFFFFFF AND GT PUSH2 0x211D JUMPI PUSH1 0x0 PUSH2 0x21A2 JUMP JUMPDEST PUSH1 0xC PUSH1 0x0 DUP5 PUSH20 0xFFFFFFFFFFFFFFFFFFFFFFFFFFFFFFFFFFFFFFFF AND PUSH20 0xFFFFFFFFFFFFFFFFFFFFFFFFFFFFFFFFFFFFFFFF AND DUP2 MSTORE PUSH1 0x20 ADD SWAP1 DUP2 MSTORE PUSH1 0x20 ADD PUSH1 0x0 KECCAK256 PUSH1 0x0 PUSH1 0x1 DUP4 PUSH2 0x216B SWAP2 SWAP1 PUSH2 0x623F JUMP JUMPDEST PUSH4 0xFFFFFFFF AND PUSH4 0xFFFFFFFF AND DUP2 MSTORE PUSH1 0x20 ADD SWAP1 DUP2 MSTORE PUSH1 0x20 ADD PUSH1 0x0 KECCAK256 PUSH1 0x0 ADD PUSH1 0x4 SWAP1 SLOAD SWAP1 PUSH2 0x100 EXP SWAP1 DIV PUSH12 0xFFFFFFFFFFFFFFFFFFFFFFFF AND JUMPDEST SWAP2 POP POP SWAP2 SWAP1 POP JUMP JUMPDEST PUSH32 0x0 DUP2 JUMP JUMPDEST PUSH2 0x21DF PUSH2 0x21D9 PUSH2 0x2CB4 JUMP JUMPDEST DUP4 PUSH2 0x330E JUMP JUMPDEST PUSH2 0x221E JUMPI PUSH1 0x40 MLOAD PUSH32 0x8C379A000000000000000000000000000000000000000000000000000000000 DUP2 MSTORE PUSH1 0x4 ADD PUSH2 0x2215 SWAP1 PUSH2 0x5A8F JUMP JUMPDEST PUSH1 0x40 MLOAD DUP1 SWAP2 SUB SWAP1 REVERT JUMPDEST PUSH2 0x222A DUP5 DUP5 DUP5 DUP5 PUSH2 0x3936 JUMP JUMPDEST POP POP POP POP JUMP JUMPDEST PUSH2 0x2238 PUSH2 0x2CB4 JUMP JUMPDEST PUSH20 0xFFFFFFFFFFFFFFFFFFFFFFFFFFFFFFFFFFFFFFFF AND PUSH2 0x2256 PUSH2 0x1E78 JUMP JUMPDEST PUSH20 0xFFFFFFFFFFFFFFFFFFFFFFFFFFFFFFFFFFFFFFFF AND EQ PUSH2 0x22AC JUMPI PUSH1 0x40 MLOAD PUSH32 0x8C379A000000000000000000000000000000000000000000000000000000000 DUP2 MSTORE PUSH1 0x4 ADD PUSH2 0x22A3 SWAP1 PUSH2 0x5638 JUMP JUMPDEST PUSH1 0x40 MLOAD DUP1 SWAP2 SUB SWAP1 REVERT JUMPDEST DUP1 PUSH1 0x17 SWAP1 DUP2 PUSH2 0x22BB SWAP2 SWAP1 PUSH2 0x64B6 JUMP JUMPDEST POP POP JUMP JUMPDEST PUSH1 0x14 PUSH1 0x15 SWAP1 SLOAD SWAP1 PUSH2 0x100 EXP SWAP1 DIV PUSH1 0xFF AND DUP2 JUMP JUMPDEST PUSH1 0x0 PUSH32 0x8CAD95687BA82C2CE50E74F7B754645E5117C3A5BEC8151C0726D5857980A866 PUSH2 0x22FD PUSH2 0xBB9 JUMP JUMPDEST DUP1 MLOAD SWAP1 PUSH1 0x20 ADD KECCAK256 PUSH2 0x230C PUSH2 0x3992 JUMP JUMPDEST ADDRESS PUSH1 0x40 MLOAD PUSH1 0x20 ADD PUSH2 0x2320 SWAP5 SWAP4 SWAP3 SWAP2 SWAP1 PUSH2 0x6588 JUMP JUMPDEST PUSH1 0x40 MLOAD PUSH1 0x20 DUP2 DUP4 SUB SUB DUP2 MSTORE SWAP1 PUSH1 0x40 MSTORE DUP1 MLOAD SWAP1 PUSH1 0x20 ADD KECCAK256 SWAP1 POP PUSH1 0x0 PUSH32 0xE48329057BFD03D55E49B547132E39CFFD9C1820AD7B9D4C5307691425D15ADF DUP9 DUP9 DUP9 PUSH1 0x40 MLOAD PUSH1 0x20 ADD PUSH2 0x2371 SWAP5 SWAP4 SWAP3 SWAP2 SWAP1 PUSH2 0x65CD JUMP JUMPDEST PUSH1 0x40 MLOAD PUSH1 0x20 DUP2 DUP4 SUB SUB DUP2 MSTORE SWAP1 PUSH1 0x40 MSTORE DUP1 MLOAD SWAP1 PUSH1 0x20 ADD KECCAK256 SWAP1 POP PUSH1 0x0 DUP3 DUP3 PUSH1 0x40 MLOAD PUSH1 0x20 ADD PUSH2 0x239E SWAP3 SWAP2 SWAP1 PUSH2 0x668A JUMP JUMPDEST PUSH1 0x40 MLOAD PUSH1 0x20 DUP2 DUP4 SUB SUB DUP2 MSTORE SWAP1 PUSH1 0x40 MSTORE DUP1 MLOAD SWAP1 PUSH1 0x20 ADD KECCAK256 SWAP1 POP PUSH1 0x0 PUSH1 0x1 DUP3 DUP9 DUP9 DUP9 PUSH1 0x40 MLOAD PUSH1 0x0 DUP2 MSTORE PUSH1 0x20 ADD PUSH1 0x40 MSTORE PUSH1 0x40 MLOAD PUSH2 0x23DB SWAP5 SWAP4 SWAP3 SWAP2 SWAP1 PUSH2 0x66C1 JUMP JUMPDEST PUSH1 0x20 PUSH1 0x40 MLOAD PUSH1 0x20 DUP2 SUB SWAP1 DUP1 DUP5 SUB SWAP1 DUP6 GAS STATICCALL ISZERO DUP1 ISZERO PUSH2 0x23FD JUMPI RETURNDATASIZE PUSH1 0x0 DUP1 RETURNDATACOPY RETURNDATASIZE PUSH1 0x0 REVERT JUMPDEST POP POP POP PUSH1 0x20 PUSH1 0x40 MLOAD SUB MLOAD SWAP1 POP PUSH1 0x0 PUSH20 0xFFFFFFFFFFFFFFFFFFFFFFFFFFFFFFFFFFFFFFFF AND DUP2 PUSH20 0xFFFFFFFFFFFFFFFFFFFFFFFFFFFFFFFFFFFFFFFF AND SUB PUSH2 0x2478 JUMPI PUSH1 0x40 MLOAD PUSH32 0x8C379A000000000000000000000000000000000000000000000000000000000 DUP2 MSTORE PUSH1 0x4 ADD PUSH2 0x246F SWAP1 PUSH2 0x6778 JUMP JUMPDEST PUSH1 0x40 MLOAD DUP1 SWAP2 SUB SWAP1 REVERT JUMPDEST PUSH1 0xE PUSH1 0x0 DUP3 PUSH20 0xFFFFFFFFFFFFFFFFFFFFFFFFFFFFFFFFFFFFFFFF AND PUSH20 0xFFFFFFFFFFFFFFFFFFFFFFFFFFFFFFFFFFFFFFFF AND DUP2 MSTORE PUSH1 0x20 ADD SWAP1 DUP2 MSTORE PUSH1 0x20 ADD PUSH1 0x0 KECCAK256 PUSH1 0x0 DUP2 SLOAD DUP1 SWAP3 SWAP2 SWAP1 PUSH2 0x24C8 SWAP1 PUSH2 0x59D5 JUMP JUMPDEST SWAP2 SWAP1 POP SSTORE DUP10 EQ PUSH2 0x250D JUMPI PUSH1 0x40 MLOAD PUSH32 0x8C379A000000000000000000000000000000000000000000000000000000000 DUP2 MSTORE PUSH1 0x4 ADD PUSH2 0x2504 SWAP1 PUSH2 0x680A JUMP JUMPDEST PUSH1 0x40 MLOAD DUP1 SWAP2 SUB SWAP1 REVERT JUMPDEST DUP8 TIMESTAMP GT ISZERO PUSH2 0x2550 JUMPI PUSH1 0x40 MLOAD PUSH32 0x8C379A000000000000000000000000000000000000000000000000000000000 DUP2 MSTORE PUSH1 0x4 ADD PUSH2 0x2547 SWAP1 PUSH2 0x689C JUMP JUMPDEST PUSH1 0x40 MLOAD DUP1 SWAP2 SUB SWAP1 REVERT JUMPDEST PUSH2 0x255A DUP2 DUP12 PUSH2 0x3758 JUMP JUMPDEST POP POP POP POP POP POP POP POP POP POP JUMP JUMPDEST PUSH1 0x60 PUSH2 0x2571 DUP3 PUSH2 0x2D9E JUMP JUMPDEST PUSH2 0x25B0 JUMPI PUSH1 0x40 MLOAD PUSH32 0x8C379A000000000000000000000000000000000000000000000000000000000 DUP2 MSTORE PUSH1 0x4 ADD PUSH2 0x25A7 SWAP1 PUSH2 0x5CE0 JUMP JUMPDEST PUSH1 0x40 MLOAD DUP1 SWAP2 SUB SWAP1 REVERT JUMPDEST PUSH1 0x13 PUSH1 0x0 SWAP1 SLOAD SWAP1 PUSH2 0x100 EXP SWAP1 DIV PUSH20 0xFFFFFFFFFFFFFFFFFFFFFFFFFFFFFFFFFFFFFFFF AND PUSH20 0xFFFFFFFFFFFFFFFFFFFFFFFFFFFFFFFFFFFFFFFF AND PUSH4 0x5A78BA35 DUP4 PUSH1 0x15 PUSH1 0x0 DUP7 DUP2 MSTORE PUSH1 0x20 ADD SWAP1 DUP2 MSTORE PUSH1 0x20 ADD PUSH1 0x0 KECCAK256 PUSH1 0x40 MLOAD DUP4 PUSH4 0xFFFFFFFF AND PUSH1 0xE0 SHL DUP2 MSTORE PUSH1 0x4 ADD PUSH2 0x261F SWAP3 SWAP2 SWAP1 PUSH2 0x5ECE JUMP JUMPDEST PUSH1 0x0 PUSH1 0x40 MLOAD DUP1 DUP4 SUB DUP2 DUP7 GAS STATICCALL ISZERO DUP1 ISZERO PUSH2 0x263C JUMPI RETURNDATASIZE PUSH1 0x0 DUP1 RETURNDATACOPY RETURNDATASIZE PUSH1 0x0 REVERT JUMPDEST POP POP POP POP PUSH1 0x40 MLOAD RETURNDATASIZE PUSH1 0x0 DUP3 RETURNDATACOPY RETURNDATASIZE PUSH1 0x1F NOT PUSH1 0x1F DUP3 ADD AND DUP3 ADD DUP1 PUSH1 0x40 MSTORE POP DUP2 ADD SWAP1 PUSH2 0x2665 SWAP2 SWAP1 PUSH2 0x5F68 JUMP JUMPDEST SWAP1 POP SWAP2 SWAP1 POP JUMP JUMPDEST PUSH2 0x2674 PUSH2 0x2CB4 JUMP JUMPDEST PUSH20 0xFFFFFFFFFFFFFFFFFFFFFFFFFFFFFFFFFFFFFFFF AND PUSH2 0x2692 PUSH2 0x1E78 JUMP JUMPDEST PUSH20 0xFFFFFFFFFFFFFFFFFFFFFFFFFFFFFFFFFFFFFFFF AND EQ PUSH2 0x26E8 JUMPI PUSH1 0x40 MLOAD PUSH32 0x8C379A000000000000000000000000000000000000000000000000000000000 DUP2 MSTORE PUSH1 0x4 ADD PUSH2 0x26DF SWAP1 PUSH2 0x5638 JUMP JUMPDEST PUSH1 0x40 MLOAD DUP1 SWAP2 SUB SWAP1 REVERT JUMPDEST PUSH1 0x14 PUSH1 0x16 SWAP1 SLOAD SWAP1 PUSH2 0x100 EXP SWAP1 DIV PUSH1 0xFF AND ISZERO PUSH2 0x2738 JUMPI PUSH1 0x40 MLOAD PUSH32 0x8C379A000000000000000000000000000000000000000000000000000000000 DUP2 MSTORE PUSH1 0x4 ADD PUSH2 0x272F SWAP1 PUSH2 0x5FFD JUMP JUMPDEST PUSH1 0x40 MLOAD DUP1 SWAP2 SUB SWAP1 REVERT JUMPDEST DUP1 PUSH1 0x14 PUSH1 0x0 PUSH2 0x100 EXP DUP2 SLOAD DUP2 PUSH20 0xFFFFFFFFFFFFFFFFFFFFFFFFFFFFFFFFFFFFFFFF MUL NOT AND SWAP1 DUP4 PUSH20 0xFFFFFFFFFFFFFFFFFFFFFFFFFFFFFFFFFFFFFFFF AND MUL OR SWAP1 SSTORE POP PUSH32 0xB3025222D01CE9A26C7F9D52BC3BFD0352366BD90A793C273FBFE1C81E0E288E DUP2 PUSH1 0x40 MLOAD PUSH2 0x27A8 SWAP2 SWAP1 PUSH2 0x4F38 JUMP JUMPDEST PUSH1 0x40 MLOAD DUP1 SWAP2 SUB SWAP1 LOG1 POP JUMP JUMPDEST PUSH32 0xE48329057BFD03D55E49B547132E39CFFD9C1820AD7B9D4C5307691425D15ADF DUP2 JUMP JUMPDEST PUSH1 0x60 PUSH1 0x17 PUSH1 0x40 MLOAD PUSH1 0x20 ADD PUSH2 0x27EB SWAP2 SWAP1 PUSH2 0x698B JUMP JUMPDEST PUSH1 0x40 MLOAD PUSH1 0x20 DUP2 DUP4 SUB SUB DUP2 MSTORE SWAP1 PUSH1 0x40 MSTORE SWAP1 POP SWAP1 JUMP JUMPDEST PUSH1 0x0 PUSH2 0x282B PUSH2 0x280D DUP4 PUSH2 0x17D6 JUMP JUMPDEST PUSH1 0x40 MLOAD DUP1 PUSH1 0x60 ADD PUSH1 0x40 MSTORE DUP1 PUSH1 0x3D DUP2 MSTORE PUSH1 0x20 ADD PUSH2 0x72E3 PUSH1 0x3D SWAP2 CODECOPY PUSH2 0x399F JUMP JUMPDEST SWAP1 POP SWAP2 SWAP1 POP JUMP JUMPDEST PUSH1 0x0 DUP2 PUSH20 0xFFFFFFFFFFFFFFFFFFFFFFFFFFFFFFFFFFFFFFFF AND PUSH32 0x0 PUSH20 0xFFFFFFFFFFFFFFFFFFFFFFFFFFFFFFFFFFFFFFFF AND PUSH4 0xC4552791 DUP6 PUSH1 0x40 MLOAD DUP3 PUSH4 0xFFFFFFFF AND PUSH1 0xE0 SHL DUP2 MSTORE PUSH1 0x4 ADD PUSH2 0x28A4 SWAP2 SWAP1 PUSH2 0x4C9E JUMP JUMPDEST PUSH1 0x20 PUSH1 0x40 MLOAD DUP1 DUP4 SUB DUP2 DUP7 GAS STATICCALL ISZERO DUP1 ISZERO PUSH2 0x28C1 JUMPI RETURNDATASIZE PUSH1 0x0 DUP1 RETURNDATACOPY RETURNDATASIZE PUSH1 0x0 REVERT JUMPDEST POP POP POP POP PUSH1 0x40 MLOAD RETURNDATASIZE PUSH1 0x1F NOT PUSH1 0x1F DUP3 ADD AND DUP3 ADD DUP1 PUSH1 0x40 MSTORE POP DUP2 ADD SWAP1 PUSH2 0x28E5 SWAP2 SWAP1 PUSH2 0x69C2 JUMP JUMPDEST PUSH20 0xFFFFFFFFFFFFFFFFFFFFFFFFFFFFFFFFFFFFFFFF AND SUB PUSH2 0x2909 JUMPI PUSH1 0x1 SWAP1 POP PUSH2 0x2916 JUMP JUMPDEST PUSH2 0x2913 DUP4 DUP4 PUSH2 0x39FD JUMP JUMPDEST SWAP1 POP JUMPDEST SWAP3 SWAP2 POP POP JUMP JUMPDEST PUSH1 0x15 PUSH1 0x20 MSTORE DUP1 PUSH1 0x0 MSTORE PUSH1 0x40 PUSH1 0x0 KECCAK256 PUSH1 0x0 SWAP2 POP SWAP1 POP DUP1 PUSH1 0x0 ADD PUSH1 0x0 SWAP1 SLOAD SWAP1 PUSH2 0x100 EXP SWAP1 DIV PUSH6 0xFFFFFFFFFFFF AND SWAP1 DUP1 PUSH1 0x0 ADD PUSH1 0x6 SWAP1 SLOAD SWAP1 PUSH2 0x100 EXP SWAP1 DIV PUSH6 0xFFFFFFFFFFFF AND SWAP1 DUP1 PUSH1 0x0 ADD PUSH1 0xC SWAP1 SLOAD SWAP1 PUSH2 0x100 EXP SWAP1 DIV PUSH6 0xFFFFFFFFFFFF AND SWAP1 DUP1 PUSH1 0x0 ADD PUSH1 0x12 SWAP1 SLOAD SWAP1 PUSH2 0x100 EXP SWAP1 DIV PUSH6 0xFFFFFFFFFFFF AND SWAP1 DUP1 PUSH1 0x0 ADD PUSH1 0x18 SWAP1 SLOAD SWAP1 PUSH2 0x100 EXP SWAP1 DIV PUSH6 0xFFFFFFFFFFFF AND SWAP1 DUP1 PUSH1 0x1 ADD PUSH1 0x0 SWAP1 SLOAD SWAP1 PUSH2 0x100 EXP SWAP1 DIV PUSH6 0xFFFFFFFFFFFF AND SWAP1 DUP1 PUSH1 0x1 ADD PUSH1 0x6 SWAP1 SLOAD SWAP1 PUSH2 0x100 EXP SWAP1 DIV PUSH6 0xFFFFFFFFFFFF AND SWAP1 DUP1 PUSH1 0x1 ADD PUSH1 0xC SWAP1 SLOAD SWAP1 PUSH2 0x100 EXP SWAP1 DIV PUSH6 0xFFFFFFFFFFFF AND SWAP1 DUP1 PUSH1 0x1 ADD PUSH1 0x12 SWAP1 SLOAD SWAP1 PUSH2 0x100 EXP SWAP1 DIV PUSH6 0xFFFFFFFFFFFF AND SWAP1 POP DUP10 JUMP JUMPDEST PUSH1 0xC PUSH1 0x20 MSTORE DUP2 PUSH1 0x0 MSTORE PUSH1 0x40 PUSH1 0x0 KECCAK256 PUSH1 0x20 MSTORE DUP1 PUSH1 0x0 MSTORE PUSH1 0x40 PUSH1 0x0 KECCAK256 PUSH1 0x0 SWAP2 POP SWAP2 POP POP DUP1 PUSH1 0x0 ADD PUSH1 0x0 SWAP1 SLOAD SWAP1 PUSH2 0x100 EXP SWAP1 DIV PUSH4 0xFFFFFFFF AND SWAP1 DUP1 PUSH1 0x0 ADD PUSH1 0x4 SWAP1 SLOAD SWAP1 PUSH2 0x100 EXP SWAP1 DIV PUSH12 0xFFFFFFFFFFFFFFFFFFFFFFFF AND SWAP1 POP DUP3 JUMP JUMPDEST PUSH1 0x14 PUSH1 0x16 SWAP1 SLOAD SWAP1 PUSH2 0x100 EXP SWAP1 DIV PUSH1 0xFF AND DUP2 JUMP JUMPDEST PUSH2 0x2A80 PUSH2 0x2CB4 JUMP JUMPDEST PUSH20 0xFFFFFFFFFFFFFFFFFFFFFFFFFFFFFFFFFFFFFFFF AND PUSH2 0x2A9E PUSH2 0x1E78 JUMP JUMPDEST PUSH20 0xFFFFFFFFFFFFFFFFFFFFFFFFFFFFFFFFFFFFFFFF AND EQ PUSH2 0x2AF4 JUMPI PUSH1 0x40 MLOAD PUSH32 0x8C379A000000000000000000000000000000000000000000000000000000000 DUP2 MSTORE PUSH1 0x4 ADD PUSH2 0x2AEB SWAP1 PUSH2 0x5638 JUMP JUMPDEST PUSH1 0x40 MLOAD DUP1 SWAP2 SUB SWAP1 REVERT JUMPDEST PUSH1 0x0 PUSH20 0xFFFFFFFFFFFFFFFFFFFFFFFFFFFFFFFFFFFFFFFF AND DUP2 PUSH20 0xFFFFFFFFFFFFFFFFFFFFFFFFFFFFFFFFFFFFFFFF AND SUB PUSH2 0x2B63 JUMPI PUSH1 0x40 MLOAD PUSH32 0x8C379A000000000000000000000000000000000000000000000000000000000 DUP2 MSTORE PUSH1 0x4 ADD PUSH2 0x2B5A SWAP1 PUSH2 0x6A61 JUMP JUMPDEST PUSH1 0x40 MLOAD DUP1 SWAP2 SUB SWAP1 REVERT JUMPDEST PUSH2 0x2B6C DUP2 PUSH2 0x3872 JUMP JUMPDEST POP JUMP JUMPDEST PUSH2 0x2B77 PUSH2 0x2CB4 JUMP JUMPDEST PUSH20 0xFFFFFFFFFFFFFFFFFFFFFFFFFFFFFFFFFFFFFFFF AND PUSH2 0x2B95 PUSH2 0x1E78 JUMP JUMPDEST PUSH20 0xFFFFFFFFFFFFFFFFFFFFFFFFFFFFFFFFFFFFFFFF AND EQ PUSH2 0x2BEB JUMPI PUSH1 0x40 MLOAD PUSH32 0x8C379A000000000000000000000000000000000000000000000000000000000 DUP2 MSTORE PUSH1 0x4 ADD PUSH2 0x2BE2 SWAP1 PUSH2 0x5638 JUMP JUMPDEST PUSH1 0x40 MLOAD DUP1 SWAP2 SUB SWAP1 REVERT JUMPDEST PUSH1 0x14 DUP1 SLOAD SWAP1 PUSH2 0x100 EXP SWAP1 DIV PUSH1 0xFF AND ISZERO PUSH2 0x2C39 JUMPI PUSH1 0x40 MLOAD PUSH32 0x8C379A000000000000000000000000000000000000000000000000000000000 DUP2 MSTORE PUSH1 0x4 ADD PUSH2 0x2C30 SWAP1 PUSH2 0x618D JUMP JUMPDEST PUSH1 0x40 MLOAD DUP1 SWAP2 SUB SWAP1 REVERT JUMPDEST DUP1 PUSH1 0x10 PUSH1 0x0 PUSH2 0x100 EXP DUP2 SLOAD DUP2 PUSH20 0xFFFFFFFFFFFFFFFFFFFFFFFFFFFFFFFFFFFFFFFF MUL NOT AND SWAP1 DUP4 PUSH20 0xFFFFFFFFFFFFFFFFFFFFFFFFFFFFFFFFFFFFFFFF AND MUL OR SWAP1 SSTORE POP PUSH32 0xAD0F299EC81A386C98DF0AC27DAE11DD020ED1B56963C53A7292E7A3A314539A DUP2 PUSH1 0x40 MLOAD PUSH2 0x2CA9 SWAP2 SWAP1 PUSH2 0x4C9E JUMP JUMPDEST PUSH1 0x40 MLOAD DUP1 SWAP2 SUB SWAP1 LOG1 POP JUMP JUMPDEST PUSH1 0x0 CALLER SWAP1 POP SWAP1 JUMP JUMPDEST PUSH1 0x0 PUSH32 0x80AC58CD00000000000000000000000000000000000000000000000000000000 PUSH28 0xFFFFFFFFFFFFFFFFFFFFFFFFFFFFFFFFFFFFFFFFFFFFFFFFFFFFFFFF NOT AND DUP3 PUSH28 0xFFFFFFFFFFFFFFFFFFFFFFFFFFFFFFFFFFFFFFFFFFFFFFFFFFFFFFFF NOT AND EQ DUP1 PUSH2 0x2D87 JUMPI POP PUSH32 0x5B5E139F00000000000000000000000000000000000000000000000000000000 PUSH28 0xFFFFFFFFFFFFFFFFFFFFFFFFFFFFFFFFFFFFFFFFFFFFFFFFFFFFFFFF NOT AND DUP3 PUSH28 0xFFFFFFFFFFFFFFFFFFFFFFFFFFFFFFFFFFFFFFFFFFFFFFFFFFFFFFFF NOT AND EQ JUMPDEST DUP1 PUSH2 0x2D97 JUMPI POP PUSH2 0x2D96 DUP3 PUSH2 0x3A91 JUMP JUMPDEST JUMPDEST SWAP1 POP SWAP2 SWAP1 POP JUMP JUMPDEST PUSH1 0x0 DUP1 PUSH20 0xFFFFFFFFFFFFFFFFFFFFFFFFFFFFFFFFFFFFFFFF AND PUSH1 0x3 PUSH1 0x0 DUP5 DUP2 MSTORE PUSH1 0x20 ADD SWAP1 DUP2 MSTORE PUSH1 0x20 ADD PUSH1 0x0 KECCAK256 PUSH1 0x0 SWAP1 SLOAD SWAP1 PUSH2 0x100 EXP SWAP1 DIV PUSH20 0xFFFFFFFFFFFFFFFFFFFFFFFFFFFFFFFFFFFFFFFF AND PUSH20 0xFFFFFFFFFFFFFFFFFFFFFFFFFFFFFFFFFFFFFFFF AND EQ ISZERO SWAP1 POP SWAP2 SWAP1 POP JUMP JUMPDEST DUP2 PUSH1 0x5 PUSH1 0x0 DUP4 DUP2 MSTORE PUSH1 0x20 ADD SWAP1 DUP2 MSTORE PUSH1 0x20 ADD PUSH1 0x0 KECCAK256 PUSH1 0x0 PUSH2 0x100 EXP DUP2 SLOAD DUP2 PUSH20 0xFFFFFFFFFFFFFFFFFFFFFFFFFFFFFFFFFFFFFFFF MUL NOT AND SWAP1 DUP4 PUSH20 0xFFFFFFFFFFFFFFFFFFFFFFFFFFFFFFFFFFFFFFFF AND MUL OR SWAP1 SSTORE POP DUP1 DUP3 PUSH20 0xFFFFFFFFFFFFFFFFFFFFFFFFFFFFFFFFFFFFFFFF AND PUSH2 0x2E7D DUP4 PUSH2 0x16DC JUMP JUMPDEST PUSH20 0xFFFFFFFFFFFFFFFFFFFFFFFFFFFFFFFFFFFFFFFF AND PUSH32 0x8C5BE1E5EBEC7D5BD14F71427D1E84F3DD0314C0F7B2291E5B200AC8C7C3B925 PUSH1 0x40 MLOAD PUSH1 0x40 MLOAD DUP1 SWAP2 SUB SWAP1 LOG4 POP POP JUMP JUMPDEST PUSH1 0x0 DUP1 PUSH1 0x14 PUSH1 0x0 SWAP1 SLOAD SWAP1 PUSH2 0x100 EXP SWAP1 DIV PUSH20 0xFFFFFFFFFFFFFFFFFFFFFFFFFFFFFFFFFFFFFFFF AND PUSH20 0xFFFFFFFFFFFFFFFFFFFFFFFFFFFFFFFFFFFFFFFF AND PUSH4 0x422E2E99 DUP5 PUSH1 0x13 PUSH1 0x0 SWAP1 SLOAD SWAP1 PUSH2 0x100 EXP SWAP1 DIV PUSH20 0xFFFFFFFFFFFFFFFFFFFFFFFFFFFFFFFFFFFFFFFF AND PUSH1 0x40 MLOAD DUP4 PUSH4 0xFFFFFFFF AND PUSH1 0xE0 SHL DUP2 MSTORE PUSH1 0x4 ADD PUSH2 0x2F45 SWAP3 SWAP2 SWAP1 PUSH2 0x6A81 JUMP JUMPDEST PUSH2 0x120 PUSH1 0x40 MLOAD DUP1 DUP4 SUB DUP2 DUP7 GAS STATICCALL ISZERO DUP1 ISZERO PUSH2 0x2F63 JUMPI RETURNDATASIZE PUSH1 0x0 DUP1 RETURNDATACOPY RETURNDATASIZE PUSH1 0x0 REVERT JUMPDEST POP POP POP POP PUSH1 0x40 MLOAD RETURNDATASIZE PUSH1 0x1F NOT PUSH1 0x1F DUP3 ADD AND DUP3 ADD DUP1 PUSH1 0x40 MSTORE POP DUP2 ADD SWAP1 PUSH2 0x2F87 SWAP2 SWAP1 PUSH2 0x6BBB JUMP JUMPDEST PUSH1 0x15 PUSH1 0x0 DUP6 DUP2 MSTORE PUSH1 0x20 ADD SWAP1 DUP2 MSTORE PUSH1 0x20 ADD PUSH1 0x0 KECCAK256 PUSH1 0x0 DUP3 ADD MLOAD DUP2 PUSH1 0x0 ADD PUSH1 0x0 PUSH2 0x100 EXP DUP2 SLOAD DUP2 PUSH6 0xFFFFFFFFFFFF MUL NOT AND SWAP1 DUP4 PUSH6 0xFFFFFFFFFFFF AND MUL OR SWAP1 SSTORE POP PUSH1 0x20 DUP3 ADD MLOAD DUP2 PUSH1 0x0 ADD PUSH1 0x6 PUSH2 0x100 EXP DUP2 SLOAD DUP2 PUSH6 0xFFFFFFFFFFFF MUL NOT AND SWAP1 DUP4 PUSH6 0xFFFFFFFFFFFF AND MUL OR SWAP1 SSTORE POP PUSH1 0x40 DUP3 ADD MLOAD DUP2 PUSH1 0x0 ADD PUSH1 0xC PUSH2 0x100 EXP DUP2 SLOAD DUP2 PUSH6 0xFFFFFFFFFFFF MUL NOT AND SWAP1 DUP4 PUSH6 0xFFFFFFFFFFFF AND MUL OR SWAP1 SSTORE POP PUSH1 0x60 DUP3 ADD MLOAD DUP2 PUSH1 0x0 ADD PUSH1 0x12 PUSH2 0x100 EXP DUP2 SLOAD DUP2 PUSH6 0xFFFFFFFFFFFF MUL NOT AND SWAP1 DUP4 PUSH6 0xFFFFFFFFFFFF AND MUL OR SWAP1 SSTORE POP PUSH1 0x80 DUP3 ADD MLOAD DUP2 PUSH1 0x0 ADD PUSH1 0x18 PUSH2 0x100 EXP DUP2 SLOAD DUP2 PUSH6 0xFFFFFFFFFFFF MUL NOT AND SWAP1 DUP4 PUSH6 0xFFFFFFFFFFFF AND MUL OR SWAP1 SSTORE POP PUSH1 0xA0 DUP3 ADD MLOAD DUP2 PUSH1 0x1 ADD PUSH1 0x0 PUSH2 0x100 EXP DUP2 SLOAD DUP2 PUSH6 0xFFFFFFFFFFFF MUL NOT AND SWAP1 DUP4 PUSH6 0xFFFFFFFFFFFF AND MUL OR SWAP1 SSTORE POP PUSH1 0xC0 DUP3 ADD MLOAD DUP2 PUSH1 0x1 ADD PUSH1 0x6 PUSH2 0x100 EXP DUP2 SLOAD DUP2 PUSH6 0xFFFFFFFFFFFF MUL NOT AND SWAP1 DUP4 PUSH6 0xFFFFFFFFFFFF AND MUL OR SWAP1 SSTORE POP PUSH1 0xE0 DUP3 ADD MLOAD DUP2 PUSH1 0x1 ADD PUSH1 0xC PUSH2 0x100 EXP DUP2 SLOAD DUP2 PUSH6 0xFFFFFFFFFFFF MUL NOT AND SWAP1 DUP4 PUSH6 0xFFFFFFFFFFFF AND MUL OR SWAP1 SSTORE POP PUSH2 0x100 DUP3 ADD MLOAD DUP2 PUSH1 0x1 ADD PUSH1 0x12 PUSH2 0x100 EXP DUP2 SLOAD DUP2 PUSH6 0xFFFFFFFFFFFF MUL NOT AND SWAP1 DUP4 PUSH6 0xFFFFFFFFFFFF AND MUL OR SWAP1 SSTORE POP SWAP1 POP PUSH1 0x40 MLOAD DUP1 PUSH2 0x120 ADD PUSH1 0x40 MSTORE SWAP1 DUP2 PUSH1 0x0 DUP3 ADD PUSH1 0x0 SWAP1 SLOAD SWAP1 PUSH2 0x100 EXP SWAP1 DIV PUSH6 0xFFFFFFFFFFFF AND PUSH6 0xFFFFFFFFFFFF AND PUSH6 0xFFFFFFFFFFFF AND DUP2 MSTORE PUSH1 0x20 ADD PUSH1 0x0 DUP3 ADD PUSH1 0x6 SWAP1 SLOAD SWAP1 PUSH2 0x100 EXP SWAP1 DIV PUSH6 0xFFFFFFFFFFFF AND PUSH6 0xFFFFFFFFFFFF AND PUSH6 0xFFFFFFFFFFFF AND DUP2 MSTORE PUSH1 0x20 ADD PUSH1 0x0 DUP3 ADD PUSH1 0xC SWAP1 SLOAD SWAP1 PUSH2 0x100 EXP SWAP1 DIV PUSH6 0xFFFFFFFFFFFF AND PUSH6 0xFFFFFFFFFFFF AND PUSH6 0xFFFFFFFFFFFF AND DUP2 MSTORE PUSH1 0x20 ADD PUSH1 0x0 DUP3 ADD PUSH1 0x12 SWAP1 SLOAD SWAP1 PUSH2 0x100 EXP SWAP1 DIV PUSH6 0xFFFFFFFFFFFF AND PUSH6 0xFFFFFFFFFFFF AND PUSH6 0xFFFFFFFFFFFF AND DUP2 MSTORE PUSH1 0x20 ADD PUSH1 0x0 DUP3 ADD PUSH1 0x18 SWAP1 SLOAD SWAP1 PUSH2 0x100 EXP SWAP1 DIV PUSH6 0xFFFFFFFFFFFF AND PUSH6 0xFFFFFFFFFFFF AND PUSH6 0xFFFFFFFFFFFF AND DUP2 MSTORE PUSH1 0x20 ADD PUSH1 0x1 DUP3 ADD PUSH1 0x0 SWAP1 SLOAD SWAP1 PUSH2 0x100 EXP SWAP1 DIV PUSH6 0xFFFFFFFFFFFF AND PUSH6 0xFFFFFFFFFFFF AND PUSH6 0xFFFFFFFFFFFF AND DUP2 MSTORE PUSH1 0x20 ADD PUSH1 0x1 DUP3 ADD PUSH1 0x6 SWAP1 SLOAD SWAP1 PUSH2 0x100 EXP SWAP1 DIV PUSH6 0xFFFFFFFFFFFF AND PUSH6 0xFFFFFFFFFFFF AND PUSH6 0xFFFFFFFFFFFF AND DUP2 MSTORE PUSH1 0x20 ADD PUSH1 0x1 DUP3 ADD PUSH1 0xC SWAP1 SLOAD SWAP1 PUSH2 0x100 EXP SWAP1 DIV PUSH6 0xFFFFFFFFFFFF AND PUSH6 0xFFFFFFFFFFFF AND PUSH6 0xFFFFFFFFFFFF AND DUP2 MSTORE PUSH1 0x20 ADD PUSH1 0x1 DUP3 ADD PUSH1 0x12 SWAP1 SLOAD SWAP1 PUSH2 0x100 EXP SWAP1 DIV PUSH6 0xFFFFFFFFFFFF AND PUSH6 0xFFFFFFFFFFFF AND PUSH6 0xFFFFFFFFFFFF AND DUP2 MSTORE POP POP SWAP1 POP PUSH2 0x32CC PUSH2 0x32C5 PUSH2 0x1E78 JUMP JUMPDEST DUP6 DUP6 PUSH2 0x3AFB JUMP JUMPDEST DUP3 PUSH32 0x5C92E5F02C729F34F824E1DBA1BF071AE954F2B405CBB313215BCF7AF7593628 DUP3 PUSH1 0x40 MLOAD PUSH2 0x32FC SWAP2 SWAP1 PUSH2 0x6CA0 JUMP JUMPDEST PUSH1 0x40 MLOAD DUP1 SWAP2 SUB SWAP1 LOG2 DUP3 SWAP2 POP POP SWAP3 SWAP2 POP POP JUMP JUMPDEST PUSH1 0x0 PUSH2 0x3319 DUP3 PUSH2 0x2D9E JUMP JUMPDEST PUSH2 0x3358 JUMPI PUSH1 0x40 MLOAD PUSH32 0x8C379A000000000000000000000000000000000000000000000000000000000 DUP2 MSTORE PUSH1 0x4 ADD PUSH2 0x334F SWAP1 PUSH2 0x6D2E JUMP JUMPDEST PUSH1 0x40 MLOAD DUP1 SWAP2 SUB SWAP1 REVERT JUMPDEST PUSH1 0x0 PUSH2 0x3363 DUP4 PUSH2 0x16DC JUMP JUMPDEST SWAP1 POP DUP1 PUSH20 0xFFFFFFFFFFFFFFFFFFFFFFFFFFFFFFFFFFFFFFFF AND DUP5 PUSH20 0xFFFFFFFFFFFFFFFFFFFFFFFFFFFFFFFFFFFFFFFF AND EQ DUP1 PUSH2 0x33D2 JUMPI POP DUP4 PUSH20 0xFFFFFFFFFFFFFFFFFFFFFFFFFFFFFFFFFFFFFFFF AND PUSH2 0x33BA DUP5 PUSH2 0xC71 JUMP JUMPDEST PUSH20 0xFFFFFFFFFFFFFFFFFFFFFFFFFFFFFFFFFFFFFFFF AND EQ JUMPDEST DUP1 PUSH2 0x33E3 JUMPI POP PUSH2 0x33E2 DUP2 DUP6 PUSH2 0x2832 JUMP JUMPDEST JUMPDEST SWAP2 POP POP SWAP3 SWAP2 POP POP JUMP JUMPDEST DUP3 PUSH20 0xFFFFFFFFFFFFFFFFFFFFFFFFFFFFFFFFFFFFFFFF AND PUSH2 0x340C DUP3 PUSH2 0x16DC JUMP JUMPDEST PUSH20 0xFFFFFFFFFFFFFFFFFFFFFFFFFFFFFFFFFFFFFFFF AND EQ PUSH2 0x3462 JUMPI PUSH1 0x40 MLOAD PUSH32 0x8C379A000000000000000000000000000000000000000000000000000000000 DUP2 MSTORE PUSH1 0x4 ADD PUSH2 0x3459 SWAP1 PUSH2 0x6DC0 JUMP JUMPDEST PUSH1 0x40 MLOAD DUP1 SWAP2 SUB SWAP1 REVERT JUMPDEST PUSH1 0x0 PUSH20 0xFFFFFFFFFFFFFFFFFFFFFFFFFFFFFFFFFFFFFFFF AND DUP3 PUSH20 0xFFFFFFFFFFFFFFFFFFFFFFFFFFFFFFFFFFFFFFFF AND SUB PUSH2 0x34D1 JUMPI PUSH1 0x40 MLOAD PUSH32 0x8C379A000000000000000000000000000000000000000000000000000000000 DUP2 MSTORE PUSH1 0x4 ADD PUSH2 0x34C8 SWAP1 PUSH2 0x6E52 JUMP JUMPDEST PUSH1 0x40 MLOAD DUP1 SWAP2 SUB SWAP1 REVERT JUMPDEST PUSH2 0x34DC DUP4 DUP4 DUP4 PUSH2 0x3D24 JUMP JUMPDEST PUSH2 0x34E7 PUSH1 0x0 DUP3 PUSH2 0x2E0A JUMP JUMPDEST PUSH1 0x1 PUSH1 0x4 PUSH1 0x0 DUP6 PUSH20 0xFFFFFFFFFFFFFFFFFFFFFFFFFFFFFFFFFFFFFFFF AND PUSH20 0xFFFFFFFFFFFFFFFFFFFFFFFFFFFFFFFFFFFFFFFF AND DUP2 MSTORE PUSH1 0x20 ADD SWAP1 DUP2 MSTORE PUSH1 0x20 ADD PUSH1 0x0 KECCAK256 PUSH1 0x0 DUP3 DUP3 SLOAD PUSH2 0x3537 SWAP2 SWAP1 PUSH2 0x6E72 JUMP JUMPDEST SWAP3 POP POP DUP2 SWAP1 SSTORE POP PUSH1 0x1 PUSH1 0x4 PUSH1 0x0 DUP5 PUSH20 0xFFFFFFFFFFFFFFFFFFFFFFFFFFFFFFFFFFFFFFFF AND PUSH20 0xFFFFFFFFFFFFFFFFFFFFFFFFFFFFFFFFFFFFFFFF AND DUP2 MSTORE PUSH1 0x20 ADD SWAP1 DUP2 MSTORE PUSH1 0x20 ADD PUSH1 0x0 KECCAK256 PUSH1 0x0 DUP3 DUP3 SLOAD PUSH2 0x358E SWAP2 SWAP1 PUSH2 0x6EA6 JUMP JUMPDEST SWAP3 POP POP DUP2 SWAP1 SSTORE POP DUP2 PUSH1 0x3 PUSH1 0x0 DUP4 DUP2 MSTORE PUSH1 0x20 ADD SWAP1 DUP2 MSTORE PUSH1 0x20 ADD PUSH1 0x0 KECCAK256 PUSH1 0x0 PUSH2 0x100 EXP DUP2 SLOAD DUP2 PUSH20 0xFFFFFFFFFFFFFFFFFFFFFFFFFFFFFFFFFFFFFFFF MUL NOT AND SWAP1 DUP4 PUSH20 0xFFFFFFFFFFFFFFFFFFFFFFFFFFFFFFFFFFFFFFFF AND MUL OR SWAP1 SSTORE POP DUP1 DUP3 PUSH20 0xFFFFFFFFFFFFFFFFFFFFFFFFFFFFFFFFFFFFFFFF AND DUP5 PUSH20 0xFFFFFFFFFFFFFFFFFFFFFFFFFFFFFFFFFFFFFFFF AND PUSH32 0xDDF252AD1BE2C89B69C2B068FC378DAA952BA7F163C4A11628F55A4DF523B3EF PUSH1 0x40 MLOAD PUSH1 0x40 MLOAD DUP1 SWAP2 SUB SWAP1 LOG4 POP POP POP JUMP JUMPDEST PUSH1 0x0 PUSH2 0x3652 DUP3 PUSH2 0x16DC JUMP JUMPDEST SWAP1 POP PUSH2 0x3660 DUP2 PUSH1 0x0 DUP5 PUSH2 0x3D24 JUMP JUMPDEST PUSH2 0x366B PUSH1 0x0 DUP4 PUSH2 0x2E0A JUMP JUMPDEST PUSH1 0x1 PUSH1 0x4 PUSH1 0x0 DUP4 PUSH20 0xFFFFFFFFFFFFFFFFFFFFFFFFFFFFFFFFFFFFFFFF AND PUSH20 0xFFFFFFFFFFFFFFFFFFFFFFFFFFFFFFFFFFFFFFFF AND DUP2 MSTORE PUSH1 0x20 ADD SWAP1 DUP2 MSTORE PUSH1 0x20 ADD PUSH1 0x0 KECCAK256 PUSH1 0x0 DUP3 DUP3 SLOAD PUSH2 0x36BB SWAP2 SWAP1 PUSH2 0x6E72 JUMP JUMPDEST SWAP3 POP POP DUP2 SWAP1 SSTORE POP PUSH1 0x3 PUSH1 0x0 DUP4 DUP2 MSTORE PUSH1 0x20 ADD SWAP1 DUP2 MSTORE PUSH1 0x20 ADD PUSH1 0x0 KECCAK256 PUSH1 0x0 PUSH2 0x100 EXP DUP2 SLOAD SWAP1 PUSH20 0xFFFFFFFFFFFFFFFFFFFFFFFFFFFFFFFFFFFFFFFF MUL NOT AND SWAP1 SSTORE DUP2 PUSH1 0x0 PUSH20 0xFFFFFFFFFFFFFFFFFFFFFFFFFFFFFFFFFFFFFFFF AND DUP3 PUSH20 0xFFFFFFFFFFFFFFFFFFFFFFFFFFFFFFFFFFFFFFFF AND PUSH32 0xDDF252AD1BE2C89B69C2B068FC378DAA952BA7F163C4A11628F55A4DF523B3EF PUSH1 0x40 MLOAD PUSH1 0x40 MLOAD DUP1 SWAP2 SUB SWAP1 LOG4 POP POP JUMP JUMPDEST PUSH1 0x0 PUSH2 0x3763 DUP4 PUSH2 0x13D3 JUMP JUMPDEST SWAP1 POP DUP2 PUSH1 0xB PUSH1 0x0 DUP6 PUSH20 0xFFFFFFFFFFFFFFFFFFFFFFFFFFFFFFFFFFFFFFFF AND PUSH20 0xFFFFFFFFFFFFFFFFFFFFFFFFFFFFFFFFFFFFFFFF AND DUP2 MSTORE PUSH1 0x20 ADD SWAP1 DUP2 MSTORE PUSH1 0x20 ADD PUSH1 0x0 KECCAK256 PUSH1 0x0 PUSH2 0x100 EXP DUP2 SLOAD DUP2 PUSH20 0xFFFFFFFFFFFFFFFFFFFFFFFFFFFFFFFFFFFFFFFF MUL NOT AND SWAP1 DUP4 PUSH20 0xFFFFFFFFFFFFFFFFFFFFFFFFFFFFFFFFFFFFFFFF AND MUL OR SWAP1 SSTORE POP DUP2 PUSH20 0xFFFFFFFFFFFFFFFFFFFFFFFFFFFFFFFFFFFFFFFF AND DUP2 PUSH20 0xFFFFFFFFFFFFFFFFFFFFFFFFFFFFFFFFFFFFFFFF AND DUP5 PUSH20 0xFFFFFFFFFFFFFFFFFFFFFFFFFFFFFFFFFFFFFFFF AND PUSH32 0x3134E8A2E6D97E929A7E54011EA5485D7D196DD5F0BA4D4EF95803E8E3FC257F PUSH1 0x40 MLOAD PUSH1 0x40 MLOAD DUP1 SWAP2 SUB SWAP1 LOG4 PUSH1 0x0 PUSH2 0x385F DUP5 PUSH2 0x27FF JUMP JUMPDEST SWAP1 POP PUSH2 0x386C DUP3 DUP5 DUP4 PUSH2 0x3D50 JUMP JUMPDEST POP POP POP POP JUMP JUMPDEST PUSH1 0x0 DUP1 PUSH1 0x0 SWAP1 SLOAD SWAP1 PUSH2 0x100 EXP SWAP1 DIV PUSH20 0xFFFFFFFFFFFFFFFFFFFFFFFFFFFFFFFFFFFFFFFF AND SWAP1 POP DUP2 PUSH1 0x0 DUP1 PUSH2 0x100 EXP DUP2 SLOAD DUP2 PUSH20 0xFFFFFFFFFFFFFFFFFFFFFFFFFFFFFFFFFFFFFFFF MUL NOT AND SWAP1 DUP4 PUSH20 0xFFFFFFFFFFFFFFFFFFFFFFFFFFFFFFFFFFFFFFFF AND MUL OR SWAP1 SSTORE POP DUP2 PUSH20 0xFFFFFFFFFFFFFFFFFFFFFFFFFFFFFFFFFFFFFFFF AND DUP2 PUSH20 0xFFFFFFFFFFFFFFFFFFFFFFFFFFFFFFFFFFFFFFFF AND PUSH32 0x8BE0079C531659141344CD1FD0A4F28419497F9722A3DAAFE3B4186F6B6457E0 PUSH1 0x40 MLOAD PUSH1 0x40 MLOAD DUP1 SWAP2 SUB SWAP1 LOG3 POP POP JUMP JUMPDEST PUSH2 0x3941 DUP5 DUP5 DUP5 PUSH2 0x33EC JUMP JUMPDEST PUSH2 0x394D DUP5 DUP5 DUP5 DUP5 PUSH2 0x405D JUMP JUMPDEST PUSH2 0x398C JUMPI PUSH1 0x40 MLOAD PUSH32 0x8C379A000000000000000000000000000000000000000000000000000000000 DUP2 MSTORE PUSH1 0x4 ADD PUSH2 0x3983 SWAP1 PUSH2 0x6F4C JUMP JUMPDEST PUSH1 0x40 MLOAD DUP1 SWAP2 SUB SWAP1 REVERT JUMPDEST POP POP POP POP JUMP JUMPDEST PUSH1 0x0 DUP1 CHAINID SWAP1 POP DUP1 SWAP2 POP POP SWAP1 JUMP JUMPDEST PUSH1 0x0 PUSH13 0x1000000000000000000000000 DUP4 LT DUP3 SWAP1 PUSH2 0x39F3 JUMPI PUSH1 0x40 MLOAD PUSH32 0x8C379A000000000000000000000000000000000000000000000000000000000 DUP2 MSTORE PUSH1 0x4 ADD PUSH2 0x39EA SWAP2 SWAP1 PUSH2 0x4C6D JUMP JUMPDEST PUSH1 0x40 MLOAD DUP1 SWAP2 SUB SWAP1 REVERT JUMPDEST POP DUP3 SWAP1 POP SWAP3 SWAP2 POP POP JUMP JUMPDEST PUSH1 0x0 PUSH1 0x6 PUSH1 0x0 DUP5 PUSH20 0xFFFFFFFFFFFFFFFFFFFFFFFFFFFFFFFFFFFFFFFF AND PUSH20 0xFFFFFFFFFFFFFFFFFFFFFFFFFFFFFFFFFFFFFFFF AND DUP2 MSTORE PUSH1 0x20 ADD SWAP1 DUP2 MSTORE PUSH1 0x20 ADD PUSH1 0x0 KECCAK256 PUSH1 0x0 DUP4 PUSH20 0xFFFFFFFFFFFFFFFFFFFFFFFFFFFFFFFFFFFFFFFF AND PUSH20 0xFFFFFFFFFFFFFFFFFFFFFFFFFFFFFFFFFFFFFFFF AND DUP2 MSTORE PUSH1 0x20 ADD SWAP1 DUP2 MSTORE PUSH1 0x20 ADD PUSH1 0x0 KECCAK256 PUSH1 0x0 SWAP1 SLOAD SWAP1 PUSH2 0x100 EXP SWAP1 DIV PUSH1 0xFF AND SWAP1 POP SWAP3 SWAP2 POP POP JUMP JUMPDEST PUSH1 0x0 PUSH32 0x1FFC9A700000000000000000000000000000000000000000000000000000000 PUSH28 0xFFFFFFFFFFFFFFFFFFFFFFFFFFFFFFFFFFFFFFFFFFFFFFFFFFFFFFFF NOT AND DUP3 PUSH28 0xFFFFFFFFFFFFFFFFFFFFFFFFFFFFFFFFFFFFFFFFFFFFFFFFFFFFFFFF NOT AND EQ SWAP1 POP SWAP2 SWAP1 POP JUMP JUMPDEST PUSH1 0x0 PUSH20 0xFFFFFFFFFFFFFFFFFFFFFFFFFFFFFFFFFFFFFFFF AND DUP3 PUSH20 0xFFFFFFFFFFFFFFFFFFFFFFFFFFFFFFFFFFFFFFFF AND SUB PUSH2 0x3B6A JUMPI PUSH1 0x40 MLOAD PUSH32 0x8C379A000000000000000000000000000000000000000000000000000000000 DUP2 MSTORE PUSH1 0x4 ADD PUSH2 0x3B61 SWAP1 PUSH2 0x6FB8 JUMP JUMPDEST PUSH1 0x40 MLOAD DUP1 SWAP2 SUB SWAP1 REVERT JUMPDEST PUSH2 0x3B73 DUP2 PUSH2 0x2D9E JUMP JUMPDEST ISZERO PUSH2 0x3BB3 JUMPI PUSH1 0x40 MLOAD PUSH32 0x8C379A000000000000000000000000000000000000000000000000000000000 DUP2 MSTORE PUSH1 0x4 ADD PUSH2 0x3BAA SWAP1 PUSH2 0x7024 JUMP JUMPDEST PUSH1 0x40 MLOAD DUP1 SWAP2 SUB SWAP1 REVERT JUMPDEST PUSH2 0x3BBF PUSH1 0x0 DUP4 DUP4 PUSH2 0x3D24 JUMP JUMPDEST PUSH1 0x1 PUSH1 0x4 PUSH1 0x0 DUP5 PUSH20 0xFFFFFFFFFFFFFFFFFFFFFFFFFFFFFFFFFFFFFFFF AND PUSH20 0xFFFFFFFFFFFFFFFFFFFFFFFFFFFFFFFFFFFFFFFF AND DUP2 MSTORE PUSH1 0x20 ADD SWAP1 DUP2 MSTORE PUSH1 0x20 ADD PUSH1 0x0 KECCAK256 PUSH1 0x0 DUP3 DUP3 SLOAD PUSH2 0x3C0F SWAP2 SWAP1 PUSH2 0x6EA6 JUMP JUMPDEST SWAP3 POP POP DUP2 SWAP1 SSTORE POP DUP2 PUSH1 0x3 PUSH1 0x0 DUP4 DUP2 MSTORE PUSH1 0x20 ADD SWAP1 DUP2 MSTORE PUSH1 0x20 ADD PUSH1 0x0 KECCAK256 PUSH1 0x0 PUSH2 0x100 EXP DUP2 SLOAD DUP2 PUSH20 0xFFFFFFFFFFFFFFFFFFFFFFFFFFFFFFFFFFFFFFFF MUL NOT AND SWAP1 DUP4 PUSH20 0xFFFFFFFFFFFFFFFFFFFFFFFFFFFFFFFFFFFFFFFF AND MUL OR SWAP1 SSTORE POP DUP1 DUP4 PUSH20 0xFFFFFFFFFFFFFFFFFFFFFFFFFFFFFFFFFFFFFFFF AND PUSH1 0x0 PUSH20 0xFFFFFFFFFFFFFFFFFFFFFFFFFFFFFFFFFFFFFFFF AND PUSH32 0xDDF252AD1BE2C89B69C2B068FC378DAA952BA7F163C4A11628F55A4DF523B3EF PUSH1 0x40 MLOAD PUSH1 0x40 MLOAD DUP1 SWAP2 SUB SWAP1 LOG4 DUP1 DUP3 PUSH20 0xFFFFFFFFFFFFFFFFFFFFFFFFFFFFFFFFFFFFFFFF AND DUP5 PUSH20 0xFFFFFFFFFFFFFFFFFFFFFFFFFFFFFFFFFFFFFFFF AND PUSH32 0xDDF252AD1BE2C89B69C2B068FC378DAA952BA7F163C4A11628F55A4DF523B3EF PUSH1 0x40 MLOAD PUSH1 0x40 MLOAD DUP1 SWAP2 SUB SWAP1 LOG4 POP POP POP JUMP JUMPDEST PUSH2 0x3D2F DUP4 DUP4 DUP4 PUSH2 0x41E4 JUMP JUMPDEST PUSH2 0x3D4B PUSH2 0x3D3B DUP5 PUSH2 0x13D3 JUMP JUMPDEST PUSH2 0x3D44 DUP5 PUSH2 0x13D3 JUMP JUMPDEST PUSH1 0x1 PUSH2 0x3D50 JUMP JUMPDEST POP POP POP JUMP JUMPDEST DUP2 PUSH20 0xFFFFFFFFFFFFFFFFFFFFFFFFFFFFFFFFFFFFFFFF AND DUP4 PUSH20 0xFFFFFFFFFFFFFFFFFFFFFFFFFFFFFFFFFFFFFFFF AND EQ ISZERO DUP1 ISZERO PUSH2 0x3D9A JUMPI POP PUSH1 0x0 DUP2 PUSH12 0xFFFFFFFFFFFFFFFFFFFFFFFF AND GT JUMPDEST ISZERO PUSH2 0x4058 JUMPI PUSH1 0x0 PUSH20 0xFFFFFFFFFFFFFFFFFFFFFFFFFFFFFFFFFFFFFFFF AND DUP4 PUSH20 0xFFFFFFFFFFFFFFFFFFFFFFFFFFFFFFFFFFFFFFFF AND EQ PUSH2 0x3EFB JUMPI PUSH1 0x0 PUSH1 0xD PUSH1 0x0 DUP6 PUSH20 0xFFFFFFFFFFFFFFFFFFFFFFFFFFFFFFFFFFFFFFFF AND PUSH20 0xFFFFFFFFFFFFFFFFFFFFFFFFFFFFFFFFFFFFFFFF AND DUP2 MSTORE PUSH1 0x20 ADD SWAP1 DUP2 MSTORE PUSH1 0x20 ADD PUSH1 0x0 KECCAK256 PUSH1 0x0 SWAP1 SLOAD SWAP1 PUSH2 0x100 EXP SWAP1 DIV PUSH4 0xFFFFFFFF AND SWAP1 POP PUSH1 0x0 DUP1 DUP3 PUSH4 0xFFFFFFFF AND GT PUSH2 0x3E3D JUMPI PUSH1 0x0 PUSH2 0x3EC2 JUMP JUMPDEST PUSH1 0xC PUSH1 0x0 DUP7 PUSH20 0xFFFFFFFFFFFFFFFFFFFFFFFFFFFFFFFFFFFFFFFF AND PUSH20 0xFFFFFFFFFFFFFFFFFFFFFFFFFFFFFFFFFFFFFFFF AND DUP2 MSTORE PUSH1 0x20 ADD SWAP1 DUP2 MSTORE PUSH1 0x20 ADD PUSH1 0x0 KECCAK256 PUSH1 0x0 PUSH1 0x1 DUP5 PUSH2 0x3E8B SWAP2 SWAP1 PUSH2 0x623F JUMP JUMPDEST PUSH4 0xFFFFFFFF AND PUSH4 0xFFFFFFFF AND DUP2 MSTORE PUSH1 0x20 ADD SWAP1 DUP2 MSTORE PUSH1 0x20 ADD PUSH1 0x0 KECCAK256 PUSH1 0x0 ADD PUSH1 0x4 SWAP1 SLOAD SWAP1 PUSH2 0x100 EXP SWAP1 DIV PUSH12 0xFFFFFFFFFFFFFFFFFFFFFFFF AND JUMPDEST SWAP1 POP PUSH1 0x0 PUSH2 0x3EE9 DUP3 DUP6 PUSH1 0x40 MLOAD DUP1 PUSH1 0x60 ADD PUSH1 0x40 MSTORE DUP1 PUSH1 0x37 DUP2 MSTORE PUSH1 0x20 ADD PUSH2 0x7320 PUSH1 0x37 SWAP2 CODECOPY PUSH2 0x42F6 JUMP JUMPDEST SWAP1 POP PUSH2 0x3EF7 DUP7 DUP5 DUP5 DUP5 PUSH2 0x4370 JUMP JUMPDEST POP POP POP JUMPDEST PUSH1 0x0 PUSH20 0xFFFFFFFFFFFFFFFFFFFFFFFFFFFFFFFFFFFFFFFF AND DUP3 PUSH20 0xFFFFFFFFFFFFFFFFFFFFFFFFFFFFFFFFFFFFFFFF AND EQ PUSH2 0x4057 JUMPI PUSH1 0x0 PUSH1 0xD PUSH1 0x0 DUP5 PUSH20 0xFFFFFFFFFFFFFFFFFFFFFFFFFFFFFFFFFFFFFFFF AND PUSH20 0xFFFFFFFFFFFFFFFFFFFFFFFFFFFFFFFFFFFFFFFF AND DUP2 MSTORE PUSH1 0x20 ADD SWAP1 DUP2 MSTORE PUSH1 0x20 ADD PUSH1 0x0 KECCAK256 PUSH1 0x0 SWAP1 SLOAD SWAP1 PUSH2 0x100 EXP SWAP1 DIV PUSH4 0xFFFFFFFF AND SWAP1 POP PUSH1 0x0 DUP1 DUP3 PUSH4 0xFFFFFFFF AND GT PUSH2 0x3F99 JUMPI PUSH1 0x0 PUSH2 0x401E JUMP JUMPDEST PUSH1 0xC PUSH1 0x0 DUP6 PUSH20 0xFFFFFFFFFFFFFFFFFFFFFFFFFFFFFFFFFFFFFFFF AND PUSH20 0xFFFFFFFFFFFFFFFFFFFFFFFFFFFFFFFFFFFFFFFF AND DUP2 MSTORE PUSH1 0x20 ADD SWAP1 DUP2 MSTORE PUSH1 0x20 ADD PUSH1 0x0 KECCAK256 PUSH1 0x0 PUSH1 0x1 DUP5 PUSH2 0x3FE7 SWAP2 SWAP1 PUSH2 0x623F JUMP JUMPDEST PUSH4 0xFFFFFFFF AND PUSH4 0xFFFFFFFF AND DUP2 MSTORE PUSH1 0x20 ADD SWAP1 DUP2 MSTORE PUSH1 0x20 ADD PUSH1 0x0 KECCAK256 PUSH1 0x0 ADD PUSH1 0x4 SWAP1 SLOAD SWAP1 PUSH2 0x100 EXP SWAP1 DIV PUSH12 0xFFFFFFFFFFFFFFFFFFFFFFFF AND JUMPDEST SWAP1 POP PUSH1 0x0 PUSH2 0x4045 DUP3 DUP6 PUSH1 0x40 MLOAD DUP1 PUSH1 0x60 ADD PUSH1 0x40 MSTORE DUP1 PUSH1 0x36 DUP2 MSTORE PUSH1 0x20 ADD PUSH2 0x7269 PUSH1 0x36 SWAP2 CODECOPY PUSH2 0x467E JUMP JUMPDEST SWAP1 POP PUSH2 0x4053 DUP6 DUP5 DUP5 DUP5 PUSH2 0x4370 JUMP JUMPDEST POP POP POP JUMPDEST JUMPDEST POP POP POP JUMP JUMPDEST PUSH1 0x0 PUSH2 0x407E DUP5 PUSH20 0xFFFFFFFFFFFFFFFFFFFFFFFFFFFFFFFFFFFFFFFF AND PUSH2 0x46FD JUMP JUMPDEST ISZERO PUSH2 0x41D7 JUMPI DUP4 PUSH20 0xFFFFFFFFFFFFFFFFFFFFFFFFFFFFFFFFFFFFFFFF AND PUSH4 0x150B7A02 PUSH2 0x40A7 PUSH2 0x2CB4 JUMP JUMPDEST DUP8 DUP7 DUP7 PUSH1 0x40 MLOAD DUP6 PUSH4 0xFFFFFFFF AND PUSH1 0xE0 SHL DUP2 MSTORE PUSH1 0x4 ADD PUSH2 0x40C9 SWAP5 SWAP4 SWAP3 SWAP2 SWAP1 PUSH2 0x7099 JUMP JUMPDEST PUSH1 0x20 PUSH1 0x40 MLOAD DUP1 DUP4 SUB DUP2 PUSH1 0x0 DUP8 GAS CALL SWAP3 POP POP POP DUP1 ISZERO PUSH2 0x4105 JUMPI POP PUSH1 0x40 MLOAD RETURNDATASIZE PUSH1 0x1F NOT PUSH1 0x1F DUP3 ADD AND DUP3 ADD DUP1 PUSH1 0x40 MSTORE POP DUP2 ADD SWAP1 PUSH2 0x4102 SWAP2 SWAP1 PUSH2 0x70FA JUMP JUMPDEST PUSH1 0x1 JUMPDEST PUSH2 0x4187 JUMPI RETURNDATASIZE DUP1 PUSH1 0x0 DUP2 EQ PUSH2 0x4135 JUMPI PUSH1 0x40 MLOAD SWAP2 POP PUSH1 0x1F NOT PUSH1 0x3F RETURNDATASIZE ADD AND DUP3 ADD PUSH1 0x40 MSTORE RETURNDATASIZE DUP3 MSTORE RETURNDATASIZE PUSH1 0x0 PUSH1 0x20 DUP5 ADD RETURNDATACOPY PUSH2 0x413A JUMP JUMPDEST PUSH1 0x60 SWAP2 POP JUMPDEST POP PUSH1 0x0 DUP2 MLOAD SUB PUSH2 0x417F JUMPI PUSH1 0x40 MLOAD PUSH32 0x8C379A000000000000000000000000000000000000000000000000000000000 DUP2 MSTORE PUSH1 0x4 ADD PUSH2 0x4176 SWAP1 PUSH2 0x6F4C JUMP JUMPDEST PUSH1 0x40 MLOAD DUP1 SWAP2 SUB SWAP1 REVERT JUMPDEST DUP1 MLOAD DUP2 PUSH1 0x20 ADD REVERT JUMPDEST PUSH4 0x150B7A02 PUSH1 0xE0 SHL PUSH28 0xFFFFFFFFFFFFFFFFFFFFFFFFFFFFFFFFFFFFFFFFFFFFFFFFFFFFFFFF NOT AND DUP2 PUSH28 0xFFFFFFFFFFFFFFFFFFFFFFFFFFFFFFFFFFFFFFFFFFFFFFFFFFFFFFFF NOT AND EQ SWAP2 POP POP PUSH2 0x41DC JUMP JUMPDEST PUSH1 0x1 SWAP1 POP JUMPDEST SWAP5 SWAP4 POP POP POP POP JUMP JUMPDEST PUSH2 0x41EF DUP4 DUP4 DUP4 PUSH2 0x4710 JUMP JUMPDEST PUSH1 0x0 PUSH20 0xFFFFFFFFFFFFFFFFFFFFFFFFFFFFFFFFFFFFFFFF AND DUP4 PUSH20 0xFFFFFFFFFFFFFFFFFFFFFFFFFFFFFFFFFFFFFFFF AND SUB PUSH2 0x4231 JUMPI PUSH2 0x422C DUP2 PUSH2 0x4715 JUMP JUMPDEST PUSH2 0x4270 JUMP JUMPDEST DUP2 PUSH20 0xFFFFFFFFFFFFFFFFFFFFFFFFFFFFFFFFFFFFFFFF AND DUP4 PUSH20 0xFFFFFFFFFFFFFFFFFFFFFFFFFFFFFFFFFFFFFFFF AND EQ PUSH2 0x426F JUMPI PUSH2 0x426E DUP4 DUP3 PUSH2 0x475E JUMP JUMPDEST JUMPDEST JUMPDEST PUSH1 0x0 PUSH20 0xFFFFFFFFFFFFFFFFFFFFFFFFFFFFFFFFFFFFFFFF AND DUP3 PUSH20 0xFFFFFFFFFFFFFFFFFFFFFFFFFFFFFFFFFFFFFFFF AND SUB PUSH2 0x42B2 JUMPI PUSH2 0x42AD DUP2 PUSH2 0x48CB JUMP JUMPDEST PUSH2 0x42F1 JUMP JUMPDEST DUP3 PUSH20 0xFFFFFFFFFFFFFFFFFFFFFFFFFFFFFFFFFFFFFFFF AND DUP3 PUSH20 0xFFFFFFFFFFFFFFFFFFFFFFFFFFFFFFFFFFFFFFFF AND EQ PUSH2 0x42F0 JUMPI PUSH2 0x42EF DUP3 DUP3 PUSH2 0x499C JUMP JUMPDEST JUMPDEST JUMPDEST POP POP POP JUMP JUMPDEST PUSH1 0x0 DUP4 PUSH12 0xFFFFFFFFFFFFFFFFFFFFFFFF AND DUP4 PUSH12 0xFFFFFFFFFFFFFFFFFFFFFFFF AND GT ISZERO DUP3 SWAP1 PUSH2 0x435A JUMPI PUSH1 0x40 MLOAD PUSH32 0x8C379A000000000000000000000000000000000000000000000000000000000 DUP2 MSTORE PUSH1 0x4 ADD PUSH2 0x4351 SWAP2 SWAP1 PUSH2 0x4C6D JUMP JUMPDEST PUSH1 0x40 MLOAD DUP1 SWAP2 SUB SWAP1 REVERT JUMPDEST POP DUP3 DUP5 PUSH2 0x4367 SWAP2 SWAP1 PUSH2 0x7127 JUMP JUMPDEST SWAP1 POP SWAP4 SWAP3 POP POP POP JUMP JUMPDEST PUSH1 0x0 PUSH2 0x4394 NUMBER PUSH1 0x40 MLOAD DUP1 PUSH1 0x80 ADD PUSH1 0x40 MSTORE DUP1 PUSH1 0x44 DUP2 MSTORE PUSH1 0x20 ADD PUSH2 0x729F PUSH1 0x44 SWAP2 CODECOPY PUSH2 0x4A1B JUMP JUMPDEST SWAP1 POP PUSH1 0x0 DUP5 PUSH4 0xFFFFFFFF AND GT DUP1 ISZERO PUSH2 0x4432 JUMPI POP DUP1 PUSH4 0xFFFFFFFF AND PUSH1 0xC PUSH1 0x0 DUP8 PUSH20 0xFFFFFFFFFFFFFFFFFFFFFFFFFFFFFFFFFFFFFFFF AND PUSH20 0xFFFFFFFFFFFFFFFFFFFFFFFFFFFFFFFFFFFFFFFF AND DUP2 MSTORE PUSH1 0x20 ADD SWAP1 DUP2 MSTORE PUSH1 0x20 ADD PUSH1 0x0 KECCAK256 PUSH1 0x0 PUSH1 0x1 DUP8 PUSH2 0x43FC SWAP2 SWAP1 PUSH2 0x623F JUMP JUMPDEST PUSH4 0xFFFFFFFF AND PUSH4 0xFFFFFFFF AND DUP2 MSTORE PUSH1 0x20 ADD SWAP1 DUP2 MSTORE PUSH1 0x20 ADD PUSH1 0x0 KECCAK256 PUSH1 0x0 ADD PUSH1 0x0 SWAP1 SLOAD SWAP1 PUSH2 0x100 EXP SWAP1 DIV PUSH4 0xFFFFFFFF AND PUSH4 0xFFFFFFFF AND EQ JUMPDEST ISZERO PUSH2 0x44D6 JUMPI DUP2 PUSH1 0xC PUSH1 0x0 DUP8 PUSH20 0xFFFFFFFFFFFFFFFFFFFFFFFFFFFFFFFFFFFFFFFF AND PUSH20 0xFFFFFFFFFFFFFFFFFFFFFFFFFFFFFFFFFFFFFFFF AND DUP2 MSTORE PUSH1 0x20 ADD SWAP1 DUP2 MSTORE PUSH1 0x20 ADD PUSH1 0x0 KECCAK256 PUSH1 0x0 PUSH1 0x1 DUP8 PUSH2 0x4486 SWAP2 SWAP1 PUSH2 0x623F JUMP JUMPDEST PUSH4 0xFFFFFFFF AND PUSH4 0xFFFFFFFF AND DUP2 MSTORE PUSH1 0x20 ADD SWAP1 DUP2 MSTORE PUSH1 0x20 ADD PUSH1 0x0 KECCAK256 PUSH1 0x0 ADD PUSH1 0x4 PUSH2 0x100 EXP DUP2 SLOAD DUP2 PUSH12 0xFFFFFFFFFFFFFFFFFFFFFFFF MUL NOT AND SWAP1 DUP4 PUSH12 0xFFFFFFFFFFFFFFFFFFFFFFFF AND MUL OR SWAP1 SSTORE POP PUSH2 0x4627 JUMP JUMPDEST PUSH1 0x40 MLOAD DUP1 PUSH1 0x40 ADD PUSH1 0x40 MSTORE DUP1 DUP3 PUSH4 0xFFFFFFFF AND DUP2 MSTORE PUSH1 0x20 ADD DUP4 PUSH12 0xFFFFFFFFFFFFFFFFFFFFFFFF AND DUP2 MSTORE POP PUSH1 0xC PUSH1 0x0 DUP8 PUSH20 0xFFFFFFFFFFFFFFFFFFFFFFFFFFFFFFFFFFFFFFFF AND PUSH20 0xFFFFFFFFFFFFFFFFFFFFFFFFFFFFFFFFFFFFFFFF AND DUP2 MSTORE PUSH1 0x20 ADD SWAP1 DUP2 MSTORE PUSH1 0x20 ADD PUSH1 0x0 KECCAK256 PUSH1 0x0 DUP7 PUSH4 0xFFFFFFFF AND PUSH4 0xFFFFFFFF AND DUP2 MSTORE PUSH1 0x20 ADD SWAP1 DUP2 MSTORE PUSH1 0x20 ADD PUSH1 0x0 KECCAK256 PUSH1 0x0 DUP3 ADD MLOAD DUP2 PUSH1 0x0 ADD PUSH1 0x0 PUSH2 0x100 EXP DUP2 SLOAD DUP2 PUSH4 0xFFFFFFFF MUL NOT AND SWAP1 DUP4 PUSH4 0xFFFFFFFF AND MUL OR SWAP1 SSTORE POP PUSH1 0x20 DUP3 ADD MLOAD DUP2 PUSH1 0x0 ADD PUSH1 0x4 PUSH2 0x100 EXP DUP2 SLOAD DUP2 PUSH12 0xFFFFFFFFFFFFFFFFFFFFFFFF MUL NOT AND SWAP1 DUP4 PUSH12 0xFFFFFFFFFFFFFFFFFFFFFFFF AND MUL OR SWAP1 SSTORE POP SWAP1 POP POP PUSH1 0x1 DUP5 PUSH2 0x45C9 SWAP2 SWAP1 PUSH2 0x7167 JUMP JUMPDEST PUSH1 0xD PUSH1 0x0 DUP8 PUSH20 0xFFFFFFFFFFFFFFFFFFFFFFFFFFFFFFFFFFFFFFFF AND PUSH20 0xFFFFFFFFFFFFFFFFFFFFFFFFFFFFFFFFFFFFFFFF AND DUP2 MSTORE PUSH1 0x20 ADD SWAP1 DUP2 MSTORE PUSH1 0x20 ADD PUSH1 0x0 KECCAK256 PUSH1 0x0 PUSH2 0x100 EXP DUP2 SLOAD DUP2 PUSH4 0xFFFFFFFF MUL NOT AND SWAP1 DUP4 PUSH4 0xFFFFFFFF AND MUL OR SWAP1 SSTORE POP JUMPDEST DUP5 PUSH20 0xFFFFFFFFFFFFFFFFFFFFFFFFFFFFFFFFFFFFFFFF AND PUSH32 0xDEC2BACDD2F05B59DE34DA9B523DFF8BE42E5E38E818C82FDB0BAE774387A724 DUP5 DUP5 PUSH1 0x40 MLOAD PUSH2 0x466F SWAP3 SWAP2 SWAP1 PUSH2 0x71D0 JUMP JUMPDEST PUSH1 0x40 MLOAD DUP1 SWAP2 SUB SWAP1 LOG2 POP POP POP POP POP JUMP JUMPDEST PUSH1 0x0 DUP1 DUP4 DUP6 PUSH2 0x468D SWAP2 SWAP1 PUSH2 0x71F9 JUMP JUMPDEST SWAP1 POP DUP5 PUSH12 0xFFFFFFFFFFFFFFFFFFFFFFFF AND DUP2 PUSH12 0xFFFFFFFFFFFFFFFFFFFFFFFF AND LT ISZERO DUP4 SWAP1 PUSH2 0x46F1 JUMPI PUSH1 0x40 MLOAD PUSH32 0x8C379A000000000000000000000000000000000000000000000000000000000 DUP2 MSTORE PUSH1 0x4 ADD PUSH2 0x46E8 SWAP2 SWAP1 PUSH2 0x4C6D JUMP JUMPDEST PUSH1 0x40 MLOAD DUP1 SWAP2 SUB SWAP1 REVERT JUMPDEST POP DUP1 SWAP2 POP POP SWAP4 SWAP3 POP POP POP JUMP JUMPDEST PUSH1 0x0 DUP1 DUP3 EXTCODESIZE SWAP1 POP PUSH1 0x0 DUP2 GT SWAP2 POP POP SWAP2 SWAP1 POP JUMP JUMPDEST POP POP POP JUMP JUMPDEST PUSH1 0x9 DUP1 SLOAD SWAP1 POP PUSH1 0xA PUSH1 0x0 DUP4 DUP2 MSTORE PUSH1 0x20 ADD SWAP1 DUP2 MSTORE PUSH1 0x20 ADD PUSH1 0x0 KECCAK256 DUP2 SWAP1 SSTORE POP PUSH1 0x9 DUP2 SWAP1 DUP1 PUSH1 0x1 DUP2 SLOAD ADD DUP1 DUP3 SSTORE DUP1 SWAP2 POP POP PUSH1 0x1 SWAP1 SUB SWAP1 PUSH1 0x0 MSTORE PUSH1 0x20 PUSH1 0x0 KECCAK256 ADD PUSH1 0x0 SWAP1 SWAP2 SWAP1 SWAP2 SWAP1 SWAP2 POP SSTORE POP JUMP JUMPDEST PUSH1 0x0 PUSH1 0x1 PUSH2 0x476B DUP5 PUSH2 0x17D6 JUMP JUMPDEST PUSH2 0x4775 SWAP2 SWAP1 PUSH2 0x6E72 JUMP JUMPDEST SWAP1 POP PUSH1 0x0 PUSH1 0x8 PUSH1 0x0 DUP5 DUP2 MSTORE PUSH1 0x20 ADD SWAP1 DUP2 MSTORE PUSH1 0x20 ADD PUSH1 0x0 KECCAK256 SLOAD SWAP1 POP DUP2 DUP2 EQ PUSH2 0x485A JUMPI PUSH1 0x0 PUSH1 0x7 PUSH1 0x0 DUP7 PUSH20 0xFFFFFFFFFFFFFFFFFFFFFFFFFFFFFFFFFFFFFFFF AND PUSH20 0xFFFFFFFFFFFFFFFFFFFFFFFFFFFFFFFFFFFFFFFF AND DUP2 MSTORE PUSH1 0x20 ADD SWAP1 DUP2 MSTORE PUSH1 0x20 ADD PUSH1 0x0 KECCAK256 PUSH1 0x0 DUP5 DUP2 MSTORE PUSH1 0x20 ADD SWAP1 DUP2 MSTORE PUSH1 0x20 ADD PUSH1 0x0 KECCAK256 SLOAD SWAP1 POP DUP1 PUSH1 0x7 PUSH1 0x0 DUP8 PUSH20 0xFFFFFFFFFFFFFFFFFFFFFFFFFFFFFFFFFFFFFFFF AND PUSH20 0xFFFFFFFFFFFFFFFFFFFFFFFFFFFFFFFFFFFFFFFF AND DUP2 MSTORE PUSH1 0x20 ADD SWAP1 DUP2 MSTORE PUSH1 0x20 ADD PUSH1 0x0 KECCAK256 PUSH1 0x0 DUP5 DUP2 MSTORE PUSH1 0x20 ADD SWAP1 DUP2 MSTORE PUSH1 0x20 ADD PUSH1 0x0 KECCAK256 DUP2 SWAP1 SSTORE POP DUP2 PUSH1 0x8 PUSH1 0x0 DUP4 DUP2 MSTORE PUSH1 0x20 ADD SWAP1 DUP2 MSTORE PUSH1 0x20 ADD PUSH1 0x0 KECCAK256 DUP2 SWAP1 SSTORE POP POP JUMPDEST PUSH1 0x8 PUSH1 0x0 DUP5 DUP2 MSTORE PUSH1 0x20 ADD SWAP1 DUP2 MSTORE PUSH1 0x20 ADD PUSH1 0x0 KECCAK256 PUSH1 0x0 SWAP1 SSTORE PUSH1 0x7 PUSH1 0x0 DUP6 PUSH20 0xFFFFFFFFFFFFFFFFFFFFFFFFFFFFFFFFFFFFFFFF AND PUSH20 0xFFFFFFFFFFFFFFFFFFFFFFFFFFFFFFFFFFFFFFFF AND DUP2 MSTORE PUSH1 0x20 ADD SWAP1 DUP2 MSTORE PUSH1 0x20 ADD PUSH1 0x0 KECCAK256 PUSH1 0x0 DUP4 DUP2 MSTORE PUSH1 0x20 ADD SWAP1 DUP2 MSTORE PUSH1 0x20 ADD PUSH1 0x0 KECCAK256 PUSH1 0x0 SWAP1 SSTORE POP POP POP POP JUMP JUMPDEST PUSH1 0x0 PUSH1 0x1 PUSH1 0x9 DUP1 SLOAD SWAP1 POP PUSH2 0x48DF SWAP2 SWAP1 PUSH2 0x6E72 JUMP JUMPDEST SWAP1 POP PUSH1 0x0 PUSH1 0xA PUSH1 0x0 DUP5 DUP2 MSTORE PUSH1 0x20 ADD SWAP1 DUP2 MSTORE PUSH1 0x20 ADD PUSH1 0x0 KECCAK256 SLOAD SWAP1 POP PUSH1 0x0 PUSH1 0x9 DUP4 DUP2 SLOAD DUP2 LT PUSH2 0x490F JUMPI PUSH2 0x490E PUSH2 0x5C3F JUMP JUMPDEST JUMPDEST SWAP1 PUSH1 0x0 MSTORE PUSH1 0x20 PUSH1 0x0 KECCAK256 ADD SLOAD SWAP1 POP DUP1 PUSH1 0x9 DUP4 DUP2 SLOAD DUP2 LT PUSH2 0x4931 JUMPI PUSH2 0x4930 PUSH2 0x5C3F JUMP JUMPDEST JUMPDEST SWAP1 PUSH1 0x0 MSTORE PUSH1 0x20 PUSH1 0x0 KECCAK256 ADD DUP2 SWAP1 SSTORE POP DUP2 PUSH1 0xA PUSH1 0x0 DUP4 DUP2 MSTORE PUSH1 0x20 ADD SWAP1 DUP2 MSTORE PUSH1 0x20 ADD PUSH1 0x0 KECCAK256 DUP2 SWAP1 SSTORE POP PUSH1 0xA PUSH1 0x0 DUP6 DUP2 MSTORE PUSH1 0x20 ADD SWAP1 DUP2 MSTORE PUSH1 0x20 ADD PUSH1 0x0 KECCAK256 PUSH1 0x0 SWAP1 SSTORE PUSH1 0x9 DUP1 SLOAD DUP1 PUSH2 0x4980 JUMPI PUSH2 0x497F PUSH2 0x7239 JUMP JUMPDEST JUMPDEST PUSH1 0x1 SWAP1 SUB DUP2 DUP2 SWAP1 PUSH1 0x0 MSTORE PUSH1 0x20 PUSH1 0x0 KECCAK256 ADD PUSH1 0x0 SWAP1 SSTORE SWAP1 SSTORE POP POP POP POP JUMP JUMPDEST PUSH1 0x0 PUSH2 0x49A7 DUP4 PUSH2 0x17D6 JUMP JUMPDEST SWAP1 POP DUP2 PUSH1 0x7 PUSH1 0x0 DUP6 PUSH20 0xFFFFFFFFFFFFFFFFFFFFFFFFFFFFFFFFFFFFFFFF AND PUSH20 0xFFFFFFFFFFFFFFFFFFFFFFFFFFFFFFFFFFFFFFFF AND DUP2 MSTORE PUSH1 0x20 ADD SWAP1 DUP2 MSTORE PUSH1 0x20 ADD PUSH1 0x0 KECCAK256 PUSH1 0x0 DUP4 DUP2 MSTORE PUSH1 0x20 ADD SWAP1 DUP2 MSTORE PUSH1 0x20 ADD PUSH1 0x0 KECCAK256 DUP2 SWAP1 SSTORE POP DUP1 PUSH1 0x8 PUSH1 0x0 DUP5 DUP2 MSTORE PUSH1 0x20 ADD SWAP1 DUP2 MSTORE PUSH1 0x20 ADD PUSH1 0x0 KECCAK256 DUP2 SWAP1 SSTORE POP POP POP POP JUMP JUMPDEST PUSH1 0x0 PUSH5 0x100000000 DUP4 LT DUP3 SWAP1 PUSH2 0x4A67 JUMPI PUSH1 0x40 MLOAD PUSH32 0x8C379A000000000000000000000000000000000000000000000000000000000 DUP2 MSTORE PUSH1 0x4 ADD PUSH2 0x4A5E SWAP2 SWAP1 PUSH2 0x4C6D JUMP JUMPDEST PUSH1 0x40 MLOAD DUP1 SWAP2 SUB SWAP1 REVERT JUMPDEST POP DUP3 SWAP1 POP SWAP3 SWAP2 POP POP JUMP JUMPDEST PUSH1 0x0 PUSH1 0x40 MLOAD SWAP1 POP SWAP1 JUMP JUMPDEST PUSH1 0x0 DUP1 REVERT JUMPDEST PUSH1 0x0 DUP1 REVERT JUMPDEST PUSH1 0x0 PUSH20 0xFFFFFFFFFFFFFFFFFFFFFFFFFFFFFFFFFFFFFFFF DUP3 AND SWAP1 POP SWAP2 SWAP1 POP JUMP JUMPDEST PUSH1 0x0 PUSH2 0x4AB0 DUP3 PUSH2 0x4A85 JUMP JUMPDEST SWAP1 POP SWAP2 SWAP1 POP JUMP JUMPDEST PUSH1 0x0 PUSH2 0x4AC2 DUP3 PUSH2 0x4AA5 JUMP JUMPDEST SWAP1 POP SWAP2 SWAP1 POP JUMP JUMPDEST PUSH2 0x4AD2 DUP2 PUSH2 0x4AB7 JUMP JUMPDEST DUP2 EQ PUSH2 0x4ADD JUMPI PUSH1 0x0 DUP1 REVERT JUMPDEST POP JUMP JUMPDEST PUSH1 0x0 DUP2 CALLDATALOAD SWAP1 POP PUSH2 0x4AEF DUP2 PUSH2 0x4AC9 JUMP JUMPDEST SWAP3 SWAP2 POP POP JUMP JUMPDEST PUSH1 0x0 PUSH1 0x20 DUP3 DUP5 SUB SLT ISZERO PUSH2 0x4B0B JUMPI PUSH2 0x4B0A PUSH2 0x4A7B JUMP JUMPDEST JUMPDEST PUSH1 0x0 PUSH2 0x4B19 DUP5 DUP3 DUP6 ADD PUSH2 0x4AE0 JUMP JUMPDEST SWAP2 POP POP SWAP3 SWAP2 POP POP JUMP JUMPDEST PUSH1 0x0 PUSH32 0xFFFFFFFF00000000000000000000000000000000000000000000000000000000 DUP3 AND SWAP1 POP SWAP2 SWAP1 POP JUMP JUMPDEST PUSH2 0x4B57 DUP2 PUSH2 0x4B22 JUMP JUMPDEST DUP2 EQ PUSH2 0x4B62 JUMPI PUSH1 0x0 DUP1 REVERT JUMPDEST POP JUMP JUMPDEST PUSH1 0x0 DUP2 CALLDATALOAD SWAP1 POP PUSH2 0x4B74 DUP2 PUSH2 0x4B4E JUMP JUMPDEST SWAP3 SWAP2 POP POP JUMP JUMPDEST PUSH1 0x0 PUSH1 0x20 DUP3 DUP5 SUB SLT ISZERO PUSH2 0x4B90 JUMPI PUSH2 0x4B8F PUSH2 0x4A7B JUMP JUMPDEST JUMPDEST PUSH1 0x0 PUSH2 0x4B9E DUP5 DUP3 DUP6 ADD PUSH2 0x4B65 JUMP JUMPDEST SWAP2 POP POP SWAP3 SWAP2 POP POP JUMP JUMPDEST PUSH1 0x0 DUP2 ISZERO ISZERO SWAP1 POP SWAP2 SWAP1 POP JUMP JUMPDEST PUSH2 0x4BBC DUP2 PUSH2 0x4BA7 JUMP JUMPDEST DUP3 MSTORE POP POP JUMP JUMPDEST PUSH1 0x0 PUSH1 0x20 DUP3 ADD SWAP1 POP PUSH2 0x4BD7 PUSH1 0x0 DUP4 ADD DUP5 PUSH2 0x4BB3 JUMP JUMPDEST SWAP3 SWAP2 POP POP JUMP JUMPDEST PUSH1 0x0 DUP2 MLOAD SWAP1 POP SWAP2 SWAP1 POP JUMP JUMPDEST PUSH1 0x0 DUP3 DUP3 MSTORE PUSH1 0x20 DUP3 ADD SWAP1 POP SWAP3 SWAP2 POP POP JUMP JUMPDEST PUSH1 0x0 JUMPDEST DUP4 DUP2 LT ISZERO PUSH2 0x4C17 JUMPI DUP1 DUP3 ADD MLOAD DUP2 DUP5 ADD MSTORE PUSH1 0x20 DUP2 ADD SWAP1 POP PUSH2 0x4BFC JUMP JUMPDEST PUSH1 0x0 DUP5 DUP5 ADD MSTORE POP POP POP POP JUMP JUMPDEST PUSH1 0x0 PUSH1 0x1F NOT PUSH1 0x1F DUP4 ADD AND SWAP1 POP SWAP2 SWAP1 POP JUMP JUMPDEST PUSH1 0x0 PUSH2 0x4C3F DUP3 PUSH2 0x4BDD JUMP JUMPDEST PUSH2 0x4C49 DUP2 DUP6 PUSH2 0x4BE8 JUMP JUMPDEST SWAP4 POP PUSH2 0x4C59 DUP2 DUP6 PUSH1 0x20 DUP7 ADD PUSH2 0x4BF9 JUMP JUMPDEST PUSH2 0x4C62 DUP2 PUSH2 0x4C23 JUMP JUMPDEST DUP5 ADD SWAP2 POP POP SWAP3 SWAP2 POP POP JUMP JUMPDEST PUSH1 0x0 PUSH1 0x20 DUP3 ADD SWAP1 POP DUP2 DUP2 SUB PUSH1 0x0 DUP4 ADD MSTORE PUSH2 0x4C87 DUP2 DUP5 PUSH2 0x4C34 JUMP JUMPDEST SWAP1 POP SWAP3 SWAP2 POP POP JUMP JUMPDEST PUSH2 0x4C98 DUP2 PUSH2 0x4AA5 JUMP JUMPDEST DUP3 MSTORE POP POP JUMP JUMPDEST PUSH1 0x0 PUSH1 0x20 DUP3 ADD SWAP1 POP PUSH2 0x4CB3 PUSH1 0x0 DUP4 ADD DUP5 PUSH2 0x4C8F JUMP JUMPDEST SWAP3 SWAP2 POP POP JUMP JUMPDEST PUSH1 0x0 DUP2 SWAP1 POP SWAP2 SWAP1 POP JUMP JUMPDEST PUSH2 0x4CCC DUP2 PUSH2 0x4CB9 JUMP JUMPDEST DUP2 EQ PUSH2 0x4CD7 JUMPI PUSH1 0x0 DUP1 REVERT JUMPDEST POP JUMP JUMPDEST PUSH1 0x0 DUP2 CALLDATALOAD SWAP1 POP PUSH2 0x4CE9 DUP2 PUSH2 0x4CC3 JUMP JUMPDEST SWAP3 SWAP2 POP POP JUMP JUMPDEST PUSH1 0x0 PUSH1 0x20 DUP3 DUP5 SUB SLT ISZERO PUSH2 0x4D05 JUMPI PUSH2 0x4D04 PUSH2 0x4A7B JUMP JUMPDEST JUMPDEST PUSH1 0x0 PUSH2 0x4D13 DUP5 DUP3 DUP6 ADD PUSH2 0x4CDA JUMP JUMPDEST SWAP2 POP POP SWAP3 SWAP2 POP POP JUMP JUMPDEST PUSH2 0x4D25 DUP2 PUSH2 0x4AA5 JUMP JUMPDEST DUP2 EQ PUSH2 0x4D30 JUMPI PUSH1 0x0 DUP1 REVERT JUMPDEST POP JUMP JUMPDEST PUSH1 0x0 DUP2 CALLDATALOAD SWAP1 POP PUSH2 0x4D42 DUP2 PUSH2 0x4D1C JUMP JUMPDEST SWAP3 SWAP2 POP POP JUMP JUMPDEST PUSH1 0x0 DUP1 PUSH1 0x40 DUP4 DUP6 SUB SLT ISZERO PUSH2 0x4D5F JUMPI PUSH2 0x4D5E PUSH2 0x4A7B JUMP JUMPDEST JUMPDEST PUSH1 0x0 PUSH2 0x4D6D DUP6 DUP3 DUP7 ADD PUSH2 0x4D33 JUMP JUMPDEST SWAP3 POP POP PUSH1 0x20 PUSH2 0x4D7E DUP6 DUP3 DUP7 ADD PUSH2 0x4CDA JUMP JUMPDEST SWAP2 POP POP SWAP3 POP SWAP3 SWAP1 POP JUMP JUMPDEST PUSH2 0x4D91 DUP2 PUSH2 0x4CB9 JUMP JUMPDEST DUP3 MSTORE POP POP JUMP JUMPDEST PUSH1 0x0 PUSH1 0x20 DUP3 ADD SWAP1 POP PUSH2 0x4DAC PUSH1 0x0 DUP4 ADD DUP5 PUSH2 0x4D88 JUMP JUMPDEST SWAP3 SWAP2 POP POP JUMP JUMPDEST PUSH1 0x0 DUP2 SWAP1 POP SWAP2 SWAP1 POP JUMP JUMPDEST PUSH2 0x4DC5 DUP2 PUSH2 0x4DB2 JUMP JUMPDEST DUP3 MSTORE POP POP JUMP JUMPDEST PUSH1 0x0 PUSH1 0x20 DUP3 ADD SWAP1 POP PUSH2 0x4DE0 PUSH1 0x0 DUP4 ADD DUP5 PUSH2 0x4DBC JUMP JUMPDEST SWAP3 SWAP2 POP POP JUMP JUMPDEST PUSH1 0x0 DUP1 PUSH1 0x0 PUSH1 0x60 DUP5 DUP7 SUB SLT ISZERO PUSH2 0x4DFF JUMPI PUSH2 0x4DFE PUSH2 0x4A7B JUMP JUMPDEST JUMPDEST PUSH1 0x0 PUSH2 0x4E0D DUP7 DUP3 DUP8 ADD PUSH2 0x4D33 JUMP JUMPDEST SWAP4 POP POP PUSH1 0x20 PUSH2 0x4E1E DUP7 DUP3 DUP8 ADD PUSH2 0x4D33 JUMP JUMPDEST SWAP3 POP POP PUSH1 0x40 PUSH2 0x4E2F DUP7 DUP3 DUP8 ADD PUSH2 0x4CDA JUMP JUMPDEST SWAP2 POP POP SWAP3 POP SWAP3 POP SWAP3 JUMP JUMPDEST PUSH1 0x0 DUP2 SWAP1 POP SWAP2 SWAP1 POP JUMP JUMPDEST PUSH1 0x0 PUSH2 0x4E5E PUSH2 0x4E59 PUSH2 0x4E54 DUP5 PUSH2 0x4A85 JUMP JUMPDEST PUSH2 0x4E39 JUMP JUMPDEST PUSH2 0x4A85 JUMP JUMPDEST SWAP1 POP SWAP2 SWAP1 POP JUMP JUMPDEST PUSH1 0x0 PUSH2 0x4E70 DUP3 PUSH2 0x4E43 JUMP JUMPDEST SWAP1 POP SWAP2 SWAP1 POP JUMP JUMPDEST PUSH1 0x0 PUSH2 0x4E82 DUP3 PUSH2 0x4E65 JUMP JUMPDEST SWAP1 POP SWAP2 SWAP1 POP JUMP JUMPDEST PUSH2 0x4E92 DUP2 PUSH2 0x4E77 JUMP JUMPDEST DUP3 MSTORE POP POP JUMP JUMPDEST PUSH1 0x0 PUSH1 0x20 DUP3 ADD SWAP1 POP PUSH2 0x4EAD PUSH1 0x0 DUP4 ADD DUP5 PUSH2 0x4E89 JUMP JUMPDEST SWAP3 SWAP2 POP POP JUMP JUMPDEST PUSH1 0x0 PUSH1 0xFF DUP3 AND SWAP1 POP SWAP2 SWAP1 POP JUMP JUMPDEST PUSH2 0x4EC9 DUP2 PUSH2 0x4EB3 JUMP JUMPDEST DUP3 MSTORE POP POP JUMP JUMPDEST PUSH1 0x0 PUSH1 0x20 DUP3 ADD SWAP1 POP PUSH2 0x4EE4 PUSH1 0x0 DUP4 ADD DUP5 PUSH2 0x4EC0 JUMP JUMPDEST SWAP3 SWAP2 POP POP JUMP JUMPDEST PUSH1 0x0 PUSH1 0x20 DUP3 DUP5 SUB SLT ISZERO PUSH2 0x4F00 JUMPI PUSH2 0x4EFF PUSH2 0x4A7B JUMP JUMPDEST JUMPDEST PUSH1 0x0 PUSH2 0x4F0E DUP5 DUP3 DUP6 ADD PUSH2 0x4D33 JUMP JUMPDEST SWAP2 POP POP SWAP3 SWAP2 POP POP JUMP JUMPDEST PUSH1 0x0 PUSH2 0x4F22 DUP3 PUSH2 0x4E65 JUMP JUMPDEST SWAP1 POP SWAP2 SWAP1 POP JUMP JUMPDEST PUSH2 0x4F32 DUP2 PUSH2 0x4F17 JUMP JUMPDEST DUP3 MSTORE POP POP JUMP JUMPDEST PUSH1 0x0 PUSH1 0x20 DUP3 ADD SWAP1 POP PUSH2 0x4F4D PUSH1 0x0 DUP4 ADD DUP5 PUSH2 0x4F29 JUMP JUMPDEST SWAP3 SWAP2 POP POP JUMP JUMPDEST PUSH1 0x0 PUSH4 0xFFFFFFFF DUP3 AND SWAP1 POP SWAP2 SWAP1 POP JUMP JUMPDEST PUSH2 0x4F6C DUP2 PUSH2 0x4F53 JUMP JUMPDEST DUP3 MSTORE POP POP JUMP JUMPDEST PUSH1 0x0 PUSH1 0x20 DUP3 ADD SWAP1 POP PUSH2 0x4F87 PUSH1 0x0 DUP4 ADD DUP5 PUSH2 0x4F63 JUMP JUMPDEST SWAP3 SWAP2 POP POP JUMP JUMPDEST PUSH1 0x0 PUSH12 0xFFFFFFFFFFFFFFFFFFFFFFFF DUP3 AND SWAP1 POP SWAP2 SWAP1 POP JUMP JUMPDEST PUSH2 0x4FAE DUP2 PUSH2 0x4F8D JUMP JUMPDEST DUP3 MSTORE POP POP JUMP JUMPDEST PUSH1 0x0 PUSH1 0x20 DUP3 ADD SWAP1 POP PUSH2 0x4FC9 PUSH1 0x0 DUP4 ADD DUP5 PUSH2 0x4FA5 JUMP JUMPDEST SWAP3 SWAP2 POP POP JUMP JUMPDEST PUSH2 0x4FD8 DUP2 PUSH2 0x4BA7 JUMP JUMPDEST DUP2 EQ PUSH2 0x4FE3 JUMPI PUSH1 0x0 DUP1 REVERT JUMPDEST POP JUMP JUMPDEST PUSH1 0x0 DUP2 CALLDATALOAD SWAP1 POP PUSH2 0x4FF5 DUP2 PUSH2 0x4FCF JUMP JUMPDEST SWAP3 SWAP2 POP POP JUMP JUMPDEST PUSH1 0x0 DUP1 PUSH1 0x40 DUP4 DUP6 SUB SLT ISZERO PUSH2 0x5012 JUMPI PUSH2 0x5011 PUSH2 0x4A7B JUMP JUMPDEST JUMPDEST PUSH1 0x0 PUSH2 0x5020 DUP6 DUP3 DUP7 ADD PUSH2 0x4D33 JUMP JUMPDEST SWAP3 POP POP PUSH1 0x20 PUSH2 0x5031 DUP6 DUP3 DUP7 ADD PUSH2 0x4FE6 JUMP JUMPDEST SWAP2 POP POP SWAP3 POP SWAP3 SWAP1 POP JUMP JUMPDEST PUSH1 0x0 PUSH2 0x5046 DUP3 PUSH2 0x4E65 JUMP JUMPDEST SWAP1 POP SWAP2 SWAP1 POP JUMP JUMPDEST PUSH2 0x5056 DUP2 PUSH2 0x503B JUMP JUMPDEST DUP3 MSTORE POP POP JUMP JUMPDEST PUSH1 0x0 PUSH1 0x20 DUP3 ADD SWAP1 POP PUSH2 0x5071 PUSH1 0x0 DUP4 ADD DUP5 PUSH2 0x504D JUMP JUMPDEST SWAP3 SWAP2 POP POP JUMP JUMPDEST PUSH1 0x0 DUP1 REVERT JUMPDEST PUSH1 0x0 DUP1 REVERT JUMPDEST PUSH32 0x4E487B7100000000000000000000000000000000000000000000000000000000 PUSH1 0x0 MSTORE PUSH1 0x41 PUSH1 0x4 MSTORE PUSH1 0x24 PUSH1 0x0 REVERT JUMPDEST PUSH2 0x50B9 DUP3 PUSH2 0x4C23 JUMP JUMPDEST DUP2 ADD DUP2 DUP2 LT PUSH8 0xFFFFFFFFFFFFFFFF DUP3 GT OR ISZERO PUSH2 0x50D8 JUMPI PUSH2 0x50D7 PUSH2 0x5081 JUMP JUMPDEST JUMPDEST DUP1 PUSH1 0x40 MSTORE POP POP POP JUMP JUMPDEST PUSH1 0x0 PUSH2 0x50EB PUSH2 0x4A71 JUMP JUMPDEST SWAP1 POP PUSH2 0x50F7 DUP3 DUP3 PUSH2 0x50B0 JUMP JUMPDEST SWAP2 SWAP1 POP JUMP JUMPDEST PUSH1 0x0 PUSH8 0xFFFFFFFFFFFFFFFF DUP3 GT ISZERO PUSH2 0x5117 JUMPI PUSH2 0x5116 PUSH2 0x5081 JUMP JUMPDEST JUMPDEST PUSH2 0x5120 DUP3 PUSH2 0x4C23 JUMP JUMPDEST SWAP1 POP PUSH1 0x20 DUP2 ADD SWAP1 POP SWAP2 SWAP1 POP JUMP JUMPDEST DUP3 DUP2 DUP4 CALLDATACOPY PUSH1 0x0 DUP4 DUP4 ADD MSTORE POP POP POP JUMP JUMPDEST PUSH1 0x0 PUSH2 0x514F PUSH2 0x514A DUP5 PUSH2 0x50FC JUMP JUMPDEST PUSH2 0x50E1 JUMP JUMPDEST SWAP1 POP DUP3 DUP2 MSTORE PUSH1 0x20 DUP2 ADD DUP5 DUP5 DUP5 ADD GT ISZERO PUSH2 0x516B JUMPI PUSH2 0x516A PUSH2 0x507C JUMP JUMPDEST JUMPDEST PUSH2 0x5176 DUP5 DUP3 DUP6 PUSH2 0x512D JUMP JUMPDEST POP SWAP4 SWAP3 POP POP POP JUMP JUMPDEST PUSH1 0x0 DUP3 PUSH1 0x1F DUP4 ADD SLT PUSH2 0x5193 JUMPI PUSH2 0x5192 PUSH2 0x5077 JUMP JUMPDEST JUMPDEST DUP2 CALLDATALOAD PUSH2 0x51A3 DUP5 DUP3 PUSH1 0x20 DUP7 ADD PUSH2 0x513C JUMP JUMPDEST SWAP2 POP POP SWAP3 SWAP2 POP POP JUMP JUMPDEST PUSH1 0x0 DUP1 PUSH1 0x0 DUP1 PUSH1 0x80 DUP6 DUP8 SUB SLT ISZERO PUSH2 0x51C6 JUMPI PUSH2 0x51C5 PUSH2 0x4A7B JUMP JUMPDEST JUMPDEST PUSH1 0x0 PUSH2 0x51D4 DUP8 DUP3 DUP9 ADD PUSH2 0x4D33 JUMP JUMPDEST SWAP5 POP POP PUSH1 0x20 PUSH2 0x51E5 DUP8 DUP3 DUP9 ADD PUSH2 0x4D33 JUMP JUMPDEST SWAP4 POP POP PUSH1 0x40 PUSH2 0x51F6 DUP8 DUP3 DUP9 ADD PUSH2 0x4CDA JUMP JUMPDEST SWAP3 POP POP PUSH1 0x60 DUP6 ADD CALLDATALOAD PUSH8 0xFFFFFFFFFFFFFFFF DUP2 GT ISZERO PUSH2 0x5217 JUMPI PUSH2 0x5216 PUSH2 0x4A80 JUMP JUMPDEST JUMPDEST PUSH2 0x5223 DUP8 DUP3 DUP9 ADD PUSH2 0x517E JUMP JUMPDEST SWAP2 POP POP SWAP3 SWAP6 SWAP2 SWAP5 POP SWAP3 POP JUMP JUMPDEST PUSH1 0x0 PUSH8 0xFFFFFFFFFFFFFFFF DUP3 GT ISZERO PUSH2 0x524A JUMPI PUSH2 0x5249 PUSH2 0x5081 JUMP JUMPDEST JUMPDEST PUSH2 0x5253 DUP3 PUSH2 0x4C23 JUMP JUMPDEST SWAP1 POP PUSH1 0x20 DUP2 ADD SWAP1 POP SWAP2 SWAP1 POP JUMP JUMPDEST PUSH1 0x0 PUSH2 0x5273 PUSH2 0x526E DUP5 PUSH2 0x522F JUMP JUMPDEST PUSH2 0x50E1 JUMP JUMPDEST SWAP1 POP DUP3 DUP2 MSTORE PUSH1 0x20 DUP2 ADD DUP5 DUP5 DUP5 ADD GT ISZERO PUSH2 0x528F JUMPI PUSH2 0x528E PUSH2 0x507C JUMP JUMPDEST JUMPDEST PUSH2 0x529A DUP5 DUP3 DUP6 PUSH2 0x512D JUMP JUMPDEST POP SWAP4 SWAP3 POP POP POP JUMP JUMPDEST PUSH1 0x0 DUP3 PUSH1 0x1F DUP4 ADD SLT PUSH2 0x52B7 JUMPI PUSH2 0x52B6 PUSH2 0x5077 JUMP JUMPDEST JUMPDEST DUP2 CALLDATALOAD PUSH2 0x52C7 DUP5 DUP3 PUSH1 0x20 DUP7 ADD PUSH2 0x5260 JUMP JUMPDEST SWAP2 POP POP SWAP3 SWAP2 POP POP JUMP JUMPDEST PUSH1 0x0 PUSH1 0x20 DUP3 DUP5 SUB SLT ISZERO PUSH2 0x52E6 JUMPI PUSH2 0x52E5 PUSH2 0x4A7B JUMP JUMPDEST JUMPDEST PUSH1 0x0 DUP3 ADD CALLDATALOAD PUSH8 0xFFFFFFFFFFFFFFFF DUP2 GT ISZERO PUSH2 0x5304 JUMPI PUSH2 0x5303 PUSH2 0x4A80 JUMP JUMPDEST JUMPDEST PUSH2 0x5310 DUP5 DUP3 DUP6 ADD PUSH2 0x52A2 JUMP JUMPDEST SWAP2 POP POP SWAP3 SWAP2 POP POP JUMP JUMPDEST PUSH2 0x5322 DUP2 PUSH2 0x4EB3 JUMP JUMPDEST DUP2 EQ PUSH2 0x532D JUMPI PUSH1 0x0 DUP1 REVERT JUMPDEST POP JUMP JUMPDEST PUSH1 0x0 DUP2 CALLDATALOAD SWAP1 POP PUSH2 0x533F DUP2 PUSH2 0x5319 JUMP JUMPDEST SWAP3 SWAP2 POP POP JUMP JUMPDEST PUSH2 0x534E DUP2 PUSH2 0x4DB2 JUMP JUMPDEST DUP2 EQ PUSH2 0x5359 JUMPI PUSH1 0x0 DUP1 REVERT JUMPDEST POP JUMP JUMPDEST PUSH1 0x0 DUP2 CALLDATALOAD SWAP1 POP PUSH2 0x536B DUP2 PUSH2 0x5345 JUMP JUMPDEST SWAP3 SWAP2 POP POP JUMP JUMPDEST PUSH1 0x0 DUP1 PUSH1 0x0 DUP1 PUSH1 0x0 DUP1 PUSH1 0xC0 DUP8 DUP10 SUB SLT ISZERO PUSH2 0x538E JUMPI PUSH2 0x538D PUSH2 0x4A7B JUMP JUMPDEST JUMPDEST PUSH1 0x0 PUSH2 0x539C DUP10 DUP3 DUP11 ADD PUSH2 0x4D33 JUMP JUMPDEST SWAP7 POP POP PUSH1 0x20 PUSH2 0x53AD DUP10 DUP3 DUP11 ADD PUSH2 0x4CDA JUMP JUMPDEST SWAP6 POP POP PUSH1 0x40 PUSH2 0x53BE DUP10 DUP3 DUP11 ADD PUSH2 0x4CDA JUMP JUMPDEST SWAP5 POP POP PUSH1 0x60 PUSH2 0x53CF DUP10 DUP3 DUP11 ADD PUSH2 0x5330 JUMP JUMPDEST SWAP4 POP POP PUSH1 0x80 PUSH2 0x53E0 DUP10 DUP3 DUP11 ADD PUSH2 0x535C JUMP JUMPDEST SWAP3 POP POP PUSH1 0xA0 PUSH2 0x53F1 DUP10 DUP3 DUP11 ADD PUSH2 0x535C JUMP JUMPDEST SWAP2 POP POP SWAP3 SWAP6 POP SWAP3 SWAP6 POP SWAP3 SWAP6 JUMP JUMPDEST PUSH1 0x0 PUSH2 0x5409 DUP3 PUSH2 0x4AA5 JUMP JUMPDEST SWAP1 POP SWAP2 SWAP1 POP JUMP JUMPDEST PUSH2 0x5419 DUP2 PUSH2 0x53FE JUMP JUMPDEST DUP2 EQ PUSH2 0x5424 JUMPI PUSH1 0x0 DUP1 REVERT JUMPDEST POP JUMP JUMPDEST PUSH1 0x0 DUP2 CALLDATALOAD SWAP1 POP PUSH2 0x5436 DUP2 PUSH2 0x5410 JUMP JUMPDEST SWAP3 SWAP2 POP POP JUMP JUMPDEST PUSH1 0x0 PUSH1 0x20 DUP3 DUP5 SUB SLT ISZERO PUSH2 0x5452 JUMPI PUSH2 0x5451 PUSH2 0x4A7B JUMP JUMPDEST JUMPDEST PUSH1 0x0 PUSH2 0x5460 DUP5 DUP3 DUP6 ADD PUSH2 0x5427 JUMP JUMPDEST SWAP2 POP POP SWAP3 SWAP2 POP POP JUMP JUMPDEST PUSH1 0x0 DUP1 PUSH1 0x40 DUP4 DUP6 SUB SLT ISZERO PUSH2 0x5480 JUMPI PUSH2 0x547F PUSH2 0x4A7B JUMP JUMPDEST JUMPDEST PUSH1 0x0 PUSH2 0x548E DUP6 DUP3 DUP7 ADD PUSH2 0x4D33 JUMP JUMPDEST SWAP3 POP POP PUSH1 0x20 PUSH2 0x549F DUP6 DUP3 DUP7 ADD PUSH2 0x4D33 JUMP JUMPDEST SWAP2 POP POP SWAP3 POP SWAP3 SWAP1 POP JUMP JUMPDEST PUSH1 0x0 PUSH6 0xFFFFFFFFFFFF DUP3 AND SWAP1 POP SWAP2 SWAP1 POP JUMP JUMPDEST PUSH2 0x54C4 DUP2 PUSH2 0x54A9 JUMP JUMPDEST DUP3 MSTORE POP POP JUMP JUMPDEST PUSH1 0x0 PUSH2 0x120 DUP3 ADD SWAP1 POP PUSH2 0x54E0 PUSH1 0x0 DUP4 ADD DUP13 PUSH2 0x54BB JUMP JUMPDEST PUSH2 0x54ED PUSH1 0x20 DUP4 ADD DUP12 PUSH2 0x54BB JUMP JUMPDEST PUSH2 0x54FA PUSH1 0x40 DUP4 ADD DUP11 PUSH2 0x54BB JUMP JUMPDEST PUSH2 0x5507 PUSH1 0x60 DUP4 ADD DUP10 PUSH2 0x54BB JUMP JUMPDEST PUSH2 0x5514 PUSH1 0x80 DUP4 ADD DUP9 PUSH2 0x54BB JUMP JUMPDEST PUSH2 0x5521 PUSH1 0xA0 DUP4 ADD DUP8 PUSH2 0x54BB JUMP JUMPDEST PUSH2 0x552E PUSH1 0xC0 DUP4 ADD DUP7 PUSH2 0x54BB JUMP JUMPDEST PUSH2 0x553B PUSH1 0xE0 DUP4 ADD DUP6 PUSH2 0x54BB JUMP JUMPDEST PUSH2 0x5549 PUSH2 0x100 DUP4 ADD DUP5 PUSH2 0x54BB JUMP JUMPDEST SWAP11 SWAP10 POP POP POP POP POP POP POP POP POP POP JUMP JUMPDEST PUSH2 0x5560 DUP2 PUSH2 0x4F53 JUMP JUMPDEST DUP2 EQ PUSH2 0x556B JUMPI PUSH1 0x0 DUP1 REVERT JUMPDEST POP JUMP JUMPDEST PUSH1 0x0 DUP2 CALLDATALOAD SWAP1 POP PUSH2 0x557D DUP2 PUSH2 0x5557 JUMP JUMPDEST SWAP3 SWAP2 POP POP JUMP JUMPDEST PUSH1 0x0 DUP1 PUSH1 0x40 DUP4 DUP6 SUB SLT ISZERO PUSH2 0x559A JUMPI PUSH2 0x5599 PUSH2 0x4A7B JUMP JUMPDEST JUMPDEST PUSH1 0x0 PUSH2 0x55A8 DUP6 DUP3 DUP7 ADD PUSH2 0x4D33 JUMP JUMPDEST SWAP3 POP POP PUSH1 0x20 PUSH2 0x55B9 DUP6 DUP3 DUP7 ADD PUSH2 0x556E JUMP JUMPDEST SWAP2 POP POP SWAP3 POP SWAP3 SWAP1 POP JUMP JUMPDEST PUSH1 0x0 PUSH1 0x40 DUP3 ADD SWAP1 POP PUSH2 0x55D8 PUSH1 0x0 DUP4 ADD DUP6 PUSH2 0x4F63 JUMP JUMPDEST PUSH2 0x55E5 PUSH1 0x20 DUP4 ADD DUP5 PUSH2 0x4FA5 JUMP JUMPDEST SWAP4 SWAP3 POP POP POP JUMP JUMPDEST PUSH32 0x4F776E61626C653A2063616C6C6572206973206E6F7420746865206F776E6572 PUSH1 0x0 DUP3 ADD MSTORE POP JUMP JUMPDEST PUSH1 0x0 PUSH2 0x5622 PUSH1 0x20 DUP4 PUSH2 0x4BE8 JUMP JUMPDEST SWAP2 POP PUSH2 0x562D DUP3 PUSH2 0x55EC JUMP JUMPDEST PUSH1 0x20 DUP3 ADD SWAP1 POP SWAP2 SWAP1 POP JUMP JUMPDEST PUSH1 0x0 PUSH1 0x20 DUP3 ADD SWAP1 POP DUP2 DUP2 SUB PUSH1 0x0 DUP4 ADD MSTORE PUSH2 0x5651 DUP2 PUSH2 0x5615 JUMP JUMPDEST SWAP1 POP SWAP2 SWAP1 POP JUMP JUMPDEST PUSH32 0x44657363726970746F72206973206C6F636B6564000000000000000000000000 PUSH1 0x0 DUP3 ADD MSTORE POP JUMP JUMPDEST PUSH1 0x0 PUSH2 0x568E PUSH1 0x14 DUP4 PUSH2 0x4BE8 JUMP JUMPDEST SWAP2 POP PUSH2 0x5699 DUP3 PUSH2 0x5658 JUMP JUMPDEST PUSH1 0x20 DUP3 ADD SWAP1 POP SWAP2 SWAP1 POP JUMP JUMPDEST PUSH1 0x0 PUSH1 0x20 DUP3 ADD SWAP1 POP DUP2 DUP2 SUB PUSH1 0x0 DUP4 ADD MSTORE PUSH2 0x56BD DUP2 PUSH2 0x5681 JUMP JUMPDEST SWAP1 POP SWAP2 SWAP1 POP JUMP JUMPDEST PUSH32 0x4E487B7100000000000000000000000000000000000000000000000000000000 PUSH1 0x0 MSTORE PUSH1 0x22 PUSH1 0x4 MSTORE PUSH1 0x24 PUSH1 0x0 REVERT JUMPDEST PUSH1 0x0 PUSH1 0x2 DUP3 DIV SWAP1 POP PUSH1 0x1 DUP3 AND DUP1 PUSH2 0x570B JUMPI PUSH1 0x7F DUP3 AND SWAP2 POP JUMPDEST PUSH1 0x20 DUP3 LT DUP2 SUB PUSH2 0x571E JUMPI PUSH2 0x571D PUSH2 0x56C4 JUMP JUMPDEST JUMPDEST POP SWAP2 SWAP1 POP JUMP JUMPDEST PUSH32 0x4552433732313A20617070726F76656420717565727920666F72206E6F6E6578 PUSH1 0x0 DUP3 ADD MSTORE PUSH32 0x697374656E7420746F6B656E0000000000000000000000000000000000000000 PUSH1 0x20 DUP3 ADD MSTORE POP JUMP JUMPDEST PUSH1 0x0 PUSH2 0x5780 PUSH1 0x2C DUP4 PUSH2 0x4BE8 JUMP JUMPDEST SWAP2 POP PUSH2 0x578B DUP3 PUSH2 0x5724 JUMP JUMPDEST PUSH1 0x40 DUP3 ADD SWAP1 POP SWAP2 SWAP1 POP JUMP JUMPDEST PUSH1 0x0 PUSH1 0x20 DUP3 ADD SWAP1 POP DUP2 DUP2 SUB PUSH1 0x0 DUP4 ADD MSTORE PUSH2 0x57AF DUP2 PUSH2 0x5773 JUMP JUMPDEST SWAP1 POP SWAP2 SWAP1 POP JUMP JUMPDEST PUSH32 0x4552433732313A20617070726F76616C20746F2063757272656E74206F776E65 PUSH1 0x0 DUP3 ADD MSTORE PUSH32 0x7200000000000000000000000000000000000000000000000000000000000000 PUSH1 0x20 DUP3 ADD MSTORE POP JUMP JUMPDEST PUSH1 0x0 PUSH2 0x5812 PUSH1 0x21 DUP4 PUSH2 0x4BE8 JUMP JUMPDEST SWAP2 POP PUSH2 0x581D DUP3 PUSH2 0x57B6 JUMP JUMPDEST PUSH1 0x40 DUP3 ADD SWAP1 POP SWAP2 SWAP1 POP JUMP JUMPDEST PUSH1 0x0 PUSH1 0x20 DUP3 ADD SWAP1 POP DUP2 DUP2 SUB PUSH1 0x0 DUP4 ADD MSTORE PUSH2 0x5841 DUP2 PUSH2 0x5805 JUMP JUMPDEST SWAP1 POP SWAP2 SWAP1 POP JUMP JUMPDEST PUSH32 0x4552433732313A20617070726F76652063616C6C6572206973206E6F74206F77 PUSH1 0x0 DUP3 ADD MSTORE PUSH32 0x6E6572206E6F7220617070726F76656420666F7220616C6C0000000000000000 PUSH1 0x20 DUP3 ADD MSTORE POP JUMP JUMPDEST PUSH1 0x0 PUSH2 0x58A4 PUSH1 0x38 DUP4 PUSH2 0x4BE8 JUMP JUMPDEST SWAP2 POP PUSH2 0x58AF DUP3 PUSH2 0x5848 JUMP JUMPDEST PUSH1 0x40 DUP3 ADD SWAP1 POP SWAP2 SWAP1 POP JUMP JUMPDEST PUSH1 0x0 PUSH1 0x20 DUP3 ADD SWAP1 POP DUP2 DUP2 SUB PUSH1 0x0 DUP4 ADD MSTORE PUSH2 0x58D3 DUP2 PUSH2 0x5897 JUMP JUMPDEST SWAP1 POP SWAP2 SWAP1 POP JUMP JUMPDEST PUSH32 0x53656E646572206973206E6F7420746865206D696E7465720000000000000000 PUSH1 0x0 DUP3 ADD MSTORE POP JUMP JUMPDEST PUSH1 0x0 PUSH2 0x5910 PUSH1 0x18 DUP4 PUSH2 0x4BE8 JUMP JUMPDEST SWAP2 POP PUSH2 0x591B DUP3 PUSH2 0x58DA JUMP JUMPDEST PUSH1 0x20 DUP3 ADD SWAP1 POP SWAP2 SWAP1 POP JUMP JUMPDEST PUSH1 0x0 PUSH1 0x20 DUP3 ADD SWAP1 POP DUP2 DUP2 SUB PUSH1 0x0 DUP4 ADD MSTORE PUSH2 0x593F DUP2 PUSH2 0x5903 JUMP JUMPDEST SWAP1 POP SWAP2 SWAP1 POP JUMP JUMPDEST PUSH32 0x4E487B7100000000000000000000000000000000000000000000000000000000 PUSH1 0x0 MSTORE PUSH1 0x12 PUSH1 0x4 MSTORE PUSH1 0x24 PUSH1 0x0 REVERT JUMPDEST PUSH1 0x0 PUSH2 0x5980 DUP3 PUSH2 0x4CB9 JUMP JUMPDEST SWAP2 POP PUSH2 0x598B DUP4 PUSH2 0x4CB9 JUMP JUMPDEST SWAP3 POP DUP3 PUSH2 0x599B JUMPI PUSH2 0x599A PUSH2 0x5946 JUMP JUMPDEST JUMPDEST DUP3 DUP3 MOD SWAP1 POP SWAP3 SWAP2 POP POP JUMP JUMPDEST PUSH32 0x4E487B7100000000000000000000000000000000000000000000000000000000 PUSH1 0x0 MSTORE PUSH1 0x11 PUSH1 0x4 MSTORE PUSH1 0x24 PUSH1 0x0 REVERT JUMPDEST PUSH1 0x0 PUSH2 0x59E0 DUP3 PUSH2 0x4CB9 JUMP JUMPDEST SWAP2 POP PUSH32 0xFFFFFFFFFFFFFFFFFFFFFFFFFFFFFFFFFFFFFFFFFFFFFFFFFFFFFFFFFFFFFFFF DUP3 SUB PUSH2 0x5A12 JUMPI PUSH2 0x5A11 PUSH2 0x59A6 JUMP JUMPDEST JUMPDEST PUSH1 0x1 DUP3 ADD SWAP1 POP SWAP2 SWAP1 POP JUMP JUMPDEST PUSH32 0x4552433732313A207472616E736665722063616C6C6572206973206E6F74206F PUSH1 0x0 DUP3 ADD MSTORE PUSH32 0x776E6572206E6F7220617070726F766564000000000000000000000000000000 PUSH1 0x20 DUP3 ADD MSTORE POP JUMP JUMPDEST PUSH1 0x0 PUSH2 0x5A79 PUSH1 0x31 DUP4 PUSH2 0x4BE8 JUMP JUMPDEST SWAP2 POP PUSH2 0x5A84 DUP3 PUSH2 0x5A1D JUMP JUMPDEST PUSH1 0x40 DUP3 ADD SWAP1 POP SWAP2 SWAP1 POP JUMP JUMPDEST PUSH1 0x0 PUSH1 0x20 DUP3 ADD SWAP1 POP DUP2 DUP2 SUB PUSH1 0x0 DUP4 ADD MSTORE PUSH2 0x5AA8 DUP2 PUSH2 0x5A6C JUMP JUMPDEST SWAP1 POP SWAP2 SWAP1 POP JUMP JUMPDEST PUSH32 0x455243373231456E756D657261626C653A206F776E657220696E646578206F75 PUSH1 0x0 DUP3 ADD MSTORE PUSH32 0x74206F6620626F756E6473000000000000000000000000000000000000000000 PUSH1 0x20 DUP3 ADD MSTORE POP JUMP JUMPDEST PUSH1 0x0 PUSH2 0x5B0B PUSH1 0x2B DUP4 PUSH2 0x4BE8 JUMP JUMPDEST SWAP2 POP PUSH2 0x5B16 DUP3 PUSH2 0x5AAF JUMP JUMPDEST PUSH1 0x40 DUP3 ADD SWAP1 POP SWAP2 SWAP1 POP JUMP JUMPDEST PUSH1 0x0 PUSH1 0x20 DUP3 ADD SWAP1 POP DUP2 DUP2 SUB PUSH1 0x0 DUP4 ADD MSTORE PUSH2 0x5B3A DUP2 PUSH2 0x5AFE JUMP JUMPDEST SWAP1 POP SWAP2 SWAP1 POP JUMP JUMPDEST PUSH32 0x53656E646572206973206E6F7420746865206B6F616C61736572732044414F00 PUSH1 0x0 DUP3 ADD MSTORE POP JUMP JUMPDEST PUSH1 0x0 PUSH2 0x5B77 PUSH1 0x1F DUP4 PUSH2 0x4BE8 JUMP JUMPDEST SWAP2 POP PUSH2 0x5B82 DUP3 PUSH2 0x5B41 JUMP JUMPDEST PUSH1 0x20 DUP3 ADD SWAP1 POP SWAP2 SWAP1 POP JUMP JUMPDEST PUSH1 0x0 PUSH1 0x20 DUP3 ADD SWAP1 POP DUP2 DUP2 SUB PUSH1 0x0 DUP4 ADD MSTORE PUSH2 0x5BA6 DUP2 PUSH2 0x5B6A JUMP JUMPDEST SWAP1 POP SWAP2 SWAP1 POP JUMP JUMPDEST PUSH32 0x455243373231456E756D657261626C653A20676C6F62616C20696E646578206F PUSH1 0x0 DUP3 ADD MSTORE PUSH32 0x7574206F6620626F756E64730000000000000000000000000000000000000000 PUSH1 0x20 DUP3 ADD MSTORE POP JUMP JUMPDEST PUSH1 0x0 PUSH2 0x5C09 PUSH1 0x2C DUP4 PUSH2 0x4BE8 JUMP JUMPDEST SWAP2 POP PUSH2 0x5C14 DUP3 PUSH2 0x5BAD JUMP JUMPDEST PUSH1 0x40 DUP3 ADD SWAP1 POP SWAP2 SWAP1 POP JUMP JUMPDEST PUSH1 0x0 PUSH1 0x20 DUP3 ADD SWAP1 POP DUP2 DUP2 SUB PUSH1 0x0 DUP4 ADD MSTORE PUSH2 0x5C38 DUP2 PUSH2 0x5BFC JUMP JUMPDEST SWAP1 POP SWAP2 SWAP1 POP JUMP JUMPDEST PUSH32 0x4E487B7100000000000000000000000000000000000000000000000000000000 PUSH1 0x0 MSTORE PUSH1 0x32 PUSH1 0x4 MSTORE PUSH1 0x24 PUSH1 0x0 REVERT JUMPDEST PUSH32 0x4E6F756E73546F6B656E3A2055524920717565727920666F72206E6F6E657869 PUSH1 0x0 DUP3 ADD MSTORE PUSH32 0x7374656E7420746F6B656E000000000000000000000000000000000000000000 PUSH1 0x20 DUP3 ADD MSTORE POP JUMP JUMPDEST PUSH1 0x0 PUSH2 0x5CCA PUSH1 0x2B DUP4 PUSH2 0x4BE8 JUMP JUMPDEST SWAP2 POP PUSH2 0x5CD5 DUP3 PUSH2 0x5C6E JUMP JUMPDEST PUSH1 0x40 DUP3 ADD SWAP1 POP SWAP2 SWAP1 POP JUMP JUMPDEST PUSH1 0x0 PUSH1 0x20 DUP3 ADD SWAP1 POP DUP2 DUP2 SUB PUSH1 0x0 DUP4 ADD MSTORE PUSH2 0x5CF9 DUP2 PUSH2 0x5CBD JUMP JUMPDEST SWAP1 POP SWAP2 SWAP1 POP JUMP JUMPDEST PUSH1 0x0 DUP2 PUSH1 0x0 SHR SWAP1 POP SWAP2 SWAP1 POP JUMP JUMPDEST PUSH1 0x0 PUSH6 0xFFFFFFFFFFFF DUP3 AND SWAP1 POP SWAP2 SWAP1 POP JUMP JUMPDEST PUSH1 0x0 PUSH2 0x5D32 PUSH2 0x5D2D DUP4 PUSH2 0x5D00 JUMP JUMPDEST PUSH2 0x5D0D JUMP JUMPDEST SWAP1 POP SWAP2 SWAP1 POP JUMP JUMPDEST PUSH2 0x5D42 DUP2 PUSH2 0x54A9 JUMP JUMPDEST DUP3 MSTORE POP POP JUMP JUMPDEST PUSH1 0x0 DUP2 PUSH1 0x30 SHR SWAP1 POP SWAP2 SWAP1 POP JUMP JUMPDEST PUSH1 0x0 PUSH2 0x5D68 PUSH2 0x5D63 DUP4 PUSH2 0x5D48 JUMP JUMPDEST PUSH2 0x5D0D JUMP JUMPDEST SWAP1 POP SWAP2 SWAP1 POP JUMP JUMPDEST PUSH1 0x0 DUP2 PUSH1 0x60 SHR SWAP1 POP SWAP2 SWAP1 POP JUMP JUMPDEST PUSH1 0x0 PUSH2 0x5D8F PUSH2 0x5D8A DUP4 PUSH2 0x5D6F JUMP JUMPDEST PUSH2 0x5D0D JUMP JUMPDEST SWAP1 POP SWAP2 SWAP1 POP JUMP JUMPDEST PUSH1 0x0 DUP2 PUSH1 0x90 SHR SWAP1 POP SWAP2 SWAP1 POP JUMP JUMPDEST PUSH1 0x0 PUSH2 0x5DB6 PUSH2 0x5DB1 DUP4 PUSH2 0x5D96 JUMP JUMPDEST PUSH2 0x5D0D JUMP JUMPDEST SWAP1 POP SWAP2 SWAP1 POP JUMP JUMPDEST PUSH1 0x0 DUP2 PUSH1 0xC0 SHR SWAP1 POP SWAP2 SWAP1 POP JUMP JUMPDEST PUSH1 0x0 PUSH2 0x5DDD PUSH2 0x5DD8 DUP4 PUSH2 0x5DBD JUMP JUMPDEST PUSH2 0x5D0D JUMP JUMPDEST SWAP1 POP SWAP2 SWAP1 POP JUMP JUMPDEST PUSH2 0x120 DUP3 ADD PUSH1 0x0 DUP1 DUP4 ADD SLOAD SWAP1 POP PUSH2 0x5DFA DUP2 PUSH2 0x5D1F JUMP JUMPDEST PUSH2 0x5E07 PUSH1 0x0 DUP7 ADD DUP3 PUSH2 0x5D39 JUMP JUMPDEST POP PUSH2 0x5E11 DUP2 PUSH2 0x5D55 JUMP JUMPDEST PUSH2 0x5E1E PUSH1 0x20 DUP7 ADD DUP3 PUSH2 0x5D39 JUMP JUMPDEST POP PUSH2 0x5E28 DUP2 PUSH2 0x5D7C JUMP JUMPDEST PUSH2 0x5E35 PUSH1 0x40 DUP7 ADD DUP3 PUSH2 0x5D39 JUMP JUMPDEST POP PUSH2 0x5E3F DUP2 PUSH2 0x5DA3 JUMP JUMPDEST PUSH2 0x5E4C PUSH1 0x60 DUP7 ADD DUP3 PUSH2 0x5D39 JUMP JUMPDEST POP PUSH2 0x5E56 DUP2 PUSH2 0x5DCA JUMP JUMPDEST PUSH2 0x5E63 PUSH1 0x80 DUP7 ADD DUP3 PUSH2 0x5D39 JUMP JUMPDEST POP PUSH1 0x1 DUP4 ADD SLOAD SWAP1 POP PUSH2 0x5E74 DUP2 PUSH2 0x5D1F JUMP JUMPDEST PUSH2 0x5E81 PUSH1 0xA0 DUP7 ADD DUP3 PUSH2 0x5D39 JUMP JUMPDEST POP PUSH2 0x5E8B DUP2 PUSH2 0x5D55 JUMP JUMPDEST PUSH2 0x5E98 PUSH1 0xC0 DUP7 ADD DUP3 PUSH2 0x5D39 JUMP JUMPDEST POP PUSH2 0x5EA2 DUP2 PUSH2 0x5D7C JUMP JUMPDEST PUSH2 0x5EAF PUSH1 0xE0 DUP7 ADD DUP3 PUSH2 0x5D39 JUMP JUMPDEST POP PUSH2 0x5EB9 DUP2 PUSH2 0x5DA3 JUMP JUMPDEST PUSH2 0x5EC7 PUSH2 0x100 DUP7 ADD DUP3 PUSH2 0x5D39 JUMP JUMPDEST POP POP POP POP POP JUMP JUMPDEST PUSH1 0x0 PUSH2 0x140 DUP3 ADD SWAP1 POP PUSH2 0x5EE4 PUSH1 0x0 DUP4 ADD DUP6 PUSH2 0x4D88 JUMP JUMPDEST PUSH2 0x5EF1 PUSH1 0x20 DUP4 ADD DUP5 PUSH2 0x5DE4 JUMP JUMPDEST SWAP4 SWAP3 POP POP POP JUMP JUMPDEST PUSH1 0x0 PUSH2 0x5F0B PUSH2 0x5F06 DUP5 PUSH2 0x522F JUMP JUMPDEST PUSH2 0x50E1 JUMP JUMPDEST SWAP1 POP DUP3 DUP2 MSTORE PUSH1 0x20 DUP2 ADD DUP5 DUP5 DUP5 ADD GT ISZERO PUSH2 0x5F27 JUMPI PUSH2 0x5F26 PUSH2 0x507C JUMP JUMPDEST JUMPDEST PUSH2 0x5F32 DUP5 DUP3 DUP6 PUSH2 0x4BF9 JUMP JUMPDEST POP SWAP4 SWAP3 POP POP POP JUMP JUMPDEST PUSH1 0x0 DUP3 PUSH1 0x1F DUP4 ADD SLT PUSH2 0x5F4F JUMPI PUSH2 0x5F4E PUSH2 0x5077 JUMP JUMPDEST JUMPDEST DUP2 MLOAD PUSH2 0x5F5F DUP5 DUP3 PUSH1 0x20 DUP7 ADD PUSH2 0x5EF8 JUMP JUMPDEST SWAP2 POP POP SWAP3 SWAP2 POP POP JUMP JUMPDEST PUSH1 0x0 PUSH1 0x20 DUP3 DUP5 SUB SLT ISZERO PUSH2 0x5F7E JUMPI PUSH2 0x5F7D PUSH2 0x4A7B JUMP JUMPDEST JUMPDEST PUSH1 0x0 DUP3 ADD MLOAD PUSH8 0xFFFFFFFFFFFFFFFF DUP2 GT ISZERO PUSH2 0x5F9C JUMPI PUSH2 0x5F9B PUSH2 0x4A80 JUMP JUMPDEST JUMPDEST PUSH2 0x5FA8 DUP5 DUP3 DUP6 ADD PUSH2 0x5F3A JUMP JUMPDEST SWAP2 POP POP SWAP3 SWAP2 POP POP JUMP JUMPDEST PUSH32 0x536565646572206973206C6F636B656400000000000000000000000000000000 PUSH1 0x0 DUP3 ADD MSTORE POP JUMP JUMPDEST PUSH1 0x0 PUSH2 0x5FE7 PUSH1 0x10 DUP4 PUSH2 0x4BE8 JUMP JUMPDEST SWAP2 POP PUSH2 0x5FF2 DUP3 PUSH2 0x5FB1 JUMP JUMPDEST PUSH1 0x20 DUP3 ADD SWAP1 POP SWAP2 SWAP1 POP JUMP JUMPDEST PUSH1 0x0 PUSH1 0x20 DUP3 ADD SWAP1 POP DUP2 DUP2 SUB PUSH1 0x0 DUP4 ADD MSTORE PUSH2 0x6016 DUP2 PUSH2 0x5FDA JUMP JUMPDEST SWAP1 POP SWAP2 SWAP1 POP JUMP JUMPDEST PUSH32 0x4552433732313A206F776E657220717565727920666F72206E6F6E6578697374 PUSH1 0x0 DUP3 ADD MSTORE PUSH32 0x656E7420746F6B656E0000000000000000000000000000000000000000000000 PUSH1 0x20 DUP3 ADD MSTORE POP JUMP JUMPDEST PUSH1 0x0 PUSH2 0x6079 PUSH1 0x29 DUP4 PUSH2 0x4BE8 JUMP JUMPDEST SWAP2 POP PUSH2 0x6084 DUP3 PUSH2 0x601D JUMP JUMPDEST PUSH1 0x40 DUP3 ADD SWAP1 POP SWAP2 SWAP1 POP JUMP JUMPDEST PUSH1 0x0 PUSH1 0x20 DUP3 ADD SWAP1 POP DUP2 DUP2 SUB PUSH1 0x0 DUP4 ADD MSTORE PUSH2 0x60A8 DUP2 PUSH2 0x606C JUMP JUMPDEST SWAP1 POP SWAP2 SWAP1 POP JUMP JUMPDEST PUSH32 0x4552433732313A2062616C616E636520717565727920666F7220746865207A65 PUSH1 0x0 DUP3 ADD MSTORE PUSH32 0x726F206164647265737300000000000000000000000000000000000000000000 PUSH1 0x20 DUP3 ADD MSTORE POP JUMP JUMPDEST PUSH1 0x0 PUSH2 0x610B PUSH1 0x2A DUP4 PUSH2 0x4BE8 JUMP JUMPDEST SWAP2 POP PUSH2 0x6116 DUP3 PUSH2 0x60AF JUMP JUMPDEST PUSH1 0x40 DUP3 ADD SWAP1 POP SWAP2 SWAP1 POP JUMP JUMPDEST PUSH1 0x0 PUSH1 0x20 DUP3 ADD SWAP1 POP DUP2 DUP2 SUB PUSH1 0x0 DUP4 ADD MSTORE PUSH2 0x613A DUP2 PUSH2 0x60FE JUMP JUMPDEST SWAP1 POP SWAP2 SWAP1 POP JUMP JUMPDEST PUSH32 0x4D696E746572206973206C6F636B656400000000000000000000000000000000 PUSH1 0x0 DUP3 ADD MSTORE POP JUMP JUMPDEST PUSH1 0x0 PUSH2 0x6177 PUSH1 0x10 DUP4 PUSH2 0x4BE8 JUMP JUMPDEST SWAP2 POP PUSH2 0x6182 DUP3 PUSH2 0x6141 JUMP JUMPDEST PUSH1 0x20 DUP3 ADD SWAP1 POP SWAP2 SWAP1 POP JUMP JUMPDEST PUSH1 0x0 PUSH1 0x20 DUP3 ADD SWAP1 POP DUP2 DUP2 SUB PUSH1 0x0 DUP4 ADD MSTORE PUSH2 0x61A6 DUP2 PUSH2 0x616A JUMP JUMPDEST SWAP1 POP SWAP2 SWAP1 POP JUMP JUMPDEST PUSH32 0x455243373231436865636B706F696E7461626C653A3A6765745072696F72566F PUSH1 0x0 DUP3 ADD MSTORE PUSH32 0x7465733A206E6F74207965742064657465726D696E6564000000000000000000 PUSH1 0x20 DUP3 ADD MSTORE POP JUMP JUMPDEST PUSH1 0x0 PUSH2 0x6209 PUSH1 0x37 DUP4 PUSH2 0x4BE8 JUMP JUMPDEST SWAP2 POP PUSH2 0x6214 DUP3 PUSH2 0x61AD JUMP JUMPDEST PUSH1 0x40 DUP3 ADD SWAP1 POP SWAP2 SWAP1 POP JUMP JUMPDEST PUSH1 0x0 PUSH1 0x20 DUP3 ADD SWAP1 POP DUP2 DUP2 SUB PUSH1 0x0 DUP4 ADD MSTORE PUSH2 0x6238 DUP2 PUSH2 0x61FC JUMP JUMPDEST SWAP1 POP SWAP2 SWAP1 POP JUMP JUMPDEST PUSH1 0x0 PUSH2 0x624A DUP3 PUSH2 0x4F53 JUMP JUMPDEST SWAP2 POP PUSH2 0x6255 DUP4 PUSH2 0x4F53 JUMP JUMPDEST SWAP3 POP DUP3 DUP3 SUB SWAP1 POP PUSH4 0xFFFFFFFF DUP2 GT ISZERO PUSH2 0x6271 JUMPI PUSH2 0x6270 PUSH2 0x59A6 JUMP JUMPDEST JUMPDEST SWAP3 SWAP2 POP POP JUMP JUMPDEST PUSH1 0x0 PUSH2 0x6282 DUP3 PUSH2 0x4F53 JUMP JUMPDEST SWAP2 POP PUSH2 0x628D DUP4 PUSH2 0x4F53 JUMP JUMPDEST SWAP3 POP DUP3 PUSH2 0x629D JUMPI PUSH2 0x629C PUSH2 0x5946 JUMP JUMPDEST JUMPDEST DUP3 DUP3 DIV SWAP1 POP SWAP3 SWAP2 POP POP JUMP JUMPDEST PUSH32 0x4552433732313A20617070726F766520746F2063616C6C657200000000000000 PUSH1 0x0 DUP3 ADD MSTORE POP JUMP JUMPDEST PUSH1 0x0 PUSH2 0x62DE PUSH1 0x19 DUP4 PUSH2 0x4BE8 JUMP JUMPDEST SWAP2 POP PUSH2 0x62E9 DUP3 PUSH2 0x62A8 JUMP JUMPDEST PUSH1 0x20 DUP3 ADD SWAP1 POP SWAP2 SWAP1 POP JUMP JUMPDEST PUSH1 0x0 PUSH1 0x20 DUP3 ADD SWAP1 POP DUP2 DUP2 SUB PUSH1 0x0 DUP4 ADD MSTORE PUSH2 0x630D DUP2 PUSH2 0x62D1 JUMP JUMPDEST SWAP1 POP SWAP2 SWAP1 POP JUMP JUMPDEST PUSH1 0x0 DUP2 SWAP1 POP DUP2 PUSH1 0x0 MSTORE PUSH1 0x20 PUSH1 0x0 KECCAK256 SWAP1 POP SWAP2 SWAP1 POP JUMP JUMPDEST PUSH1 0x0 PUSH1 0x20 PUSH1 0x1F DUP4 ADD DIV SWAP1 POP SWAP2 SWAP1 POP JUMP JUMPDEST PUSH1 0x0 DUP3 DUP3 SHL SWAP1 POP SWAP3 SWAP2 POP POP JUMP JUMPDEST PUSH1 0x0 PUSH1 0x8 DUP4 MUL PUSH2 0x6376 PUSH32 0xFFFFFFFFFFFFFFFFFFFFFFFFFFFFFFFFFFFFFFFFFFFFFFFFFFFFFFFFFFFFFFFF DUP3 PUSH2 0x6339 JUMP JUMPDEST PUSH2 0x6380 DUP7 DUP4 PUSH2 0x6339 JUMP JUMPDEST SWAP6 POP DUP1 NOT DUP5 AND SWAP4 POP DUP1 DUP7 AND DUP5 OR SWAP3 POP POP POP SWAP4 SWAP3 POP POP POP JUMP JUMPDEST PUSH1 0x0 PUSH2 0x63B3 PUSH2 0x63AE PUSH2 0x63A9 DUP5 PUSH2 0x4CB9 JUMP JUMPDEST PUSH2 0x4E39 JUMP JUMPDEST PUSH2 0x4CB9 JUMP JUMPDEST SWAP1 POP SWAP2 SWAP1 POP JUMP JUMPDEST PUSH1 0x0 DUP2 SWAP1 POP SWAP2 SWAP1 POP JUMP JUMPDEST PUSH2 0x63CD DUP4 PUSH2 0x6398 JUMP JUMPDEST PUSH2 0x63E1 PUSH2 0x63D9 DUP3 PUSH2 0x63BA JUMP JUMPDEST DUP5 DUP5 SLOAD PUSH2 0x6346 JUMP JUMPDEST DUP3 SSTORE POP POP POP POP JUMP JUMPDEST PUSH1 0x0 SWAP1 JUMP JUMPDEST PUSH2 0x63F6 PUSH2 0x63E9 JUMP JUMPDEST PUSH2 0x6401 DUP2 DUP5 DUP5 PUSH2 0x63C4 JUMP JUMPDEST POP POP POP JUMP JUMPDEST JUMPDEST DUP2 DUP2 LT ISZERO PUSH2 0x6425 JUMPI PUSH2 0x641A PUSH1 0x0 DUP3 PUSH2 0x63EE JUMP JUMPDEST PUSH1 0x1 DUP2 ADD SWAP1 POP PUSH2 0x6407 JUMP JUMPDEST POP POP JUMP JUMPDEST PUSH1 0x1F DUP3 GT ISZERO PUSH2 0x646A JUMPI PUSH2 0x643B DUP2 PUSH2 0x6314 JUMP JUMPDEST PUSH2 0x6444 DUP5 PUSH2 0x6329 JUMP JUMPDEST DUP2 ADD PUSH1 0x20 DUP6 LT ISZERO PUSH2 0x6453 JUMPI DUP2 SWAP1 POP JUMPDEST PUSH2 0x6467 PUSH2 0x645F DUP6 PUSH2 0x6329 JUMP JUMPDEST DUP4 ADD DUP3 PUSH2 0x6406 JUMP JUMPDEST POP POP JUMPDEST POP POP POP JUMP JUMPDEST PUSH1 0x0 DUP3 DUP3 SHR SWAP1 POP SWAP3 SWAP2 POP POP JUMP JUMPDEST PUSH1 0x0 PUSH2 0x648D PUSH1 0x0 NOT DUP5 PUSH1 0x8 MUL PUSH2 0x646F JUMP JUMPDEST NOT DUP1 DUP4 AND SWAP2 POP POP SWAP3 SWAP2 POP POP JUMP JUMPDEST PUSH1 0x0 PUSH2 0x64A6 DUP4 DUP4 PUSH2 0x647C JUMP JUMPDEST SWAP2 POP DUP3 PUSH1 0x2 MUL DUP3 OR SWAP1 POP SWAP3 SWAP2 POP POP JUMP JUMPDEST PUSH2 0x64BF DUP3 PUSH2 0x4BDD JUMP JUMPDEST PUSH8 0xFFFFFFFFFFFFFFFF DUP2 GT ISZERO PUSH2 0x64D8 JUMPI PUSH2 0x64D7 PUSH2 0x5081 JUMP JUMPDEST JUMPDEST PUSH2 0x64E2 DUP3 SLOAD PUSH2 0x56F3 JUMP JUMPDEST PUSH2 0x64ED DUP3 DUP3 DUP6 PUSH2 0x6429 JUMP JUMPDEST PUSH1 0x0 PUSH1 0x20 SWAP1 POP PUSH1 0x1F DUP4 GT PUSH1 0x1 DUP2 EQ PUSH2 0x6520 JUMPI PUSH1 0x0 DUP5 ISZERO PUSH2 0x650E JUMPI DUP3 DUP8 ADD MLOAD SWAP1 POP JUMPDEST PUSH2 0x6518 DUP6 DUP3 PUSH2 0x649A JUMP JUMPDEST DUP7 SSTORE POP PUSH2 0x6580 JUMP JUMPDEST PUSH1 0x1F NOT DUP5 AND PUSH2 0x652E DUP7 PUSH2 0x6314 JUMP JUMPDEST PUSH1 0x0 JUMPDEST DUP3 DUP2 LT ISZERO PUSH2 0x6556 JUMPI DUP5 DUP10 ADD MLOAD DUP3 SSTORE PUSH1 0x1 DUP3 ADD SWAP2 POP PUSH1 0x20 DUP6 ADD SWAP5 POP PUSH1 0x20 DUP2 ADD SWAP1 POP PUSH2 0x6531 JUMP JUMPDEST DUP7 DUP4 LT ISZERO PUSH2 0x6573 JUMPI DUP5 DUP10 ADD MLOAD PUSH2 0x656F PUSH1 0x1F DUP10 AND DUP3 PUSH2 0x647C JUMP JUMPDEST DUP4 SSTORE POP JUMPDEST PUSH1 0x1 PUSH1 0x2 DUP9 MUL ADD DUP9 SSTORE POP POP POP JUMPDEST POP POP POP POP POP POP JUMP JUMPDEST PUSH1 0x0 PUSH1 0x80 DUP3 ADD SWAP1 POP PUSH2 0x659D PUSH1 0x0 DUP4 ADD DUP8 PUSH2 0x4DBC JUMP JUMPDEST PUSH2 0x65AA PUSH1 0x20 DUP4 ADD DUP7 PUSH2 0x4DBC JUMP JUMPDEST PUSH2 0x65B7 PUSH1 0x40 DUP4 ADD DUP6 PUSH2 0x4D88 JUMP JUMPDEST PUSH2 0x65C4 PUSH1 0x60 DUP4 ADD DUP5 PUSH2 0x4C8F JUMP JUMPDEST SWAP6 SWAP5 POP POP POP POP POP JUMP JUMPDEST PUSH1 0x0 PUSH1 0x80 DUP3 ADD SWAP1 POP PUSH2 0x65E2 PUSH1 0x0 DUP4 ADD DUP8 PUSH2 0x4DBC JUMP JUMPDEST PUSH2 0x65EF PUSH1 0x20 DUP4 ADD DUP7 PUSH2 0x4C8F JUMP JUMPDEST PUSH2 0x65FC PUSH1 0x40 DUP4 ADD DUP6 PUSH2 0x4D88 JUMP JUMPDEST PUSH2 0x6609 PUSH1 0x60 DUP4 ADD DUP5 PUSH2 0x4D88 JUMP JUMPDEST SWAP6 SWAP5 POP POP POP POP POP JUMP JUMPDEST PUSH1 0x0 DUP2 SWAP1 POP SWAP3 SWAP2 POP POP JUMP JUMPDEST PUSH32 0x1901000000000000000000000000000000000000000000000000000000000000 PUSH1 0x0 DUP3 ADD MSTORE POP JUMP JUMPDEST PUSH1 0x0 PUSH2 0x6653 PUSH1 0x2 DUP4 PUSH2 0x6612 JUMP JUMPDEST SWAP2 POP PUSH2 0x665E DUP3 PUSH2 0x661D JUMP JUMPDEST PUSH1 0x2 DUP3 ADD SWAP1 POP SWAP2 SWAP1 POP JUMP JUMPDEST PUSH1 0x0 DUP2 SWAP1 POP SWAP2 SWAP1 POP JUMP JUMPDEST PUSH2 0x6684 PUSH2 0x667F DUP3 PUSH2 0x4DB2 JUMP JUMPDEST PUSH2 0x6669 JUMP JUMPDEST DUP3 MSTORE POP POP JUMP JUMPDEST PUSH1 0x0 PUSH2 0x6695 DUP3 PUSH2 0x6646 JUMP JUMPDEST SWAP2 POP PUSH2 0x66A1 DUP3 DUP6 PUSH2 0x6673 JUMP JUMPDEST PUSH1 0x20 DUP3 ADD SWAP2 POP PUSH2 0x66B1 DUP3 DUP5 PUSH2 0x6673 JUMP JUMPDEST PUSH1 0x20 DUP3 ADD SWAP2 POP DUP2 SWAP1 POP SWAP4 SWAP3 POP POP POP JUMP JUMPDEST PUSH1 0x0 PUSH1 0x80 DUP3 ADD SWAP1 POP PUSH2 0x66D6 PUSH1 0x0 DUP4 ADD DUP8 PUSH2 0x4DBC JUMP JUMPDEST PUSH2 0x66E3 PUSH1 0x20 DUP4 ADD DUP7 PUSH2 0x4EC0 JUMP JUMPDEST PUSH2 0x66F0 PUSH1 0x40 DUP4 ADD DUP6 PUSH2 0x4DBC JUMP JUMPDEST PUSH2 0x66FD PUSH1 0x60 DUP4 ADD DUP5 PUSH2 0x4DBC JUMP JUMPDEST SWAP6 SWAP5 POP POP POP POP POP JUMP JUMPDEST PUSH32 0x455243373231436865636B706F696E7461626C653A3A64656C65676174654279 PUSH1 0x0 DUP3 ADD MSTORE PUSH32 0x5369673A20696E76616C6964207369676E617475726500000000000000000000 PUSH1 0x20 DUP3 ADD MSTORE POP JUMP JUMPDEST PUSH1 0x0 PUSH2 0x6762 PUSH1 0x36 DUP4 PUSH2 0x4BE8 JUMP JUMPDEST SWAP2 POP PUSH2 0x676D DUP3 PUSH2 0x6706 JUMP JUMPDEST PUSH1 0x40 DUP3 ADD SWAP1 POP SWAP2 SWAP1 POP JUMP JUMPDEST PUSH1 0x0 PUSH1 0x20 DUP3 ADD SWAP1 POP DUP2 DUP2 SUB PUSH1 0x0 DUP4 ADD MSTORE PUSH2 0x6791 DUP2 PUSH2 0x6755 JUMP JUMPDEST SWAP1 POP SWAP2 SWAP1 POP JUMP JUMPDEST PUSH32 0x455243373231436865636B706F696E7461626C653A3A64656C65676174654279 PUSH1 0x0 DUP3 ADD MSTORE PUSH32 0x5369673A20696E76616C6964206E6F6E63650000000000000000000000000000 PUSH1 0x20 DUP3 ADD MSTORE POP JUMP JUMPDEST PUSH1 0x0 PUSH2 0x67F4 PUSH1 0x32 DUP4 PUSH2 0x4BE8 JUMP JUMPDEST SWAP2 POP PUSH2 0x67FF DUP3 PUSH2 0x6798 JUMP JUMPDEST PUSH1 0x40 DUP3 ADD SWAP1 POP SWAP2 SWAP1 POP JUMP JUMPDEST PUSH1 0x0 PUSH1 0x20 DUP3 ADD SWAP1 POP DUP2 DUP2 SUB PUSH1 0x0 DUP4 ADD MSTORE PUSH2 0x6823 DUP2 PUSH2 0x67E7 JUMP JUMPDEST SWAP1 POP SWAP2 SWAP1 POP JUMP JUMPDEST PUSH32 0x455243373231436865636B706F696E7461626C653A3A64656C65676174654279 PUSH1 0x0 DUP3 ADD MSTORE PUSH32 0x5369673A207369676E6174757265206578706972656400000000000000000000 PUSH1 0x20 DUP3 ADD MSTORE POP JUMP JUMPDEST PUSH1 0x0 PUSH2 0x6886 PUSH1 0x36 DUP4 PUSH2 0x4BE8 JUMP JUMPDEST SWAP2 POP PUSH2 0x6891 DUP3 PUSH2 0x682A JUMP JUMPDEST PUSH1 0x40 DUP3 ADD SWAP1 POP SWAP2 SWAP1 POP JUMP JUMPDEST PUSH1 0x0 PUSH1 0x20 DUP3 ADD SWAP1 POP DUP2 DUP2 SUB PUSH1 0x0 DUP4 ADD MSTORE PUSH2 0x68B5 DUP2 PUSH2 0x6879 JUMP JUMPDEST SWAP1 POP SWAP2 SWAP1 POP JUMP JUMPDEST PUSH32 0x697066733A2F2F00000000000000000000000000000000000000000000000000 PUSH1 0x0 DUP3 ADD MSTORE POP JUMP JUMPDEST PUSH1 0x0 PUSH2 0x68F2 PUSH1 0x7 DUP4 PUSH2 0x6612 JUMP JUMPDEST SWAP2 POP PUSH2 0x68FD DUP3 PUSH2 0x68BC JUMP JUMPDEST PUSH1 0x7 DUP3 ADD SWAP1 POP SWAP2 SWAP1 POP JUMP JUMPDEST PUSH1 0x0 DUP2 SLOAD PUSH2 0x6915 DUP2 PUSH2 0x56F3 JUMP JUMPDEST PUSH2 0x691F DUP2 DUP7 PUSH2 0x6612 JUMP JUMPDEST SWAP5 POP PUSH1 0x1 DUP3 AND PUSH1 0x0 DUP2 EQ PUSH2 0x693A JUMPI PUSH1 0x1 DUP2 EQ PUSH2 0x694F JUMPI PUSH2 0x6982 JUMP JUMPDEST PUSH1 0xFF NOT DUP4 AND DUP7 MSTORE DUP2 ISZERO ISZERO DUP3 MUL DUP7 ADD SWAP4 POP PUSH2 0x6982 JUMP JUMPDEST PUSH2 0x6958 DUP6 PUSH2 0x6314 JUMP JUMPDEST PUSH1 0x0 JUMPDEST DUP4 DUP2 LT ISZERO PUSH2 0x697A JUMPI DUP2 SLOAD DUP2 DUP10 ADD MSTORE PUSH1 0x1 DUP3 ADD SWAP2 POP PUSH1 0x20 DUP2 ADD SWAP1 POP PUSH2 0x695B JUMP JUMPDEST DUP4 DUP9 ADD SWAP6 POP POP POP JUMPDEST POP POP POP SWAP3 SWAP2 POP POP JUMP JUMPDEST PUSH1 0x0 PUSH2 0x6996 DUP3 PUSH2 0x68E5 JUMP JUMPDEST SWAP2 POP PUSH2 0x69A2 DUP3 DUP5 PUSH2 0x6908 JUMP JUMPDEST SWAP2 POP DUP2 SWAP1 POP SWAP3 SWAP2 POP POP JUMP JUMPDEST PUSH1 0x0 DUP2 MLOAD SWAP1 POP PUSH2 0x69BC DUP2 PUSH2 0x4D1C JUMP JUMPDEST SWAP3 SWAP2 POP POP JUMP JUMPDEST PUSH1 0x0 PUSH1 0x20 DUP3 DUP5 SUB SLT ISZERO PUSH2 0x69D8 JUMPI PUSH2 0x69D7 PUSH2 0x4A7B JUMP JUMPDEST JUMPDEST PUSH1 0x0 PUSH2 0x69E6 DUP5 DUP3 DUP6 ADD PUSH2 0x69AD JUMP JUMPDEST SWAP2 POP POP SWAP3 SWAP2 POP POP JUMP JUMPDEST PUSH32 0x4F776E61626C653A206E6577206F776E657220697320746865207A65726F2061 PUSH1 0x0 DUP3 ADD MSTORE PUSH32 0x6464726573730000000000000000000000000000000000000000000000000000 PUSH1 0x20 DUP3 ADD MSTORE POP JUMP JUMPDEST PUSH1 0x0 PUSH2 0x6A4B PUSH1 0x26 DUP4 PUSH2 0x4BE8 JUMP JUMPDEST SWAP2 POP PUSH2 0x6A56 DUP3 PUSH2 0x69EF JUMP JUMPDEST PUSH1 0x40 DUP3 ADD SWAP1 POP SWAP2 SWAP1 POP JUMP JUMPDEST PUSH1 0x0 PUSH1 0x20 DUP3 ADD SWAP1 POP DUP2 DUP2 SUB PUSH1 0x0 DUP4 ADD MSTORE PUSH2 0x6A7A DUP2 PUSH2 0x6A3E JUMP JUMPDEST SWAP1 POP SWAP2 SWAP1 POP JUMP JUMPDEST PUSH1 0x0 PUSH1 0x40 DUP3 ADD SWAP1 POP PUSH2 0x6A96 PUSH1 0x0 DUP4 ADD DUP6 PUSH2 0x4D88 JUMP JUMPDEST PUSH2 0x6AA3 PUSH1 0x20 DUP4 ADD DUP5 PUSH2 0x4E89 JUMP JUMPDEST SWAP4 SWAP3 POP POP POP JUMP JUMPDEST PUSH1 0x0 DUP1 REVERT JUMPDEST PUSH2 0x6AB8 DUP2 PUSH2 0x54A9 JUMP JUMPDEST DUP2 EQ PUSH2 0x6AC3 JUMPI PUSH1 0x0 DUP1 REVERT JUMPDEST POP JUMP JUMPDEST PUSH1 0x0 DUP2 MLOAD SWAP1 POP PUSH2 0x6AD5 DUP2 PUSH2 0x6AAF JUMP JUMPDEST SWAP3 SWAP2 POP POP JUMP JUMPDEST PUSH1 0x0 PUSH2 0x120 DUP3 DUP5 SUB SLT ISZERO PUSH2 0x6AF2 JUMPI PUSH2 0x6AF1 PUSH2 0x6AAA JUMP JUMPDEST JUMPDEST PUSH2 0x6AFD PUSH2 0x120 PUSH2 0x50E1 JUMP JUMPDEST SWAP1 POP PUSH1 0x0 PUSH2 0x6B0D DUP5 DUP3 DUP6 ADD PUSH2 0x6AC6 JUMP JUMPDEST PUSH1 0x0 DUP4 ADD MSTORE POP PUSH1 0x20 PUSH2 0x6B21 DUP5 DUP3 DUP6 ADD PUSH2 0x6AC6 JUMP JUMPDEST PUSH1 0x20 DUP4 ADD MSTORE POP PUSH1 0x40 PUSH2 0x6B35 DUP5 DUP3 DUP6 ADD PUSH2 0x6AC6 JUMP JUMPDEST PUSH1 0x40 DUP4 ADD MSTORE POP PUSH1 0x60 PUSH2 0x6B49 DUP5 DUP3 DUP6 ADD PUSH2 0x6AC6 JUMP JUMPDEST PUSH1 0x60 DUP4 ADD MSTORE POP PUSH1 0x80 PUSH2 0x6B5D DUP5 DUP3 DUP6 ADD PUSH2 0x6AC6 JUMP JUMPDEST PUSH1 0x80 DUP4 ADD MSTORE POP PUSH1 0xA0 PUSH2 0x6B71 DUP5 DUP3 DUP6 ADD PUSH2 0x6AC6 JUMP JUMPDEST PUSH1 0xA0 DUP4 ADD MSTORE POP PUSH1 0xC0 PUSH2 0x6B85 DUP5 DUP3 DUP6 ADD PUSH2 0x6AC6 JUMP JUMPDEST PUSH1 0xC0 DUP4 ADD MSTORE POP PUSH1 0xE0 PUSH2 0x6B99 DUP5 DUP3 DUP6 ADD PUSH2 0x6AC6 JUMP JUMPDEST PUSH1 0xE0 DUP4 ADD MSTORE POP PUSH2 0x100 PUSH2 0x6BAE DUP5 DUP3 DUP6 ADD PUSH2 0x6AC6 JUMP JUMPDEST PUSH2 0x100 DUP4 ADD MSTORE POP SWAP3 SWAP2 POP POP JUMP JUMPDEST PUSH1 0x0 PUSH2 0x120 DUP3 DUP5 SUB SLT ISZERO PUSH2 0x6BD2 JUMPI PUSH2 0x6BD1 PUSH2 0x4A7B JUMP JUMPDEST JUMPDEST PUSH1 0x0 PUSH2 0x6BE0 DUP5 DUP3 DUP6 ADD PUSH2 0x6ADB JUMP JUMPDEST SWAP2 POP POP SWAP3 SWAP2 POP POP JUMP JUMPDEST PUSH2 0x120 DUP3 ADD PUSH1 0x0 DUP3 ADD MLOAD PUSH2 0x6C00 PUSH1 0x0 DUP6 ADD DUP3 PUSH2 0x5D39 JUMP JUMPDEST POP PUSH1 0x20 DUP3 ADD MLOAD PUSH2 0x6C13 PUSH1 0x20 DUP6 ADD DUP3 PUSH2 0x5D39 JUMP JUMPDEST POP PUSH1 0x40 DUP3 ADD MLOAD PUSH2 0x6C26 PUSH1 0x40 DUP6 ADD DUP3 PUSH2 0x5D39 JUMP JUMPDEST POP PUSH1 0x60 DUP3 ADD MLOAD PUSH2 0x6C39 PUSH1 0x60 DUP6 ADD DUP3 PUSH2 0x5D39 JUMP JUMPDEST POP PUSH1 0x80 DUP3 ADD MLOAD PUSH2 0x6C4C PUSH1 0x80 DUP6 ADD DUP3 PUSH2 0x5D39 JUMP JUMPDEST POP PUSH1 0xA0 DUP3 ADD MLOAD PUSH2 0x6C5F PUSH1 0xA0 DUP6 ADD DUP3 PUSH2 0x5D39 JUMP JUMPDEST POP PUSH1 0xC0 DUP3 ADD MLOAD PUSH2 0x6C72 PUSH1 0xC0 DUP6 ADD DUP3 PUSH2 0x5D39 JUMP JUMPDEST POP PUSH1 0xE0 DUP3 ADD MLOAD PUSH2 0x6C85 PUSH1 0xE0 DUP6 ADD DUP3 PUSH2 0x5D39 JUMP JUMPDEST POP PUSH2 0x100 DUP3 ADD MLOAD PUSH2 0x6C9A PUSH2 0x100 DUP6 ADD DUP3 PUSH2 0x5D39 JUMP JUMPDEST POP POP POP POP JUMP JUMPDEST PUSH1 0x0 PUSH2 0x120 DUP3 ADD SWAP1 POP PUSH2 0x6CB6 PUSH1 0x0 DUP4 ADD DUP5 PUSH2 0x6BE9 JUMP JUMPDEST SWAP3 SWAP2 POP POP JUMP JUMPDEST PUSH32 0x4552433732313A206F70657261746F7220717565727920666F72206E6F6E6578 PUSH1 0x0 DUP3 ADD MSTORE PUSH32 0x697374656E7420746F6B656E0000000000000000000000000000000000000000 PUSH1 0x20 DUP3 ADD MSTORE POP JUMP JUMPDEST PUSH1 0x0 PUSH2 0x6D18 PUSH1 0x2C DUP4 PUSH2 0x4BE8 JUMP JUMPDEST SWAP2 POP PUSH2 0x6D23 DUP3 PUSH2 0x6CBC JUMP JUMPDEST PUSH1 0x40 DUP3 ADD SWAP1 POP SWAP2 SWAP1 POP JUMP JUMPDEST PUSH1 0x0 PUSH1 0x20 DUP3 ADD SWAP1 POP DUP2 DUP2 SUB PUSH1 0x0 DUP4 ADD MSTORE PUSH2 0x6D47 DUP2 PUSH2 0x6D0B JUMP JUMPDEST SWAP1 POP SWAP2 SWAP1 POP JUMP JUMPDEST PUSH32 0x4552433732313A207472616E73666572206F6620746F6B656E20746861742069 PUSH1 0x0 DUP3 ADD MSTORE PUSH32 0x73206E6F74206F776E0000000000000000000000000000000000000000000000 PUSH1 0x20 DUP3 ADD MSTORE POP JUMP JUMPDEST PUSH1 0x0 PUSH2 0x6DAA PUSH1 0x29 DUP4 PUSH2 0x4BE8 JUMP JUMPDEST SWAP2 POP PUSH2 0x6DB5 DUP3 PUSH2 0x6D4E JUMP JUMPDEST PUSH1 0x40 DUP3 ADD SWAP1 POP SWAP2 SWAP1 POP JUMP JUMPDEST PUSH1 0x0 PUSH1 0x20 DUP3 ADD SWAP1 POP DUP2 DUP2 SUB PUSH1 0x0 DUP4 ADD MSTORE PUSH2 0x6DD9 DUP2 PUSH2 0x6D9D JUMP JUMPDEST SWAP1 POP SWAP2 SWAP1 POP JUMP JUMPDEST PUSH32 0x4552433732313A207472616E7366657220746F20746865207A65726F20616464 PUSH1 0x0 DUP3 ADD MSTORE PUSH32 0x7265737300000000000000000000000000000000000000000000000000000000 PUSH1 0x20 DUP3 ADD MSTORE POP JUMP JUMPDEST PUSH1 0x0 PUSH2 0x6E3C PUSH1 0x24 DUP4 PUSH2 0x4BE8 JUMP JUMPDEST SWAP2 POP PUSH2 0x6E47 DUP3 PUSH2 0x6DE0 JUMP JUMPDEST PUSH1 0x40 DUP3 ADD SWAP1 POP SWAP2 SWAP1 POP JUMP JUMPDEST PUSH1 0x0 PUSH1 0x20 DUP3 ADD SWAP1 POP DUP2 DUP2 SUB PUSH1 0x0 DUP4 ADD MSTORE PUSH2 0x6E6B DUP2 PUSH2 0x6E2F JUMP JUMPDEST SWAP1 POP SWAP2 SWAP1 POP JUMP JUMPDEST PUSH1 0x0 PUSH2 0x6E7D DUP3 PUSH2 0x4CB9 JUMP JUMPDEST SWAP2 POP PUSH2 0x6E88 DUP4 PUSH2 0x4CB9 JUMP JUMPDEST SWAP3 POP DUP3 DUP3 SUB SWAP1 POP DUP2 DUP2 GT ISZERO PUSH2 0x6EA0 JUMPI PUSH2 0x6E9F PUSH2 0x59A6 JUMP JUMPDEST JUMPDEST SWAP3 SWAP2 POP POP JUMP JUMPDEST PUSH1 0x0 PUSH2 0x6EB1 DUP3 PUSH2 0x4CB9 JUMP JUMPDEST SWAP2 POP PUSH2 0x6EBC DUP4 PUSH2 0x4CB9 JUMP JUMPDEST SWAP3 POP DUP3 DUP3 ADD SWAP1 POP DUP1 DUP3 GT ISZERO PUSH2 0x6ED4 JUMPI PUSH2 0x6ED3 PUSH2 0x59A6 JUMP JUMPDEST JUMPDEST SWAP3 SWAP2 POP POP JUMP JUMPDEST PUSH32 0x4552433732313A207472616E7366657220746F206E6F6E204552433732315265 PUSH1 0x0 DUP3 ADD MSTORE PUSH32 0x63656976657220696D706C656D656E7465720000000000000000000000000000 PUSH1 0x20 DUP3 ADD MSTORE POP JUMP JUMPDEST PUSH1 0x0 PUSH2 0x6F36 PUSH1 0x32 DUP4 PUSH2 0x4BE8 JUMP JUMPDEST SWAP2 POP PUSH2 0x6F41 DUP3 PUSH2 0x6EDA JUMP JUMPDEST PUSH1 0x40 DUP3 ADD SWAP1 POP SWAP2 SWAP1 POP JUMP JUMPDEST PUSH1 0x0 PUSH1 0x20 DUP3 ADD SWAP1 POP DUP2 DUP2 SUB PUSH1 0x0 DUP4 ADD MSTORE PUSH2 0x6F65 DUP2 PUSH2 0x6F29 JUMP JUMPDEST SWAP1 POP SWAP2 SWAP1 POP JUMP JUMPDEST PUSH32 0x4552433732313A206D696E7420746F20746865207A65726F2061646472657373 PUSH1 0x0 DUP3 ADD MSTORE POP JUMP JUMPDEST PUSH1 0x0 PUSH2 0x6FA2 PUSH1 0x20 DUP4 PUSH2 0x4BE8 JUMP JUMPDEST SWAP2 POP PUSH2 0x6FAD DUP3 PUSH2 0x6F6C JUMP JUMPDEST PUSH1 0x20 DUP3 ADD SWAP1 POP SWAP2 SWAP1 POP JUMP JUMPDEST PUSH1 0x0 PUSH1 0x20 DUP3 ADD SWAP1 POP DUP2 DUP2 SUB PUSH1 0x0 DUP4 ADD MSTORE PUSH2 0x6FD1 DUP2 PUSH2 0x6F95 JUMP JUMPDEST SWAP1 POP SWAP2 SWAP1 POP JUMP JUMPDEST PUSH32 0x4552433732313A20746F6B656E20616C7265616479206D696E74656400000000 PUSH1 0x0 DUP3 ADD MSTORE POP JUMP JUMPDEST PUSH1 0x0 PUSH2 0x700E PUSH1 0x1C DUP4 PUSH2 0x4BE8 JUMP JUMPDEST SWAP2 POP PUSH2 0x7019 DUP3 PUSH2 0x6FD8 JUMP JUMPDEST PUSH1 0x20 DUP3 ADD SWAP1 POP SWAP2 SWAP1 POP JUMP JUMPDEST PUSH1 0x0 PUSH1 0x20 DUP3 ADD SWAP1 POP DUP2 DUP2 SUB PUSH1 0x0 DUP4 ADD MSTORE PUSH2 0x703D DUP2 PUSH2 0x7001 JUMP JUMPDEST SWAP1 POP SWAP2 SWAP1 POP JUMP JUMPDEST PUSH1 0x0 DUP2 MLOAD SWAP1 POP SWAP2 SWAP1 POP JUMP JUMPDEST PUSH1 0x0 DUP3 DUP3 MSTORE PUSH1 0x20 DUP3 ADD SWAP1 POP SWAP3 SWAP2 POP POP JUMP JUMPDEST PUSH1 0x0 PUSH2 0x706B DUP3 PUSH2 0x7044 JUMP JUMPDEST PUSH2 0x7075 DUP2 DUP6 PUSH2 0x704F JUMP JUMPDEST SWAP4 POP PUSH2 0x7085 DUP2 DUP6 PUSH1 0x20 DUP7 ADD PUSH2 0x4BF9 JUMP JUMPDEST PUSH2 0x708E DUP2 PUSH2 0x4C23 JUMP JUMPDEST DUP5 ADD SWAP2 POP POP SWAP3 SWAP2 POP POP JUMP JUMPDEST PUSH1 0x0 PUSH1 0x80 DUP3 ADD SWAP1 POP PUSH2 0x70AE PUSH1 0x0 DUP4 ADD DUP8 PUSH2 0x4C8F JUMP JUMPDEST PUSH2 0x70BB PUSH1 0x20 DUP4 ADD DUP7 PUSH2 0x4C8F JUMP JUMPDEST PUSH2 0x70C8 PUSH1 0x40 DUP4 ADD DUP6 PUSH2 0x4D88 JUMP JUMPDEST DUP2 DUP2 SUB PUSH1 0x60 DUP4 ADD MSTORE PUSH2 0x70DA DUP2 DUP5 PUSH2 0x7060 JUMP JUMPDEST SWAP1 POP SWAP6 SWAP5 POP POP POP POP POP JUMP JUMPDEST PUSH1 0x0 DUP2 MLOAD SWAP1 POP PUSH2 0x70F4 DUP2 PUSH2 0x4B4E JUMP JUMPDEST SWAP3 SWAP2 POP POP JUMP JUMPDEST PUSH1 0x0 PUSH1 0x20 DUP3 DUP5 SUB SLT ISZERO PUSH2 0x7110 JUMPI PUSH2 0x710F PUSH2 0x4A7B JUMP JUMPDEST JUMPDEST PUSH1 0x0 PUSH2 0x711E DUP5 DUP3 DUP6 ADD PUSH2 0x70E5 JUMP JUMPDEST SWAP2 POP POP SWAP3 SWAP2 POP POP JUMP JUMPDEST PUSH1 0x0 PUSH2 0x7132 DUP3 PUSH2 0x4F8D JUMP JUMPDEST SWAP2 POP PUSH2 0x713D DUP4 PUSH2 0x4F8D JUMP JUMPDEST SWAP3 POP DUP3 DUP3 SUB SWAP1 POP PUSH12 0xFFFFFFFFFFFFFFFFFFFFFFFF DUP2 GT ISZERO PUSH2 0x7161 JUMPI PUSH2 0x7160 PUSH2 0x59A6 JUMP JUMPDEST JUMPDEST SWAP3 SWAP2 POP POP JUMP JUMPDEST PUSH1 0x0 PUSH2 0x7172 DUP3 PUSH2 0x4F53 JUMP JUMPDEST SWAP2 POP PUSH2 0x717D DUP4 PUSH2 0x4F53 JUMP JUMPDEST SWAP3 POP DUP3 DUP3 ADD SWAP1 POP PUSH4 0xFFFFFFFF DUP2 GT ISZERO PUSH2 0x7199 JUMPI PUSH2 0x7198 PUSH2 0x59A6 JUMP JUMPDEST JUMPDEST SWAP3 SWAP2 POP POP JUMP JUMPDEST PUSH1 0x0 PUSH2 0x71BA PUSH2 0x71B5 PUSH2 0x71B0 DUP5 PUSH2 0x4F8D JUMP JUMPDEST PUSH2 0x4E39 JUMP JUMPDEST PUSH2 0x4CB9 JUMP JUMPDEST SWAP1 POP SWAP2 SWAP1 POP JUMP JUMPDEST PUSH2 0x71CA DUP2 PUSH2 0x719F JUMP JUMPDEST DUP3 MSTORE POP POP JUMP JUMPDEST PUSH1 0x0 PUSH1 0x40 DUP3 ADD SWAP1 POP PUSH2 0x71E5 PUSH1 0x0 DUP4 ADD DUP6 PUSH2 0x71C1 JUMP JUMPDEST PUSH2 0x71F2 PUSH1 0x20 DUP4 ADD DUP5 PUSH2 0x71C1 JUMP JUMPDEST SWAP4 SWAP3 POP POP POP JUMP JUMPDEST PUSH1 0x0 PUSH2 0x7204 DUP3 PUSH2 0x4F8D JUMP JUMPDEST SWAP2 POP PUSH2 0x720F DUP4 PUSH2 0x4F8D JUMP JUMPDEST SWAP3 POP DUP3 DUP3 ADD SWAP1 POP PUSH12 0xFFFFFFFFFFFFFFFFFFFFFFFF DUP2 GT ISZERO PUSH2 0x7233 JUMPI PUSH2 0x7232 PUSH2 0x59A6 JUMP JUMPDEST JUMPDEST SWAP3 SWAP2 POP POP JUMP JUMPDEST PUSH32 0x4E487B7100000000000000000000000000000000000000000000000000000000 PUSH1 0x0 MSTORE PUSH1 0x31 PUSH1 0x4 MSTORE PUSH1 0x24 PUSH1 0x0 REVERT INVALID GASLIMIT MSTORE NUMBER CALLDATACOPY ORIGIN BALANCE NUMBER PUSH9 0x65636B706F696E7461 PUSH3 0x6C653A GASPRICE PUSH0 PUSH14 0x6F766544656C6567617465733A20 PUSH2 0x6D6F PUSH22 0x6E74206F766572666C6F777345524337323143686563 PUSH12 0x706F696E7461626C653A3A5F PUSH24 0x72697465436865636B706F696E743A20626C6F636B206E75 PUSH14 0x6265722065786365656473203332 KECCAK256 PUSH3 0x697473 GASLIMIT MSTORE NUMBER CALLDATACOPY ORIGIN BALANCE NUMBER PUSH9 0x65636B706F696E7461 PUSH3 0x6C653A GASPRICE PUSH23 0x6F746573546F44656C65676174653A20616D6F756E7420 PUSH6 0x786365656473 KECCAK256 CODECOPY CALLDATASIZE KECCAK256 PUSH3 0x697473 GASLIMIT MSTORE NUMBER CALLDATACOPY ORIGIN BALANCE NUMBER PUSH9 0x65636B706F696E7461 PUSH3 0x6C653A GASPRICE PUSH0 PUSH14 0x6F766544656C6567617465733A20 PUSH2 0x6D6F PUSH22 0x6E7420756E646572666C6F7773A26469706673582212 KECCAK256 GAS DUP16 SWAP5 SWAP13 PUSH12 0xEDB5500F807E5695F6BBF6F8 ISZERO 0xB8 0x21 MUL CALLVALUE 0xD2 0xEC PUSH30 0x442C14442BFC4364736F6C634300081A0033516D524A5244585A46356337 MLOAD PUSH8 0x6967757631724B4D COINBASE MSIZE MSTORE8 JUMPI NUMBER POP COINBASE GASLIMIT PUSH11 0x7275646862657764315372 BALANCE PUSH26 0x4C43000000000000000000000000000000000000000000000000 "},"methodIdentifiers":{"DELEGATION_TYPEHASH()":"e7a324dc","DOMAIN_TYPEHASH()":"20606b70","approve(address,uint256)":"095ea7b3","balanceOf(address)":"70a08231","burn(uint256)":"42966c68","checkpoints(address,uint32)":"f1127ed8","contractURI()":"e8a3d485","dataURI(uint256)":"5ac1e3bb","decimals()":"313ce567","delegate(address)":"5c19a95c","delegateBySig(address,uint256,uint256,uint8,bytes32,bytes32)":"c3cda520","delegates(address)":"587cde1e","descriptor()":"303e74df","getApproved(uint256)":"081812fc","getCurrentVotes(address)":"b4b5ea57","getPriorVotes(address,uint256)":"782d6fe1","isApprovedForAll(address,address)":"e985e9c5","isDescriptorLocked()":"c1b8e4e1","isMinterLocked()":"1e688e10","isSeedLocked()":"f2555725","koalasersDAO()":"2dc2b880","lockDescriptor()":"41b5d0de","lockMinter()":"76daebe1","lockSeeder()":"5f295a67","mint()":"1249c58b","minter()":"07546172","name()":"06fdde03","nonces(address)":"7ecebe00","numCheckpoints(address)":"6fcfff45","owner()":"8da5cb5b","ownerOf(uint256)":"6352211e","proxyRegistry()":"b50cbd9f","renounceOwnership()":"715018a6","safeTransferFrom(address,address,uint256)":"42842e0e","safeTransferFrom(address,address,uint256,bytes)":"b88d4fde","seeder()":"684931ed","seeds(uint256)":"f0503e80","setApprovalForAll(address,bool)":"a22cb465","setContractURIHash(string)":"baedc1c4","setDescriptor(address)":"01b9a397","setKoalasDAO(address)":"4b664998","setMinter(address)":"fca3b5aa","setSeeder(address)":"d50b31eb","supportsInterface(bytes4)":"01ffc9a7","symbol()":"95d89b41","tokenByIndex(uint256)":"4f6ccce7","tokenOfOwnerByIndex(address,uint256)":"2f745c59","tokenURI(uint256)":"c87b56dd","totalSupply()":"18160ddd","transferFrom(address,address,uint256)":"23b872dd","transferOwnership(address)":"f2fde38b","votesToDelegate(address)":"e9580e91"}}}}}